{
	"src/adapters/BastionLeverageAdapterV2.sol": {
		"BastionLeverageAdapterV2": {
			"abi": [
				{
					"inputs": [
						{
							"internalType": "address",
							"name": "_vault",
							"type": "address"
						},
						{
							"internalType": "address",
							"name": "_oracle",
							"type": "address"
						}
					],
					"stateMutability": "nonpayable",
					"type": "constructor"
				},
				{
					"inputs": [],
					"name": "AmountZero",
					"type": "error"
				},
				{
					"inputs": [],
					"name": "OnlyVault",
					"type": "error"
				},
				{
					"inputs": [],
					"name": "SlippageExceeded",
					"type": "error"
				},
				{
					"anonymous": false,
					"inputs": [
						{
							"indexed": false,
							"internalType": "uint256",
							"name": "assetsReturned",
							"type": "uint256"
						}
					],
					"name": "Deleveraged",
					"type": "event"
				},
				{
					"anonymous": false,
					"inputs": [
						{
							"indexed": false,
							"internalType": "uint256",
							"name": "assetsIn",
							"type": "uint256"
						},
						{
							"indexed": false,
							"internalType": "uint256",
							"name": "collateralAdded",
							"type": "uint256"
						}
					],
					"name": "Leveraged",
					"type": "event"
				},
				{
					"inputs": [],
					"name": "CETES",
					"outputs": [
						{
							"internalType": "contract IERC20",
							"name": "",
							"type": "address"
						}
					],
					"stateMutability": "view",
					"type": "function"
				},
				{
					"inputs": [],
					"name": "MARKET_ID",
					"outputs": [
						{
							"internalType": "bytes32",
							"name": "",
							"type": "bytes32"
						}
					],
					"stateMutability": "view",
					"type": "function"
				},
				{
					"inputs": [],
					"name": "MORPHO",
					"outputs": [
						{
							"internalType": "contract IMorpho",
							"name": "",
							"type": "address"
						}
					],
					"stateMutability": "view",
					"type": "function"
				},
				{
					"inputs": [],
					"name": "ROUTER",
					"outputs": [
						{
							"internalType": "contract ISlipstreamRouter",
							"name": "",
							"type": "address"
						}
					],
					"stateMutability": "view",
					"type": "function"
				},
				{
					"inputs": [],
					"name": "TICK_SPACING",
					"outputs": [
						{
							"internalType": "int24",
							"name": "",
							"type": "int24"
						}
					],
					"stateMutability": "view",
					"type": "function"
				},
				{
					"inputs": [],
					"name": "USDC",
					"outputs": [
						{
							"internalType": "contract IERC20",
							"name": "",
							"type": "address"
						}
					],
					"stateMutability": "view",
					"type": "function"
				},
				{
					"inputs": [],
					"name": "VAULT",
					"outputs": [
						{
							"internalType": "address",
							"name": "",
							"type": "address"
						}
					],
					"stateMutability": "view",
					"type": "function"
				},
				{
					"inputs": [],
					"name": "adapterId",
					"outputs": [
						{
							"internalType": "bytes32",
							"name": "",
							"type": "bytes32"
						}
					],
					"stateMutability": "view",
					"type": "function"
				},
				{
					"inputs": [],
					"name": "asset",
					"outputs": [
						{
							"internalType": "address",
							"name": "",
							"type": "address"
						}
					],
					"stateMutability": "pure",
					"type": "function"
				},
				{
					"inputs": [],
					"name": "marketParams",
					"outputs": [
						{
							"internalType": "address",
							"name": "loanToken",
							"type": "address"
						},
						{
							"internalType": "address",
							"name": "collateralToken",
							"type": "address"
						},
						{
							"internalType": "address",
							"name": "oracle",
							"type": "address"
						},
						{
							"internalType": "address",
							"name": "irm",
							"type": "address"
						},
						{
							"internalType": "uint256",
							"name": "lltv",
							"type": "uint256"
						}
					],
					"stateMutability": "view",
					"type": "function"
				},
				{
					"inputs": [],
					"name": "name",
					"outputs": [
						{
							"internalType": "string",
							"name": "",
							"type": "string"
						}
					],
					"stateMutability": "pure",
					"type": "function"
				},
				{
					"inputs": [
						{
							"internalType": "uint256",
							"name": "assets",
							"type": "uint256"
						},
						{
							"internalType": "address",
							"name": "",
							"type": "address"
						},
						{
							"internalType": "bytes",
							"name": "",
							"type": "bytes"
						}
					],
					"name": "supply",
					"outputs": [],
					"stateMutability": "nonpayable",
					"type": "function"
				},
				{
					"inputs": [],
					"name": "totalAssets",
					"outputs": [
						{
							"internalType": "uint256",
							"name": "",
							"type": "uint256"
						}
					],
					"stateMutability": "view",
					"type": "function"
				},
				{
					"inputs": [
						{
							"internalType": "uint256",
							"name": "assets",
							"type": "uint256"
						},
						{
							"internalType": "address",
							"name": "receiver",
							"type": "address"
						},
						{
							"internalType": "bytes",
							"name": "",
							"type": "bytes"
						}
					],
					"name": "withdraw",
					"outputs": [],
					"stateMutability": "nonpayable",
					"type": "function"
				}
			],
			"devdoc": {
				"kind": "dev",
				"methods": {},
				"version": 1
			},
			"evm": {
				"assembly": "    /* \"src/adapters/BastionLeverageAdapterV2.sol\":5117:16054  contract BastionLeverageAdapterV2 {... */\n  mstore(0x40, 0x0140)\n    /* \"src/adapters/BastionLeverageAdapterV2.sol\":6936:7922  constructor(address _vault, address _oracle) {... */\n  callvalue\n  dup1\n  iszero\n  tag_1\n  jumpi\n  0x00\n  dup1\n  revert\ntag_1:\n  pop\n  mload(0x40)\n  sub(codesize, bytecodeSize)\n  dup1\n  bytecodeSize\n  dup4\n  codecopy\n  dup2\n  dup2\n  add\n  0x40\n  mstore\n  dup2\n  add\n  swap1\n  tag_2\n  swap2\n  swap1\n  tag_3\n  jump\t// in\ntag_2:\n    /* \"src/adapters/BastionLeverageAdapterV2.sol\":7018:7019  0 */\n  0x00\n    /* \"src/adapters/BastionLeverageAdapterV2.sol\":7000:7020  _vault != address(0) */\n  0xffffffffffffffffffffffffffffffffffffffff\n  and\n    /* \"src/adapters/BastionLeverageAdapterV2.sol\":7000:7006  _vault */\n  dup3\n    /* \"src/adapters/BastionLeverageAdapterV2.sol\":7000:7020  _vault != address(0) */\n  0xffffffffffffffffffffffffffffffffffffffff\n  and\n  sub\n    /* \"src/adapters/BastionLeverageAdapterV2.sol\":6992:7038  require(_vault != address(0), \"Invalid Vault\") */\n  tag_6\n  jumpi\n  mload(0x40)\n  0x08c379a000000000000000000000000000000000000000000000000000000000\n  dup2\n  mstore\n  0x04\n  add\n  tag_7\n  swap1\n  tag_8\n  jump\t// in\ntag_7:\n  mload(0x40)\n  dup1\n  swap2\n  sub\n  swap1\n  revert\ntag_6:\n    /* \"src/adapters/BastionLeverageAdapterV2.sol\":7076:7077  0 */\n  0x00\n    /* \"src/adapters/BastionLeverageAdapterV2.sol\":7057:7078  _oracle != address(0) */\n  0xffffffffffffffffffffffffffffffffffffffff\n  and\n    /* \"src/adapters/BastionLeverageAdapterV2.sol\":7057:7064  _oracle */\n  dup2\n    /* \"src/adapters/BastionLeverageAdapterV2.sol\":7057:7078  _oracle != address(0) */\n  0xffffffffffffffffffffffffffffffffffffffff\n  and\n  sub\n    /* \"src/adapters/BastionLeverageAdapterV2.sol\":7049:7097  require(_oracle != address(0), \"Invalid Oracle\") */\n  tag_9\n  jumpi\n  mload(0x40)\n  0x08c379a000000000000000000000000000000000000000000000000000000000\n  dup2\n  mstore\n  0x04\n  add\n  tag_10\n  swap1\n  tag_11\n  jump\t// in\ntag_10:\n  mload(0x40)\n  dup1\n  swap2\n  sub\n  swap1\n  revert\ntag_9:\n    /* \"src/adapters/BastionLeverageAdapterV2.sol\":7118:7124  _vault */\n  dup2\n    /* \"src/adapters/BastionLeverageAdapterV2.sol\":7110:7124  VAULT = _vault */\n  0xffffffffffffffffffffffffffffffffffffffff\n  and\n  0x0100\n  dup2\n  0xffffffffffffffffffffffffffffffffffffffff\n  and\n  dup2\n  mstore\n  pop\n  pop\n    /* \"src/adapters/BastionLeverageAdapterV2.sol\":7214:7407  IMorpho.MarketParams({... */\n  mload(0x40)\n  dup1\n  0xa0\n  add\n  0x40\n  mstore\n  dup1\n    /* \"src/adapters/BastionLeverageAdapterV2.sol\":5360:5402  0x833589fCD6eDb6E08f4c7C32D4f71b54bdA02913 */\n  0x833589fcd6edb6e08f4c7c32d4f71b54bda02913\n    /* \"src/adapters/BastionLeverageAdapterV2.sol\":7214:7407  IMorpho.MarketParams({... */\n  0xffffffffffffffffffffffffffffffffffffffff\n  and\n  dup2\n  mstore\n  0x20\n  add\n    /* \"src/adapters/BastionLeverageAdapterV2.sol\":5447:5489  0x834df4C1d8f51Be24322E39e4766697BE015512F */\n  0x834df4c1d8f51be24322e39e4766697be015512f\n    /* \"src/adapters/BastionLeverageAdapterV2.sol\":7214:7407  IMorpho.MarketParams({... */\n  0xffffffffffffffffffffffffffffffffffffffff\n  and\n  dup2\n  mstore\n  0x20\n  add\n    /* \"src/adapters/BastionLeverageAdapterV2.sol\":7335:7342  _oracle */\n  dup3\n    /* \"src/adapters/BastionLeverageAdapterV2.sol\":7214:7407  IMorpho.MarketParams({... */\n  0xffffffffffffffffffffffffffffffffffffffff\n  and\n  dup2\n  mstore\n  0x20\n  add\n    /* \"src/adapters/BastionLeverageAdapterV2.sol\":5752:5794  0x870aC11D48B15DB9a138Cf899d20F13F79Ba00BC */\n  0x870ac11d48b15db9a138cf899d20f13f79ba00bc\n    /* \"src/adapters/BastionLeverageAdapterV2.sol\":7214:7407  IMorpho.MarketParams({... */\n  0xffffffffffffffffffffffffffffffffffffffff\n  and\n  dup2\n  mstore\n  0x20\n  add\n    /* \"src/adapters/BastionLeverageAdapterV2.sol\":5866:5884  860000000000000000 */\n  0x0bef55718ad60000\n    /* \"src/adapters/BastionLeverageAdapterV2.sol\":7214:7407  IMorpho.MarketParams({... */\n  dup2\n  mstore\n  pop\n    /* \"src/adapters/BastionLeverageAdapterV2.sol\":7199:7211  marketParams */\n  0x00\n    /* \"src/adapters/BastionLeverageAdapterV2.sol\":7199:7407  marketParams = IMorpho.MarketParams({... */\n  dup1\n  dup3\n  add\n  mload\n  dup2\n  0x00\n  add\n  exp(0x0100, 0x00)\n  dup2\n  sload\n  dup2\n  0xffffffffffffffffffffffffffffffffffffffff\n  mul\n  not\n  and\n  swap1\n  dup4\n  0xffffffffffffffffffffffffffffffffffffffff\n  and\n  mul\n  or\n  swap1\n  sstore\n  pop\n  0x20\n  dup3\n  add\n  mload\n  dup2\n  0x01\n  add\n  exp(0x0100, 0x00)\n  dup2\n  sload\n  dup2\n  0xffffffffffffffffffffffffffffffffffffffff\n  mul\n  not\n  and\n  swap1\n  dup4\n  0xffffffffffffffffffffffffffffffffffffffff\n  and\n  mul\n  or\n  swap1\n  sstore\n  pop\n  0x40\n  dup3\n  add\n  mload\n  dup2\n  0x02\n  add\n  exp(0x0100, 0x00)\n  dup2\n  sload\n  dup2\n  0xffffffffffffffffffffffffffffffffffffffff\n  mul\n  not\n  and\n  swap1\n  dup4\n  0xffffffffffffffffffffffffffffffffffffffff\n  and\n  mul\n  or\n  swap1\n  sstore\n  pop\n  0x60\n  dup3\n  add\n  mload\n  dup2\n  0x03\n  add\n  exp(0x0100, 0x00)\n  dup2\n  sload\n  dup2\n  0xffffffffffffffffffffffffffffffffffffffff\n  mul\n  not\n  and\n  swap1\n  dup4\n  0xffffffffffffffffffffffffffffffffffffffff\n  and\n  mul\n  or\n  swap1\n  sstore\n  pop\n  0x80\n  dup3\n  add\n  mload\n  dup2\n  0x04\n  add\n  sstore\n  swap1\n  pop\n  pop\n    /* \"src/adapters/BastionLeverageAdapterV2.sol\":7461:7473  marketParams */\n  0x00\n    /* \"src/adapters/BastionLeverageAdapterV2.sol\":7450:7474  abi.encode(marketParams) */\n  add(0x20, mload(0x40))\n  tag_12\n  swap2\n  swap1\n  tag_13\n  jump\t// in\ntag_12:\n  mload(0x40)\n  0x20\n  dup2\n  dup4\n  sub\n  sub\n  dup2\n  mstore\n  swap1\n  0x40\n  mstore\n    /* \"src/adapters/BastionLeverageAdapterV2.sol\":7440:7475  keccak256(abi.encode(marketParams)) */\n  dup1\n  mload\n  swap1\n  0x20\n  add\n  keccak256\n    /* \"src/adapters/BastionLeverageAdapterV2.sol\":7428:7475  MARKET_ID = keccak256(abi.encode(marketParams)) */\n  0x0120\n  dup2\n  dup2\n  mstore\n  pop\n  pop\n    /* \"src/adapters/BastionLeverageAdapterV2.sol\":5360:5402  0x833589fCD6eDb6E08f4c7C32D4f71b54bdA02913 */\n  0x833589fcd6edb6e08f4c7c32d4f71b54bda02913\n    /* \"src/adapters/BastionLeverageAdapterV2.sol\":7488:7512  USDC = IERC20(USDC_ADDR) */\n  0xffffffffffffffffffffffffffffffffffffffff\n  and\n  0x80\n  dup2\n  0xffffffffffffffffffffffffffffffffffffffff\n  and\n  dup2\n  mstore\n  pop\n  pop\n    /* \"src/adapters/BastionLeverageAdapterV2.sol\":5447:5489  0x834df4C1d8f51Be24322E39e4766697BE015512F */\n  0x834df4c1d8f51be24322e39e4766697be015512f\n    /* \"src/adapters/BastionLeverageAdapterV2.sol\":7523:7549  CETES = IERC20(CETES_ADDR) */\n  0xffffffffffffffffffffffffffffffffffffffff\n  and\n  0xa0\n  dup2\n  0xffffffffffffffffffffffffffffffffffffffff\n  and\n  dup2\n  mstore\n  pop\n  pop\n    /* \"src/adapters/BastionLeverageAdapterV2.sol\":5535:5577  0xBBBBbBbBBb9CCeDA807e879c5916221aeFE240c6 */\n  0xbbbbbbbbbb9cceda807e879c5916221aefe240c6\n    /* \"src/adapters/BastionLeverageAdapterV2.sol\":7560:7589  MORPHO = IMorpho(MORPHO_ADDR) */\n  0xffffffffffffffffffffffffffffffffffffffff\n  and\n  0xc0\n  dup2\n  0xffffffffffffffffffffffffffffffffffffffff\n  and\n  dup2\n  mstore\n  pop\n  pop\n    /* \"src/adapters/BastionLeverageAdapterV2.sol\":5623:5665  0xBe6D883033060f3D413037808743c39959644605 */\n  0xbe6d883033060f3d413037808743c39959644605\n    /* \"src/adapters/BastionLeverageAdapterV2.sol\":7600:7639  ROUTER = ISlipstreamRouter(ROUTER_ADDR) */\n  0xffffffffffffffffffffffffffffffffffffffff\n  and\n  0xe0\n  dup2\n  0xffffffffffffffffffffffffffffffffffffffff\n  and\n  dup2\n  mstore\n  pop\n  pop\n    /* \"src/adapters/BastionLeverageAdapterV2.sol\":7687:7735  USDC.safeApprove(ROUTER_ADDR, type(uint256).max) */\n  tag_14\n    /* \"src/adapters/BastionLeverageAdapterV2.sol\":5623:5665  0xBe6D883033060f3D413037808743c39959644605 */\n  0xbe6d883033060f3d413037808743c39959644605\n    /* \"src/adapters/BastionLeverageAdapterV2.sol\":7717:7734  type(uint256).max */\n  0xffffffffffffffffffffffffffffffffffffffffffffffffffffffffffffffff\n    /* \"src/adapters/BastionLeverageAdapterV2.sol\":7687:7691  USDC */\n  mload(0x80)\n    /* \"src/adapters/BastionLeverageAdapterV2.sol\":7687:7703  USDC.safeApprove */\n  0xffffffffffffffffffffffffffffffffffffffff\n  and\n  shl(0x20, tag_15)\n  swap1\n    /* \"src/adapters/BastionLeverageAdapterV2.sol\":7687:7735  USDC.safeApprove(ROUTER_ADDR, type(uint256).max) */\n  swap3\n  swap2\n  swap1\n  0x20\n  shr\n  jump\t// in\ntag_14:\n    /* \"src/adapters/BastionLeverageAdapterV2.sol\":7746:7795  CETES.safeApprove(ROUTER_ADDR, type(uint256).max) */\n  tag_16\n    /* \"src/adapters/BastionLeverageAdapterV2.sol\":5623:5665  0xBe6D883033060f3D413037808743c39959644605 */\n  0xbe6d883033060f3d413037808743c39959644605\n    /* \"src/adapters/BastionLeverageAdapterV2.sol\":7777:7794  type(uint256).max */\n  0xffffffffffffffffffffffffffffffffffffffffffffffffffffffffffffffff\n    /* \"src/adapters/BastionLeverageAdapterV2.sol\":7746:7751  CETES */\n  mload(0xa0)\n    /* \"src/adapters/BastionLeverageAdapterV2.sol\":7746:7763  CETES.safeApprove */\n  0xffffffffffffffffffffffffffffffffffffffff\n  and\n  shl(0x20, tag_15)\n  swap1\n    /* \"src/adapters/BastionLeverageAdapterV2.sol\":7746:7795  CETES.safeApprove(ROUTER_ADDR, type(uint256).max) */\n  swap3\n  swap2\n  swap1\n  0x20\n  shr\n  jump\t// in\ntag_16:\n    /* \"src/adapters/BastionLeverageAdapterV2.sol\":7806:7854  USDC.safeApprove(MORPHO_ADDR, type(uint256).max) */\n  tag_17\n    /* \"src/adapters/BastionLeverageAdapterV2.sol\":5535:5577  0xBBBBbBbBBb9CCeDA807e879c5916221aeFE240c6 */\n  0xbbbbbbbbbb9cceda807e879c5916221aefe240c6\n    /* \"src/adapters/BastionLeverageAdapterV2.sol\":7836:7853  type(uint256).max */\n  0xffffffffffffffffffffffffffffffffffffffffffffffffffffffffffffffff\n    /* \"src/adapters/BastionLeverageAdapterV2.sol\":7806:7810  USDC */\n  mload(0x80)\n    /* \"src/adapters/BastionLeverageAdapterV2.sol\":7806:7822  USDC.safeApprove */\n  0xffffffffffffffffffffffffffffffffffffffff\n  and\n  shl(0x20, tag_15)\n  swap1\n    /* \"src/adapters/BastionLeverageAdapterV2.sol\":7806:7854  USDC.safeApprove(MORPHO_ADDR, type(uint256).max) */\n  swap3\n  swap2\n  swap1\n  0x20\n  shr\n  jump\t// in\ntag_17:\n    /* \"src/adapters/BastionLeverageAdapterV2.sol\":7865:7914  CETES.safeApprove(MORPHO_ADDR, type(uint256).max) */\n  tag_18\n    /* \"src/adapters/BastionLeverageAdapterV2.sol\":5535:5577  0xBBBBbBbBBb9CCeDA807e879c5916221aeFE240c6 */\n  0xbbbbbbbbbb9cceda807e879c5916221aefe240c6\n    /* \"src/adapters/BastionLeverageAdapterV2.sol\":7896:7913  type(uint256).max */\n  0xffffffffffffffffffffffffffffffffffffffffffffffffffffffffffffffff\n    /* \"src/adapters/BastionLeverageAdapterV2.sol\":7865:7870  CETES */\n  mload(0xa0)\n    /* \"src/adapters/BastionLeverageAdapterV2.sol\":7865:7882  CETES.safeApprove */\n  0xffffffffffffffffffffffffffffffffffffffff\n  and\n  shl(0x20, tag_15)\n  swap1\n    /* \"src/adapters/BastionLeverageAdapterV2.sol\":7865:7914  CETES.safeApprove(MORPHO_ADDR, type(uint256).max) */\n  swap3\n  swap2\n  swap1\n  0x20\n  shr\n  jump\t// in\ntag_18:\n    /* \"src/adapters/BastionLeverageAdapterV2.sol\":6936:7922  constructor(address _vault, address _oracle) {... */\n  pop\n  pop\n    /* \"src/adapters/BastionLeverageAdapterV2.sol\":5117:16054  contract BastionLeverageAdapterV2 {... */\n  jump(tag_19)\n    /* \"src/adapters/BastionLeverageAdapterV2.sol\":2959:3121  function safeApprove(IERC20 token, address spender, uint256 value) internal {... */\ntag_15:\n    /* \"src/adapters/BastionLeverageAdapterV2.sol\":3054:3059  token */\n  dup3\n    /* \"src/adapters/BastionLeverageAdapterV2.sol\":3054:3067  token.approve */\n  0xffffffffffffffffffffffffffffffffffffffff\n  and\n  0x095ea7b3\n    /* \"src/adapters/BastionLeverageAdapterV2.sol\":3068:3075  spender */\n  dup4\n    /* \"src/adapters/BastionLeverageAdapterV2.sol\":3077:3082  value */\n  dup4\n    /* \"src/adapters/BastionLeverageAdapterV2.sol\":3054:3083  token.approve(spender, value) */\n  mload(0x40)\n  dup4\n  0xffffffff\n  and\n  0xe0\n  shl\n  dup2\n  mstore\n  0x04\n  add\n  tag_21\n  swap3\n  swap2\n  swap1\n  tag_22\n  jump\t// in\ntag_21:\n  0x20\n  mload(0x40)\n  dup1\n  dup4\n  sub\n  dup2\n  0x00\n  dup8\n  gas\n  call\n  iszero\n  dup1\n  iszero\n  tag_24\n  jumpi\n  returndatasize\n  0x00\n  dup1\n  returndatacopy\n  revert(0x00, returndatasize)\ntag_24:\n  pop\n  pop\n  pop\n  pop\n  mload(0x40)\n  returndatasize\n  not(0x1f)\n  0x1f\n  dup3\n  add\n  and\n  dup3\n  add\n  dup1\n  0x40\n  mstore\n  pop\n  dup2\n  add\n  swap1\n  tag_25\n  swap2\n  swap1\n  tag_26\n  jump\t// in\ntag_25:\n    /* \"src/adapters/BastionLeverageAdapterV2.sol\":3046:3113  require(token.approve(spender, value), \"SafeERC20: approve failed\") */\n  tag_27\n  jumpi\n  mload(0x40)\n  0x08c379a000000000000000000000000000000000000000000000000000000000\n  dup2\n  mstore\n  0x04\n  add\n  tag_28\n  swap1\n  tag_29\n  jump\t// in\ntag_28:\n  mload(0x40)\n  dup1\n  swap2\n  sub\n  swap1\n  revert\ntag_27:\n    /* \"src/adapters/BastionLeverageAdapterV2.sol\":2959:3121  function safeApprove(IERC20 token, address spender, uint256 value) internal {... */\n  pop\n  pop\n  pop\n  jump\t// out\n    /* \"#utility.yul\":88:205   */\ntag_31:\n    /* \"#utility.yul\":197:198   */\n  0x00\n    /* \"#utility.yul\":194:195   */\n  dup1\n    /* \"#utility.yul\":187:199   */\n  revert\n    /* \"#utility.yul\":334:460   */\ntag_33:\n    /* \"#utility.yul\":371:378   */\n  0x00\n    /* \"#utility.yul\":411:453   */\n  0xffffffffffffffffffffffffffffffffffffffff\n    /* \"#utility.yul\":404:409   */\n  dup3\n    /* \"#utility.yul\":400:454   */\n  and\n    /* \"#utility.yul\":389:454   */\n  swap1\n  pop\n    /* \"#utility.yul\":334:460   */\n  swap2\n  swap1\n  pop\n  jump\t// out\n    /* \"#utility.yul\":466:562   */\ntag_34:\n    /* \"#utility.yul\":503:510   */\n  0x00\n    /* \"#utility.yul\":532:556   */\n  tag_64\n    /* \"#utility.yul\":550:555   */\n  dup3\n    /* \"#utility.yul\":532:556   */\n  tag_33\n  jump\t// in\ntag_64:\n    /* \"#utility.yul\":521:556   */\n  swap1\n  pop\n    /* \"#utility.yul\":466:562   */\n  swap2\n  swap1\n  pop\n  jump\t// out\n    /* \"#utility.yul\":568:690   */\ntag_35:\n    /* \"#utility.yul\":641:665   */\n  tag_66\n    /* \"#utility.yul\":659:664   */\n  dup2\n    /* \"#utility.yul\":641:665   */\n  tag_34\n  jump\t// in\ntag_66:\n    /* \"#utility.yul\":634:639   */\n  dup2\n    /* \"#utility.yul\":631:666   */\n  eq\n    /* \"#utility.yul\":621:684   */\n  tag_67\n  jumpi\n    /* \"#utility.yul\":680:681   */\n  0x00\n    /* \"#utility.yul\":677:678   */\n  dup1\n    /* \"#utility.yul\":670:682   */\n  revert\n    /* \"#utility.yul\":621:684   */\ntag_67:\n    /* \"#utility.yul\":568:690   */\n  pop\n  jump\t// out\n    /* \"#utility.yul\":696:839   */\ntag_36:\n    /* \"#utility.yul\":753:758   */\n  0x00\n    /* \"#utility.yul\":784:790   */\n  dup2\n    /* \"#utility.yul\":778:791   */\n  mload\n    /* \"#utility.yul\":769:791   */\n  swap1\n  pop\n    /* \"#utility.yul\":800:833   */\n  tag_69\n    /* \"#utility.yul\":827:832   */\n  dup2\n    /* \"#utility.yul\":800:833   */\n  tag_35\n  jump\t// in\ntag_69:\n    /* \"#utility.yul\":696:839   */\n  swap3\n  swap2\n  pop\n  pop\n  jump\t// out\n    /* \"#utility.yul\":845:1352   */\ntag_3:\n    /* \"#utility.yul\":924:930   */\n  0x00\n    /* \"#utility.yul\":932:938   */\n  dup1\n    /* \"#utility.yul\":981:983   */\n  0x40\n    /* \"#utility.yul\":969:978   */\n  dup4\n    /* \"#utility.yul\":960:967   */\n  dup6\n    /* \"#utility.yul\":956:979   */\n  sub\n    /* \"#utility.yul\":952:984   */\n  slt\n    /* \"#utility.yul\":949:1068   */\n  iszero\n  tag_71\n  jumpi\n    /* \"#utility.yul\":987:1066   */\n  tag_72\n  tag_31\n  jump\t// in\ntag_72:\n    /* \"#utility.yul\":949:1068   */\ntag_71:\n    /* \"#utility.yul\":1107:1108   */\n  0x00\n    /* \"#utility.yul\":1132:1196   */\n  tag_73\n    /* \"#utility.yul\":1188:1195   */\n  dup6\n    /* \"#utility.yul\":1179:1185   */\n  dup3\n    /* \"#utility.yul\":1168:1177   */\n  dup7\n    /* \"#utility.yul\":1164:1186   */\n  add\n    /* \"#utility.yul\":1132:1196   */\n  tag_36\n  jump\t// in\ntag_73:\n    /* \"#utility.yul\":1122:1196   */\n  swap3\n  pop\n    /* \"#utility.yul\":1078:1206   */\n  pop\n    /* \"#utility.yul\":1245:1247   */\n  0x20\n    /* \"#utility.yul\":1271:1335   */\n  tag_74\n    /* \"#utility.yul\":1327:1334   */\n  dup6\n    /* \"#utility.yul\":1318:1324   */\n  dup3\n    /* \"#utility.yul\":1307:1316   */\n  dup7\n    /* \"#utility.yul\":1303:1325   */\n  add\n    /* \"#utility.yul\":1271:1335   */\n  tag_36\n  jump\t// in\ntag_74:\n    /* \"#utility.yul\":1261:1335   */\n  swap2\n  pop\n    /* \"#utility.yul\":1216:1345   */\n  pop\n    /* \"#utility.yul\":845:1352   */\n  swap3\n  pop\n  swap3\n  swap1\n  pop\n  jump\t// out\n    /* \"#utility.yul\":1358:1527   */\ntag_37:\n    /* \"#utility.yul\":1442:1453   */\n  0x00\n    /* \"#utility.yul\":1476:1482   */\n  dup3\n    /* \"#utility.yul\":1471:1474   */\n  dup3\n    /* \"#utility.yul\":1464:1483   */\n  mstore\n    /* \"#utility.yul\":1516:1520   */\n  0x20\n    /* \"#utility.yul\":1511:1514   */\n  dup3\n    /* \"#utility.yul\":1507:1521   */\n  add\n    /* \"#utility.yul\":1492:1521   */\n  swap1\n  pop\n    /* \"#utility.yul\":1358:1527   */\n  swap3\n  swap2\n  pop\n  pop\n  jump\t// out\n    /* \"#utility.yul\":1533:1696   */\ntag_38:\n    /* \"#utility.yul\":1673:1688   */\n  0x496e76616c6964205661756c7400000000000000000000000000000000000000\n    /* \"#utility.yul\":1669:1670   */\n  0x00\n    /* \"#utility.yul\":1661:1667   */\n  dup3\n    /* \"#utility.yul\":1657:1671   */\n  add\n    /* \"#utility.yul\":1650:1689   */\n  mstore\n    /* \"#utility.yul\":1533:1696   */\n  pop\n  jump\t// out\n    /* \"#utility.yul\":1702:2068   */\ntag_39:\n    /* \"#utility.yul\":1844:1847   */\n  0x00\n    /* \"#utility.yul\":1865:1932   */\n  tag_78\n    /* \"#utility.yul\":1929:1931   */\n  0x0d\n    /* \"#utility.yul\":1924:1927   */\n  dup4\n    /* \"#utility.yul\":1865:1932   */\n  tag_37\n  jump\t// in\ntag_78:\n    /* \"#utility.yul\":1858:1932   */\n  swap2\n  pop\n    /* \"#utility.yul\":1941:2034   */\n  tag_79\n    /* \"#utility.yul\":2030:2033   */\n  dup3\n    /* \"#utility.yul\":1941:2034   */\n  tag_38\n  jump\t// in\ntag_79:\n    /* \"#utility.yul\":2059:2061   */\n  0x20\n    /* \"#utility.yul\":2054:2057   */\n  dup3\n    /* \"#utility.yul\":2050:2062   */\n  add\n    /* \"#utility.yul\":2043:2062   */\n  swap1\n  pop\n    /* \"#utility.yul\":1702:2068   */\n  swap2\n  swap1\n  pop\n  jump\t// out\n    /* \"#utility.yul\":2074:2493   */\ntag_8:\n    /* \"#utility.yul\":2240:2244   */\n  0x00\n    /* \"#utility.yul\":2278:2280   */\n  0x20\n    /* \"#utility.yul\":2267:2276   */\n  dup3\n    /* \"#utility.yul\":2263:2281   */\n  add\n    /* \"#utility.yul\":2255:2281   */\n  swap1\n  pop\n    /* \"#utility.yul\":2327:2336   */\n  dup2\n    /* \"#utility.yul\":2321:2325   */\n  dup2\n    /* \"#utility.yul\":2317:2337   */\n  sub\n    /* \"#utility.yul\":2313:2314   */\n  0x00\n    /* \"#utility.yul\":2302:2311   */\n  dup4\n    /* \"#utility.yul\":2298:2315   */\n  add\n    /* \"#utility.yul\":2291:2338   */\n  mstore\n    /* \"#utility.yul\":2355:2486   */\n  tag_81\n    /* \"#utility.yul\":2481:2485   */\n  dup2\n    /* \"#utility.yul\":2355:2486   */\n  tag_39\n  jump\t// in\ntag_81:\n    /* \"#utility.yul\":2347:2486   */\n  swap1\n  pop\n    /* \"#utility.yul\":2074:2493   */\n  swap2\n  swap1\n  pop\n  jump\t// out\n    /* \"#utility.yul\":2499:2663   */\ntag_40:\n    /* \"#utility.yul\":2639:2655   */\n  0x496e76616c6964204f7261636c65000000000000000000000000000000000000\n    /* \"#utility.yul\":2635:2636   */\n  0x00\n    /* \"#utility.yul\":2627:2633   */\n  dup3\n    /* \"#utility.yul\":2623:2637   */\n  add\n    /* \"#utility.yul\":2616:2656   */\n  mstore\n    /* \"#utility.yul\":2499:2663   */\n  pop\n  jump\t// out\n    /* \"#utility.yul\":2669:3035   */\ntag_41:\n    /* \"#utility.yul\":2811:2814   */\n  0x00\n    /* \"#utility.yul\":2832:2899   */\n  tag_84\n    /* \"#utility.yul\":2896:2898   */\n  0x0e\n    /* \"#utility.yul\":2891:2894   */\n  dup4\n    /* \"#utility.yul\":2832:2899   */\n  tag_37\n  jump\t// in\ntag_84:\n    /* \"#utility.yul\":2825:2899   */\n  swap2\n  pop\n    /* \"#utility.yul\":2908:3001   */\n  tag_85\n    /* \"#utility.yul\":2997:3000   */\n  dup3\n    /* \"#utility.yul\":2908:3001   */\n  tag_40\n  jump\t// in\ntag_85:\n    /* \"#utility.yul\":3026:3028   */\n  0x20\n    /* \"#utility.yul\":3021:3024   */\n  dup3\n    /* \"#utility.yul\":3017:3029   */\n  add\n    /* \"#utility.yul\":3010:3029   */\n  swap1\n  pop\n    /* \"#utility.yul\":2669:3035   */\n  swap2\n  swap1\n  pop\n  jump\t// out\n    /* \"#utility.yul\":3041:3460   */\ntag_11:\n    /* \"#utility.yul\":3207:3211   */\n  0x00\n    /* \"#utility.yul\":3245:3247   */\n  0x20\n    /* \"#utility.yul\":3234:3243   */\n  dup3\n    /* \"#utility.yul\":3230:3248   */\n  add\n    /* \"#utility.yul\":3222:3248   */\n  swap1\n  pop\n    /* \"#utility.yul\":3294:3303   */\n  dup2\n    /* \"#utility.yul\":3288:3292   */\n  dup2\n    /* \"#utility.yul\":3284:3304   */\n  sub\n    /* \"#utility.yul\":3280:3281   */\n  0x00\n    /* \"#utility.yul\":3269:3278   */\n  dup4\n    /* \"#utility.yul\":3265:3282   */\n  add\n    /* \"#utility.yul\":3258:3305   */\n  mstore\n    /* \"#utility.yul\":3322:3453   */\n  tag_87\n    /* \"#utility.yul\":3448:3452   */\n  dup2\n    /* \"#utility.yul\":3322:3453   */\n  tag_41\n  jump\t// in\ntag_87:\n    /* \"#utility.yul\":3314:3453   */\n  swap1\n  pop\n    /* \"#utility.yul\":3041:3460   */\n  swap2\n  swap1\n  pop\n  jump\t// out\n    /* \"#utility.yul\":3466:3568   */\ntag_42:\n    /* \"#utility.yul\":3508:3516   */\n  0x00\n    /* \"#utility.yul\":3555:3560   */\n  dup2\n    /* \"#utility.yul\":3552:3553   */\n  0x00\n    /* \"#utility.yul\":3548:3561   */\n  shr\n    /* \"#utility.yul\":3527:3561   */\n  swap1\n  pop\n    /* \"#utility.yul\":3466:3568   */\n  swap2\n  swap1\n  pop\n  jump\t// out\n    /* \"#utility.yul\":3574:3713   */\ntag_43:\n    /* \"#utility.yul\":3624:3631   */\n  0x00\n    /* \"#utility.yul\":3664:3706   */\n  0xffffffffffffffffffffffffffffffffffffffff\n    /* \"#utility.yul\":3657:3662   */\n  dup3\n    /* \"#utility.yul\":3653:3707   */\n  and\n    /* \"#utility.yul\":3642:3707   */\n  swap1\n  pop\n    /* \"#utility.yul\":3574:3713   */\n  swap2\n  swap1\n  pop\n  jump\t// out\n    /* \"#utility.yul\":3719:3885   */\ntag_44:\n    /* \"#utility.yul\":3788:3793   */\n  0x00\n    /* \"#utility.yul\":3813:3879   */\n  tag_91\n    /* \"#utility.yul\":3844:3878   */\n  tag_92\n    /* \"#utility.yul\":3867:3877   */\n  dup4\n    /* \"#utility.yul\":3844:3878   */\n  tag_42\n  jump\t// in\ntag_92:\n    /* \"#utility.yul\":3813:3879   */\n  tag_43\n  jump\t// in\ntag_91:\n    /* \"#utility.yul\":3804:3879   */\n  swap1\n  pop\n    /* \"#utility.yul\":3719:3885   */\n  swap2\n  swap1\n  pop\n  jump\t// out\n    /* \"#utility.yul\":3891:3999   */\ntag_45:\n    /* \"#utility.yul\":3968:3992   */\n  tag_94\n    /* \"#utility.yul\":3986:3991   */\n  dup2\n    /* \"#utility.yul\":3968:3992   */\n  tag_34\n  jump\t// in\ntag_94:\n    /* \"#utility.yul\":3963:3966   */\n  dup3\n    /* \"#utility.yul\":3956:3993   */\n  mstore\n    /* \"#utility.yul\":3891:3999   */\n  pop\n  pop\n  jump\t// out\n    /* \"#utility.yul\":4005:4095   */\ntag_46:\n    /* \"#utility.yul\":4055:4062   */\n  0x00\n    /* \"#utility.yul\":4084:4089   */\n  dup2\n    /* \"#utility.yul\":4073:4089   */\n  swap1\n  pop\n    /* \"#utility.yul\":4005:4095   */\n  swap2\n  swap1\n  pop\n  jump\t// out\n    /* \"#utility.yul\":4101:4267   */\ntag_47:\n    /* \"#utility.yul\":4170:4175   */\n  0x00\n    /* \"#utility.yul\":4195:4261   */\n  tag_97\n    /* \"#utility.yul\":4226:4260   */\n  tag_98\n    /* \"#utility.yul\":4249:4259   */\n  dup4\n    /* \"#utility.yul\":4226:4260   */\n  tag_42\n  jump\t// in\ntag_98:\n    /* \"#utility.yul\":4195:4261   */\n  tag_46\n  jump\t// in\ntag_97:\n    /* \"#utility.yul\":4186:4261   */\n  swap1\n  pop\n    /* \"#utility.yul\":4101:4267   */\n  swap2\n  swap1\n  pop\n  jump\t// out\n    /* \"#utility.yul\":4273:4350   */\ntag_48:\n    /* \"#utility.yul\":4310:4317   */\n  0x00\n    /* \"#utility.yul\":4339:4344   */\n  dup2\n    /* \"#utility.yul\":4328:4344   */\n  swap1\n  pop\n    /* \"#utility.yul\":4273:4350   */\n  swap2\n  swap1\n  pop\n  jump\t// out\n    /* \"#utility.yul\":4356:4464   */\ntag_49:\n    /* \"#utility.yul\":4433:4457   */\n  tag_101\n    /* \"#utility.yul\":4451:4456   */\n  dup2\n    /* \"#utility.yul\":4433:4457   */\n  tag_48\n  jump\t// in\ntag_101:\n    /* \"#utility.yul\":4428:4431   */\n  dup3\n    /* \"#utility.yul\":4421:4458   */\n  mstore\n    /* \"#utility.yul\":4356:4464   */\n  pop\n  pop\n  jump\t// out\n    /* \"#utility.yul\":4536:6014   */\ntag_50:\n    /* \"#utility.yul\":4688:4692   */\n  0xa0\n    /* \"#utility.yul\":4683:4686   */\n  dup3\n    /* \"#utility.yul\":4679:4693   */\n  add\n    /* \"#utility.yul\":4719:4720   */\n  0x00\n    /* \"#utility.yul\":4799:4803   */\n  dup1\n    /* \"#utility.yul\":4792:4797   */\n  dup4\n    /* \"#utility.yul\":4788:4804   */\n  add\n    /* \"#utility.yul\":4782:4805   */\n  sload\n    /* \"#utility.yul\":4769:4805   */\n  swap1\n  pop\n    /* \"#utility.yul\":4838:4893   */\n  tag_103\n    /* \"#utility.yul\":4883:4892   */\n  dup2\n    /* \"#utility.yul\":4838:4893   */\n  tag_44\n  jump\t// in\ntag_103:\n    /* \"#utility.yul\":4906:4969   */\n  tag_104\n    /* \"#utility.yul\":4963:4967   */\n  0x00\n    /* \"#utility.yul\":4958:4961   */\n  dup7\n    /* \"#utility.yul\":4954:4968   */\n  add\n    /* \"#utility.yul\":4940:4952   */\n  dup3\n    /* \"#utility.yul\":4906:4969   */\n  tag_45\n  jump\t// in\ntag_104:\n    /* \"#utility.yul\":4730:4979   */\n  pop\n    /* \"#utility.yul\":5064:5068   */\n  0x01\n    /* \"#utility.yul\":5057:5062   */\n  dup4\n    /* \"#utility.yul\":5053:5069   */\n  add\n    /* \"#utility.yul\":5047:5070   */\n  sload\n    /* \"#utility.yul\":5034:5070   */\n  swap1\n  pop\n    /* \"#utility.yul\":5103:5158   */\n  tag_105\n    /* \"#utility.yul\":5148:5157   */\n  dup2\n    /* \"#utility.yul\":5103:5158   */\n  tag_44\n  jump\t// in\ntag_105:\n    /* \"#utility.yul\":5171:5234   */\n  tag_106\n    /* \"#utility.yul\":5228:5232   */\n  0x20\n    /* \"#utility.yul\":5223:5226   */\n  dup7\n    /* \"#utility.yul\":5219:5233   */\n  add\n    /* \"#utility.yul\":5205:5217   */\n  dup3\n    /* \"#utility.yul\":5171:5234   */\n  tag_45\n  jump\t// in\ntag_106:\n    /* \"#utility.yul\":4989:5244   */\n  pop\n    /* \"#utility.yul\":5320:5324   */\n  0x02\n    /* \"#utility.yul\":5313:5318   */\n  dup4\n    /* \"#utility.yul\":5309:5325   */\n  add\n    /* \"#utility.yul\":5303:5326   */\n  sload\n    /* \"#utility.yul\":5290:5326   */\n  swap1\n  pop\n    /* \"#utility.yul\":5359:5414   */\n  tag_107\n    /* \"#utility.yul\":5404:5413   */\n  dup2\n    /* \"#utility.yul\":5359:5414   */\n  tag_44\n  jump\t// in\ntag_107:\n    /* \"#utility.yul\":5427:5490   */\n  tag_108\n    /* \"#utility.yul\":5484:5488   */\n  0x40\n    /* \"#utility.yul\":5479:5482   */\n  dup7\n    /* \"#utility.yul\":5475:5489   */\n  add\n    /* \"#utility.yul\":5461:5473   */\n  dup3\n    /* \"#utility.yul\":5427:5490   */\n  tag_45\n  jump\t// in\ntag_108:\n    /* \"#utility.yul\":5254:5500   */\n  pop\n    /* \"#utility.yul\":5573:5577   */\n  0x03\n    /* \"#utility.yul\":5566:5571   */\n  dup4\n    /* \"#utility.yul\":5562:5578   */\n  add\n    /* \"#utility.yul\":5556:5579   */\n  sload\n    /* \"#utility.yul\":5543:5579   */\n  swap1\n  pop\n    /* \"#utility.yul\":5612:5667   */\n  tag_109\n    /* \"#utility.yul\":5657:5666   */\n  dup2\n    /* \"#utility.yul\":5612:5667   */\n  tag_44\n  jump\t// in\ntag_109:\n    /* \"#utility.yul\":5680:5743   */\n  tag_110\n    /* \"#utility.yul\":5737:5741   */\n  0x60\n    /* \"#utility.yul\":5732:5735   */\n  dup7\n    /* \"#utility.yul\":5728:5742   */\n  add\n    /* \"#utility.yul\":5714:5726   */\n  dup3\n    /* \"#utility.yul\":5680:5743   */\n  tag_45\n  jump\t// in\ntag_110:\n    /* \"#utility.yul\":5510:5753   */\n  pop\n    /* \"#utility.yul\":5827:5831   */\n  0x04\n    /* \"#utility.yul\":5820:5825   */\n  dup4\n    /* \"#utility.yul\":5816:5832   */\n  add\n    /* \"#utility.yul\":5810:5833   */\n  sload\n    /* \"#utility.yul\":5797:5833   */\n  swap1\n  pop\n    /* \"#utility.yul\":5866:5921   */\n  tag_111\n    /* \"#utility.yul\":5911:5920   */\n  dup2\n    /* \"#utility.yul\":5866:5921   */\n  tag_47\n  jump\t// in\ntag_111:\n    /* \"#utility.yul\":5934:5997   */\n  tag_112\n    /* \"#utility.yul\":5991:5995   */\n  0x80\n    /* \"#utility.yul\":5986:5989   */\n  dup7\n    /* \"#utility.yul\":5982:5996   */\n  add\n    /* \"#utility.yul\":5968:5980   */\n  dup3\n    /* \"#utility.yul\":5934:5997   */\n  tag_49\n  jump\t// in\ntag_112:\n    /* \"#utility.yul\":5763:6007   */\n  pop\n    /* \"#utility.yul\":4657:6014   */\n  pop\n  pop\n    /* \"#utility.yul\":4536:6014   */\n  pop\n  pop\n  jump\t// out\n    /* \"#utility.yul\":6020:6353   */\ntag_13:\n    /* \"#utility.yul\":6168:6172   */\n  0x00\n    /* \"#utility.yul\":6206:6209   */\n  0xa0\n    /* \"#utility.yul\":6195:6204   */\n  dup3\n    /* \"#utility.yul\":6191:6210   */\n  add\n    /* \"#utility.yul\":6183:6210   */\n  swap1\n  pop\n    /* \"#utility.yul\":6220:6346   */\n  tag_114\n    /* \"#utility.yul\":6343:6344   */\n  0x00\n    /* \"#utility.yul\":6332:6341   */\n  dup4\n    /* \"#utility.yul\":6328:6345   */\n  add\n    /* \"#utility.yul\":6319:6325   */\n  dup5\n    /* \"#utility.yul\":6220:6346   */\n  tag_50\n  jump\t// in\ntag_114:\n    /* \"#utility.yul\":6020:6353   */\n  swap3\n  swap2\n  pop\n  pop\n  jump\t// out\n    /* \"#utility.yul\":6359:6477   */\ntag_51:\n    /* \"#utility.yul\":6446:6470   */\n  tag_116\n    /* \"#utility.yul\":6464:6469   */\n  dup2\n    /* \"#utility.yul\":6446:6470   */\n  tag_34\n  jump\t// in\ntag_116:\n    /* \"#utility.yul\":6441:6444   */\n  dup3\n    /* \"#utility.yul\":6434:6471   */\n  mstore\n    /* \"#utility.yul\":6359:6477   */\n  pop\n  pop\n  jump\t// out\n    /* \"#utility.yul\":6483:6601   */\ntag_52:\n    /* \"#utility.yul\":6570:6594   */\n  tag_118\n    /* \"#utility.yul\":6588:6593   */\n  dup2\n    /* \"#utility.yul\":6570:6594   */\n  tag_48\n  jump\t// in\ntag_118:\n    /* \"#utility.yul\":6565:6568   */\n  dup3\n    /* \"#utility.yul\":6558:6595   */\n  mstore\n    /* \"#utility.yul\":6483:6601   */\n  pop\n  pop\n  jump\t// out\n    /* \"#utility.yul\":6607:6939   */\ntag_22:\n    /* \"#utility.yul\":6728:6732   */\n  0x00\n    /* \"#utility.yul\":6766:6768   */\n  0x40\n    /* \"#utility.yul\":6755:6764   */\n  dup3\n    /* \"#utility.yul\":6751:6769   */\n  add\n    /* \"#utility.yul\":6743:6769   */\n  swap1\n  pop\n    /* \"#utility.yul\":6779:6850   */\n  tag_120\n    /* \"#utility.yul\":6847:6848   */\n  0x00\n    /* \"#utility.yul\":6836:6845   */\n  dup4\n    /* \"#utility.yul\":6832:6849   */\n  add\n    /* \"#utility.yul\":6823:6829   */\n  dup6\n    /* \"#utility.yul\":6779:6850   */\n  tag_51\n  jump\t// in\ntag_120:\n    /* \"#utility.yul\":6860:6932   */\n  tag_121\n    /* \"#utility.yul\":6928:6930   */\n  0x20\n    /* \"#utility.yul\":6917:6926   */\n  dup4\n    /* \"#utility.yul\":6913:6931   */\n  add\n    /* \"#utility.yul\":6904:6910   */\n  dup5\n    /* \"#utility.yul\":6860:6932   */\n  tag_52\n  jump\t// in\ntag_121:\n    /* \"#utility.yul\":6607:6939   */\n  swap4\n  swap3\n  pop\n  pop\n  pop\n  jump\t// out\n    /* \"#utility.yul\":6945:7035   */\ntag_53:\n    /* \"#utility.yul\":6979:6986   */\n  0x00\n    /* \"#utility.yul\":7022:7027   */\n  dup2\n    /* \"#utility.yul\":7015:7028   */\n  iszero\n    /* \"#utility.yul\":7008:7029   */\n  iszero\n    /* \"#utility.yul\":6997:7029   */\n  swap1\n  pop\n    /* \"#utility.yul\":6945:7035   */\n  swap2\n  swap1\n  pop\n  jump\t// out\n    /* \"#utility.yul\":7041:7157   */\ntag_54:\n    /* \"#utility.yul\":7111:7132   */\n  tag_124\n    /* \"#utility.yul\":7126:7131   */\n  dup2\n    /* \"#utility.yul\":7111:7132   */\n  tag_53\n  jump\t// in\ntag_124:\n    /* \"#utility.yul\":7104:7109   */\n  dup2\n    /* \"#utility.yul\":7101:7133   */\n  eq\n    /* \"#utility.yul\":7091:7151   */\n  tag_125\n  jumpi\n    /* \"#utility.yul\":7147:7148   */\n  0x00\n    /* \"#utility.yul\":7144:7145   */\n  dup1\n    /* \"#utility.yul\":7137:7149   */\n  revert\n    /* \"#utility.yul\":7091:7151   */\ntag_125:\n    /* \"#utility.yul\":7041:7157   */\n  pop\n  jump\t// out\n    /* \"#utility.yul\":7163:7300   */\ntag_55:\n    /* \"#utility.yul\":7217:7222   */\n  0x00\n    /* \"#utility.yul\":7248:7254   */\n  dup2\n    /* \"#utility.yul\":7242:7255   */\n  mload\n    /* \"#utility.yul\":7233:7255   */\n  swap1\n  pop\n    /* \"#utility.yul\":7264:7294   */\n  tag_127\n    /* \"#utility.yul\":7288:7293   */\n  dup2\n    /* \"#utility.yul\":7264:7294   */\n  tag_54\n  jump\t// in\ntag_127:\n    /* \"#utility.yul\":7163:7300   */\n  swap3\n  swap2\n  pop\n  pop\n  jump\t// out\n    /* \"#utility.yul\":7306:7651   */\ntag_26:\n    /* \"#utility.yul\":7373:7379   */\n  0x00\n    /* \"#utility.yul\":7422:7424   */\n  0x20\n    /* \"#utility.yul\":7410:7419   */\n  dup3\n    /* \"#utility.yul\":7401:7408   */\n  dup5\n    /* \"#utility.yul\":7397:7420   */\n  sub\n    /* \"#utility.yul\":7393:7425   */\n  slt\n    /* \"#utility.yul\":7390:7509   */\n  iszero\n  tag_129\n  jumpi\n    /* \"#utility.yul\":7428:7507   */\n  tag_130\n  tag_31\n  jump\t// in\ntag_130:\n    /* \"#utility.yul\":7390:7509   */\ntag_129:\n    /* \"#utility.yul\":7548:7549   */\n  0x00\n    /* \"#utility.yul\":7573:7634   */\n  tag_131\n    /* \"#utility.yul\":7626:7633   */\n  dup5\n    /* \"#utility.yul\":7617:7623   */\n  dup3\n    /* \"#utility.yul\":7606:7615   */\n  dup6\n    /* \"#utility.yul\":7602:7624   */\n  add\n    /* \"#utility.yul\":7573:7634   */\n  tag_55\n  jump\t// in\ntag_131:\n    /* \"#utility.yul\":7563:7634   */\n  swap2\n  pop\n    /* \"#utility.yul\":7519:7644   */\n  pop\n    /* \"#utility.yul\":7306:7651   */\n  swap3\n  swap2\n  pop\n  pop\n  jump\t// out\n    /* \"#utility.yul\":7657:7832   */\ntag_56:\n    /* \"#utility.yul\":7797:7824   */\n  0x5361666545524332303a20617070726f7665206661696c656400000000000000\n    /* \"#utility.yul\":7793:7794   */\n  0x00\n    /* \"#utility.yul\":7785:7791   */\n  dup3\n    /* \"#utility.yul\":7781:7795   */\n  add\n    /* \"#utility.yul\":7774:7825   */\n  mstore\n    /* \"#utility.yul\":7657:7832   */\n  pop\n  jump\t// out\n    /* \"#utility.yul\":7838:8204   */\ntag_57:\n    /* \"#utility.yul\":7980:7983   */\n  0x00\n    /* \"#utility.yul\":8001:8068   */\n  tag_134\n    /* \"#utility.yul\":8065:8067   */\n  0x19\n    /* \"#utility.yul\":8060:8063   */\n  dup4\n    /* \"#utility.yul\":8001:8068   */\n  tag_37\n  jump\t// in\ntag_134:\n    /* \"#utility.yul\":7994:8068   */\n  swap2\n  pop\n    /* \"#utility.yul\":8077:8170   */\n  tag_135\n    /* \"#utility.yul\":8166:8169   */\n  dup3\n    /* \"#utility.yul\":8077:8170   */\n  tag_56\n  jump\t// in\ntag_135:\n    /* \"#utility.yul\":8195:8197   */\n  0x20\n    /* \"#utility.yul\":8190:8193   */\n  dup3\n    /* \"#utility.yul\":8186:8198   */\n  add\n    /* \"#utility.yul\":8179:8198   */\n  swap1\n  pop\n    /* \"#utility.yul\":7838:8204   */\n  swap2\n  swap1\n  pop\n  jump\t// out\n    /* \"#utility.yul\":8210:8629   */\ntag_29:\n    /* \"#utility.yul\":8376:8380   */\n  0x00\n    /* \"#utility.yul\":8414:8416   */\n  0x20\n    /* \"#utility.yul\":8403:8412   */\n  dup3\n    /* \"#utility.yul\":8399:8417   */\n  add\n    /* \"#utility.yul\":8391:8417   */\n  swap1\n  pop\n    /* \"#utility.yul\":8463:8472   */\n  dup2\n    /* \"#utility.yul\":8457:8461   */\n  dup2\n    /* \"#utility.yul\":8453:8473   */\n  sub\n    /* \"#utility.yul\":8449:8450   */\n  0x00\n    /* \"#utility.yul\":8438:8447   */\n  dup4\n    /* \"#utility.yul\":8434:8451   */\n  add\n    /* \"#utility.yul\":8427:8474   */\n  mstore\n    /* \"#utility.yul\":8491:8622   */\n  tag_137\n    /* \"#utility.yul\":8617:8621   */\n  dup2\n    /* \"#utility.yul\":8491:8622   */\n  tag_57\n  jump\t// in\ntag_137:\n    /* \"#utility.yul\":8483:8622   */\n  swap1\n  pop\n    /* \"#utility.yul\":8210:8629   */\n  swap2\n  swap1\n  pop\n  jump\t// out\n    /* \"src/adapters/BastionLeverageAdapterV2.sol\":5117:16054  contract BastionLeverageAdapterV2 {... */\ntag_19:\n  mload(0x80)\n  mload(0xa0)\n  mload(0xc0)\n  mload(0xe0)\n  mload(0x0100)\n  mload(0x0120)\n  codecopy(0x00, dataOffset(sub_0), dataSize(sub_0))\n  0x00\n  assignImmutable(\"0x28bbb0207f31d945816623d3302c5bf67e35f3d933c3b03a2cbc30cfa7ce31d8\")\n  0x00\n  assignImmutable(\"0x6cfd55a66e5cc34b29752b3a64b2ed84f83c6356956121755c4a645dab2f4b8e\")\n  0x00\n  assignImmutable(\"0xc3119e058e9a279f3c808528731a6374852ba6ce41c96ac2a4b3032a47392bcd\")\n  0x00\n  assignImmutable(\"0xda07994851e5595956ad5f42ef8f8c8e244dd44ecb632f01a24fa5f3c80ff057\")\n  0x00\n  assignImmutable(\"0xdc663e2224e3d20e2f93f04c4d7a191ee29ddce660128a0e996f13fca63039a2\")\n  0x00\n  assignImmutable(\"0x29f7dc91bacd20d6dd2aee05db8697d2a4633e96941593f85928b6d956432d2a\")\n  return(0x00, dataSize(sub_0))\nstop\n\nsub_0: assembly {\n        /* \"src/adapters/BastionLeverageAdapterV2.sol\":5117:16054  contract BastionLeverageAdapterV2 {... */\n      mstore(0x40, 0x80)\n      callvalue\n      dup1\n      iszero\n      tag_1\n      jumpi\n      0x00\n      dup1\n      revert\n    tag_1:\n      pop\n      jumpi(tag_2, lt(calldatasize, 0x04))\n      shr(0xe0, calldataload(0x00))\n      dup1\n      0x46ca626b\n      gt\n      tag_17\n      jumpi\n      dup1\n      0x62b2b5f0\n      gt\n      tag_18\n      jumpi\n      dup1\n      0x62b2b5f0\n      eq\n      tag_13\n      jumpi\n      dup1\n      0x7b9e68f2\n      eq\n      tag_14\n      jumpi\n      dup1\n      0x89a30271\n      eq\n      tag_15\n      jumpi\n      dup1\n      0x8e394f03\n      eq\n      tag_16\n      jumpi\n      jump(tag_2)\n    tag_18:\n      dup1\n      0x46ca626b\n      eq\n      tag_10\n      jumpi\n      dup1\n      0x5f04dfe2\n      eq\n      tag_11\n      jumpi\n      dup1\n      0x5fb86b01\n      eq\n      tag_12\n      jumpi\n      jump(tag_2)\n    tag_17:\n      dup1\n      0x38d52e0f\n      gt\n      tag_19\n      jumpi\n      dup1\n      0x38d52e0f\n      eq\n      tag_6\n      jumpi\n      dup1\n      0x3acb5624\n      eq\n      tag_7\n      jumpi\n      dup1\n      0x411557d1\n      eq\n      tag_8\n      jumpi\n      dup1\n      0x454dab23\n      eq\n      tag_9\n      jumpi\n      jump(tag_2)\n    tag_19:\n      dup1\n      0x01e1d114\n      eq\n      tag_3\n      jumpi\n      dup1\n      0x06fdde03\n      eq\n      tag_4\n      jumpi\n      dup1\n      0x32fe7b26\n      eq\n      tag_5\n      jumpi\n    tag_2:\n      0x00\n      dup1\n      revert\n        /* \"src/adapters/BastionLeverageAdapterV2.sol\":8286:9234  function totalAssets() external view returns (uint256) {... */\n    tag_3:\n      tag_20\n      tag_21\n      jump\t// in\n    tag_20:\n      mload(0x40)\n      tag_22\n      swap2\n      swap1\n      tag_23\n      jump\t// in\n    tag_22:\n      mload(0x40)\n      dup1\n      swap2\n      sub\n      swap1\n      return\n        /* \"src/adapters/BastionLeverageAdapterV2.sol\":8050:8137  function name() external pure returns (string memory) { return \"Bastion CETES Alpha\"; } */\n    tag_4:\n      tag_24\n      tag_25\n      jump\t// in\n    tag_24:\n      mload(0x40)\n      tag_26\n      swap2\n      swap1\n      tag_27\n      jump\t// in\n    tag_26:\n      mload(0x40)\n      dup1\n      swap2\n      sub\n      swap1\n      return\n        /* \"src/adapters/BastionLeverageAdapterV2.sol\":6003:6044  ISlipstreamRouter public immutable ROUTER */\n    tag_5:\n      tag_28\n      tag_29\n      jump\t// in\n    tag_28:\n      mload(0x40)\n      tag_30\n      swap2\n      swap1\n      tag_31\n      jump\t// in\n    tag_30:\n      mload(0x40)\n      dup1\n      swap2\n      sub\n      swap1\n      return\n        /* \"src/adapters/BastionLeverageAdapterV2.sol\":7974:8044  function asset() external pure returns (address) { return USDC_ADDR; } */\n    tag_6:\n      tag_32\n      tag_33\n      jump\t// in\n    tag_32:\n      mload(0x40)\n      tag_34\n      swap2\n      swap1\n      tag_35\n      jump\t// in\n    tag_34:\n      mload(0x40)\n      dup1\n      swap2\n      sub\n      swap1\n      return\n        /* \"src/adapters/BastionLeverageAdapterV2.sol\":5965:5996  IMorpho public immutable MORPHO */\n    tag_7:\n      tag_36\n      tag_37\n      jump\t// in\n    tag_36:\n      mload(0x40)\n      tag_38\n      swap2\n      swap1\n      tag_39\n      jump\t// in\n    tag_38:\n      mload(0x40)\n      dup1\n      swap2\n      sub\n      swap1\n      return\n        /* \"src/adapters/BastionLeverageAdapterV2.sol\":6057:6087  address public immutable VAULT */\n    tag_8:\n      tag_40\n      tag_41\n      jump\t// in\n    tag_40:\n      mload(0x40)\n      tag_42\n      swap2\n      swap1\n      tag_35\n      jump\t// in\n    tag_42:\n      mload(0x40)\n      dup1\n      swap2\n      sub\n      swap1\n      return\n        /* \"src/adapters/BastionLeverageAdapterV2.sol\":6094:6128  bytes32 public immutable MARKET_ID */\n    tag_9:\n      tag_43\n      tag_44\n      jump\t// in\n    tag_43:\n      mload(0x40)\n      tag_45\n      swap2\n      swap1\n      tag_46\n      jump\t// in\n    tag_45:\n      mload(0x40)\n      dup1\n      swap2\n      sub\n      swap1\n      return\n        /* \"src/adapters/BastionLeverageAdapterV2.sol\":6226:6265  int24 public constant TICK_SPACING = 10 */\n    tag_10:\n      tag_47\n      tag_48\n      jump\t// in\n    tag_47:\n      mload(0x40)\n      tag_49\n      swap2\n      swap1\n      tag_50\n      jump\t// in\n    tag_49:\n      mload(0x40)\n      dup1\n      swap2\n      sub\n      swap1\n      return\n        /* \"src/adapters/BastionLeverageAdapterV2.sol\":9268:10393  function supply(uint256 assets, address, bytes calldata) external onlyVault {... */\n    tag_11:\n      tag_51\n      0x04\n      dup1\n      calldatasize\n      sub\n      dup2\n      add\n      swap1\n      tag_52\n      swap2\n      swap1\n      tag_53\n      jump\t// in\n    tag_52:\n      tag_54\n      jump\t// in\n    tag_51:\n      stop\n        /* \"src/adapters/BastionLeverageAdapterV2.sol\":8149:8278  function adapterId() external view returns (bytes32) {... */\n    tag_12:\n      tag_55\n      tag_56\n      jump\t// in\n    tag_55:\n      mload(0x40)\n      tag_57\n      swap2\n      swap1\n      tag_46\n      jump\t// in\n    tag_57:\n      mload(0x40)\n      dup1\n      swap2\n      sub\n      swap1\n      return\n        /* \"src/adapters/BastionLeverageAdapterV2.sol\":10426:12441  function withdraw(uint256 assets, address receiver, bytes calldata) external onlyVault {... */\n    tag_13:\n      tag_58\n      0x04\n      dup1\n      calldatasize\n      sub\n      dup2\n      add\n      swap1\n      tag_59\n      swap2\n      swap1\n      tag_53\n      jump\t// in\n    tag_59:\n      tag_60\n      jump\t// in\n    tag_58:\n      stop\n        /* \"src/adapters/BastionLeverageAdapterV2.sol\":6135:6175  IMorpho.MarketParams public marketParams */\n    tag_14:\n      tag_61\n      tag_62\n      jump\t// in\n    tag_61:\n      mload(0x40)\n      tag_63\n      swap6\n      swap5\n      swap4\n      swap3\n      swap2\n      swap1\n      tag_64\n      jump\t// in\n    tag_63:\n      mload(0x40)\n      dup1\n      swap2\n      sub\n      swap1\n      return\n        /* \"src/adapters/BastionLeverageAdapterV2.sol\":5894:5922  IERC20 public immutable USDC */\n    tag_15:\n      tag_65\n      tag_66\n      jump\t// in\n    tag_65:\n      mload(0x40)\n      tag_67\n      swap2\n      swap1\n      tag_68\n      jump\t// in\n    tag_67:\n      mload(0x40)\n      dup1\n      swap2\n      sub\n      swap1\n      return\n        /* \"src/adapters/BastionLeverageAdapterV2.sol\":5929:5958  IERC20 public immutable CETES */\n    tag_16:\n      tag_69\n      tag_70\n      jump\t// in\n    tag_69:\n      mload(0x40)\n      tag_71\n      swap2\n      swap1\n      tag_68\n      jump\t// in\n    tag_71:\n      mload(0x40)\n      dup1\n      swap2\n      sub\n      swap1\n      return\n        /* \"src/adapters/BastionLeverageAdapterV2.sol\":8286:9234  function totalAssets() external view returns (uint256) {... */\n    tag_21:\n        /* \"src/adapters/BastionLeverageAdapterV2.sol\":8332:8339  uint256 */\n      0x00\n        /* \"src/adapters/BastionLeverageAdapterV2.sol\":8352:8379  IMorpho.Position memory pos */\n      dup1\n        /* \"src/adapters/BastionLeverageAdapterV2.sol\":8382:8388  MORPHO */\n      immutable(\"0xda07994851e5595956ad5f42ef8f8c8e244dd44ecb632f01a24fa5f3c80ff057\")\n        /* \"src/adapters/BastionLeverageAdapterV2.sol\":8382:8397  MORPHO.position */\n      0xffffffffffffffffffffffffffffffffffffffff\n      and\n      0x93c52062\n        /* \"src/adapters/BastionLeverageAdapterV2.sol\":8398:8407  MARKET_ID */\n      immutable(\"0x28bbb0207f31d945816623d3302c5bf67e35f3d933c3b03a2cbc30cfa7ce31d8\")\n        /* \"src/adapters/BastionLeverageAdapterV2.sol\":8417:8421  this */\n      address\n        /* \"src/adapters/BastionLeverageAdapterV2.sol\":8382:8423  MORPHO.position(MARKET_ID, address(this)) */\n      mload(0x40)\n      dup4\n      0xffffffff\n      and\n      0xe0\n      shl\n      dup2\n      mstore\n      0x04\n      add\n      tag_73\n      swap3\n      swap2\n      swap1\n      tag_74\n      jump\t// in\n    tag_73:\n      0x60\n      mload(0x40)\n      dup1\n      dup4\n      sub\n      dup2\n      dup7\n      gas\n      staticcall\n      iszero\n      dup1\n      iszero\n      tag_76\n      jumpi\n      returndatasize\n      0x00\n      dup1\n      returndatacopy\n      revert(0x00, returndatasize)\n    tag_76:\n      pop\n      pop\n      pop\n      pop\n      mload(0x40)\n      returndatasize\n      not(0x1f)\n      0x1f\n      dup3\n      add\n      and\n      dup3\n      add\n      dup1\n      0x40\n      mstore\n      pop\n      dup2\n      add\n      swap1\n      tag_77\n      swap2\n      swap1\n      tag_78\n      jump\t// in\n    tag_77:\n        /* \"src/adapters/BastionLeverageAdapterV2.sol\":8352:8423  IMorpho.Position memory pos = MORPHO.position(MARKET_ID, address(this)) */\n      swap1\n      pop\n        /* \"src/adapters/BastionLeverageAdapterV2.sol\":8466:8467  0 */\n      0x00\n        /* \"src/adapters/BastionLeverageAdapterV2.sol\":8448:8451  pos */\n      dup2\n        /* \"src/adapters/BastionLeverageAdapterV2.sol\":8448:8462  pos.collateral */\n      0x40\n      add\n      mload\n        /* \"src/adapters/BastionLeverageAdapterV2.sol\":8448:8467  pos.collateral == 0 */\n      0xffffffffffffffffffffffffffffffff\n      and\n      eq\n        /* \"src/adapters/BastionLeverageAdapterV2.sol\":8448:8492  pos.collateral == 0 && pos.borrowShares == 0 */\n      dup1\n      iszero\n      tag_79\n      jumpi\n      pop\n        /* \"src/adapters/BastionLeverageAdapterV2.sol\":8491:8492  0 */\n      0x00\n        /* \"src/adapters/BastionLeverageAdapterV2.sol\":8471:8474  pos */\n      dup2\n        /* \"src/adapters/BastionLeverageAdapterV2.sol\":8471:8487  pos.borrowShares */\n      0x20\n      add\n      mload\n        /* \"src/adapters/BastionLeverageAdapterV2.sol\":8471:8492  pos.borrowShares == 0 */\n      0xffffffffffffffffffffffffffffffff\n      and\n      eq\n        /* \"src/adapters/BastionLeverageAdapterV2.sol\":8448:8492  pos.collateral == 0 && pos.borrowShares == 0 */\n    tag_79:\n        /* \"src/adapters/BastionLeverageAdapterV2.sol\":8444:8502  if (pos.collateral == 0 && pos.borrowShares == 0) return 0 */\n      iszero\n      tag_80\n      jumpi\n        /* \"src/adapters/BastionLeverageAdapterV2.sol\":8501:8502  0 */\n      0x00\n        /* \"src/adapters/BastionLeverageAdapterV2.sol\":8494:8502  return 0 */\n      swap2\n      pop\n      pop\n      jump(tag_72)\n        /* \"src/adapters/BastionLeverageAdapterV2.sol\":8444:8502  if (pos.collateral == 0 && pos.borrowShares == 0) return 0 */\n    tag_80:\n        /* \"src/adapters/BastionLeverageAdapterV2.sol\":8515:8547  IMorpho.Market memory marketData */\n      0x00\n        /* \"src/adapters/BastionLeverageAdapterV2.sol\":8550:8556  MORPHO */\n      immutable(\"0xda07994851e5595956ad5f42ef8f8c8e244dd44ecb632f01a24fa5f3c80ff057\")\n        /* \"src/adapters/BastionLeverageAdapterV2.sol\":8550:8563  MORPHO.market */\n      0xffffffffffffffffffffffffffffffffffffffff\n      and\n      0x5c60e39a\n        /* \"src/adapters/BastionLeverageAdapterV2.sol\":8564:8573  MARKET_ID */\n      immutable(\"0x28bbb0207f31d945816623d3302c5bf67e35f3d933c3b03a2cbc30cfa7ce31d8\")\n        /* \"src/adapters/BastionLeverageAdapterV2.sol\":8550:8574  MORPHO.market(MARKET_ID) */\n      mload(0x40)\n      dup3\n      0xffffffff\n      and\n      0xe0\n      shl\n      dup2\n      mstore\n      0x04\n      add\n      tag_81\n      swap2\n      swap1\n      tag_46\n      jump\t// in\n    tag_81:\n      0xc0\n      mload(0x40)\n      dup1\n      dup4\n      sub\n      dup2\n      dup7\n      gas\n      staticcall\n      iszero\n      dup1\n      iszero\n      tag_83\n      jumpi\n      returndatasize\n      0x00\n      dup1\n      returndatacopy\n      revert(0x00, returndatasize)\n    tag_83:\n      pop\n      pop\n      pop\n      pop\n      mload(0x40)\n      returndatasize\n      not(0x1f)\n      0x1f\n      dup3\n      add\n      and\n      dup3\n      add\n      dup1\n      0x40\n      mstore\n      pop\n      dup2\n      add\n      swap1\n      tag_84\n      swap2\n      swap1\n      tag_85\n      jump\t// in\n    tag_84:\n        /* \"src/adapters/BastionLeverageAdapterV2.sol\":8515:8574  IMorpho.Market memory marketData = MORPHO.market(MARKET_ID) */\n      swap1\n      pop\n        /* \"src/adapters/BastionLeverageAdapterV2.sol\":8595:8614  uint256 borrowIndex */\n      0x00\n        /* \"src/adapters/BastionLeverageAdapterV2.sol\":8649:8650  0 */\n      dup1\n        /* \"src/adapters/BastionLeverageAdapterV2.sol\":8617:8627  marketData */\n      dup3\n        /* \"src/adapters/BastionLeverageAdapterV2.sol\":8617:8645  marketData.totalBorrowAssets */\n      0x40\n      add\n      mload\n        /* \"src/adapters/BastionLeverageAdapterV2.sol\":8617:8650  marketData.totalBorrowAssets == 0 */\n      0xffffffffffffffffffffffffffffffff\n      and\n      eq\n        /* \"src/adapters/BastionLeverageAdapterV2.sol\":8617:8764  marketData.totalBorrowAssets == 0 ... */\n      tag_86\n      jumpi\n        /* \"src/adapters/BastionLeverageAdapterV2.sol\":8688:8764  Math.mulDiv(marketData.totalBorrowAssets, WAD, marketData.totalBorrowShares) */\n      tag_87\n        /* \"src/adapters/BastionLeverageAdapterV2.sol\":8700:8710  marketData */\n      dup3\n        /* \"src/adapters/BastionLeverageAdapterV2.sol\":8700:8728  marketData.totalBorrowAssets */\n      0x40\n      add\n      mload\n        /* \"src/adapters/BastionLeverageAdapterV2.sol\":8688:8764  Math.mulDiv(marketData.totalBorrowAssets, WAD, marketData.totalBorrowShares) */\n      0xffffffffffffffffffffffffffffffff\n      and\n        /* \"src/adapters/BastionLeverageAdapterV2.sol\":6322:6326  1e18 */\n      0x0de0b6b3a7640000\n        /* \"src/adapters/BastionLeverageAdapterV2.sol\":8735:8745  marketData */\n      dup5\n        /* \"src/adapters/BastionLeverageAdapterV2.sol\":8735:8763  marketData.totalBorrowShares */\n      0x60\n      add\n      mload\n        /* \"src/adapters/BastionLeverageAdapterV2.sol\":8688:8764  Math.mulDiv(marketData.totalBorrowAssets, WAD, marketData.totalBorrowShares) */\n      0xffffffffffffffffffffffffffffffff\n      and\n        /* \"src/adapters/BastionLeverageAdapterV2.sol\":8688:8699  Math.mulDiv */\n      tag_88\n        /* \"src/adapters/BastionLeverageAdapterV2.sol\":8688:8764  Math.mulDiv(marketData.totalBorrowAssets, WAD, marketData.totalBorrowShares) */\n      jump\t// in\n    tag_87:\n        /* \"src/adapters/BastionLeverageAdapterV2.sol\":8617:8764  marketData.totalBorrowAssets == 0 ... */\n      jump(tag_89)\n    tag_86:\n        /* \"src/adapters/BastionLeverageAdapterV2.sol\":8667:8671  1e18 */\n      0x0de0b6b3a7640000\n        /* \"src/adapters/BastionLeverageAdapterV2.sol\":8617:8764  marketData.totalBorrowAssets == 0 ... */\n    tag_89:\n        /* \"src/adapters/BastionLeverageAdapterV2.sol\":8595:8764  uint256 borrowIndex = marketData.totalBorrowAssets == 0 ... */\n      swap1\n      pop\n        /* \"src/adapters/BastionLeverageAdapterV2.sol\":8868:8886  uint256 debtAssets */\n      0x00\n        /* \"src/adapters/BastionLeverageAdapterV2.sol\":8889:8947  Math.mulDivUp(uint256(pos.borrowShares), borrowIndex, WAD) */\n      tag_90\n        /* \"src/adapters/BastionLeverageAdapterV2.sol\":8911:8914  pos */\n      dup5\n        /* \"src/adapters/BastionLeverageAdapterV2.sol\":8911:8927  pos.borrowShares */\n      0x20\n      add\n      mload\n        /* \"src/adapters/BastionLeverageAdapterV2.sol\":8903:8928  uint256(pos.borrowShares) */\n      0xffffffffffffffffffffffffffffffff\n      and\n        /* \"src/adapters/BastionLeverageAdapterV2.sol\":8930:8941  borrowIndex */\n      dup4\n        /* \"src/adapters/BastionLeverageAdapterV2.sol\":6322:6326  1e18 */\n      0x0de0b6b3a7640000\n        /* \"src/adapters/BastionLeverageAdapterV2.sol\":8889:8902  Math.mulDivUp */\n      tag_91\n        /* \"src/adapters/BastionLeverageAdapterV2.sol\":8889:8947  Math.mulDivUp(uint256(pos.borrowShares), borrowIndex, WAD) */\n      jump\t// in\n    tag_90:\n        /* \"src/adapters/BastionLeverageAdapterV2.sol\":8868:8947  uint256 debtAssets = Math.mulDivUp(uint256(pos.borrowShares), borrowIndex, WAD) */\n      swap1\n      pop\n        /* \"src/adapters/BastionLeverageAdapterV2.sol\":8960:8979  uint256 oraclePrice */\n      0x00\n        /* \"src/adapters/BastionLeverageAdapterV2.sol\":8990:9002  marketParams */\n      dup1\n        /* \"src/adapters/BastionLeverageAdapterV2.sol\":8990:9009  marketParams.oracle */\n      0x02\n      add\n      0x00\n      swap1\n      sload\n      swap1\n      0x0100\n      exp\n      swap1\n      div\n      0xffffffffffffffffffffffffffffffffffffffff\n      and\n        /* \"src/adapters/BastionLeverageAdapterV2.sol\":8982:9016  IOracle(marketParams.oracle).price */\n      0xffffffffffffffffffffffffffffffffffffffff\n      and\n      0xa035b1fe\n        /* \"src/adapters/BastionLeverageAdapterV2.sol\":8982:9018  IOracle(marketParams.oracle).price() */\n      mload(0x40)\n      dup2\n      0xffffffff\n      and\n      0xe0\n      shl\n      dup2\n      mstore\n      0x04\n      add\n      0x20\n      mload(0x40)\n      dup1\n      dup4\n      sub\n      dup2\n      dup7\n      gas\n      staticcall\n      iszero\n      dup1\n      iszero\n      tag_93\n      jumpi\n      returndatasize\n      0x00\n      dup1\n      returndatacopy\n      revert(0x00, returndatasize)\n    tag_93:\n      pop\n      pop\n      pop\n      pop\n      mload(0x40)\n      returndatasize\n      not(0x1f)\n      0x1f\n      dup3\n      add\n      and\n      dup3\n      add\n      dup1\n      0x40\n      mstore\n      pop\n      dup2\n      add\n      swap1\n      tag_94\n      swap2\n      swap1\n      tag_95\n      jump\t// in\n    tag_94:\n        /* \"src/adapters/BastionLeverageAdapterV2.sol\":8960:9018  uint256 oraclePrice = IOracle(marketParams.oracle).price() */\n      swap1\n      pop\n        /* \"src/adapters/BastionLeverageAdapterV2.sol\":9029:9052  uint256 collateralValue */\n      0x00\n        /* \"src/adapters/BastionLeverageAdapterV2.sol\":9055:9124  Math.mulDiv(uint256(pos.collateral), oraclePrice, ORACLE_PRICE_SCALE) */\n      tag_96\n        /* \"src/adapters/BastionLeverageAdapterV2.sol\":9075:9078  pos */\n      dup7\n        /* \"src/adapters/BastionLeverageAdapterV2.sol\":9075:9089  pos.collateral */\n      0x40\n      add\n      mload\n        /* \"src/adapters/BastionLeverageAdapterV2.sol\":9067:9090  uint256(pos.collateral) */\n      0xffffffffffffffffffffffffffffffff\n      and\n        /* \"src/adapters/BastionLeverageAdapterV2.sol\":9092:9103  oraclePrice */\n      dup4\n        /* \"src/adapters/BastionLeverageAdapterV2.sol\":6371:6375  1e36 */\n      0xc097ce7bc90715b34b9f1000000000\n        /* \"src/adapters/BastionLeverageAdapterV2.sol\":9055:9066  Math.mulDiv */\n      tag_88\n        /* \"src/adapters/BastionLeverageAdapterV2.sol\":9055:9124  Math.mulDiv(uint256(pos.collateral), oraclePrice, ORACLE_PRICE_SCALE) */\n      jump\t// in\n    tag_96:\n        /* \"src/adapters/BastionLeverageAdapterV2.sol\":9029:9124  uint256 collateralValue = Math.mulDiv(uint256(pos.collateral), oraclePrice, ORACLE_PRICE_SCALE) */\n      swap1\n      pop\n        /* \"src/adapters/BastionLeverageAdapterV2.sol\":9155:9170  collateralValue */\n      dup1\n        /* \"src/adapters/BastionLeverageAdapterV2.sol\":9141:9151  debtAssets */\n      dup4\n        /* \"src/adapters/BastionLeverageAdapterV2.sol\":9141:9170  debtAssets >= collateralValue */\n      lt\n        /* \"src/adapters/BastionLeverageAdapterV2.sol\":9137:9180  if (debtAssets >= collateralValue) return 0 */\n      tag_97\n      jumpi\n        /* \"src/adapters/BastionLeverageAdapterV2.sol\":9179:9180  0 */\n      0x00\n        /* \"src/adapters/BastionLeverageAdapterV2.sol\":9172:9180  return 0 */\n      swap7\n      pop\n      pop\n      pop\n      pop\n      pop\n      pop\n      pop\n      jump(tag_72)\n        /* \"src/adapters/BastionLeverageAdapterV2.sol\":9137:9180  if (debtAssets >= collateralValue) return 0 */\n    tag_97:\n        /* \"src/adapters/BastionLeverageAdapterV2.sol\":9216:9226  debtAssets */\n      dup3\n        /* \"src/adapters/BastionLeverageAdapterV2.sol\":9198:9213  collateralValue */\n      dup2\n        /* \"src/adapters/BastionLeverageAdapterV2.sol\":9198:9226  collateralValue - debtAssets */\n      tag_98\n      swap2\n      swap1\n      tag_99\n      jump\t// in\n    tag_98:\n        /* \"src/adapters/BastionLeverageAdapterV2.sol\":9191:9226  return collateralValue - debtAssets */\n      swap7\n      pop\n      pop\n      pop\n      pop\n      pop\n      pop\n      pop\n        /* \"src/adapters/BastionLeverageAdapterV2.sol\":8286:9234  function totalAssets() external view returns (uint256) {... */\n    tag_72:\n      swap1\n      jump\t// out\n        /* \"src/adapters/BastionLeverageAdapterV2.sol\":8050:8137  function name() external pure returns (string memory) { return \"Bastion CETES Alpha\"; } */\n    tag_25:\n        /* \"src/adapters/BastionLeverageAdapterV2.sol\":8089:8102  string memory */\n      0x60\n        /* \"src/adapters/BastionLeverageAdapterV2.sol\":8106:8134  return \"Bastion CETES Alpha\" */\n      mload(0x40)\n      dup1\n      0x40\n      add\n      0x40\n      mstore\n      dup1\n      0x13\n      dup2\n      mstore\n      0x20\n      add\n      0x42617374696f6e20434554455320416c70686100000000000000000000000000\n      dup2\n      mstore\n      pop\n      swap1\n      pop\n        /* \"src/adapters/BastionLeverageAdapterV2.sol\":8050:8137  function name() external pure returns (string memory) { return \"Bastion CETES Alpha\"; } */\n      swap1\n      jump\t// out\n        /* \"src/adapters/BastionLeverageAdapterV2.sol\":6003:6044  ISlipstreamRouter public immutable ROUTER */\n    tag_29:\n      immutable(\"0xc3119e058e9a279f3c808528731a6374852ba6ce41c96ac2a4b3032a47392bcd\")\n      dup2\n      jump\t// out\n        /* \"src/adapters/BastionLeverageAdapterV2.sol\":7974:8044  function asset() external pure returns (address) { return USDC_ADDR; } */\n    tag_33:\n        /* \"src/adapters/BastionLeverageAdapterV2.sol\":8014:8021  address */\n      0x00\n        /* \"src/adapters/BastionLeverageAdapterV2.sol\":5360:5402  0x833589fCD6eDb6E08f4c7C32D4f71b54bdA02913 */\n      0x833589fcd6edb6e08f4c7c32d4f71b54bda02913\n        /* \"src/adapters/BastionLeverageAdapterV2.sol\":8025:8041  return USDC_ADDR */\n      swap1\n      pop\n        /* \"src/adapters/BastionLeverageAdapterV2.sol\":7974:8044  function asset() external pure returns (address) { return USDC_ADDR; } */\n      swap1\n      jump\t// out\n        /* \"src/adapters/BastionLeverageAdapterV2.sol\":5965:5996  IMorpho public immutable MORPHO */\n    tag_37:\n      immutable(\"0xda07994851e5595956ad5f42ef8f8c8e244dd44ecb632f01a24fa5f3c80ff057\")\n      dup2\n      jump\t// out\n        /* \"src/adapters/BastionLeverageAdapterV2.sol\":6057:6087  address public immutable VAULT */\n    tag_41:\n      immutable(\"0x6cfd55a66e5cc34b29752b3a64b2ed84f83c6356956121755c4a645dab2f4b8e\")\n      dup2\n      jump\t// out\n        /* \"src/adapters/BastionLeverageAdapterV2.sol\":6094:6128  bytes32 public immutable MARKET_ID */\n    tag_44:\n      immutable(\"0x28bbb0207f31d945816623d3302c5bf67e35f3d933c3b03a2cbc30cfa7ce31d8\")\n      dup2\n      jump\t// out\n        /* \"src/adapters/BastionLeverageAdapterV2.sol\":6226:6265  int24 public constant TICK_SPACING = 10 */\n    tag_48:\n        /* \"src/adapters/BastionLeverageAdapterV2.sol\":6263:6265  10 */\n      0x0a\n        /* \"src/adapters/BastionLeverageAdapterV2.sol\":6226:6265  int24 public constant TICK_SPACING = 10 */\n      dup2\n      jump\t// out\n        /* \"src/adapters/BastionLeverageAdapterV2.sol\":9268:10393  function supply(uint256 assets, address, bytes calldata) external onlyVault {... */\n    tag_54:\n        /* \"src/adapters/BastionLeverageAdapterV2.sol\":6879:6884  VAULT */\n      immutable(\"0x6cfd55a66e5cc34b29752b3a64b2ed84f83c6356956121755c4a645dab2f4b8e\")\n        /* \"src/adapters/BastionLeverageAdapterV2.sol\":6865:6884  msg.sender == VAULT */\n      0xffffffffffffffffffffffffffffffffffffffff\n      and\n        /* \"src/adapters/BastionLeverageAdapterV2.sol\":6865:6875  msg.sender */\n      caller\n        /* \"src/adapters/BastionLeverageAdapterV2.sol\":6865:6884  msg.sender == VAULT */\n      0xffffffffffffffffffffffffffffffffffffffff\n      and\n      eq\n        /* \"src/adapters/BastionLeverageAdapterV2.sol\":6857:6908  require(msg.sender == VAULT, \"Bastion: Only Vault\") */\n      tag_103\n      jumpi\n      mload(0x40)\n      0x08c379a000000000000000000000000000000000000000000000000000000000\n      dup2\n      mstore\n      0x04\n      add\n      tag_104\n      swap1\n      tag_105\n      jump\t// in\n    tag_104:\n      mload(0x40)\n      dup1\n      swap2\n      sub\n      swap1\n      revert\n    tag_103:\n        /* \"src/adapters/BastionLeverageAdapterV2.sol\":9369:9370  0 */\n      0x00\n        /* \"src/adapters/BastionLeverageAdapterV2.sol\":9359:9365  assets */\n      dup5\n        /* \"src/adapters/BastionLeverageAdapterV2.sol\":9359:9370  assets == 0 */\n      sub\n        /* \"src/adapters/BastionLeverageAdapterV2.sol\":9355:9391  if (assets == 0) revert AmountZero() */\n      tag_107\n      jumpi\n        /* \"src/adapters/BastionLeverageAdapterV2.sol\":9379:9391  AmountZero() */\n      mload(0x40)\n      0xcbca5aa200000000000000000000000000000000000000000000000000000000\n      dup2\n      mstore\n      0x04\n      add\n      mload(0x40)\n      dup1\n      swap2\n      sub\n      swap1\n      revert\n        /* \"src/adapters/BastionLeverageAdapterV2.sol\":9355:9391  if (assets == 0) revert AmountZero() */\n    tag_107:\n        /* \"src/adapters/BastionLeverageAdapterV2.sol\":9404:9455  USDC.safeTransferFrom(VAULT, address(this), assets) */\n      tag_108\n        /* \"src/adapters/BastionLeverageAdapterV2.sol\":9426:9431  VAULT */\n      immutable(\"0x6cfd55a66e5cc34b29752b3a64b2ed84f83c6356956121755c4a645dab2f4b8e\")\n        /* \"src/adapters/BastionLeverageAdapterV2.sol\":9441:9445  this */\n      address\n        /* \"src/adapters/BastionLeverageAdapterV2.sol\":9448:9454  assets */\n      dup7\n        /* \"src/adapters/BastionLeverageAdapterV2.sol\":9404:9408  USDC */\n      immutable(\"0x29f7dc91bacd20d6dd2aee05db8697d2a4633e96941593f85928b6d956432d2a\")\n        /* \"src/adapters/BastionLeverageAdapterV2.sol\":9404:9425  USDC.safeTransferFrom */\n      0xffffffffffffffffffffffffffffffffffffffff\n      and\n      tag_109\n      swap1\n        /* \"src/adapters/BastionLeverageAdapterV2.sol\":9404:9455  USDC.safeTransferFrom(VAULT, address(this), assets) */\n      swap4\n      swap3\n      swap2\n      swap1\n      0xffffffff\n      and\n      jump\t// in\n    tag_108:\n        /* \"src/adapters/BastionLeverageAdapterV2.sol\":9466:9472  MORPHO */\n      immutable(\"0xda07994851e5595956ad5f42ef8f8c8e244dd44ecb632f01a24fa5f3c80ff057\")\n        /* \"src/adapters/BastionLeverageAdapterV2.sol\":9466:9487  MORPHO.accrueInterest */\n      0xffffffffffffffffffffffffffffffffffffffff\n      and\n      0x151c1ade\n        /* \"src/adapters/BastionLeverageAdapterV2.sol\":9488:9500  marketParams */\n      0x00\n        /* \"src/adapters/BastionLeverageAdapterV2.sol\":9466:9501  MORPHO.accrueInterest(marketParams) */\n      mload(0x40)\n      dup3\n      0xffffffff\n      and\n      0xe0\n      shl\n      dup2\n      mstore\n      0x04\n      add\n      tag_110\n      swap2\n      swap1\n      tag_111\n      jump\t// in\n    tag_110:\n      0x00\n      mload(0x40)\n      dup1\n      dup4\n      sub\n      dup2\n      0x00\n      dup8\n      dup1\n      extcodesize\n      iszero\n      dup1\n      iszero\n      tag_112\n      jumpi\n      0x00\n      dup1\n      revert\n    tag_112:\n      pop\n      gas\n      call\n      iszero\n      dup1\n      iszero\n      tag_114\n      jumpi\n      returndatasize\n      0x00\n      dup1\n      returndatacopy\n      revert(0x00, returndatasize)\n    tag_114:\n      pop\n      pop\n      pop\n      pop\n        /* \"src/adapters/BastionLeverageAdapterV2.sol\":9514:9533  uint256 currentUsdc */\n      0x00\n        /* \"src/adapters/BastionLeverageAdapterV2.sol\":9536:9542  assets */\n      dup5\n        /* \"src/adapters/BastionLeverageAdapterV2.sol\":9514:9542  uint256 currentUsdc = assets */\n      swap1\n      pop\n        /* \"src/adapters/BastionLeverageAdapterV2.sol\":9553:9581  uint256 totalCollateralAdded */\n      0x00\n        /* \"src/adapters/BastionLeverageAdapterV2.sol\":9621:9630  uint256 i */\n      dup1\n        /* \"src/adapters/BastionLeverageAdapterV2.sol\":9633:9634  0 */\n      0x00\n        /* \"src/adapters/BastionLeverageAdapterV2.sol\":9621:9634  uint256 i = 0 */\n      swap1\n      pop\n        /* \"src/adapters/BastionLeverageAdapterV2.sol\":9616:10331  for (uint256 i = 0; i < 3; i++) {... */\n    tag_115:\n        /* \"src/adapters/BastionLeverageAdapterV2.sol\":9640:9641  3 */\n      0x03\n        /* \"src/adapters/BastionLeverageAdapterV2.sol\":9636:9637  i */\n      dup2\n        /* \"src/adapters/BastionLeverageAdapterV2.sol\":9636:9641  i < 3 */\n      lt\n        /* \"src/adapters/BastionLeverageAdapterV2.sol\":9616:10331  for (uint256 i = 0; i < 3; i++) {... */\n      iszero\n      tag_116\n      jumpi\n        /* \"src/adapters/BastionLeverageAdapterV2.sol\":6555:6558  1e4 */\n      0x2710\n        /* \"src/adapters/BastionLeverageAdapterV2.sol\":9667:9678  currentUsdc */\n      dup4\n        /* \"src/adapters/BastionLeverageAdapterV2.sol\":9667:9695  currentUsdc < DUST_THRESHOLD */\n      lt\n        /* \"src/adapters/BastionLeverageAdapterV2.sol\":9697:9702  break */\n      tag_116\n        /* \"src/adapters/BastionLeverageAdapterV2.sol\":9663:9702  if (currentUsdc < DUST_THRESHOLD) break */\n      jumpi\n        /* \"src/adapters/BastionLeverageAdapterV2.sol\":9719:9738  uint256 cetesBought */\n      0x00\n        /* \"src/adapters/BastionLeverageAdapterV2.sol\":9741:9770  _swapUsdcToCetes(currentUsdc) */\n      tag_119\n        /* \"src/adapters/BastionLeverageAdapterV2.sol\":9758:9769  currentUsdc */\n      dup5\n        /* \"src/adapters/BastionLeverageAdapterV2.sol\":9741:9757  _swapUsdcToCetes */\n      tag_120\n        /* \"src/adapters/BastionLeverageAdapterV2.sol\":9741:9770  _swapUsdcToCetes(currentUsdc) */\n      jump\t// in\n    tag_119:\n        /* \"src/adapters/BastionLeverageAdapterV2.sol\":9719:9770  uint256 cetesBought = _swapUsdcToCetes(currentUsdc) */\n      swap1\n      pop\n        /* \"src/adapters/BastionLeverageAdapterV2.sol\":9809:9820  cetesBought */\n      dup1\n        /* \"src/adapters/BastionLeverageAdapterV2.sol\":9785:9820  totalCollateralAdded += cetesBought */\n      dup4\n      tag_121\n      swap2\n      swap1\n      tag_122\n      jump\t// in\n    tag_121:\n      swap3\n      pop\n        /* \"src/adapters/BastionLeverageAdapterV2.sol\":9837:9843  MORPHO */\n      immutable(\"0xda07994851e5595956ad5f42ef8f8c8e244dd44ecb632f01a24fa5f3c80ff057\")\n        /* \"src/adapters/BastionLeverageAdapterV2.sol\":9837:9860  MORPHO.supplyCollateral */\n      0xffffffffffffffffffffffffffffffffffffffff\n      and\n      0x238d6579\n        /* \"src/adapters/BastionLeverageAdapterV2.sol\":9861:9873  marketParams */\n      0x00\n        /* \"src/adapters/BastionLeverageAdapterV2.sol\":9875:9886  cetesBought */\n      dup4\n        /* \"src/adapters/BastionLeverageAdapterV2.sol\":9896:9900  this */\n      address\n        /* \"src/adapters/BastionLeverageAdapterV2.sol\":9837:9909  MORPHO.supplyCollateral(marketParams, cetesBought, address(this), hex\"\") */\n      mload(0x40)\n      dup5\n      0xffffffff\n      and\n      0xe0\n      shl\n      dup2\n      mstore\n      0x04\n      add\n      tag_123\n      swap4\n      swap3\n      swap2\n      swap1\n      tag_124\n      jump\t// in\n    tag_123:\n      0x00\n      mload(0x40)\n      dup1\n      dup4\n      sub\n      dup2\n      0x00\n      dup8\n      dup1\n      extcodesize\n      iszero\n      dup1\n      iszero\n      tag_125\n      jumpi\n      0x00\n      dup1\n      revert\n    tag_125:\n      pop\n      gas\n      call\n      iszero\n      dup1\n      iszero\n      tag_127\n      jumpi\n      returndatasize\n      0x00\n      dup1\n      returndatacopy\n      revert(0x00, returndatasize)\n    tag_127:\n      pop\n      pop\n      pop\n      pop\n        /* \"src/adapters/BastionLeverageAdapterV2.sol\":9934:9935  2 */\n      0x02\n        /* \"src/adapters/BastionLeverageAdapterV2.sol\":9930:9931  i */\n      dup3\n        /* \"src/adapters/BastionLeverageAdapterV2.sol\":9930:9935  i < 2 */\n      lt\n        /* \"src/adapters/BastionLeverageAdapterV2.sol\":9926:10320  if (i < 2) { ... */\n      iszero\n      tag_128\n      jumpi\n        /* \"src/adapters/BastionLeverageAdapterV2.sol\":9957:9975  uint256 borrowable */\n      0x00\n        /* \"src/adapters/BastionLeverageAdapterV2.sol\":9978:10006  _calculateBorrowableAmount() */\n      tag_129\n        /* \"src/adapters/BastionLeverageAdapterV2.sol\":9978:10004  _calculateBorrowableAmount */\n      tag_130\n        /* \"src/adapters/BastionLeverageAdapterV2.sol\":9978:10006  _calculateBorrowableAmount() */\n      jump\t// in\n    tag_129:\n        /* \"src/adapters/BastionLeverageAdapterV2.sol\":9957:10006  uint256 borrowable = _calculateBorrowableAmount() */\n      swap1\n      pop\n        /* \"src/adapters/BastionLeverageAdapterV2.sol\":6555:6558  1e4 */\n      0x2710\n        /* \"src/adapters/BastionLeverageAdapterV2.sol\":10029:10039  borrowable */\n      dup2\n        /* \"src/adapters/BastionLeverageAdapterV2.sol\":10029:10056  borrowable > DUST_THRESHOLD */\n      gt\n        /* \"src/adapters/BastionLeverageAdapterV2.sol\":10025:10305  if (borrowable > DUST_THRESHOLD) {... */\n      iszero\n      tag_131\n      jumpi\n        /* \"src/adapters/BastionLeverageAdapterV2.sol\":10082:10098  uint256 borrowed */\n      0x00\n        /* \"src/adapters/BastionLeverageAdapterV2.sol\":10104:10110  MORPHO */\n      immutable(\"0xda07994851e5595956ad5f42ef8f8c8e244dd44ecb632f01a24fa5f3c80ff057\")\n        /* \"src/adapters/BastionLeverageAdapterV2.sol\":10104:10117  MORPHO.borrow */\n      0xffffffffffffffffffffffffffffffffffffffff\n      and\n      0x50d8cd4b\n        /* \"src/adapters/BastionLeverageAdapterV2.sol\":10118:10130  marketParams */\n      0x00\n        /* \"src/adapters/BastionLeverageAdapterV2.sol\":10132:10142  borrowable */\n      dup5\n        /* \"src/adapters/BastionLeverageAdapterV2.sol\":10144:10145  0 */\n      0x00\n        /* \"src/adapters/BastionLeverageAdapterV2.sol\":10155:10159  this */\n      address\n        /* \"src/adapters/BastionLeverageAdapterV2.sol\":10170:10174  this */\n      address\n        /* \"src/adapters/BastionLeverageAdapterV2.sol\":10104:10176  MORPHO.borrow(marketParams, borrowable, 0, address(this), address(this)) */\n      mload(0x40)\n      dup7\n      0xffffffff\n      and\n      0xe0\n      shl\n      dup2\n      mstore\n      0x04\n      add\n      tag_132\n      swap6\n      swap5\n      swap4\n      swap3\n      swap2\n      swap1\n      tag_133\n      jump\t// in\n    tag_132:\n      0x40\n      dup1\n      mload\n      dup1\n      dup4\n      sub\n      dup2\n      0x00\n      dup8\n      gas\n      call\n      iszero\n      dup1\n      iszero\n      tag_135\n      jumpi\n      returndatasize\n      0x00\n      dup1\n      returndatacopy\n      revert(0x00, returndatasize)\n    tag_135:\n      pop\n      pop\n      pop\n      pop\n      mload(0x40)\n      returndatasize\n      not(0x1f)\n      0x1f\n      dup3\n      add\n      and\n      dup3\n      add\n      dup1\n      0x40\n      mstore\n      pop\n      dup2\n      add\n      swap1\n      tag_136\n      swap2\n      swap1\n      tag_137\n      jump\t// in\n    tag_136:\n        /* \"src/adapters/BastionLeverageAdapterV2.sol\":10081:10176  (uint256 borrowed, ) = MORPHO.borrow(marketParams, borrowable, 0, address(this), address(this)) */\n      pop\n      swap1\n      pop\n        /* \"src/adapters/BastionLeverageAdapterV2.sol\":10213:10221  borrowed */\n      dup1\n        /* \"src/adapters/BastionLeverageAdapterV2.sol\":10199:10221  currentUsdc = borrowed */\n      swap6\n      pop\n        /* \"src/adapters/BastionLeverageAdapterV2.sol\":10058:10241  {... */\n      pop\n        /* \"src/adapters/BastionLeverageAdapterV2.sol\":10025:10305  if (borrowable > DUST_THRESHOLD) {... */\n      jump(tag_138)\n    tag_131:\n        /* \"src/adapters/BastionLeverageAdapterV2.sol\":10284:10285  0 */\n      0x00\n        /* \"src/adapters/BastionLeverageAdapterV2.sol\":10270:10285  currentUsdc = 0 */\n      swap5\n      pop\n        /* \"src/adapters/BastionLeverageAdapterV2.sol\":10025:10305  if (borrowable > DUST_THRESHOLD) {... */\n    tag_138:\n        /* \"src/adapters/BastionLeverageAdapterV2.sol\":9937:10320  { ... */\n      pop\n        /* \"src/adapters/BastionLeverageAdapterV2.sol\":9926:10320  if (i < 2) { ... */\n    tag_128:\n        /* \"src/adapters/BastionLeverageAdapterV2.sol\":9648:10331  {... */\n      pop\n        /* \"src/adapters/BastionLeverageAdapterV2.sol\":9643:9646  i++ */\n      dup1\n      dup1\n      tag_139\n      swap1\n      tag_140\n      jump\t// in\n    tag_139:\n      swap2\n      pop\n      pop\n        /* \"src/adapters/BastionLeverageAdapterV2.sol\":9616:10331  for (uint256 i = 0; i < 3; i++) {... */\n      jump(tag_115)\n    tag_116:\n      pop\n        /* \"src/adapters/BastionLeverageAdapterV2.sol\":10346:10385  Leveraged(assets, totalCollateralAdded) */\n      0x9aef77dfb00e64825b336ee02a46fedc85577c91809066957aaaf30a5cfef88b\n        /* \"src/adapters/BastionLeverageAdapterV2.sol\":10356:10362  assets */\n      dup7\n        /* \"src/adapters/BastionLeverageAdapterV2.sol\":10364:10384  totalCollateralAdded */\n      dup3\n        /* \"src/adapters/BastionLeverageAdapterV2.sol\":10346:10385  Leveraged(assets, totalCollateralAdded) */\n      mload(0x40)\n      tag_141\n      swap3\n      swap2\n      swap1\n      tag_142\n      jump\t// in\n    tag_141:\n      mload(0x40)\n      dup1\n      swap2\n      sub\n      swap1\n      log1\n        /* \"src/adapters/BastionLeverageAdapterV2.sol\":9344:10393  {... */\n      pop\n      pop\n        /* \"src/adapters/BastionLeverageAdapterV2.sol\":9268:10393  function supply(uint256 assets, address, bytes calldata) external onlyVault {... */\n      pop\n      pop\n      pop\n      pop\n      jump\t// out\n        /* \"src/adapters/BastionLeverageAdapterV2.sol\":8149:8278  function adapterId() external view returns (bytes32) {... */\n    tag_56:\n        /* \"src/adapters/BastionLeverageAdapterV2.sol\":8193:8200  bytes32 */\n      0x00\n        /* \"src/adapters/BastionLeverageAdapterV2.sol\":8263:8267  this */\n      address\n        /* \"src/adapters/BastionLeverageAdapterV2.sol\":8230:8269  abi.encode(\"bastion.v3\", address(this)) */\n      add(0x20, mload(0x40))\n      tag_144\n      swap2\n      swap1\n      tag_145\n      jump\t// in\n    tag_144:\n      mload(0x40)\n      0x20\n      dup2\n      dup4\n      sub\n      sub\n      dup2\n      mstore\n      swap1\n      0x40\n      mstore\n        /* \"src/adapters/BastionLeverageAdapterV2.sol\":8220:8270  keccak256(abi.encode(\"bastion.v3\", address(this))) */\n      dup1\n      mload\n      swap1\n      0x20\n      add\n      keccak256\n        /* \"src/adapters/BastionLeverageAdapterV2.sol\":8213:8270  return keccak256(abi.encode(\"bastion.v3\", address(this))) */\n      swap1\n      pop\n        /* \"src/adapters/BastionLeverageAdapterV2.sol\":8149:8278  function adapterId() external view returns (bytes32) {... */\n      swap1\n      jump\t// out\n        /* \"src/adapters/BastionLeverageAdapterV2.sol\":10426:12441  function withdraw(uint256 assets, address receiver, bytes calldata) external onlyVault {... */\n    tag_60:\n        /* \"src/adapters/BastionLeverageAdapterV2.sol\":6879:6884  VAULT */\n      immutable(\"0x6cfd55a66e5cc34b29752b3a64b2ed84f83c6356956121755c4a645dab2f4b8e\")\n        /* \"src/adapters/BastionLeverageAdapterV2.sol\":6865:6884  msg.sender == VAULT */\n      0xffffffffffffffffffffffffffffffffffffffff\n      and\n        /* \"src/adapters/BastionLeverageAdapterV2.sol\":6865:6875  msg.sender */\n      caller\n        /* \"src/adapters/BastionLeverageAdapterV2.sol\":6865:6884  msg.sender == VAULT */\n      0xffffffffffffffffffffffffffffffffffffffff\n      and\n      eq\n        /* \"src/adapters/BastionLeverageAdapterV2.sol\":6857:6908  require(msg.sender == VAULT, \"Bastion: Only Vault\") */\n      tag_147\n      jumpi\n      mload(0x40)\n      0x08c379a000000000000000000000000000000000000000000000000000000000\n      dup2\n      mstore\n      0x04\n      add\n      tag_148\n      swap1\n      tag_105\n      jump\t// in\n    tag_148:\n      mload(0x40)\n      dup1\n      swap2\n      sub\n      swap1\n      revert\n    tag_147:\n        /* \"src/adapters/BastionLeverageAdapterV2.sol\":10538:10539  0 */\n      0x00\n        /* \"src/adapters/BastionLeverageAdapterV2.sol\":10528:10534  assets */\n      dup5\n        /* \"src/adapters/BastionLeverageAdapterV2.sol\":10528:10539  assets == 0 */\n      sub\n        /* \"src/adapters/BastionLeverageAdapterV2.sol\":10524:10560  if (assets == 0) revert AmountZero() */\n      tag_150\n      jumpi\n        /* \"src/adapters/BastionLeverageAdapterV2.sol\":10548:10560  AmountZero() */\n      mload(0x40)\n      0xcbca5aa200000000000000000000000000000000000000000000000000000000\n      dup2\n      mstore\n      0x04\n      add\n      mload(0x40)\n      dup1\n      swap2\n      sub\n      swap1\n      revert\n        /* \"src/adapters/BastionLeverageAdapterV2.sol\":10524:10560  if (assets == 0) revert AmountZero() */\n    tag_150:\n        /* \"src/adapters/BastionLeverageAdapterV2.sol\":10581:10603  uint256 currentBalance */\n      0x00\n        /* \"src/adapters/BastionLeverageAdapterV2.sol\":10606:10610  USDC */\n      immutable(\"0x29f7dc91bacd20d6dd2aee05db8697d2a4633e96941593f85928b6d956432d2a\")\n        /* \"src/adapters/BastionLeverageAdapterV2.sol\":10606:10620  USDC.balanceOf */\n      0xffffffffffffffffffffffffffffffffffffffff\n      and\n      0x70a08231\n        /* \"src/adapters/BastionLeverageAdapterV2.sol\":10629:10633  this */\n      address\n        /* \"src/adapters/BastionLeverageAdapterV2.sol\":10606:10635  USDC.balanceOf(address(this)) */\n      mload(0x40)\n      dup3\n      0xffffffff\n      and\n      0xe0\n      shl\n      dup2\n      mstore\n      0x04\n      add\n      tag_151\n      swap2\n      swap1\n      tag_35\n      jump\t// in\n    tag_151:\n      0x20\n      mload(0x40)\n      dup1\n      dup4\n      sub\n      dup2\n      dup7\n      gas\n      staticcall\n      iszero\n      dup1\n      iszero\n      tag_153\n      jumpi\n      returndatasize\n      0x00\n      dup1\n      returndatacopy\n      revert(0x00, returndatasize)\n    tag_153:\n      pop\n      pop\n      pop\n      pop\n      mload(0x40)\n      returndatasize\n      not(0x1f)\n      0x1f\n      dup3\n      add\n      and\n      dup3\n      add\n      dup1\n      0x40\n      mstore\n      pop\n      dup2\n      add\n      swap1\n      tag_154\n      swap2\n      swap1\n      tag_95\n      jump\t// in\n    tag_154:\n        /* \"src/adapters/BastionLeverageAdapterV2.sol\":10581:10635  uint256 currentBalance = USDC.balanceOf(address(this)) */\n      swap1\n      pop\n        /* \"src/adapters/BastionLeverageAdapterV2.sol\":10668:10674  assets */\n      dup5\n        /* \"src/adapters/BastionLeverageAdapterV2.sol\":10650:10664  currentBalance */\n      dup2\n        /* \"src/adapters/BastionLeverageAdapterV2.sol\":10650:10674  currentBalance >= assets */\n      lt\n        /* \"src/adapters/BastionLeverageAdapterV2.sol\":10646:10759  if (currentBalance >= assets) {... */\n      tag_155\n      jumpi\n        /* \"src/adapters/BastionLeverageAdapterV2.sol\":10691:10726  USDC.safeTransfer(receiver, assets) */\n      tag_156\n        /* \"src/adapters/BastionLeverageAdapterV2.sol\":10709:10717  receiver */\n      dup5\n        /* \"src/adapters/BastionLeverageAdapterV2.sol\":10719:10725  assets */\n      dup7\n        /* \"src/adapters/BastionLeverageAdapterV2.sol\":10691:10695  USDC */\n      immutable(\"0x29f7dc91bacd20d6dd2aee05db8697d2a4633e96941593f85928b6d956432d2a\")\n        /* \"src/adapters/BastionLeverageAdapterV2.sol\":10691:10708  USDC.safeTransfer */\n      0xffffffffffffffffffffffffffffffffffffffff\n      and\n      tag_157\n      swap1\n        /* \"src/adapters/BastionLeverageAdapterV2.sol\":10691:10726  USDC.safeTransfer(receiver, assets) */\n      swap3\n      swap2\n      swap1\n      0xffffffff\n      and\n      jump\t// in\n    tag_156:\n        /* \"src/adapters/BastionLeverageAdapterV2.sol\":10741:10748  return; */\n      pop\n      jump(tag_149)\n        /* \"src/adapters/BastionLeverageAdapterV2.sol\":10646:10759  if (currentBalance >= assets) {... */\n    tag_155:\n        /* \"src/adapters/BastionLeverageAdapterV2.sol\":10771:10777  MORPHO */\n      immutable(\"0xda07994851e5595956ad5f42ef8f8c8e244dd44ecb632f01a24fa5f3c80ff057\")\n        /* \"src/adapters/BastionLeverageAdapterV2.sol\":10771:10792  MORPHO.accrueInterest */\n      0xffffffffffffffffffffffffffffffffffffffff\n      and\n      0x151c1ade\n        /* \"src/adapters/BastionLeverageAdapterV2.sol\":10793:10805  marketParams */\n      0x00\n        /* \"src/adapters/BastionLeverageAdapterV2.sol\":10771:10806  MORPHO.accrueInterest(marketParams) */\n      mload(0x40)\n      dup3\n      0xffffffff\n      and\n      0xe0\n      shl\n      dup2\n      mstore\n      0x04\n      add\n      tag_158\n      swap2\n      swap1\n      tag_111\n      jump\t// in\n    tag_158:\n      0x00\n      mload(0x40)\n      dup1\n      dup4\n      sub\n      dup2\n      0x00\n      dup8\n      dup1\n      extcodesize\n      iszero\n      dup1\n      iszero\n      tag_159\n      jumpi\n      0x00\n      dup1\n      revert\n    tag_159:\n      pop\n      gas\n      call\n      iszero\n      dup1\n      iszero\n      tag_161\n      jumpi\n      returndatasize\n      0x00\n      dup1\n      returndatacopy\n      revert(0x00, returndatasize)\n    tag_161:\n      pop\n      pop\n      pop\n      pop\n        /* \"src/adapters/BastionLeverageAdapterV2.sol\":10862:10871  uint256 i */\n      0x00\n        /* \"src/adapters/BastionLeverageAdapterV2.sol\":10857:12146  for (uint256 i = 0; i < 5; i++) {... */\n    tag_162:\n        /* \"src/adapters/BastionLeverageAdapterV2.sol\":10881:10882  5 */\n      0x05\n        /* \"src/adapters/BastionLeverageAdapterV2.sol\":10877:10878  i */\n      dup2\n        /* \"src/adapters/BastionLeverageAdapterV2.sol\":10877:10882  i < 5 */\n      lt\n        /* \"src/adapters/BastionLeverageAdapterV2.sol\":10857:12146  for (uint256 i = 0; i < 5; i++) {... */\n      iszero\n      tag_163\n      jumpi\n        /* \"src/adapters/BastionLeverageAdapterV2.sol\":10904:10918  uint256 needed */\n      0x00\n        /* \"src/adapters/BastionLeverageAdapterV2.sol\":10930:10934  USDC */\n      immutable(\"0x29f7dc91bacd20d6dd2aee05db8697d2a4633e96941593f85928b6d956432d2a\")\n        /* \"src/adapters/BastionLeverageAdapterV2.sol\":10930:10944  USDC.balanceOf */\n      0xffffffffffffffffffffffffffffffffffffffff\n      and\n      0x70a08231\n        /* \"src/adapters/BastionLeverageAdapterV2.sol\":10953:10957  this */\n      address\n        /* \"src/adapters/BastionLeverageAdapterV2.sol\":10930:10959  USDC.balanceOf(address(this)) */\n      mload(0x40)\n      dup3\n      0xffffffff\n      and\n      0xe0\n      shl\n      dup2\n      mstore\n      0x04\n      add\n      tag_165\n      swap2\n      swap1\n      tag_35\n      jump\t// in\n    tag_165:\n      0x20\n      mload(0x40)\n      dup1\n      dup4\n      sub\n      dup2\n      dup7\n      gas\n      staticcall\n      iszero\n      dup1\n      iszero\n      tag_167\n      jumpi\n      returndatasize\n      0x00\n      dup1\n      returndatacopy\n      revert(0x00, returndatasize)\n    tag_167:\n      pop\n      pop\n      pop\n      pop\n      mload(0x40)\n      returndatasize\n      not(0x1f)\n      0x1f\n      dup3\n      add\n      and\n      dup3\n      add\n      dup1\n      0x40\n      mstore\n      pop\n      dup2\n      add\n      swap1\n      tag_168\n      swap2\n      swap1\n      tag_95\n      jump\t// in\n    tag_168:\n        /* \"src/adapters/BastionLeverageAdapterV2.sol\":10921:10927  assets */\n      dup8\n        /* \"src/adapters/BastionLeverageAdapterV2.sol\":10921:10959  assets > USDC.balanceOf(address(this)) */\n      gt\n        /* \"src/adapters/BastionLeverageAdapterV2.sol\":10921:11040  assets > USDC.balanceOf(address(this)) ... */\n      tag_169\n      jumpi\n        /* \"src/adapters/BastionLeverageAdapterV2.sol\":11039:11040  0 */\n      0x00\n        /* \"src/adapters/BastionLeverageAdapterV2.sol\":10921:11040  assets > USDC.balanceOf(address(this)) ... */\n      jump(tag_170)\n    tag_169:\n        /* \"src/adapters/BastionLeverageAdapterV2.sol\":10989:10993  USDC */\n      immutable(\"0x29f7dc91bacd20d6dd2aee05db8697d2a4633e96941593f85928b6d956432d2a\")\n        /* \"src/adapters/BastionLeverageAdapterV2.sol\":10989:11003  USDC.balanceOf */\n      0xffffffffffffffffffffffffffffffffffffffff\n      and\n      0x70a08231\n        /* \"src/adapters/BastionLeverageAdapterV2.sol\":11012:11016  this */\n      address\n        /* \"src/adapters/BastionLeverageAdapterV2.sol\":10989:11018  USDC.balanceOf(address(this)) */\n      mload(0x40)\n      dup3\n      0xffffffff\n      and\n      0xe0\n      shl\n      dup2\n      mstore\n      0x04\n      add\n      tag_171\n      swap2\n      swap1\n      tag_35\n      jump\t// in\n    tag_171:\n      0x20\n      mload(0x40)\n      dup1\n      dup4\n      sub\n      dup2\n      dup7\n      gas\n      staticcall\n      iszero\n      dup1\n      iszero\n      tag_173\n      jumpi\n      returndatasize\n      0x00\n      dup1\n      returndatacopy\n      revert(0x00, returndatasize)\n    tag_173:\n      pop\n      pop\n      pop\n      pop\n      mload(0x40)\n      returndatasize\n      not(0x1f)\n      0x1f\n      dup3\n      add\n      and\n      dup3\n      add\n      dup1\n      0x40\n      mstore\n      pop\n      dup2\n      add\n      swap1\n      tag_174\n      swap2\n      swap1\n      tag_95\n      jump\t// in\n    tag_174:\n        /* \"src/adapters/BastionLeverageAdapterV2.sol\":10980:10986  assets */\n      dup8\n        /* \"src/adapters/BastionLeverageAdapterV2.sol\":10980:11018  assets - USDC.balanceOf(address(this)) */\n      tag_175\n      swap2\n      swap1\n      tag_99\n      jump\t// in\n    tag_175:\n        /* \"src/adapters/BastionLeverageAdapterV2.sol\":10921:11040  assets > USDC.balanceOf(address(this)) ... */\n    tag_170:\n        /* \"src/adapters/BastionLeverageAdapterV2.sol\":10904:11040  uint256 needed = assets > USDC.balanceOf(address(this)) ... */\n      swap1\n      pop\n        /* \"src/adapters/BastionLeverageAdapterV2.sol\":6555:6558  1e4 */\n      0x2710\n        /* \"src/adapters/BastionLeverageAdapterV2.sol\":11059:11065  needed */\n      dup2\n        /* \"src/adapters/BastionLeverageAdapterV2.sol\":11059:11082  needed < DUST_THRESHOLD */\n      lt\n        /* \"src/adapters/BastionLeverageAdapterV2.sol\":11055:11089  if (needed < DUST_THRESHOLD) break */\n      iszero\n      tag_176\n      jumpi\n        /* \"src/adapters/BastionLeverageAdapterV2.sol\":11084:11089  break */\n      pop\n      jump(tag_163)\n        /* \"src/adapters/BastionLeverageAdapterV2.sol\":11055:11089  if (needed < DUST_THRESHOLD) break */\n    tag_176:\n        /* \"src/adapters/BastionLeverageAdapterV2.sol\":11106:11127  uint256 maxCollateral */\n      0x00\n        /* \"src/adapters/BastionLeverageAdapterV2.sol\":11130:11157  _calculateMaxSafeWithdraw() */\n      tag_177\n        /* \"src/adapters/BastionLeverageAdapterV2.sol\":11130:11155  _calculateMaxSafeWithdraw */\n      tag_178\n        /* \"src/adapters/BastionLeverageAdapterV2.sol\":11130:11157  _calculateMaxSafeWithdraw() */\n      jump\t// in\n    tag_177:\n        /* \"src/adapters/BastionLeverageAdapterV2.sol\":11106:11157  uint256 maxCollateral = _calculateMaxSafeWithdraw() */\n      swap1\n      pop\n        /* \"src/adapters/BastionLeverageAdapterV2.sol\":11193:11194  0 */\n      0x00\n        /* \"src/adapters/BastionLeverageAdapterV2.sol\":11176:11189  maxCollateral */\n      dup2\n        /* \"src/adapters/BastionLeverageAdapterV2.sol\":11176:11194  maxCollateral == 0 */\n      sub\n        /* \"src/adapters/BastionLeverageAdapterV2.sol\":11172:11201  if (maxCollateral == 0) break */\n      tag_179\n      jumpi\n        /* \"src/adapters/BastionLeverageAdapterV2.sol\":11196:11201  break */\n      pop\n      pop\n      jump(tag_163)\n        /* \"src/adapters/BastionLeverageAdapterV2.sol\":11172:11201  if (maxCollateral == 0) break */\n    tag_179:\n        /* \"src/adapters/BastionLeverageAdapterV2.sol\":11219:11225  MORPHO */\n      immutable(\"0xda07994851e5595956ad5f42ef8f8c8e244dd44ecb632f01a24fa5f3c80ff057\")\n        /* \"src/adapters/BastionLeverageAdapterV2.sol\":11219:11244  MORPHO.withdrawCollateral */\n      0xffffffffffffffffffffffffffffffffffffffff\n      and\n      0x8720316d\n        /* \"src/adapters/BastionLeverageAdapterV2.sol\":11245:11257  marketParams */\n      0x00\n        /* \"src/adapters/BastionLeverageAdapterV2.sol\":11259:11272  maxCollateral */\n      dup4\n        /* \"src/adapters/BastionLeverageAdapterV2.sol\":11282:11286  this */\n      address\n        /* \"src/adapters/BastionLeverageAdapterV2.sol\":11297:11301  this */\n      address\n        /* \"src/adapters/BastionLeverageAdapterV2.sol\":11219:11303  MORPHO.withdrawCollateral(marketParams, maxCollateral, address(this), address(this)) */\n      mload(0x40)\n      dup6\n      0xffffffff\n      and\n      0xe0\n      shl\n      dup2\n      mstore\n      0x04\n      add\n      tag_180\n      swap5\n      swap4\n      swap3\n      swap2\n      swap1\n      tag_181\n      jump\t// in\n    tag_180:\n      0x00\n      mload(0x40)\n      dup1\n      dup4\n      sub\n      dup2\n      0x00\n      dup8\n      dup1\n      extcodesize\n      iszero\n      dup1\n      iszero\n      tag_182\n      jumpi\n      0x00\n      dup1\n      revert\n    tag_182:\n      pop\n      gas\n      call\n      iszero\n      dup1\n      iszero\n      tag_184\n      jumpi\n      returndatasize\n      0x00\n      dup1\n      returndatacopy\n      revert(0x00, returndatasize)\n    tag_184:\n      pop\n      pop\n      pop\n      pop\n        /* \"src/adapters/BastionLeverageAdapterV2.sol\":11318:11338  uint256 usdcObtained */\n      0x00\n        /* \"src/adapters/BastionLeverageAdapterV2.sol\":11341:11372  _swapCetesToUsdc(maxCollateral) */\n      tag_185\n        /* \"src/adapters/BastionLeverageAdapterV2.sol\":11358:11371  maxCollateral */\n      dup3\n        /* \"src/adapters/BastionLeverageAdapterV2.sol\":11341:11357  _swapCetesToUsdc */\n      tag_186\n        /* \"src/adapters/BastionLeverageAdapterV2.sol\":11341:11372  _swapCetesToUsdc(maxCollateral) */\n      jump\t// in\n    tag_185:\n        /* \"src/adapters/BastionLeverageAdapterV2.sol\":11318:11372  uint256 usdcObtained = _swapCetesToUsdc(maxCollateral) */\n      swap1\n      pop\n        /* \"src/adapters/BastionLeverageAdapterV2.sol\":11389:11416  IMorpho.Position memory pos */\n      0x00\n        /* \"src/adapters/BastionLeverageAdapterV2.sol\":11419:11425  MORPHO */\n      immutable(\"0xda07994851e5595956ad5f42ef8f8c8e244dd44ecb632f01a24fa5f3c80ff057\")\n        /* \"src/adapters/BastionLeverageAdapterV2.sol\":11419:11434  MORPHO.position */\n      0xffffffffffffffffffffffffffffffffffffffff\n      and\n      0x93c52062\n        /* \"src/adapters/BastionLeverageAdapterV2.sol\":11435:11444  MARKET_ID */\n      immutable(\"0x28bbb0207f31d945816623d3302c5bf67e35f3d933c3b03a2cbc30cfa7ce31d8\")\n        /* \"src/adapters/BastionLeverageAdapterV2.sol\":11454:11458  this */\n      address\n        /* \"src/adapters/BastionLeverageAdapterV2.sol\":11419:11460  MORPHO.position(MARKET_ID, address(this)) */\n      mload(0x40)\n      dup4\n      0xffffffff\n      and\n      0xe0\n      shl\n      dup2\n      mstore\n      0x04\n      add\n      tag_187\n      swap3\n      swap2\n      swap1\n      tag_74\n      jump\t// in\n    tag_187:\n      0x60\n      mload(0x40)\n      dup1\n      dup4\n      sub\n      dup2\n      dup7\n      gas\n      staticcall\n      iszero\n      dup1\n      iszero\n      tag_189\n      jumpi\n      returndatasize\n      0x00\n      dup1\n      returndatacopy\n      revert(0x00, returndatasize)\n    tag_189:\n      pop\n      pop\n      pop\n      pop\n      mload(0x40)\n      returndatasize\n      not(0x1f)\n      0x1f\n      dup3\n      add\n      and\n      dup3\n      add\n      dup1\n      0x40\n      mstore\n      pop\n      dup2\n      add\n      swap1\n      tag_190\n      swap2\n      swap1\n      tag_78\n      jump\t// in\n    tag_190:\n        /* \"src/adapters/BastionLeverageAdapterV2.sol\":11389:11460  IMorpho.Position memory pos = MORPHO.position(MARKET_ID, address(this)) */\n      swap1\n      pop\n        /* \"src/adapters/BastionLeverageAdapterV2.sol\":11498:11499  0 */\n      0x00\n        /* \"src/adapters/BastionLeverageAdapterV2.sol\":11479:11482  pos */\n      dup2\n        /* \"src/adapters/BastionLeverageAdapterV2.sol\":11479:11495  pos.borrowShares */\n      0x20\n      add\n      mload\n        /* \"src/adapters/BastionLeverageAdapterV2.sol\":11479:11499  pos.borrowShares > 0 */\n      0xffffffffffffffffffffffffffffffff\n      and\n      gt\n        /* \"src/adapters/BastionLeverageAdapterV2.sol\":11475:12135  if (pos.borrowShares > 0) {... */\n      iszero\n      tag_191\n      jumpi\n        /* \"src/adapters/BastionLeverageAdapterV2.sol\":11520:11552  IMorpho.Market memory marketData */\n      0x00\n        /* \"src/adapters/BastionLeverageAdapterV2.sol\":11555:11561  MORPHO */\n      immutable(\"0xda07994851e5595956ad5f42ef8f8c8e244dd44ecb632f01a24fa5f3c80ff057\")\n        /* \"src/adapters/BastionLeverageAdapterV2.sol\":11555:11568  MORPHO.market */\n      0xffffffffffffffffffffffffffffffffffffffff\n      and\n      0x5c60e39a\n        /* \"src/adapters/BastionLeverageAdapterV2.sol\":11569:11578  MARKET_ID */\n      immutable(\"0x28bbb0207f31d945816623d3302c5bf67e35f3d933c3b03a2cbc30cfa7ce31d8\")\n        /* \"src/adapters/BastionLeverageAdapterV2.sol\":11555:11579  MORPHO.market(MARKET_ID) */\n      mload(0x40)\n      dup3\n      0xffffffff\n      and\n      0xe0\n      shl\n      dup2\n      mstore\n      0x04\n      add\n      tag_192\n      swap2\n      swap1\n      tag_46\n      jump\t// in\n    tag_192:\n      0xc0\n      mload(0x40)\n      dup1\n      dup4\n      sub\n      dup2\n      dup7\n      gas\n      staticcall\n      iszero\n      dup1\n      iszero\n      tag_194\n      jumpi\n      returndatasize\n      0x00\n      dup1\n      returndatacopy\n      revert(0x00, returndatasize)\n    tag_194:\n      pop\n      pop\n      pop\n      pop\n      mload(0x40)\n      returndatasize\n      not(0x1f)\n      0x1f\n      dup3\n      add\n      and\n      dup3\n      add\n      dup1\n      0x40\n      mstore\n      pop\n      dup2\n      add\n      swap1\n      tag_195\n      swap2\n      swap1\n      tag_85\n      jump\t// in\n    tag_195:\n        /* \"src/adapters/BastionLeverageAdapterV2.sol\":11520:11579  IMorpho.Market memory marketData = MORPHO.market(MARKET_ID) */\n      swap1\n      pop\n        /* \"src/adapters/BastionLeverageAdapterV2.sol\":11598:11617  uint256 borrowIndex */\n      0x00\n        /* \"src/adapters/BastionLeverageAdapterV2.sol\":11620:11696  Math.mulDiv(marketData.totalBorrowAssets, WAD, marketData.totalBorrowShares) */\n      tag_196\n        /* \"src/adapters/BastionLeverageAdapterV2.sol\":11632:11642  marketData */\n      dup3\n        /* \"src/adapters/BastionLeverageAdapterV2.sol\":11632:11660  marketData.totalBorrowAssets */\n      0x40\n      add\n      mload\n        /* \"src/adapters/BastionLeverageAdapterV2.sol\":11620:11696  Math.mulDiv(marketData.totalBorrowAssets, WAD, marketData.totalBorrowShares) */\n      0xffffffffffffffffffffffffffffffff\n      and\n        /* \"src/adapters/BastionLeverageAdapterV2.sol\":6322:6326  1e18 */\n      0x0de0b6b3a7640000\n        /* \"src/adapters/BastionLeverageAdapterV2.sol\":11667:11677  marketData */\n      dup5\n        /* \"src/adapters/BastionLeverageAdapterV2.sol\":11667:11695  marketData.totalBorrowShares */\n      0x60\n      add\n      mload\n        /* \"src/adapters/BastionLeverageAdapterV2.sol\":11620:11696  Math.mulDiv(marketData.totalBorrowAssets, WAD, marketData.totalBorrowShares) */\n      0xffffffffffffffffffffffffffffffff\n      and\n        /* \"src/adapters/BastionLeverageAdapterV2.sol\":11620:11631  Math.mulDiv */\n      tag_88\n        /* \"src/adapters/BastionLeverageAdapterV2.sol\":11620:11696  Math.mulDiv(marketData.totalBorrowAssets, WAD, marketData.totalBorrowShares) */\n      jump\t// in\n    tag_196:\n        /* \"src/adapters/BastionLeverageAdapterV2.sol\":11598:11696  uint256 borrowIndex = Math.mulDiv(marketData.totalBorrowAssets, WAD, marketData.totalBorrowShares) */\n      swap1\n      pop\n        /* \"src/adapters/BastionLeverageAdapterV2.sol\":11802:11819  uint256 totalDebt */\n      0x00\n        /* \"src/adapters/BastionLeverageAdapterV2.sol\":11822:11880  Math.mulDivUp(uint256(pos.borrowShares), borrowIndex, WAD) */\n      tag_197\n        /* \"src/adapters/BastionLeverageAdapterV2.sol\":11844:11847  pos */\n      dup5\n        /* \"src/adapters/BastionLeverageAdapterV2.sol\":11844:11860  pos.borrowShares */\n      0x20\n      add\n      mload\n        /* \"src/adapters/BastionLeverageAdapterV2.sol\":11836:11861  uint256(pos.borrowShares) */\n      0xffffffffffffffffffffffffffffffff\n      and\n        /* \"src/adapters/BastionLeverageAdapterV2.sol\":11863:11874  borrowIndex */\n      dup4\n        /* \"src/adapters/BastionLeverageAdapterV2.sol\":6322:6326  1e18 */\n      0x0de0b6b3a7640000\n        /* \"src/adapters/BastionLeverageAdapterV2.sol\":11822:11835  Math.mulDivUp */\n      tag_91\n        /* \"src/adapters/BastionLeverageAdapterV2.sol\":11822:11880  Math.mulDivUp(uint256(pos.borrowShares), borrowIndex, WAD) */\n      jump\t// in\n    tag_197:\n        /* \"src/adapters/BastionLeverageAdapterV2.sol\":11802:11880  uint256 totalDebt = Math.mulDivUp(uint256(pos.borrowShares), borrowIndex, WAD) */\n      swap1\n      pop\n        /* \"src/adapters/BastionLeverageAdapterV2.sol\":11917:11936  uint256 repayAmount */\n      0x00\n        /* \"src/adapters/BastionLeverageAdapterV2.sol\":11939:11972  Math.min(usdcObtained, totalDebt) */\n      tag_198\n        /* \"src/adapters/BastionLeverageAdapterV2.sol\":11948:11960  usdcObtained */\n      dup7\n        /* \"src/adapters/BastionLeverageAdapterV2.sol\":11962:11971  totalDebt */\n      dup4\n        /* \"src/adapters/BastionLeverageAdapterV2.sol\":11939:11947  Math.min */\n      tag_199\n        /* \"src/adapters/BastionLeverageAdapterV2.sol\":11939:11972  Math.min(usdcObtained, totalDebt) */\n      jump\t// in\n    tag_198:\n        /* \"src/adapters/BastionLeverageAdapterV2.sol\":11917:11972  uint256 repayAmount = Math.min(usdcObtained, totalDebt) */\n      swap1\n      pop\n        /* \"src/adapters/BastionLeverageAdapterV2.sol\":12009:12010  0 */\n      0x00\n        /* \"src/adapters/BastionLeverageAdapterV2.sol\":11995:12006  repayAmount */\n      dup2\n        /* \"src/adapters/BastionLeverageAdapterV2.sol\":11995:12010  repayAmount > 0 */\n      gt\n        /* \"src/adapters/BastionLeverageAdapterV2.sol\":11991:12120  if (repayAmount > 0) {... */\n      iszero\n      tag_200\n      jumpi\n        /* \"src/adapters/BastionLeverageAdapterV2.sol\":12036:12042  MORPHO */\n      immutable(\"0xda07994851e5595956ad5f42ef8f8c8e244dd44ecb632f01a24fa5f3c80ff057\")\n        /* \"src/adapters/BastionLeverageAdapterV2.sol\":12036:12048  MORPHO.repay */\n      0xffffffffffffffffffffffffffffffffffffffff\n      and\n      0x20b76e81\n        /* \"src/adapters/BastionLeverageAdapterV2.sol\":12049:12061  marketParams */\n      0x00\n        /* \"src/adapters/BastionLeverageAdapterV2.sol\":12063:12074  repayAmount */\n      dup4\n        /* \"src/adapters/BastionLeverageAdapterV2.sol\":12076:12077  0 */\n      0x00\n        /* \"src/adapters/BastionLeverageAdapterV2.sol\":12087:12091  this */\n      address\n        /* \"src/adapters/BastionLeverageAdapterV2.sol\":12036:12100  MORPHO.repay(marketParams, repayAmount, 0, address(this), hex\"\") */\n      mload(0x40)\n      dup6\n      0xffffffff\n      and\n      0xe0\n      shl\n      dup2\n      mstore\n      0x04\n      add\n      tag_201\n      swap5\n      swap4\n      swap3\n      swap2\n      swap1\n      tag_202\n      jump\t// in\n    tag_201:\n      0x40\n      dup1\n      mload\n      dup1\n      dup4\n      sub\n      dup2\n      0x00\n      dup8\n      gas\n      call\n      iszero\n      dup1\n      iszero\n      tag_204\n      jumpi\n      returndatasize\n      0x00\n      dup1\n      returndatacopy\n      revert(0x00, returndatasize)\n    tag_204:\n      pop\n      pop\n      pop\n      pop\n      mload(0x40)\n      returndatasize\n      not(0x1f)\n      0x1f\n      dup3\n      add\n      and\n      dup3\n      add\n      dup1\n      0x40\n      mstore\n      pop\n      dup2\n      add\n      swap1\n      tag_205\n      swap2\n      swap1\n      tag_137\n      jump\t// in\n    tag_205:\n      pop\n      pop\n        /* \"src/adapters/BastionLeverageAdapterV2.sol\":11991:12120  if (repayAmount > 0) {... */\n    tag_200:\n        /* \"src/adapters/BastionLeverageAdapterV2.sol\":11501:12135  {... */\n      pop\n      pop\n      pop\n      pop\n        /* \"src/adapters/BastionLeverageAdapterV2.sol\":11475:12135  if (pos.borrowShares > 0) {... */\n    tag_191:\n        /* \"src/adapters/BastionLeverageAdapterV2.sol\":10889:12146  {... */\n      pop\n      pop\n      pop\n      pop\n        /* \"src/adapters/BastionLeverageAdapterV2.sol\":10884:10887  i++ */\n      dup1\n      dup1\n      tag_206\n      swap1\n      tag_140\n      jump\t// in\n    tag_206:\n      swap2\n      pop\n      pop\n        /* \"src/adapters/BastionLeverageAdapterV2.sol\":10857:12146  for (uint256 i = 0; i < 5; i++) {... */\n      jump(tag_162)\n    tag_163:\n      pop\n        /* \"src/adapters/BastionLeverageAdapterV2.sol\":12158:12178  uint256 finalBalance */\n      0x00\n        /* \"src/adapters/BastionLeverageAdapterV2.sol\":12181:12185  USDC */\n      immutable(\"0x29f7dc91bacd20d6dd2aee05db8697d2a4633e96941593f85928b6d956432d2a\")\n        /* \"src/adapters/BastionLeverageAdapterV2.sol\":12181:12195  USDC.balanceOf */\n      0xffffffffffffffffffffffffffffffffffffffff\n      and\n      0x70a08231\n        /* \"src/adapters/BastionLeverageAdapterV2.sol\":12204:12208  this */\n      address\n        /* \"src/adapters/BastionLeverageAdapterV2.sol\":12181:12210  USDC.balanceOf(address(this)) */\n      mload(0x40)\n      dup3\n      0xffffffff\n      and\n      0xe0\n      shl\n      dup2\n      mstore\n      0x04\n      add\n      tag_207\n      swap2\n      swap1\n      tag_35\n      jump\t// in\n    tag_207:\n      0x20\n      mload(0x40)\n      dup1\n      dup4\n      sub\n      dup2\n      dup7\n      gas\n      staticcall\n      iszero\n      dup1\n      iszero\n      tag_209\n      jumpi\n      returndatasize\n      0x00\n      dup1\n      returndatacopy\n      revert(0x00, returndatasize)\n    tag_209:\n      pop\n      pop\n      pop\n      pop\n      mload(0x40)\n      returndatasize\n      not(0x1f)\n      0x1f\n      dup3\n      add\n      and\n      dup3\n      add\n      dup1\n      0x40\n      mstore\n      pop\n      dup2\n      add\n      swap1\n      tag_210\n      swap2\n      swap1\n      tag_95\n      jump\t// in\n    tag_210:\n        /* \"src/adapters/BastionLeverageAdapterV2.sol\":12158:12210  uint256 finalBalance = USDC.balanceOf(address(this)) */\n      swap1\n      pop\n        /* \"src/adapters/BastionLeverageAdapterV2.sol\":12221:12243  uint256 transferAmount */\n      0x00\n        /* \"src/adapters/BastionLeverageAdapterV2.sol\":12246:12276  Math.min(finalBalance, assets) */\n      tag_211\n        /* \"src/adapters/BastionLeverageAdapterV2.sol\":12255:12267  finalBalance */\n      dup3\n        /* \"src/adapters/BastionLeverageAdapterV2.sol\":12269:12275  assets */\n      dup9\n        /* \"src/adapters/BastionLeverageAdapterV2.sol\":12246:12254  Math.min */\n      tag_199\n        /* \"src/adapters/BastionLeverageAdapterV2.sol\":12246:12276  Math.min(finalBalance, assets) */\n      jump\t// in\n    tag_211:\n        /* \"src/adapters/BastionLeverageAdapterV2.sol\":12221:12276  uint256 transferAmount = Math.min(finalBalance, assets) */\n      swap1\n      pop\n        /* \"src/adapters/BastionLeverageAdapterV2.sol\":12318:12319  0 */\n      0x00\n        /* \"src/adapters/BastionLeverageAdapterV2.sol\":12301:12315  transferAmount */\n      dup2\n        /* \"src/adapters/BastionLeverageAdapterV2.sol\":12301:12319  transferAmount > 0 */\n      gt\n        /* \"src/adapters/BastionLeverageAdapterV2.sol\":12297:12391  if (transferAmount > 0) {... */\n      iszero\n      tag_212\n      jumpi\n        /* \"src/adapters/BastionLeverageAdapterV2.sol\":12336:12379  USDC.safeTransfer(receiver, transferAmount) */\n      tag_213\n        /* \"src/adapters/BastionLeverageAdapterV2.sol\":12354:12362  receiver */\n      dup7\n        /* \"src/adapters/BastionLeverageAdapterV2.sol\":12364:12378  transferAmount */\n      dup3\n        /* \"src/adapters/BastionLeverageAdapterV2.sol\":12336:12340  USDC */\n      immutable(\"0x29f7dc91bacd20d6dd2aee05db8697d2a4633e96941593f85928b6d956432d2a\")\n        /* \"src/adapters/BastionLeverageAdapterV2.sol\":12336:12353  USDC.safeTransfer */\n      0xffffffffffffffffffffffffffffffffffffffff\n      and\n      tag_157\n      swap1\n        /* \"src/adapters/BastionLeverageAdapterV2.sol\":12336:12379  USDC.safeTransfer(receiver, transferAmount) */\n      swap3\n      swap2\n      swap1\n      0xffffffff\n      and\n      jump\t// in\n    tag_213:\n        /* \"src/adapters/BastionLeverageAdapterV2.sol\":12297:12391  if (transferAmount > 0) {... */\n    tag_212:\n        /* \"src/adapters/BastionLeverageAdapterV2.sol\":12406:12433  Deleveraged(transferAmount) */\n      0x24ddc2bdb7df6a011a5e296c52506ec03b78b16d9cd004f5b868c0701c31415a\n        /* \"src/adapters/BastionLeverageAdapterV2.sol\":12418:12432  transferAmount */\n      dup2\n        /* \"src/adapters/BastionLeverageAdapterV2.sol\":12406:12433  Deleveraged(transferAmount) */\n      mload(0x40)\n      tag_214\n      swap2\n      swap1\n      tag_23\n      jump\t// in\n    tag_214:\n      mload(0x40)\n      dup1\n      swap2\n      sub\n      swap1\n      log1\n        /* \"src/adapters/BastionLeverageAdapterV2.sol\":10513:12441  {... */\n      pop\n      pop\n      pop\n        /* \"src/adapters/BastionLeverageAdapterV2.sol\":6919:6920  _ */\n    tag_149:\n        /* \"src/adapters/BastionLeverageAdapterV2.sol\":10426:12441  function withdraw(uint256 assets, address receiver, bytes calldata) external onlyVault {... */\n      pop\n      pop\n      pop\n      pop\n      jump\t// out\n        /* \"src/adapters/BastionLeverageAdapterV2.sol\":6135:6175  IMorpho.MarketParams public marketParams */\n    tag_62:\n      0x00\n      dup1\n      0x00\n      add\n      0x00\n      swap1\n      sload\n      swap1\n      0x0100\n      exp\n      swap1\n      div\n      0xffffffffffffffffffffffffffffffffffffffff\n      and\n      swap1\n      dup1\n      0x01\n      add\n      0x00\n      swap1\n      sload\n      swap1\n      0x0100\n      exp\n      swap1\n      div\n      0xffffffffffffffffffffffffffffffffffffffff\n      and\n      swap1\n      dup1\n      0x02\n      add\n      0x00\n      swap1\n      sload\n      swap1\n      0x0100\n      exp\n      swap1\n      div\n      0xffffffffffffffffffffffffffffffffffffffff\n      and\n      swap1\n      dup1\n      0x03\n      add\n      0x00\n      swap1\n      sload\n      swap1\n      0x0100\n      exp\n      swap1\n      div\n      0xffffffffffffffffffffffffffffffffffffffff\n      and\n      swap1\n      dup1\n      0x04\n      add\n      sload\n      swap1\n      pop\n      dup6\n      jump\t// out\n        /* \"src/adapters/BastionLeverageAdapterV2.sol\":5894:5922  IERC20 public immutable USDC */\n    tag_66:\n      immutable(\"0x29f7dc91bacd20d6dd2aee05db8697d2a4633e96941593f85928b6d956432d2a\")\n      dup2\n      jump\t// out\n        /* \"src/adapters/BastionLeverageAdapterV2.sol\":5929:5958  IERC20 public immutable CETES */\n    tag_70:\n      immutable(\"0xdc663e2224e3d20e2f93f04c4d7a191ee29ddce660128a0e996f13fca63039a2\")\n      dup2\n      jump\t// out\n        /* \"src/adapters/BastionLeverageAdapterV2.sol\":323:1537  function mulDiv(uint256 x, uint256 y, uint256 denominator) internal pure returns (uint256 result) {... */\n    tag_88:\n        /* \"src/adapters/BastionLeverageAdapterV2.sol\":405:419  uint256 result */\n      0x00\n        /* \"src/adapters/BastionLeverageAdapterV2.sol\":457:470  uint256 prod0 */\n      dup1\n        /* \"src/adapters/BastionLeverageAdapterV2.sol\":486:499  uint256 prod1 */\n      0x00\n        /* \"src/adapters/BastionLeverageAdapterV2.sol\":570:571  0 */\n      dup1\n        /* \"src/adapters/BastionLeverageAdapterV2.sol\":566:572  not(0) */\n      not\n        /* \"src/adapters/BastionLeverageAdapterV2.sol\":563:564  y */\n      dup6\n        /* \"src/adapters/BastionLeverageAdapterV2.sol\":560:561  x */\n      dup8\n        /* \"src/adapters/BastionLeverageAdapterV2.sol\":553:573  mulmod(x, y, not(0)) */\n      mulmod\n        /* \"src/adapters/BastionLeverageAdapterV2.sol\":607:608  y */\n      dup6\n        /* \"src/adapters/BastionLeverageAdapterV2.sol\":604:605  x */\n      dup8\n        /* \"src/adapters/BastionLeverageAdapterV2.sol\":600:609  mul(x, y) */\n      mul\n        /* \"src/adapters/BastionLeverageAdapterV2.sol\":591:609  prod0 := mul(x, y) */\n      swap3\n      pop\n        /* \"src/adapters/BastionLeverageAdapterV2.sol\":663:668  prod0 */\n      dup3\n        /* \"src/adapters/BastionLeverageAdapterV2.sol\":659:661  mm */\n      dup2\n        /* \"src/adapters/BastionLeverageAdapterV2.sol\":656:669  lt(mm, prod0) */\n      lt\n        /* \"src/adapters/BastionLeverageAdapterV2.sol\":648:653  prod0 */\n      dup4\n        /* \"src/adapters/BastionLeverageAdapterV2.sol\":644:646  mm */\n      dup3\n        /* \"src/adapters/BastionLeverageAdapterV2.sol\":640:654  sub(mm, prod0) */\n      sub\n        /* \"src/adapters/BastionLeverageAdapterV2.sol\":636:670  sub(sub(mm, prod0), lt(mm, prod0)) */\n      sub\n        /* \"src/adapters/BastionLeverageAdapterV2.sol\":627:670  prod1 := sub(sub(mm, prod0), lt(mm, prod0)) */\n      swap2\n      pop\n        /* \"src/adapters/BastionLeverageAdapterV2.sol\":524:685  {... */\n      pop\n        /* \"src/adapters/BastionLeverageAdapterV2.sol\":712:713  0 */\n      0x00\n        /* \"src/adapters/BastionLeverageAdapterV2.sol\":703:708  prod1 */\n      dup2\n        /* \"src/adapters/BastionLeverageAdapterV2.sol\":703:713  prod1 == 0 */\n      sub\n        /* \"src/adapters/BastionLeverageAdapterV2.sol\":699:870  if (prod1 == 0) {... */\n      tag_216\n      jumpi\n        /* \"src/adapters/BastionLeverageAdapterV2.sol\":756:757  0 */\n      0x00\n        /* \"src/adapters/BastionLeverageAdapterV2.sol\":742:753  denominator */\n      dup5\n        /* \"src/adapters/BastionLeverageAdapterV2.sol\":742:757  denominator > 0 */\n      gt\n        /* \"src/adapters/BastionLeverageAdapterV2.sol\":734:758  require(denominator > 0) */\n      tag_217\n      jumpi\n      0x00\n      dup1\n      revert\n    tag_217:\n        /* \"src/adapters/BastionLeverageAdapterV2.sol\":809:820  denominator */\n      dup4\n        /* \"src/adapters/BastionLeverageAdapterV2.sol\":802:807  prod0 */\n      dup3\n        /* \"src/adapters/BastionLeverageAdapterV2.sol\":798:821  div(prod0, denominator) */\n      div\n        /* \"src/adapters/BastionLeverageAdapterV2.sol\":788:821  result := div(prod0, denominator) */\n      swap3\n      pop\n        /* \"src/adapters/BastionLeverageAdapterV2.sol\":841:854  return result */\n      pop\n      pop\n      jump(tag_215)\n        /* \"src/adapters/BastionLeverageAdapterV2.sol\":699:870  if (prod1 == 0) {... */\n    tag_216:\n        /* \"src/adapters/BastionLeverageAdapterV2.sol\":906:911  prod1 */\n      dup1\n        /* \"src/adapters/BastionLeverageAdapterV2.sol\":892:903  denominator */\n      dup5\n        /* \"src/adapters/BastionLeverageAdapterV2.sol\":892:911  denominator > prod1 */\n      gt\n        /* \"src/adapters/BastionLeverageAdapterV2.sol\":884:912  require(denominator > prod1) */\n      tag_218\n      jumpi\n      0x00\n      dup1\n      revert\n    tag_218:\n        /* \"src/adapters/BastionLeverageAdapterV2.sol\":927:944  uint256 remainder */\n      0x00\n        /* \"src/adapters/BastionLeverageAdapterV2.sol\":1013:1024  denominator */\n      dup5\n        /* \"src/adapters/BastionLeverageAdapterV2.sol\":1010:1011  y */\n      dup7\n        /* \"src/adapters/BastionLeverageAdapterV2.sol\":1007:1008  x */\n      dup9\n        /* \"src/adapters/BastionLeverageAdapterV2.sol\":1000:1025  mulmod(x, y, denominator) */\n      mulmod\n        /* \"src/adapters/BastionLeverageAdapterV2.sol\":987:1025  remainder := mulmod(x, y, denominator) */\n      swap1\n      pop\n        /* \"src/adapters/BastionLeverageAdapterV2.sol\":1077:1082  prod0 */\n      dup3\n        /* \"src/adapters/BastionLeverageAdapterV2.sol\":1066:1075  remainder */\n      dup2\n        /* \"src/adapters/BastionLeverageAdapterV2.sol\":1063:1083  gt(remainder, prod0) */\n      gt\n        /* \"src/adapters/BastionLeverageAdapterV2.sol\":1056:1061  prod1 */\n      dup3\n        /* \"src/adapters/BastionLeverageAdapterV2.sol\":1052:1084  sub(prod1, gt(remainder, prod0)) */\n      sub\n        /* \"src/adapters/BastionLeverageAdapterV2.sol\":1043:1084  prod1 := sub(prod1, gt(remainder, prod0)) */\n      swap2\n      pop\n        /* \"src/adapters/BastionLeverageAdapterV2.sol\":1122:1131  remainder */\n      dup1\n        /* \"src/adapters/BastionLeverageAdapterV2.sol\":1115:1120  prod0 */\n      dup4\n        /* \"src/adapters/BastionLeverageAdapterV2.sol\":1111:1132  sub(prod0, remainder) */\n      sub\n        /* \"src/adapters/BastionLeverageAdapterV2.sol\":1102:1132  prod0 := sub(prod0, remainder) */\n      swap3\n      pop\n        /* \"src/adapters/BastionLeverageAdapterV2.sol\":1161:1173  uint256 twos */\n      0x00\n        /* \"src/adapters/BastionLeverageAdapterV2.sol\":1206:1207  1 */\n      0x01\n        /* \"src/adapters/BastionLeverageAdapterV2.sol\":1192:1203  denominator */\n      dup7\n        /* \"src/adapters/BastionLeverageAdapterV2.sol\":1191:1203  ~denominator */\n      not\n        /* \"src/adapters/BastionLeverageAdapterV2.sol\":1191:1207  ~denominator + 1 */\n      add\n        /* \"src/adapters/BastionLeverageAdapterV2.sol\":1176:1187  denominator */\n      dup7\n        /* \"src/adapters/BastionLeverageAdapterV2.sol\":1176:1208  denominator & (~denominator + 1) */\n      and\n        /* \"src/adapters/BastionLeverageAdapterV2.sol\":1161:1208  uint256 twos = denominator & (~denominator + 1) */\n      swap1\n      pop\n        /* \"src/adapters/BastionLeverageAdapterV2.sol\":1283:1287  twos */\n      dup1\n        /* \"src/adapters/BastionLeverageAdapterV2.sol\":1270:1281  denominator */\n      dup7\n        /* \"src/adapters/BastionLeverageAdapterV2.sol\":1266:1288  div(denominator, twos) */\n      div\n        /* \"src/adapters/BastionLeverageAdapterV2.sol\":1251:1288  denominator := div(denominator, twos) */\n      swap6\n      pop\n        /* \"src/adapters/BastionLeverageAdapterV2.sol\":1326:1330  twos */\n      dup1\n        /* \"src/adapters/BastionLeverageAdapterV2.sol\":1319:1324  prod0 */\n      dup5\n        /* \"src/adapters/BastionLeverageAdapterV2.sol\":1315:1331  div(prod0, twos) */\n      div\n        /* \"src/adapters/BastionLeverageAdapterV2.sol\":1306:1331  prod0 := div(prod0, twos) */\n      swap4\n      pop\n        /* \"src/adapters/BastionLeverageAdapterV2.sol\":1386:1387  1 */\n      0x01\n        /* \"src/adapters/BastionLeverageAdapterV2.sol\":1379:1383  twos */\n      dup2\n        /* \"src/adapters/BastionLeverageAdapterV2.sol\":1372:1376  twos */\n      dup3\n        /* \"src/adapters/BastionLeverageAdapterV2.sol\":1369:1370  0 */\n      0x00\n        /* \"src/adapters/BastionLeverageAdapterV2.sol\":1365:1377  sub(0, twos) */\n      sub\n        /* \"src/adapters/BastionLeverageAdapterV2.sol\":1361:1384  div(sub(0, twos), twos) */\n      div\n        /* \"src/adapters/BastionLeverageAdapterV2.sol\":1357:1388  add(div(sub(0, twos), twos), 1) */\n      add\n        /* \"src/adapters/BastionLeverageAdapterV2.sol\":1349:1388  twos := add(div(sub(0, twos), twos), 1) */\n      swap1\n      pop\n        /* \"src/adapters/BastionLeverageAdapterV2.sol\":1426:1430  twos */\n      dup1\n        /* \"src/adapters/BastionLeverageAdapterV2.sol\":1419:1424  prod0 */\n      dup5\n        /* \"src/adapters/BastionLeverageAdapterV2.sol\":1415:1431  mul(prod0, twos) */\n      mul\n        /* \"src/adapters/BastionLeverageAdapterV2.sol\":1406:1431  prod0 := mul(prod0, twos) */\n      swap4\n      pop\n        /* \"src/adapters/BastionLeverageAdapterV2.sol\":1470:1475  prod1 */\n      dup3\n        /* \"src/adapters/BastionLeverageAdapterV2.sol\":1463:1468  prod0 */\n      dup5\n        /* \"src/adapters/BastionLeverageAdapterV2.sol\":1459:1476  mul(prod0, prod1) */\n      mul\n        /* \"src/adapters/BastionLeverageAdapterV2.sol\":1449:1476  result := mul(prod0, prod1) */\n      swap5\n      pop\n        /* \"src/adapters/BastionLeverageAdapterV2.sol\":1505:1518  return result */\n      pop\n      pop\n      pop\n      pop\n        /* \"src/adapters/BastionLeverageAdapterV2.sol\":323:1537  function mulDiv(uint256 x, uint256 y, uint256 denominator) internal pure returns (uint256 result) {... */\n    tag_215:\n      swap4\n      swap3\n      pop\n      pop\n      pop\n      jump\t// out\n        /* \"src/adapters/BastionLeverageAdapterV2.sol\":1708:1944  function mulDivUp(uint256 x, uint256 y, uint256 denominator) internal pure returns (uint256 result) {... */\n    tag_91:\n        /* \"src/adapters/BastionLeverageAdapterV2.sol\":1792:1806  uint256 result */\n      0x00\n        /* \"src/adapters/BastionLeverageAdapterV2.sol\":1828:1853  mulDiv(x, y, denominator) */\n      tag_220\n        /* \"src/adapters/BastionLeverageAdapterV2.sol\":1835:1836  x */\n      dup5\n        /* \"src/adapters/BastionLeverageAdapterV2.sol\":1838:1839  y */\n      dup5\n        /* \"src/adapters/BastionLeverageAdapterV2.sol\":1841:1852  denominator */\n      dup5\n        /* \"src/adapters/BastionLeverageAdapterV2.sol\":1828:1834  mulDiv */\n      tag_88\n        /* \"src/adapters/BastionLeverageAdapterV2.sol\":1828:1853  mulDiv(x, y, denominator) */\n      jump\t// in\n    tag_220:\n        /* \"src/adapters/BastionLeverageAdapterV2.sol\":1819:1853  result = mulDiv(x, y, denominator) */\n      swap1\n      pop\n        /* \"src/adapters/BastionLeverageAdapterV2.sol\":1896:1897  0 */\n      0x00\n        /* \"src/adapters/BastionLeverageAdapterV2.sol\":1881:1892  denominator */\n      dup3\n        /* \"src/adapters/BastionLeverageAdapterV2.sol\":1868:1893  mulmod(x, y, denominator) */\n      dup1\n      tag_221\n      jumpi\n      tag_222\n      tag_223\n      jump\t// in\n    tag_222:\n    tag_221:\n        /* \"src/adapters/BastionLeverageAdapterV2.sol\":1878:1879  y */\n      dup5\n        /* \"src/adapters/BastionLeverageAdapterV2.sol\":1875:1876  x */\n      dup7\n        /* \"src/adapters/BastionLeverageAdapterV2.sol\":1868:1893  mulmod(x, y, denominator) */\n      mulmod\n        /* \"src/adapters/BastionLeverageAdapterV2.sol\":1868:1897  mulmod(x, y, denominator) > 0 */\n      gt\n        /* \"src/adapters/BastionLeverageAdapterV2.sol\":1864:1937  if (mulmod(x, y, denominator) > 0) {... */\n      iszero\n      tag_224\n      jumpi\n        /* \"src/adapters/BastionLeverageAdapterV2.sol\":1924:1925  1 */\n      0x01\n        /* \"src/adapters/BastionLeverageAdapterV2.sol\":1914:1925  result += 1 */\n      dup2\n      tag_225\n      swap2\n      swap1\n      tag_122\n      jump\t// in\n    tag_225:\n      swap1\n      pop\n        /* \"src/adapters/BastionLeverageAdapterV2.sol\":1864:1937  if (mulmod(x, y, denominator) > 0) {... */\n    tag_224:\n        /* \"src/adapters/BastionLeverageAdapterV2.sol\":1708:1944  function mulDivUp(uint256 x, uint256 y, uint256 denominator) internal pure returns (uint256 result) {... */\n      swap4\n      swap3\n      pop\n      pop\n      pop\n      jump\t// out\n        /* \"src/adapters/BastionLeverageAdapterV2.sol\":2766:2953  function safeTransferFrom(IERC20 token, address from, address to, uint256 value) internal {... */\n    tag_109:\n        /* \"src/adapters/BastionLeverageAdapterV2.sol\":2875:2880  token */\n      dup4\n        /* \"src/adapters/BastionLeverageAdapterV2.sol\":2875:2893  token.transferFrom */\n      0xffffffffffffffffffffffffffffffffffffffff\n      and\n      0x23b872dd\n        /* \"src/adapters/BastionLeverageAdapterV2.sol\":2894:2898  from */\n      dup5\n        /* \"src/adapters/BastionLeverageAdapterV2.sol\":2900:2902  to */\n      dup5\n        /* \"src/adapters/BastionLeverageAdapterV2.sol\":2904:2909  value */\n      dup5\n        /* \"src/adapters/BastionLeverageAdapterV2.sol\":2875:2910  token.transferFrom(from, to, value) */\n      mload(0x40)\n      dup5\n      0xffffffff\n      and\n      0xe0\n      shl\n      dup2\n      mstore\n      0x04\n      add\n      tag_227\n      swap4\n      swap3\n      swap2\n      swap1\n      tag_228\n      jump\t// in\n    tag_227:\n      0x20\n      mload(0x40)\n      dup1\n      dup4\n      sub\n      dup2\n      0x00\n      dup8\n      gas\n      call\n      iszero\n      dup1\n      iszero\n      tag_230\n      jumpi\n      returndatasize\n      0x00\n      dup1\n      returndatacopy\n      revert(0x00, returndatasize)\n    tag_230:\n      pop\n      pop\n      pop\n      pop\n      mload(0x40)\n      returndatasize\n      not(0x1f)\n      0x1f\n      dup3\n      add\n      and\n      dup3\n      add\n      dup1\n      0x40\n      mstore\n      pop\n      dup2\n      add\n      swap1\n      tag_231\n      swap2\n      swap1\n      tag_232\n      jump\t// in\n    tag_231:\n        /* \"src/adapters/BastionLeverageAdapterV2.sol\":2867:2945  require(token.transferFrom(from, to, value), \"SafeERC20: transferFrom failed\") */\n      tag_233\n      jumpi\n      mload(0x40)\n      0x08c379a000000000000000000000000000000000000000000000000000000000\n      dup2\n      mstore\n      0x04\n      add\n      tag_234\n      swap1\n      tag_235\n      jump\t// in\n    tag_234:\n      mload(0x40)\n      dup1\n      swap2\n      sub\n      swap1\n      revert\n    tag_233:\n        /* \"src/adapters/BastionLeverageAdapterV2.sol\":2766:2953  function safeTransferFrom(IERC20 token, address from, address to, uint256 value) internal {... */\n      pop\n      pop\n      pop\n      pop\n      jump\t// out\n        /* \"src/adapters/BastionLeverageAdapterV2.sol\":14466:15255  function _swapUsdcToCetes(uint256 amountIn) internal returns (uint256) {... */\n    tag_120:\n        /* \"src/adapters/BastionLeverageAdapterV2.sol\":14528:14535  uint256 */\n      0x00\n        /* \"src/adapters/BastionLeverageAdapterV2.sol\":14548:14567  uint256 oraclePrice */\n      dup1\n        /* \"src/adapters/BastionLeverageAdapterV2.sol\":14578:14590  marketParams */\n      0x00\n        /* \"src/adapters/BastionLeverageAdapterV2.sol\":14578:14597  marketParams.oracle */\n      0x02\n      add\n      0x00\n      swap1\n      sload\n      swap1\n      0x0100\n      exp\n      swap1\n      div\n      0xffffffffffffffffffffffffffffffffffffffff\n      and\n        /* \"src/adapters/BastionLeverageAdapterV2.sol\":14570:14604  IOracle(marketParams.oracle).price */\n      0xffffffffffffffffffffffffffffffffffffffff\n      and\n      0xa035b1fe\n        /* \"src/adapters/BastionLeverageAdapterV2.sol\":14570:14606  IOracle(marketParams.oracle).price() */\n      mload(0x40)\n      dup2\n      0xffffffff\n      and\n      0xe0\n      shl\n      dup2\n      mstore\n      0x04\n      add\n      0x20\n      mload(0x40)\n      dup1\n      dup4\n      sub\n      dup2\n      dup7\n      gas\n      staticcall\n      iszero\n      dup1\n      iszero\n      tag_238\n      jumpi\n      returndatasize\n      0x00\n      dup1\n      returndatacopy\n      revert(0x00, returndatasize)\n    tag_238:\n      pop\n      pop\n      pop\n      pop\n      mload(0x40)\n      returndatasize\n      not(0x1f)\n      0x1f\n      dup3\n      add\n      and\n      dup3\n      add\n      dup1\n      0x40\n      mstore\n      pop\n      dup2\n      add\n      swap1\n      tag_239\n      swap2\n      swap1\n      tag_95\n      jump\t// in\n    tag_239:\n        /* \"src/adapters/BastionLeverageAdapterV2.sol\":14548:14606  uint256 oraclePrice = IOracle(marketParams.oracle).price() */\n      swap1\n      pop\n        /* \"src/adapters/BastionLeverageAdapterV2.sol\":14618:14637  uint256 expectedOut */\n      0x00\n        /* \"src/adapters/BastionLeverageAdapterV2.sol\":14640:14694  Math.mulDiv(amountIn, ORACLE_PRICE_SCALE, oraclePrice) */\n      tag_240\n        /* \"src/adapters/BastionLeverageAdapterV2.sol\":14652:14660  amountIn */\n      dup5\n        /* \"src/adapters/BastionLeverageAdapterV2.sol\":6371:6375  1e36 */\n      0xc097ce7bc90715b34b9f1000000000\n        /* \"src/adapters/BastionLeverageAdapterV2.sol\":14682:14693  oraclePrice */\n      dup5\n        /* \"src/adapters/BastionLeverageAdapterV2.sol\":14640:14651  Math.mulDiv */\n      tag_88\n        /* \"src/adapters/BastionLeverageAdapterV2.sol\":14640:14694  Math.mulDiv(amountIn, ORACLE_PRICE_SCALE, oraclePrice) */\n      jump\t// in\n    tag_240:\n        /* \"src/adapters/BastionLeverageAdapterV2.sol\":14618:14694  uint256 expectedOut = Math.mulDiv(amountIn, ORACLE_PRICE_SCALE, oraclePrice) */\n      swap1\n      pop\n        /* \"src/adapters/BastionLeverageAdapterV2.sol\":14705:14719  uint256 minOut */\n      0x00\n        /* \"src/adapters/BastionLeverageAdapterV2.sol\":14722:14771  Math.mulDiv(expectedOut, WAD - MAX_SLIPPAGE, WAD) */\n      tag_241\n        /* \"src/adapters/BastionLeverageAdapterV2.sol\":14734:14745  expectedOut */\n      dup3\n        /* \"src/adapters/BastionLeverageAdapterV2.sol\":6498:6506  0.005e18 */\n      0x11c37937e08000\n        /* \"src/adapters/BastionLeverageAdapterV2.sol\":6322:6326  1e18 */\n      0x0de0b6b3a7640000\n        /* \"src/adapters/BastionLeverageAdapterV2.sol\":14747:14765  WAD - MAX_SLIPPAGE */\n      tag_242\n      swap2\n      swap1\n      tag_99\n      jump\t// in\n    tag_242:\n        /* \"src/adapters/BastionLeverageAdapterV2.sol\":6322:6326  1e18 */\n      0x0de0b6b3a7640000\n        /* \"src/adapters/BastionLeverageAdapterV2.sol\":14722:14733  Math.mulDiv */\n      tag_88\n        /* \"src/adapters/BastionLeverageAdapterV2.sol\":14722:14771  Math.mulDiv(expectedOut, WAD - MAX_SLIPPAGE, WAD) */\n      jump\t// in\n    tag_241:\n        /* \"src/adapters/BastionLeverageAdapterV2.sol\":14705:14771  uint256 minOut = Math.mulDiv(expectedOut, WAD - MAX_SLIPPAGE, WAD) */\n      swap1\n      pop\n        /* \"src/adapters/BastionLeverageAdapterV2.sol\":14784:14838  ISlipstreamRouter.ExactInputSingleParams memory params */\n      0x00\n        /* \"src/adapters/BastionLeverageAdapterV2.sol\":14841:15196  ISlipstreamRouter.ExactInputSingleParams({... */\n      mload(0x40)\n      dup1\n      0x0100\n      add\n      0x40\n      mstore\n      dup1\n        /* \"src/adapters/BastionLeverageAdapterV2.sol\":14914:14918  USDC */\n      immutable(\"0x29f7dc91bacd20d6dd2aee05db8697d2a4633e96941593f85928b6d956432d2a\")\n        /* \"src/adapters/BastionLeverageAdapterV2.sol\":14841:15196  ISlipstreamRouter.ExactInputSingleParams({... */\n      0xffffffffffffffffffffffffffffffffffffffff\n      and\n      dup2\n      mstore\n      0x20\n      add\n        /* \"src/adapters/BastionLeverageAdapterV2.sol\":14952:14957  CETES */\n      immutable(\"0xdc663e2224e3d20e2f93f04c4d7a191ee29ddce660128a0e996f13fca63039a2\")\n        /* \"src/adapters/BastionLeverageAdapterV2.sol\":14841:15196  ISlipstreamRouter.ExactInputSingleParams({... */\n      0xffffffffffffffffffffffffffffffffffffffff\n      and\n      dup2\n      mstore\n      0x20\n      add\n        /* \"src/adapters/BastionLeverageAdapterV2.sol\":6263:6265  10 */\n      0x0a\n        /* \"src/adapters/BastionLeverageAdapterV2.sol\":14841:15196  ISlipstreamRouter.ExactInputSingleParams({... */\n      0x02\n      signextend\n      dup2\n      mstore\n      0x20\n      add\n        /* \"src/adapters/BastionLeverageAdapterV2.sol\":15032:15036  this */\n      address\n        /* \"src/adapters/BastionLeverageAdapterV2.sol\":14841:15196  ISlipstreamRouter.ExactInputSingleParams({... */\n      0xffffffffffffffffffffffffffffffffffffffff\n      and\n      dup2\n      mstore\n      0x20\n      add\n        /* \"src/adapters/BastionLeverageAdapterV2.sol\":15062:15077  block.timestamp */\n      timestamp\n        /* \"src/adapters/BastionLeverageAdapterV2.sol\":14841:15196  ISlipstreamRouter.ExactInputSingleParams({... */\n      dup2\n      mstore\n      0x20\n      add\n        /* \"src/adapters/BastionLeverageAdapterV2.sol\":15102:15110  amountIn */\n      dup8\n        /* \"src/adapters/BastionLeverageAdapterV2.sol\":14841:15196  ISlipstreamRouter.ExactInputSingleParams({... */\n      dup2\n      mstore\n      0x20\n      add\n        /* \"src/adapters/BastionLeverageAdapterV2.sol\":15143:15149  minOut */\n      dup4\n        /* \"src/adapters/BastionLeverageAdapterV2.sol\":14841:15196  ISlipstreamRouter.ExactInputSingleParams({... */\n      dup2\n      mstore\n      0x20\n      add\n        /* \"src/adapters/BastionLeverageAdapterV2.sol\":15183:15184  0 */\n      0x00\n        /* \"src/adapters/BastionLeverageAdapterV2.sol\":14841:15196  ISlipstreamRouter.ExactInputSingleParams({... */\n      0xffffffffffffffffffffffffffffffffffffffff\n      and\n      dup2\n      mstore\n      pop\n        /* \"src/adapters/BastionLeverageAdapterV2.sol\":14784:15196  ISlipstreamRouter.ExactInputSingleParams memory params = ISlipstreamRouter.ExactInputSingleParams({... */\n      swap1\n      pop\n        /* \"src/adapters/BastionLeverageAdapterV2.sol\":15216:15222  ROUTER */\n      immutable(\"0xc3119e058e9a279f3c808528731a6374852ba6ce41c96ac2a4b3032a47392bcd\")\n        /* \"src/adapters/BastionLeverageAdapterV2.sol\":15216:15239  ROUTER.exactInputSingle */\n      0xffffffffffffffffffffffffffffffffffffffff\n      and\n      0xa026383e\n        /* \"src/adapters/BastionLeverageAdapterV2.sol\":15240:15246  params */\n      dup3\n        /* \"src/adapters/BastionLeverageAdapterV2.sol\":15216:15247  ROUTER.exactInputSingle(params) */\n      mload(0x40)\n      dup3\n      0xffffffff\n      and\n      0xe0\n      shl\n      dup2\n      mstore\n      0x04\n      add\n      tag_243\n      swap2\n      swap1\n      tag_244\n      jump\t// in\n    tag_243:\n      0x20\n      mload(0x40)\n      dup1\n      dup4\n      sub\n      dup2\n      0x00\n      dup8\n      gas\n      call\n      iszero\n      dup1\n      iszero\n      tag_246\n      jumpi\n      returndatasize\n      0x00\n      dup1\n      returndatacopy\n      revert(0x00, returndatasize)\n    tag_246:\n      pop\n      pop\n      pop\n      pop\n      mload(0x40)\n      returndatasize\n      not(0x1f)\n      0x1f\n      dup3\n      add\n      and\n      dup3\n      add\n      dup1\n      0x40\n      mstore\n      pop\n      dup2\n      add\n      swap1\n      tag_247\n      swap2\n      swap1\n      tag_95\n      jump\t// in\n    tag_247:\n        /* \"src/adapters/BastionLeverageAdapterV2.sol\":15209:15247  return ROUTER.exactInputSingle(params) */\n      swap5\n      pop\n      pop\n      pop\n      pop\n      pop\n        /* \"src/adapters/BastionLeverageAdapterV2.sol\":14466:15255  function _swapUsdcToCetes(uint256 amountIn) internal returns (uint256) {... */\n      swap2\n      swap1\n      pop\n      jump\t// out\n        /* \"src/adapters/BastionLeverageAdapterV2.sol\":12475:13361  function _calculateBorrowableAmount() internal view returns (uint256) {... */\n    tag_130:\n        /* \"src/adapters/BastionLeverageAdapterV2.sol\":12536:12543  uint256 */\n      0x00\n        /* \"src/adapters/BastionLeverageAdapterV2.sol\":12556:12583  IMorpho.Position memory pos */\n      dup1\n        /* \"src/adapters/BastionLeverageAdapterV2.sol\":12586:12592  MORPHO */\n      immutable(\"0xda07994851e5595956ad5f42ef8f8c8e244dd44ecb632f01a24fa5f3c80ff057\")\n        /* \"src/adapters/BastionLeverageAdapterV2.sol\":12586:12601  MORPHO.position */\n      0xffffffffffffffffffffffffffffffffffffffff\n      and\n      0x93c52062\n        /* \"src/adapters/BastionLeverageAdapterV2.sol\":12602:12611  MARKET_ID */\n      immutable(\"0x28bbb0207f31d945816623d3302c5bf67e35f3d933c3b03a2cbc30cfa7ce31d8\")\n        /* \"src/adapters/BastionLeverageAdapterV2.sol\":12621:12625  this */\n      address\n        /* \"src/adapters/BastionLeverageAdapterV2.sol\":12586:12627  MORPHO.position(MARKET_ID, address(this)) */\n      mload(0x40)\n      dup4\n      0xffffffff\n      and\n      0xe0\n      shl\n      dup2\n      mstore\n      0x04\n      add\n      tag_249\n      swap3\n      swap2\n      swap1\n      tag_74\n      jump\t// in\n    tag_249:\n      0x60\n      mload(0x40)\n      dup1\n      dup4\n      sub\n      dup2\n      dup7\n      gas\n      staticcall\n      iszero\n      dup1\n      iszero\n      tag_251\n      jumpi\n      returndatasize\n      0x00\n      dup1\n      returndatacopy\n      revert(0x00, returndatasize)\n    tag_251:\n      pop\n      pop\n      pop\n      pop\n      mload(0x40)\n      returndatasize\n      not(0x1f)\n      0x1f\n      dup3\n      add\n      and\n      dup3\n      add\n      dup1\n      0x40\n      mstore\n      pop\n      dup2\n      add\n      swap1\n      tag_252\n      swap2\n      swap1\n      tag_78\n      jump\t// in\n    tag_252:\n        /* \"src/adapters/BastionLeverageAdapterV2.sol\":12556:12627  IMorpho.Position memory pos = MORPHO.position(MARKET_ID, address(this)) */\n      swap1\n      pop\n        /* \"src/adapters/BastionLeverageAdapterV2.sol\":12638:12670  IMorpho.Market memory marketData */\n      0x00\n        /* \"src/adapters/BastionLeverageAdapterV2.sol\":12673:12679  MORPHO */\n      immutable(\"0xda07994851e5595956ad5f42ef8f8c8e244dd44ecb632f01a24fa5f3c80ff057\")\n        /* \"src/adapters/BastionLeverageAdapterV2.sol\":12673:12686  MORPHO.market */\n      0xffffffffffffffffffffffffffffffffffffffff\n      and\n      0x5c60e39a\n        /* \"src/adapters/BastionLeverageAdapterV2.sol\":12687:12696  MARKET_ID */\n      immutable(\"0x28bbb0207f31d945816623d3302c5bf67e35f3d933c3b03a2cbc30cfa7ce31d8\")\n        /* \"src/adapters/BastionLeverageAdapterV2.sol\":12673:12697  MORPHO.market(MARKET_ID) */\n      mload(0x40)\n      dup3\n      0xffffffff\n      and\n      0xe0\n      shl\n      dup2\n      mstore\n      0x04\n      add\n      tag_253\n      swap2\n      swap1\n      tag_46\n      jump\t// in\n    tag_253:\n      0xc0\n      mload(0x40)\n      dup1\n      dup4\n      sub\n      dup2\n      dup7\n      gas\n      staticcall\n      iszero\n      dup1\n      iszero\n      tag_255\n      jumpi\n      returndatasize\n      0x00\n      dup1\n      returndatacopy\n      revert(0x00, returndatasize)\n    tag_255:\n      pop\n      pop\n      pop\n      pop\n      mload(0x40)\n      returndatasize\n      not(0x1f)\n      0x1f\n      dup3\n      add\n      and\n      dup3\n      add\n      dup1\n      0x40\n      mstore\n      pop\n      dup2\n      add\n      swap1\n      tag_256\n      swap2\n      swap1\n      tag_85\n      jump\t// in\n    tag_256:\n        /* \"src/adapters/BastionLeverageAdapterV2.sol\":12638:12697  IMorpho.Market memory marketData = MORPHO.market(MARKET_ID) */\n      swap1\n      pop\n        /* \"src/adapters/BastionLeverageAdapterV2.sol\":12718:12737  uint256 oraclePrice */\n      0x00\n        /* \"src/adapters/BastionLeverageAdapterV2.sol\":12748:12760  marketParams */\n      dup1\n        /* \"src/adapters/BastionLeverageAdapterV2.sol\":12748:12767  marketParams.oracle */\n      0x02\n      add\n      0x00\n      swap1\n      sload\n      swap1\n      0x0100\n      exp\n      swap1\n      div\n      0xffffffffffffffffffffffffffffffffffffffff\n      and\n        /* \"src/adapters/BastionLeverageAdapterV2.sol\":12740:12774  IOracle(marketParams.oracle).price */\n      0xffffffffffffffffffffffffffffffffffffffff\n      and\n      0xa035b1fe\n        /* \"src/adapters/BastionLeverageAdapterV2.sol\":12740:12776  IOracle(marketParams.oracle).price() */\n      mload(0x40)\n      dup2\n      0xffffffff\n      and\n      0xe0\n      shl\n      dup2\n      mstore\n      0x04\n      add\n      0x20\n      mload(0x40)\n      dup1\n      dup4\n      sub\n      dup2\n      dup7\n      gas\n      staticcall\n      iszero\n      dup1\n      iszero\n      tag_258\n      jumpi\n      returndatasize\n      0x00\n      dup1\n      returndatacopy\n      revert(0x00, returndatasize)\n    tag_258:\n      pop\n      pop\n      pop\n      pop\n      mload(0x40)\n      returndatasize\n      not(0x1f)\n      0x1f\n      dup3\n      add\n      and\n      dup3\n      add\n      dup1\n      0x40\n      mstore\n      pop\n      dup2\n      add\n      swap1\n      tag_259\n      swap2\n      swap1\n      tag_95\n      jump\t// in\n    tag_259:\n        /* \"src/adapters/BastionLeverageAdapterV2.sol\":12718:12776  uint256 oraclePrice = IOracle(marketParams.oracle).price() */\n      swap1\n      pop\n        /* \"src/adapters/BastionLeverageAdapterV2.sol\":12787:12810  uint256 collateralValue */\n      0x00\n        /* \"src/adapters/BastionLeverageAdapterV2.sol\":12813:12882  Math.mulDiv(uint256(pos.collateral), oraclePrice, ORACLE_PRICE_SCALE) */\n      tag_260\n        /* \"src/adapters/BastionLeverageAdapterV2.sol\":12833:12836  pos */\n      dup5\n        /* \"src/adapters/BastionLeverageAdapterV2.sol\":12833:12847  pos.collateral */\n      0x40\n      add\n      mload\n        /* \"src/adapters/BastionLeverageAdapterV2.sol\":12825:12848  uint256(pos.collateral) */\n      0xffffffffffffffffffffffffffffffff\n      and\n        /* \"src/adapters/BastionLeverageAdapterV2.sol\":12850:12861  oraclePrice */\n      dup4\n        /* \"src/adapters/BastionLeverageAdapterV2.sol\":6371:6375  1e36 */\n      0xc097ce7bc90715b34b9f1000000000\n        /* \"src/adapters/BastionLeverageAdapterV2.sol\":12813:12824  Math.mulDiv */\n      tag_88\n        /* \"src/adapters/BastionLeverageAdapterV2.sol\":12813:12882  Math.mulDiv(uint256(pos.collateral), oraclePrice, ORACLE_PRICE_SCALE) */\n      jump\t// in\n    tag_260:\n        /* \"src/adapters/BastionLeverageAdapterV2.sol\":12787:12882  uint256 collateralValue = Math.mulDiv(uint256(pos.collateral), oraclePrice, ORACLE_PRICE_SCALE) */\n      swap1\n      pop\n        /* \"src/adapters/BastionLeverageAdapterV2.sol\":12903:12918  uint256 maxDebt */\n      0x00\n        /* \"src/adapters/BastionLeverageAdapterV2.sol\":12921:12966  Math.mulDiv(collateralValue, TARGET_LTV, WAD) */\n      tag_261\n        /* \"src/adapters/BastionLeverageAdapterV2.sol\":12933:12948  collateralValue */\n      dup3\n        /* \"src/adapters/BastionLeverageAdapterV2.sol\":6445:6452  0.80e18 */\n      0x0b1a2bc2ec500000\n        /* \"src/adapters/BastionLeverageAdapterV2.sol\":6322:6326  1e18 */\n      0x0de0b6b3a7640000\n        /* \"src/adapters/BastionLeverageAdapterV2.sol\":12921:12932  Math.mulDiv */\n      tag_88\n        /* \"src/adapters/BastionLeverageAdapterV2.sol\":12921:12966  Math.mulDiv(collateralValue, TARGET_LTV, WAD) */\n      jump\t// in\n    tag_261:\n        /* \"src/adapters/BastionLeverageAdapterV2.sol\":12903:12966  uint256 maxDebt = Math.mulDiv(collateralValue, TARGET_LTV, WAD) */\n      swap1\n      pop\n        /* \"src/adapters/BastionLeverageAdapterV2.sol\":12987:13006  uint256 borrowIndex */\n      0x00\n        /* \"src/adapters/BastionLeverageAdapterV2.sol\":13009:13085  Math.mulDiv(marketData.totalBorrowAssets, WAD, marketData.totalBorrowShares) */\n      tag_262\n        /* \"src/adapters/BastionLeverageAdapterV2.sol\":13021:13031  marketData */\n      dup6\n        /* \"src/adapters/BastionLeverageAdapterV2.sol\":13021:13049  marketData.totalBorrowAssets */\n      0x40\n      add\n      mload\n        /* \"src/adapters/BastionLeverageAdapterV2.sol\":13009:13085  Math.mulDiv(marketData.totalBorrowAssets, WAD, marketData.totalBorrowShares) */\n      0xffffffffffffffffffffffffffffffff\n      and\n        /* \"src/adapters/BastionLeverageAdapterV2.sol\":6322:6326  1e18 */\n      0x0de0b6b3a7640000\n        /* \"src/adapters/BastionLeverageAdapterV2.sol\":13056:13066  marketData */\n      dup8\n        /* \"src/adapters/BastionLeverageAdapterV2.sol\":13056:13084  marketData.totalBorrowShares */\n      0x60\n      add\n      mload\n        /* \"src/adapters/BastionLeverageAdapterV2.sol\":13009:13085  Math.mulDiv(marketData.totalBorrowAssets, WAD, marketData.totalBorrowShares) */\n      0xffffffffffffffffffffffffffffffff\n      and\n        /* \"src/adapters/BastionLeverageAdapterV2.sol\":13009:13020  Math.mulDiv */\n      tag_88\n        /* \"src/adapters/BastionLeverageAdapterV2.sol\":13009:13085  Math.mulDiv(marketData.totalBorrowAssets, WAD, marketData.totalBorrowShares) */\n      jump\t// in\n    tag_262:\n        /* \"src/adapters/BastionLeverageAdapterV2.sol\":12987:13085  uint256 borrowIndex = Math.mulDiv(marketData.totalBorrowAssets, WAD, marketData.totalBorrowShares) */\n      swap1\n      pop\n        /* \"src/adapters/BastionLeverageAdapterV2.sol\":13160:13179  uint256 currentDebt */\n      0x00\n        /* \"src/adapters/BastionLeverageAdapterV2.sol\":13182:13240  Math.mulDivUp(uint256(pos.borrowShares), borrowIndex, WAD) */\n      tag_263\n        /* \"src/adapters/BastionLeverageAdapterV2.sol\":13204:13207  pos */\n      dup8\n        /* \"src/adapters/BastionLeverageAdapterV2.sol\":13204:13220  pos.borrowShares */\n      0x20\n      add\n      mload\n        /* \"src/adapters/BastionLeverageAdapterV2.sol\":13196:13221  uint256(pos.borrowShares) */\n      0xffffffffffffffffffffffffffffffff\n      and\n        /* \"src/adapters/BastionLeverageAdapterV2.sol\":13223:13234  borrowIndex */\n      dup4\n        /* \"src/adapters/BastionLeverageAdapterV2.sol\":6322:6326  1e18 */\n      0x0de0b6b3a7640000\n        /* \"src/adapters/BastionLeverageAdapterV2.sol\":13182:13195  Math.mulDivUp */\n      tag_91\n        /* \"src/adapters/BastionLeverageAdapterV2.sol\":13182:13240  Math.mulDivUp(uint256(pos.borrowShares), borrowIndex, WAD) */\n      jump\t// in\n    tag_263:\n        /* \"src/adapters/BastionLeverageAdapterV2.sol\":13160:13240  uint256 currentDebt = Math.mulDivUp(uint256(pos.borrowShares), borrowIndex, WAD) */\n      swap1\n      pop\n        /* \"src/adapters/BastionLeverageAdapterV2.sol\":13267:13278  currentDebt */\n      dup1\n        /* \"src/adapters/BastionLeverageAdapterV2.sol\":13257:13264  maxDebt */\n      dup4\n        /* \"src/adapters/BastionLeverageAdapterV2.sol\":13257:13278  maxDebt > currentDebt */\n      gt\n        /* \"src/adapters/BastionLeverageAdapterV2.sol\":13253:13335  if (maxDebt > currentDebt) {... */\n      iszero\n      tag_264\n      jumpi\n        /* \"src/adapters/BastionLeverageAdapterV2.sol\":13312:13323  currentDebt */\n      dup1\n        /* \"src/adapters/BastionLeverageAdapterV2.sol\":13302:13309  maxDebt */\n      dup4\n        /* \"src/adapters/BastionLeverageAdapterV2.sol\":13302:13323  maxDebt - currentDebt */\n      tag_265\n      swap2\n      swap1\n      tag_99\n      jump\t// in\n    tag_265:\n        /* \"src/adapters/BastionLeverageAdapterV2.sol\":13295:13323  return maxDebt - currentDebt */\n      swap8\n      pop\n      pop\n      pop\n      pop\n      pop\n      pop\n      pop\n      pop\n      jump(tag_248)\n        /* \"src/adapters/BastionLeverageAdapterV2.sol\":13253:13335  if (maxDebt > currentDebt) {... */\n    tag_264:\n        /* \"src/adapters/BastionLeverageAdapterV2.sol\":13352:13353  0 */\n      0x00\n        /* \"src/adapters/BastionLeverageAdapterV2.sol\":13345:13353  return 0 */\n      swap8\n      pop\n      pop\n      pop\n      pop\n      pop\n      pop\n      pop\n      pop\n        /* \"src/adapters/BastionLeverageAdapterV2.sol\":12475:13361  function _calculateBorrowableAmount() internal view returns (uint256) {... */\n    tag_248:\n      swap1\n      jump\t// out\n        /* \"src/adapters/BastionLeverageAdapterV2.sol\":2605:2760  function safeTransfer(IERC20 token, address to, uint256 value) internal {... */\n    tag_157:\n        /* \"src/adapters/BastionLeverageAdapterV2.sol\":2696:2701  token */\n      dup3\n        /* \"src/adapters/BastionLeverageAdapterV2.sol\":2696:2710  token.transfer */\n      0xffffffffffffffffffffffffffffffffffffffff\n      and\n      0xa9059cbb\n        /* \"src/adapters/BastionLeverageAdapterV2.sol\":2711:2713  to */\n      dup4\n        /* \"src/adapters/BastionLeverageAdapterV2.sol\":2715:2720  value */\n      dup4\n        /* \"src/adapters/BastionLeverageAdapterV2.sol\":2696:2721  token.transfer(to, value) */\n      mload(0x40)\n      dup4\n      0xffffffff\n      and\n      0xe0\n      shl\n      dup2\n      mstore\n      0x04\n      add\n      tag_267\n      swap3\n      swap2\n      swap1\n      tag_268\n      jump\t// in\n    tag_267:\n      0x20\n      mload(0x40)\n      dup1\n      dup4\n      sub\n      dup2\n      0x00\n      dup8\n      gas\n      call\n      iszero\n      dup1\n      iszero\n      tag_270\n      jumpi\n      returndatasize\n      0x00\n      dup1\n      returndatacopy\n      revert(0x00, returndatasize)\n    tag_270:\n      pop\n      pop\n      pop\n      pop\n      mload(0x40)\n      returndatasize\n      not(0x1f)\n      0x1f\n      dup3\n      add\n      and\n      dup3\n      add\n      dup1\n      0x40\n      mstore\n      pop\n      dup2\n      add\n      swap1\n      tag_271\n      swap2\n      swap1\n      tag_232\n      jump\t// in\n    tag_271:\n        /* \"src/adapters/BastionLeverageAdapterV2.sol\":2688:2752  require(token.transfer(to, value), \"SafeERC20: transfer failed\") */\n      tag_272\n      jumpi\n      mload(0x40)\n      0x08c379a000000000000000000000000000000000000000000000000000000000\n      dup2\n      mstore\n      0x04\n      add\n      tag_273\n      swap1\n      tag_274\n      jump\t// in\n    tag_273:\n      mload(0x40)\n      dup1\n      swap2\n      sub\n      swap1\n      revert\n    tag_272:\n        /* \"src/adapters/BastionLeverageAdapterV2.sol\":2605:2760  function safeTransfer(IERC20 token, address to, uint256 value) internal {... */\n      pop\n      pop\n      pop\n      jump\t// out\n        /* \"src/adapters/BastionLeverageAdapterV2.sol\":13369:14458  function _calculateMaxSafeWithdraw() internal view returns (uint256) {... */\n    tag_178:\n        /* \"src/adapters/BastionLeverageAdapterV2.sol\":13429:13436  uint256 */\n      0x00\n        /* \"src/adapters/BastionLeverageAdapterV2.sol\":13449:13476  IMorpho.Position memory pos */\n      dup1\n        /* \"src/adapters/BastionLeverageAdapterV2.sol\":13479:13485  MORPHO */\n      immutable(\"0xda07994851e5595956ad5f42ef8f8c8e244dd44ecb632f01a24fa5f3c80ff057\")\n        /* \"src/adapters/BastionLeverageAdapterV2.sol\":13479:13494  MORPHO.position */\n      0xffffffffffffffffffffffffffffffffffffffff\n      and\n      0x93c52062\n        /* \"src/adapters/BastionLeverageAdapterV2.sol\":13495:13504  MARKET_ID */\n      immutable(\"0x28bbb0207f31d945816623d3302c5bf67e35f3d933c3b03a2cbc30cfa7ce31d8\")\n        /* \"src/adapters/BastionLeverageAdapterV2.sol\":13514:13518  this */\n      address\n        /* \"src/adapters/BastionLeverageAdapterV2.sol\":13479:13520  MORPHO.position(MARKET_ID, address(this)) */\n      mload(0x40)\n      dup4\n      0xffffffff\n      and\n      0xe0\n      shl\n      dup2\n      mstore\n      0x04\n      add\n      tag_276\n      swap3\n      swap2\n      swap1\n      tag_74\n      jump\t// in\n    tag_276:\n      0x60\n      mload(0x40)\n      dup1\n      dup4\n      sub\n      dup2\n      dup7\n      gas\n      staticcall\n      iszero\n      dup1\n      iszero\n      tag_278\n      jumpi\n      returndatasize\n      0x00\n      dup1\n      returndatacopy\n      revert(0x00, returndatasize)\n    tag_278:\n      pop\n      pop\n      pop\n      pop\n      mload(0x40)\n      returndatasize\n      not(0x1f)\n      0x1f\n      dup3\n      add\n      and\n      dup3\n      add\n      dup1\n      0x40\n      mstore\n      pop\n      dup2\n      add\n      swap1\n      tag_279\n      swap2\n      swap1\n      tag_78\n      jump\t// in\n    tag_279:\n        /* \"src/adapters/BastionLeverageAdapterV2.sol\":13449:13520  IMorpho.Position memory pos = MORPHO.position(MARKET_ID, address(this)) */\n      swap1\n      pop\n        /* \"src/adapters/BastionLeverageAdapterV2.sol\":13553:13554  0 */\n      0x00\n        /* \"src/adapters/BastionLeverageAdapterV2.sol\":13535:13538  pos */\n      dup2\n        /* \"src/adapters/BastionLeverageAdapterV2.sol\":13535:13549  pos.collateral */\n      0x40\n      add\n      mload\n        /* \"src/adapters/BastionLeverageAdapterV2.sol\":13535:13554  pos.collateral == 0 */\n      0xffffffffffffffffffffffffffffffff\n      and\n      sub\n        /* \"src/adapters/BastionLeverageAdapterV2.sol\":13531:13564  if (pos.collateral == 0) return 0 */\n      tag_280\n      jumpi\n        /* \"src/adapters/BastionLeverageAdapterV2.sol\":13563:13564  0 */\n      0x00\n        /* \"src/adapters/BastionLeverageAdapterV2.sol\":13556:13564  return 0 */\n      swap2\n      pop\n      pop\n      jump(tag_275)\n        /* \"src/adapters/BastionLeverageAdapterV2.sol\":13531:13564  if (pos.collateral == 0) return 0 */\n    tag_280:\n        /* \"src/adapters/BastionLeverageAdapterV2.sol\":13577:13609  IMorpho.Market memory marketData */\n      0x00\n        /* \"src/adapters/BastionLeverageAdapterV2.sol\":13612:13618  MORPHO */\n      immutable(\"0xda07994851e5595956ad5f42ef8f8c8e244dd44ecb632f01a24fa5f3c80ff057\")\n        /* \"src/adapters/BastionLeverageAdapterV2.sol\":13612:13625  MORPHO.market */\n      0xffffffffffffffffffffffffffffffffffffffff\n      and\n      0x5c60e39a\n        /* \"src/adapters/BastionLeverageAdapterV2.sol\":13626:13635  MARKET_ID */\n      immutable(\"0x28bbb0207f31d945816623d3302c5bf67e35f3d933c3b03a2cbc30cfa7ce31d8\")\n        /* \"src/adapters/BastionLeverageAdapterV2.sol\":13612:13636  MORPHO.market(MARKET_ID) */\n      mload(0x40)\n      dup3\n      0xffffffff\n      and\n      0xe0\n      shl\n      dup2\n      mstore\n      0x04\n      add\n      tag_281\n      swap2\n      swap1\n      tag_46\n      jump\t// in\n    tag_281:\n      0xc0\n      mload(0x40)\n      dup1\n      dup4\n      sub\n      dup2\n      dup7\n      gas\n      staticcall\n      iszero\n      dup1\n      iszero\n      tag_283\n      jumpi\n      returndatasize\n      0x00\n      dup1\n      returndatacopy\n      revert(0x00, returndatasize)\n    tag_283:\n      pop\n      pop\n      pop\n      pop\n      mload(0x40)\n      returndatasize\n      not(0x1f)\n      0x1f\n      dup3\n      add\n      and\n      dup3\n      add\n      dup1\n      0x40\n      mstore\n      pop\n      dup2\n      add\n      swap1\n      tag_284\n      swap2\n      swap1\n      tag_85\n      jump\t// in\n    tag_284:\n        /* \"src/adapters/BastionLeverageAdapterV2.sol\":13577:13636  IMorpho.Market memory marketData = MORPHO.market(MARKET_ID) */\n      swap1\n      pop\n        /* \"src/adapters/BastionLeverageAdapterV2.sol\":13647:13666  uint256 borrowIndex */\n      0x00\n        /* \"src/adapters/BastionLeverageAdapterV2.sol\":13669:13745  Math.mulDiv(marketData.totalBorrowAssets, WAD, marketData.totalBorrowShares) */\n      tag_285\n        /* \"src/adapters/BastionLeverageAdapterV2.sol\":13681:13691  marketData */\n      dup3\n        /* \"src/adapters/BastionLeverageAdapterV2.sol\":13681:13709  marketData.totalBorrowAssets */\n      0x40\n      add\n      mload\n        /* \"src/adapters/BastionLeverageAdapterV2.sol\":13669:13745  Math.mulDiv(marketData.totalBorrowAssets, WAD, marketData.totalBorrowShares) */\n      0xffffffffffffffffffffffffffffffff\n      and\n        /* \"src/adapters/BastionLeverageAdapterV2.sol\":6322:6326  1e18 */\n      0x0de0b6b3a7640000\n        /* \"src/adapters/BastionLeverageAdapterV2.sol\":13716:13726  marketData */\n      dup5\n        /* \"src/adapters/BastionLeverageAdapterV2.sol\":13716:13744  marketData.totalBorrowShares */\n      0x60\n      add\n      mload\n        /* \"src/adapters/BastionLeverageAdapterV2.sol\":13669:13745  Math.mulDiv(marketData.totalBorrowAssets, WAD, marketData.totalBorrowShares) */\n      0xffffffffffffffffffffffffffffffff\n      and\n        /* \"src/adapters/BastionLeverageAdapterV2.sol\":13669:13680  Math.mulDiv */\n      tag_88\n        /* \"src/adapters/BastionLeverageAdapterV2.sol\":13669:13745  Math.mulDiv(marketData.totalBorrowAssets, WAD, marketData.totalBorrowShares) */\n      jump\t// in\n    tag_285:\n        /* \"src/adapters/BastionLeverageAdapterV2.sol\":13647:13745  uint256 borrowIndex = Math.mulDiv(marketData.totalBorrowAssets, WAD, marketData.totalBorrowShares) */\n      swap1\n      pop\n        /* \"src/adapters/BastionLeverageAdapterV2.sol\":13785:13804  uint256 currentDebt */\n      0x00\n        /* \"src/adapters/BastionLeverageAdapterV2.sol\":13807:13865  Math.mulDivUp(uint256(pos.borrowShares), borrowIndex, WAD) */\n      tag_286\n        /* \"src/adapters/BastionLeverageAdapterV2.sol\":13829:13832  pos */\n      dup5\n        /* \"src/adapters/BastionLeverageAdapterV2.sol\":13829:13845  pos.borrowShares */\n      0x20\n      add\n      mload\n        /* \"src/adapters/BastionLeverageAdapterV2.sol\":13821:13846  uint256(pos.borrowShares) */\n      0xffffffffffffffffffffffffffffffff\n      and\n        /* \"src/adapters/BastionLeverageAdapterV2.sol\":13848:13859  borrowIndex */\n      dup4\n        /* \"src/adapters/BastionLeverageAdapterV2.sol\":6322:6326  1e18 */\n      0x0de0b6b3a7640000\n        /* \"src/adapters/BastionLeverageAdapterV2.sol\":13807:13820  Math.mulDivUp */\n      tag_91\n        /* \"src/adapters/BastionLeverageAdapterV2.sol\":13807:13865  Math.mulDivUp(uint256(pos.borrowShares), borrowIndex, WAD) */\n      jump\t// in\n    tag_286:\n        /* \"src/adapters/BastionLeverageAdapterV2.sol\":13785:13865  uint256 currentDebt = Math.mulDivUp(uint256(pos.borrowShares), borrowIndex, WAD) */\n      swap1\n      pop\n        /* \"src/adapters/BastionLeverageAdapterV2.sol\":13897:13898  0 */\n      0x00\n        /* \"src/adapters/BastionLeverageAdapterV2.sol\":13882:13893  currentDebt */\n      dup2\n        /* \"src/adapters/BastionLeverageAdapterV2.sol\":13882:13898  currentDebt == 0 */\n      sub\n        /* \"src/adapters/BastionLeverageAdapterV2.sol\":13878:13921  if (currentDebt == 0) return pos.collateral */\n      tag_287\n      jumpi\n        /* \"src/adapters/BastionLeverageAdapterV2.sol\":13907:13910  pos */\n      dup4\n        /* \"src/adapters/BastionLeverageAdapterV2.sol\":13907:13921  pos.collateral */\n      0x40\n      add\n      mload\n        /* \"src/adapters/BastionLeverageAdapterV2.sol\":13900:13921  return pos.collateral */\n      0xffffffffffffffffffffffffffffffff\n      and\n      swap5\n      pop\n      pop\n      pop\n      pop\n      pop\n      jump(tag_275)\n        /* \"src/adapters/BastionLeverageAdapterV2.sol\":13878:13921  if (currentDebt == 0) return pos.collateral */\n    tag_287:\n        /* \"src/adapters/BastionLeverageAdapterV2.sol\":13934:13953  uint256 oraclePrice */\n      0x00\n        /* \"src/adapters/BastionLeverageAdapterV2.sol\":13964:13976  marketParams */\n      dup1\n        /* \"src/adapters/BastionLeverageAdapterV2.sol\":13964:13983  marketParams.oracle */\n      0x02\n      add\n      0x00\n      swap1\n      sload\n      swap1\n      0x0100\n      exp\n      swap1\n      div\n      0xffffffffffffffffffffffffffffffffffffffff\n      and\n        /* \"src/adapters/BastionLeverageAdapterV2.sol\":13956:13990  IOracle(marketParams.oracle).price */\n      0xffffffffffffffffffffffffffffffffffffffff\n      and\n      0xa035b1fe\n        /* \"src/adapters/BastionLeverageAdapterV2.sol\":13956:13992  IOracle(marketParams.oracle).price() */\n      mload(0x40)\n      dup2\n      0xffffffff\n      and\n      0xe0\n      shl\n      dup2\n      mstore\n      0x04\n      add\n      0x20\n      mload(0x40)\n      dup1\n      dup4\n      sub\n      dup2\n      dup7\n      gas\n      staticcall\n      iszero\n      dup1\n      iszero\n      tag_289\n      jumpi\n      returndatasize\n      0x00\n      dup1\n      returndatacopy\n      revert(0x00, returndatasize)\n    tag_289:\n      pop\n      pop\n      pop\n      pop\n      mload(0x40)\n      returndatasize\n      not(0x1f)\n      0x1f\n      dup3\n      add\n      and\n      dup3\n      add\n      dup1\n      0x40\n      mstore\n      pop\n      dup2\n      add\n      swap1\n      tag_290\n      swap2\n      swap1\n      tag_95\n      jump\t// in\n    tag_290:\n        /* \"src/adapters/BastionLeverageAdapterV2.sol\":13934:13992  uint256 oraclePrice = IOracle(marketParams.oracle).price() */\n      swap1\n      pop\n        /* \"src/adapters/BastionLeverageAdapterV2.sol\":14003:14020  uint256 safetyLtv */\n      0x00\n        /* \"src/adapters/BastionLeverageAdapterV2.sol\":14023:14030  0.85e18 */\n      0x0bcbce7f1b150000\n        /* \"src/adapters/BastionLeverageAdapterV2.sol\":14003:14030  uint256 safetyLtv = 0.85e18 */\n      swap1\n      pop\n        /* \"src/adapters/BastionLeverageAdapterV2.sol\":14044:14070  uint256 minCollateralValue */\n      0x00\n        /* \"src/adapters/BastionLeverageAdapterV2.sol\":14073:14113  Math.mulDiv(currentDebt, WAD, safetyLtv) */\n      tag_291\n        /* \"src/adapters/BastionLeverageAdapterV2.sol\":14085:14096  currentDebt */\n      dup5\n        /* \"src/adapters/BastionLeverageAdapterV2.sol\":6322:6326  1e18 */\n      0x0de0b6b3a7640000\n        /* \"src/adapters/BastionLeverageAdapterV2.sol\":14103:14112  safetyLtv */\n      dup5\n        /* \"src/adapters/BastionLeverageAdapterV2.sol\":14073:14084  Math.mulDiv */\n      tag_88\n        /* \"src/adapters/BastionLeverageAdapterV2.sol\":14073:14113  Math.mulDiv(currentDebt, WAD, safetyLtv) */\n      jump\t// in\n    tag_291:\n        /* \"src/adapters/BastionLeverageAdapterV2.sol\":14044:14113  uint256 minCollateralValue = Math.mulDiv(currentDebt, WAD, safetyLtv) */\n      swap1\n      pop\n        /* \"src/adapters/BastionLeverageAdapterV2.sol\":14124:14154  uint256 currentCollateralValue */\n      0x00\n        /* \"src/adapters/BastionLeverageAdapterV2.sol\":14157:14226  Math.mulDiv(uint256(pos.collateral), oraclePrice, ORACLE_PRICE_SCALE) */\n      tag_292\n        /* \"src/adapters/BastionLeverageAdapterV2.sol\":14177:14180  pos */\n      dup9\n        /* \"src/adapters/BastionLeverageAdapterV2.sol\":14177:14191  pos.collateral */\n      0x40\n      add\n      mload\n        /* \"src/adapters/BastionLeverageAdapterV2.sol\":14169:14192  uint256(pos.collateral) */\n      0xffffffffffffffffffffffffffffffff\n      and\n        /* \"src/adapters/BastionLeverageAdapterV2.sol\":14194:14205  oraclePrice */\n      dup6\n        /* \"src/adapters/BastionLeverageAdapterV2.sol\":6371:6375  1e36 */\n      0xc097ce7bc90715b34b9f1000000000\n        /* \"src/adapters/BastionLeverageAdapterV2.sol\":14157:14168  Math.mulDiv */\n      tag_88\n        /* \"src/adapters/BastionLeverageAdapterV2.sol\":14157:14226  Math.mulDiv(uint256(pos.collateral), oraclePrice, ORACLE_PRICE_SCALE) */\n      jump\t// in\n    tag_292:\n        /* \"src/adapters/BastionLeverageAdapterV2.sol\":14124:14226  uint256 currentCollateralValue = Math.mulDiv(uint256(pos.collateral), oraclePrice, ORACLE_PRICE_SCALE) */\n      swap1\n      pop\n        /* \"src/adapters/BastionLeverageAdapterV2.sol\":14269:14287  minCollateralValue */\n      dup2\n        /* \"src/adapters/BastionLeverageAdapterV2.sol\":14243:14265  currentCollateralValue */\n      dup2\n        /* \"src/adapters/BastionLeverageAdapterV2.sol\":14243:14287  currentCollateralValue <= minCollateralValue */\n      gt\n        /* \"src/adapters/BastionLeverageAdapterV2.sol\":14239:14297  if (currentCollateralValue <= minCollateralValue) return 0 */\n      tag_293\n      jumpi\n        /* \"src/adapters/BastionLeverageAdapterV2.sol\":14296:14297  0 */\n      0x00\n        /* \"src/adapters/BastionLeverageAdapterV2.sol\":14289:14297  return 0 */\n      swap9\n      pop\n      pop\n      pop\n      pop\n      pop\n      pop\n      pop\n      pop\n      pop\n      jump(tag_275)\n        /* \"src/adapters/BastionLeverageAdapterV2.sol\":14239:14297  if (currentCollateralValue <= minCollateralValue) return 0 */\n    tag_293:\n        /* \"src/adapters/BastionLeverageAdapterV2.sol\":14310:14329  uint256 excessValue */\n      0x00\n        /* \"src/adapters/BastionLeverageAdapterV2.sol\":14357:14375  minCollateralValue */\n      dup3\n        /* \"src/adapters/BastionLeverageAdapterV2.sol\":14332:14354  currentCollateralValue */\n      dup3\n        /* \"src/adapters/BastionLeverageAdapterV2.sol\":14332:14375  currentCollateralValue - minCollateralValue */\n      tag_294\n      swap2\n      swap1\n      tag_99\n      jump\t// in\n    tag_294:\n        /* \"src/adapters/BastionLeverageAdapterV2.sol\":14310:14375  uint256 excessValue = currentCollateralValue - minCollateralValue */\n      swap1\n      pop\n        /* \"src/adapters/BastionLeverageAdapterV2.sol\":14393:14450  Math.mulDiv(excessValue, ORACLE_PRICE_SCALE, oraclePrice) */\n      tag_295\n        /* \"src/adapters/BastionLeverageAdapterV2.sol\":14405:14416  excessValue */\n      dup2\n        /* \"src/adapters/BastionLeverageAdapterV2.sol\":6371:6375  1e36 */\n      0xc097ce7bc90715b34b9f1000000000\n        /* \"src/adapters/BastionLeverageAdapterV2.sol\":14438:14449  oraclePrice */\n      dup8\n        /* \"src/adapters/BastionLeverageAdapterV2.sol\":14393:14404  Math.mulDiv */\n      tag_88\n        /* \"src/adapters/BastionLeverageAdapterV2.sol\":14393:14450  Math.mulDiv(excessValue, ORACLE_PRICE_SCALE, oraclePrice) */\n      jump\t// in\n    tag_295:\n        /* \"src/adapters/BastionLeverageAdapterV2.sol\":14386:14450  return Math.mulDiv(excessValue, ORACLE_PRICE_SCALE, oraclePrice) */\n      swap10\n      pop\n      pop\n      pop\n      pop\n      pop\n      pop\n      pop\n      pop\n      pop\n      pop\n        /* \"src/adapters/BastionLeverageAdapterV2.sol\":13369:14458  function _calculateMaxSafeWithdraw() internal view returns (uint256) {... */\n    tag_275:\n      swap1\n      jump\t// out\n        /* \"src/adapters/BastionLeverageAdapterV2.sol\":15263:16051  function _swapCetesToUsdc(uint256 amountIn) internal returns (uint256) {... */\n    tag_186:\n        /* \"src/adapters/BastionLeverageAdapterV2.sol\":15325:15332  uint256 */\n      0x00\n        /* \"src/adapters/BastionLeverageAdapterV2.sol\":15345:15364  uint256 oraclePrice */\n      dup1\n        /* \"src/adapters/BastionLeverageAdapterV2.sol\":15375:15387  marketParams */\n      0x00\n        /* \"src/adapters/BastionLeverageAdapterV2.sol\":15375:15394  marketParams.oracle */\n      0x02\n      add\n      0x00\n      swap1\n      sload\n      swap1\n      0x0100\n      exp\n      swap1\n      div\n      0xffffffffffffffffffffffffffffffffffffffff\n      and\n        /* \"src/adapters/BastionLeverageAdapterV2.sol\":15367:15401  IOracle(marketParams.oracle).price */\n      0xffffffffffffffffffffffffffffffffffffffff\n      and\n      0xa035b1fe\n        /* \"src/adapters/BastionLeverageAdapterV2.sol\":15367:15403  IOracle(marketParams.oracle).price() */\n      mload(0x40)\n      dup2\n      0xffffffff\n      and\n      0xe0\n      shl\n      dup2\n      mstore\n      0x04\n      add\n      0x20\n      mload(0x40)\n      dup1\n      dup4\n      sub\n      dup2\n      dup7\n      gas\n      staticcall\n      iszero\n      dup1\n      iszero\n      tag_298\n      jumpi\n      returndatasize\n      0x00\n      dup1\n      returndatacopy\n      revert(0x00, returndatasize)\n    tag_298:\n      pop\n      pop\n      pop\n      pop\n      mload(0x40)\n      returndatasize\n      not(0x1f)\n      0x1f\n      dup3\n      add\n      and\n      dup3\n      add\n      dup1\n      0x40\n      mstore\n      pop\n      dup2\n      add\n      swap1\n      tag_299\n      swap2\n      swap1\n      tag_95\n      jump\t// in\n    tag_299:\n        /* \"src/adapters/BastionLeverageAdapterV2.sol\":15345:15403  uint256 oraclePrice = IOracle(marketParams.oracle).price() */\n      swap1\n      pop\n        /* \"src/adapters/BastionLeverageAdapterV2.sol\":15414:15433  uint256 expectedOut */\n      0x00\n        /* \"src/adapters/BastionLeverageAdapterV2.sol\":15436:15490  Math.mulDiv(amountIn, oraclePrice, ORACLE_PRICE_SCALE) */\n      tag_300\n        /* \"src/adapters/BastionLeverageAdapterV2.sol\":15448:15456  amountIn */\n      dup5\n        /* \"src/adapters/BastionLeverageAdapterV2.sol\":15458:15469  oraclePrice */\n      dup4\n        /* \"src/adapters/BastionLeverageAdapterV2.sol\":6371:6375  1e36 */\n      0xc097ce7bc90715b34b9f1000000000\n        /* \"src/adapters/BastionLeverageAdapterV2.sol\":15436:15447  Math.mulDiv */\n      tag_88\n        /* \"src/adapters/BastionLeverageAdapterV2.sol\":15436:15490  Math.mulDiv(amountIn, oraclePrice, ORACLE_PRICE_SCALE) */\n      jump\t// in\n    tag_300:\n        /* \"src/adapters/BastionLeverageAdapterV2.sol\":15414:15490  uint256 expectedOut = Math.mulDiv(amountIn, oraclePrice, ORACLE_PRICE_SCALE) */\n      swap1\n      pop\n        /* \"src/adapters/BastionLeverageAdapterV2.sol\":15501:15515  uint256 minOut */\n      0x00\n        /* \"src/adapters/BastionLeverageAdapterV2.sol\":15518:15567  Math.mulDiv(expectedOut, WAD - MAX_SLIPPAGE, WAD) */\n      tag_301\n        /* \"src/adapters/BastionLeverageAdapterV2.sol\":15530:15541  expectedOut */\n      dup3\n        /* \"src/adapters/BastionLeverageAdapterV2.sol\":6498:6506  0.005e18 */\n      0x11c37937e08000\n        /* \"src/adapters/BastionLeverageAdapterV2.sol\":6322:6326  1e18 */\n      0x0de0b6b3a7640000\n        /* \"src/adapters/BastionLeverageAdapterV2.sol\":15543:15561  WAD - MAX_SLIPPAGE */\n      tag_302\n      swap2\n      swap1\n      tag_99\n      jump\t// in\n    tag_302:\n        /* \"src/adapters/BastionLeverageAdapterV2.sol\":6322:6326  1e18 */\n      0x0de0b6b3a7640000\n        /* \"src/adapters/BastionLeverageAdapterV2.sol\":15518:15529  Math.mulDiv */\n      tag_88\n        /* \"src/adapters/BastionLeverageAdapterV2.sol\":15518:15567  Math.mulDiv(expectedOut, WAD - MAX_SLIPPAGE, WAD) */\n      jump\t// in\n    tag_301:\n        /* \"src/adapters/BastionLeverageAdapterV2.sol\":15501:15567  uint256 minOut = Math.mulDiv(expectedOut, WAD - MAX_SLIPPAGE, WAD) */\n      swap1\n      pop\n        /* \"src/adapters/BastionLeverageAdapterV2.sol\":15580:15634  ISlipstreamRouter.ExactInputSingleParams memory params */\n      0x00\n        /* \"src/adapters/BastionLeverageAdapterV2.sol\":15637:15992  ISlipstreamRouter.ExactInputSingleParams({... */\n      mload(0x40)\n      dup1\n      0x0100\n      add\n      0x40\n      mstore\n      dup1\n        /* \"src/adapters/BastionLeverageAdapterV2.sol\":15710:15715  CETES */\n      immutable(\"0xdc663e2224e3d20e2f93f04c4d7a191ee29ddce660128a0e996f13fca63039a2\")\n        /* \"src/adapters/BastionLeverageAdapterV2.sol\":15637:15992  ISlipstreamRouter.ExactInputSingleParams({... */\n      0xffffffffffffffffffffffffffffffffffffffff\n      and\n      dup2\n      mstore\n      0x20\n      add\n        /* \"src/adapters/BastionLeverageAdapterV2.sol\":15749:15753  USDC */\n      immutable(\"0x29f7dc91bacd20d6dd2aee05db8697d2a4633e96941593f85928b6d956432d2a\")\n        /* \"src/adapters/BastionLeverageAdapterV2.sol\":15637:15992  ISlipstreamRouter.ExactInputSingleParams({... */\n      0xffffffffffffffffffffffffffffffffffffffff\n      and\n      dup2\n      mstore\n      0x20\n      add\n        /* \"src/adapters/BastionLeverageAdapterV2.sol\":6263:6265  10 */\n      0x0a\n        /* \"src/adapters/BastionLeverageAdapterV2.sol\":15637:15992  ISlipstreamRouter.ExactInputSingleParams({... */\n      0x02\n      signextend\n      dup2\n      mstore\n      0x20\n      add\n        /* \"src/adapters/BastionLeverageAdapterV2.sol\":15828:15832  this */\n      address\n        /* \"src/adapters/BastionLeverageAdapterV2.sol\":15637:15992  ISlipstreamRouter.ExactInputSingleParams({... */\n      0xffffffffffffffffffffffffffffffffffffffff\n      and\n      dup2\n      mstore\n      0x20\n      add\n        /* \"src/adapters/BastionLeverageAdapterV2.sol\":15858:15873  block.timestamp */\n      timestamp\n        /* \"src/adapters/BastionLeverageAdapterV2.sol\":15637:15992  ISlipstreamRouter.ExactInputSingleParams({... */\n      dup2\n      mstore\n      0x20\n      add\n        /* \"src/adapters/BastionLeverageAdapterV2.sol\":15898:15906  amountIn */\n      dup8\n        /* \"src/adapters/BastionLeverageAdapterV2.sol\":15637:15992  ISlipstreamRouter.ExactInputSingleParams({... */\n      dup2\n      mstore\n      0x20\n      add\n        /* \"src/adapters/BastionLeverageAdapterV2.sol\":15939:15945  minOut */\n      dup4\n        /* \"src/adapters/BastionLeverageAdapterV2.sol\":15637:15992  ISlipstreamRouter.ExactInputSingleParams({... */\n      dup2\n      mstore\n      0x20\n      add\n        /* \"src/adapters/BastionLeverageAdapterV2.sol\":15979:15980  0 */\n      0x00\n        /* \"src/adapters/BastionLeverageAdapterV2.sol\":15637:15992  ISlipstreamRouter.ExactInputSingleParams({... */\n      0xffffffffffffffffffffffffffffffffffffffff\n      and\n      dup2\n      mstore\n      pop\n        /* \"src/adapters/BastionLeverageAdapterV2.sol\":15580:15992  ISlipstreamRouter.ExactInputSingleParams memory params = ISlipstreamRouter.ExactInputSingleParams({... */\n      swap1\n      pop\n        /* \"src/adapters/BastionLeverageAdapterV2.sol\":16012:16018  ROUTER */\n      immutable(\"0xc3119e058e9a279f3c808528731a6374852ba6ce41c96ac2a4b3032a47392bcd\")\n        /* \"src/adapters/BastionLeverageAdapterV2.sol\":16012:16035  ROUTER.exactInputSingle */\n      0xffffffffffffffffffffffffffffffffffffffff\n      and\n      0xa026383e\n        /* \"src/adapters/BastionLeverageAdapterV2.sol\":16036:16042  params */\n      dup3\n        /* \"src/adapters/BastionLeverageAdapterV2.sol\":16012:16043  ROUTER.exactInputSingle(params) */\n      mload(0x40)\n      dup3\n      0xffffffff\n      and\n      0xe0\n      shl\n      dup2\n      mstore\n      0x04\n      add\n      tag_303\n      swap2\n      swap1\n      tag_244\n      jump\t// in\n    tag_303:\n      0x20\n      mload(0x40)\n      dup1\n      dup4\n      sub\n      dup2\n      0x00\n      dup8\n      gas\n      call\n      iszero\n      dup1\n      iszero\n      tag_305\n      jumpi\n      returndatasize\n      0x00\n      dup1\n      returndatacopy\n      revert(0x00, returndatasize)\n    tag_305:\n      pop\n      pop\n      pop\n      pop\n      mload(0x40)\n      returndatasize\n      not(0x1f)\n      0x1f\n      dup3\n      add\n      and\n      dup3\n      add\n      dup1\n      0x40\n      mstore\n      pop\n      dup2\n      add\n      swap1\n      tag_306\n      swap2\n      swap1\n      tag_95\n      jump\t// in\n    tag_306:\n        /* \"src/adapters/BastionLeverageAdapterV2.sol\":16005:16043  return ROUTER.exactInputSingle(params) */\n      swap5\n      pop\n      pop\n      pop\n      pop\n      pop\n        /* \"src/adapters/BastionLeverageAdapterV2.sol\":15263:16051  function _swapCetesToUsdc(uint256 amountIn) internal returns (uint256) {... */\n      swap2\n      swap1\n      pop\n      jump\t// out\n        /* \"src/adapters/BastionLeverageAdapterV2.sol\":1952:2058  function min(uint256 a, uint256 b) internal pure returns (uint256) {... */\n    tag_199:\n        /* \"src/adapters/BastionLeverageAdapterV2.sol\":2010:2017  uint256 */\n      0x00\n        /* \"src/adapters/BastionLeverageAdapterV2.sol\":2041:2042  b */\n      dup2\n        /* \"src/adapters/BastionLeverageAdapterV2.sol\":2037:2038  a */\n      dup4\n        /* \"src/adapters/BastionLeverageAdapterV2.sol\":2037:2042  a < b */\n      lt\n        /* \"src/adapters/BastionLeverageAdapterV2.sol\":2037:2050  a < b ? a : b */\n      tag_308\n      jumpi\n        /* \"src/adapters/BastionLeverageAdapterV2.sol\":2049:2050  b */\n      dup2\n        /* \"src/adapters/BastionLeverageAdapterV2.sol\":2037:2050  a < b ? a : b */\n      jump(tag_309)\n    tag_308:\n        /* \"src/adapters/BastionLeverageAdapterV2.sol\":2045:2046  a */\n      dup3\n        /* \"src/adapters/BastionLeverageAdapterV2.sol\":2037:2050  a < b ? a : b */\n    tag_309:\n        /* \"src/adapters/BastionLeverageAdapterV2.sol\":2030:2050  return a < b ? a : b */\n      swap1\n      pop\n        /* \"src/adapters/BastionLeverageAdapterV2.sol\":1952:2058  function min(uint256 a, uint256 b) internal pure returns (uint256) {... */\n      swap3\n      swap2\n      pop\n      pop\n      jump\t// out\n        /* \"#utility.yul\":7:84   */\n    tag_310:\n        /* \"#utility.yul\":44:51   */\n      0x00\n        /* \"#utility.yul\":73:78   */\n      dup2\n        /* \"#utility.yul\":62:78   */\n      swap1\n      pop\n        /* \"#utility.yul\":7:84   */\n      swap2\n      swap1\n      pop\n      jump\t// out\n        /* \"#utility.yul\":90:208   */\n    tag_311:\n        /* \"#utility.yul\":177:201   */\n      tag_387\n        /* \"#utility.yul\":195:200   */\n      dup2\n        /* \"#utility.yul\":177:201   */\n      tag_310\n      jump\t// in\n    tag_387:\n        /* \"#utility.yul\":172:175   */\n      dup3\n        /* \"#utility.yul\":165:202   */\n      mstore\n        /* \"#utility.yul\":90:208   */\n      pop\n      pop\n      jump\t// out\n        /* \"#utility.yul\":214:436   */\n    tag_23:\n        /* \"#utility.yul\":307:311   */\n      0x00\n        /* \"#utility.yul\":345:347   */\n      0x20\n        /* \"#utility.yul\":334:343   */\n      dup3\n        /* \"#utility.yul\":330:348   */\n      add\n        /* \"#utility.yul\":322:348   */\n      swap1\n      pop\n        /* \"#utility.yul\":358:429   */\n      tag_389\n        /* \"#utility.yul\":426:427   */\n      0x00\n        /* \"#utility.yul\":415:424   */\n      dup4\n        /* \"#utility.yul\":411:428   */\n      add\n        /* \"#utility.yul\":402:408   */\n      dup5\n        /* \"#utility.yul\":358:429   */\n      tag_311\n      jump\t// in\n    tag_389:\n        /* \"#utility.yul\":214:436   */\n      swap3\n      swap2\n      pop\n      pop\n      jump\t// out\n        /* \"#utility.yul\":442:541   */\n    tag_312:\n        /* \"#utility.yul\":494:500   */\n      0x00\n        /* \"#utility.yul\":528:533   */\n      dup2\n        /* \"#utility.yul\":522:534   */\n      mload\n        /* \"#utility.yul\":512:534   */\n      swap1\n      pop\n        /* \"#utility.yul\":442:541   */\n      swap2\n      swap1\n      pop\n      jump\t// out\n        /* \"#utility.yul\":547:716   */\n    tag_313:\n        /* \"#utility.yul\":631:642   */\n      0x00\n        /* \"#utility.yul\":665:671   */\n      dup3\n        /* \"#utility.yul\":660:663   */\n      dup3\n        /* \"#utility.yul\":653:672   */\n      mstore\n        /* \"#utility.yul\":705:709   */\n      0x20\n        /* \"#utility.yul\":700:703   */\n      dup3\n        /* \"#utility.yul\":696:710   */\n      add\n        /* \"#utility.yul\":681:710   */\n      swap1\n      pop\n        /* \"#utility.yul\":547:716   */\n      swap3\n      swap2\n      pop\n      pop\n      jump\t// out\n        /* \"#utility.yul\":722:968   */\n    tag_314:\n        /* \"#utility.yul\":803:804   */\n      0x00\n        /* \"#utility.yul\":813:926   */\n    tag_393:\n        /* \"#utility.yul\":827:833   */\n      dup4\n        /* \"#utility.yul\":824:825   */\n      dup2\n        /* \"#utility.yul\":821:834   */\n      lt\n        /* \"#utility.yul\":813:926   */\n      iszero\n      tag_395\n      jumpi\n        /* \"#utility.yul\":912:913   */\n      dup1\n        /* \"#utility.yul\":907:910   */\n      dup3\n        /* \"#utility.yul\":903:914   */\n      add\n        /* \"#utility.yul\":897:915   */\n      mload\n        /* \"#utility.yul\":893:894   */\n      dup2\n        /* \"#utility.yul\":888:891   */\n      dup5\n        /* \"#utility.yul\":884:895   */\n      add\n        /* \"#utility.yul\":877:916   */\n      mstore\n        /* \"#utility.yul\":849:851   */\n      0x20\n        /* \"#utility.yul\":846:847   */\n      dup2\n        /* \"#utility.yul\":842:852   */\n      add\n        /* \"#utility.yul\":837:852   */\n      swap1\n      pop\n        /* \"#utility.yul\":813:926   */\n      jump(tag_393)\n    tag_395:\n        /* \"#utility.yul\":960:961   */\n      0x00\n        /* \"#utility.yul\":951:957   */\n      dup5\n        /* \"#utility.yul\":946:949   */\n      dup5\n        /* \"#utility.yul\":942:958   */\n      add\n        /* \"#utility.yul\":935:962   */\n      mstore\n        /* \"#utility.yul\":784:968   */\n      pop\n        /* \"#utility.yul\":722:968   */\n      pop\n      pop\n      pop\n      jump\t// out\n        /* \"#utility.yul\":974:1076   */\n    tag_315:\n        /* \"#utility.yul\":1015:1021   */\n      0x00\n        /* \"#utility.yul\":1066:1068   */\n      0x1f\n        /* \"#utility.yul\":1062:1069   */\n      not\n        /* \"#utility.yul\":1057:1059   */\n      0x1f\n        /* \"#utility.yul\":1050:1055   */\n      dup4\n        /* \"#utility.yul\":1046:1060   */\n      add\n        /* \"#utility.yul\":1042:1070   */\n      and\n        /* \"#utility.yul\":1032:1070   */\n      swap1\n      pop\n        /* \"#utility.yul\":974:1076   */\n      swap2\n      swap1\n      pop\n      jump\t// out\n        /* \"#utility.yul\":1082:1459   */\n    tag_316:\n        /* \"#utility.yul\":1170:1173   */\n      0x00\n        /* \"#utility.yul\":1198:1237   */\n      tag_398\n        /* \"#utility.yul\":1231:1236   */\n      dup3\n        /* \"#utility.yul\":1198:1237   */\n      tag_312\n      jump\t// in\n    tag_398:\n        /* \"#utility.yul\":1253:1324   */\n      tag_399\n        /* \"#utility.yul\":1317:1323   */\n      dup2\n        /* \"#utility.yul\":1312:1315   */\n      dup6\n        /* \"#utility.yul\":1253:1324   */\n      tag_313\n      jump\t// in\n    tag_399:\n        /* \"#utility.yul\":1246:1324   */\n      swap4\n      pop\n        /* \"#utility.yul\":1333:1398   */\n      tag_400\n        /* \"#utility.yul\":1391:1397   */\n      dup2\n        /* \"#utility.yul\":1386:1389   */\n      dup6\n        /* \"#utility.yul\":1379:1383   */\n      0x20\n        /* \"#utility.yul\":1372:1377   */\n      dup7\n        /* \"#utility.yul\":1368:1384   */\n      add\n        /* \"#utility.yul\":1333:1398   */\n      tag_314\n      jump\t// in\n    tag_400:\n        /* \"#utility.yul\":1423:1452   */\n      tag_401\n        /* \"#utility.yul\":1445:1451   */\n      dup2\n        /* \"#utility.yul\":1423:1452   */\n      tag_315\n      jump\t// in\n    tag_401:\n        /* \"#utility.yul\":1418:1421   */\n      dup5\n        /* \"#utility.yul\":1414:1453   */\n      add\n        /* \"#utility.yul\":1407:1453   */\n      swap2\n      pop\n        /* \"#utility.yul\":1174:1459   */\n      pop\n        /* \"#utility.yul\":1082:1459   */\n      swap3\n      swap2\n      pop\n      pop\n      jump\t// out\n        /* \"#utility.yul\":1465:1778   */\n    tag_27:\n        /* \"#utility.yul\":1578:1582   */\n      0x00\n        /* \"#utility.yul\":1616:1618   */\n      0x20\n        /* \"#utility.yul\":1605:1614   */\n      dup3\n        /* \"#utility.yul\":1601:1619   */\n      add\n        /* \"#utility.yul\":1593:1619   */\n      swap1\n      pop\n        /* \"#utility.yul\":1665:1674   */\n      dup2\n        /* \"#utility.yul\":1659:1663   */\n      dup2\n        /* \"#utility.yul\":1655:1675   */\n      sub\n        /* \"#utility.yul\":1651:1652   */\n      0x00\n        /* \"#utility.yul\":1640:1649   */\n      dup4\n        /* \"#utility.yul\":1636:1653   */\n      add\n        /* \"#utility.yul\":1629:1676   */\n      mstore\n        /* \"#utility.yul\":1693:1771   */\n      tag_403\n        /* \"#utility.yul\":1766:1770   */\n      dup2\n        /* \"#utility.yul\":1757:1763   */\n      dup5\n        /* \"#utility.yul\":1693:1771   */\n      tag_316\n      jump\t// in\n    tag_403:\n        /* \"#utility.yul\":1685:1771   */\n      swap1\n      pop\n        /* \"#utility.yul\":1465:1778   */\n      swap3\n      swap2\n      pop\n      pop\n      jump\t// out\n        /* \"#utility.yul\":1784:1910   */\n    tag_317:\n        /* \"#utility.yul\":1821:1828   */\n      0x00\n        /* \"#utility.yul\":1861:1903   */\n      0xffffffffffffffffffffffffffffffffffffffff\n        /* \"#utility.yul\":1854:1859   */\n      dup3\n        /* \"#utility.yul\":1850:1904   */\n      and\n        /* \"#utility.yul\":1839:1904   */\n      swap1\n      pop\n        /* \"#utility.yul\":1784:1910   */\n      swap2\n      swap1\n      pop\n      jump\t// out\n        /* \"#utility.yul\":1916:1976   */\n    tag_318:\n        /* \"#utility.yul\":1944:1947   */\n      0x00\n        /* \"#utility.yul\":1965:1970   */\n      dup2\n        /* \"#utility.yul\":1958:1970   */\n      swap1\n      pop\n        /* \"#utility.yul\":1916:1976   */\n      swap2\n      swap1\n      pop\n      jump\t// out\n        /* \"#utility.yul\":1982:2124   */\n    tag_319:\n        /* \"#utility.yul\":2032:2041   */\n      0x00\n        /* \"#utility.yul\":2065:2118   */\n      tag_407\n        /* \"#utility.yul\":2083:2117   */\n      tag_408\n        /* \"#utility.yul\":2092:2116   */\n      tag_409\n        /* \"#utility.yul\":2110:2115   */\n      dup5\n        /* \"#utility.yul\":2092:2116   */\n      tag_317\n      jump\t// in\n    tag_409:\n        /* \"#utility.yul\":2083:2117   */\n      tag_318\n      jump\t// in\n    tag_408:\n        /* \"#utility.yul\":2065:2118   */\n      tag_317\n      jump\t// in\n    tag_407:\n        /* \"#utility.yul\":2052:2118   */\n      swap1\n      pop\n        /* \"#utility.yul\":1982:2124   */\n      swap2\n      swap1\n      pop\n      jump\t// out\n        /* \"#utility.yul\":2130:2256   */\n    tag_320:\n        /* \"#utility.yul\":2180:2189   */\n      0x00\n        /* \"#utility.yul\":2213:2250   */\n      tag_411\n        /* \"#utility.yul\":2244:2249   */\n      dup3\n        /* \"#utility.yul\":2213:2250   */\n      tag_319\n      jump\t// in\n    tag_411:\n        /* \"#utility.yul\":2200:2250   */\n      swap1\n      pop\n        /* \"#utility.yul\":2130:2256   */\n      swap2\n      swap1\n      pop\n      jump\t// out\n        /* \"#utility.yul\":2262:2413   */\n    tag_321:\n        /* \"#utility.yul\":2337:2346   */\n      0x00\n        /* \"#utility.yul\":2370:2407   */\n      tag_413\n        /* \"#utility.yul\":2401:2406   */\n      dup3\n        /* \"#utility.yul\":2370:2407   */\n      tag_320\n      jump\t// in\n    tag_413:\n        /* \"#utility.yul\":2357:2407   */\n      swap1\n      pop\n        /* \"#utility.yul\":2262:2413   */\n      swap2\n      swap1\n      pop\n      jump\t// out\n        /* \"#utility.yul\":2419:2600   */\n    tag_322:\n        /* \"#utility.yul\":2531:2593   */\n      tag_415\n        /* \"#utility.yul\":2587:2592   */\n      dup2\n        /* \"#utility.yul\":2531:2593   */\n      tag_321\n      jump\t// in\n    tag_415:\n        /* \"#utility.yul\":2526:2529   */\n      dup3\n        /* \"#utility.yul\":2519:2594   */\n      mstore\n        /* \"#utility.yul\":2419:2600   */\n      pop\n      pop\n      jump\t// out\n        /* \"#utility.yul\":2606:2878   */\n    tag_31:\n        /* \"#utility.yul\":2724:2728   */\n      0x00\n        /* \"#utility.yul\":2762:2764   */\n      0x20\n        /* \"#utility.yul\":2751:2760   */\n      dup3\n        /* \"#utility.yul\":2747:2765   */\n      add\n        /* \"#utility.yul\":2739:2765   */\n      swap1\n      pop\n        /* \"#utility.yul\":2775:2871   */\n      tag_417\n        /* \"#utility.yul\":2868:2869   */\n      0x00\n        /* \"#utility.yul\":2857:2866   */\n      dup4\n        /* \"#utility.yul\":2853:2870   */\n      add\n        /* \"#utility.yul\":2844:2850   */\n      dup5\n        /* \"#utility.yul\":2775:2871   */\n      tag_322\n      jump\t// in\n    tag_417:\n        /* \"#utility.yul\":2606:2878   */\n      swap3\n      swap2\n      pop\n      pop\n      jump\t// out\n        /* \"#utility.yul\":2884:2980   */\n    tag_323:\n        /* \"#utility.yul\":2921:2928   */\n      0x00\n        /* \"#utility.yul\":2950:2974   */\n      tag_419\n        /* \"#utility.yul\":2968:2973   */\n      dup3\n        /* \"#utility.yul\":2950:2974   */\n      tag_317\n      jump\t// in\n    tag_419:\n        /* \"#utility.yul\":2939:2974   */\n      swap1\n      pop\n        /* \"#utility.yul\":2884:2980   */\n      swap2\n      swap1\n      pop\n      jump\t// out\n        /* \"#utility.yul\":2986:3104   */\n    tag_324:\n        /* \"#utility.yul\":3073:3097   */\n      tag_421\n        /* \"#utility.yul\":3091:3096   */\n      dup2\n        /* \"#utility.yul\":3073:3097   */\n      tag_323\n      jump\t// in\n    tag_421:\n        /* \"#utility.yul\":3068:3071   */\n      dup3\n        /* \"#utility.yul\":3061:3098   */\n      mstore\n        /* \"#utility.yul\":2986:3104   */\n      pop\n      pop\n      jump\t// out\n        /* \"#utility.yul\":3110:3332   */\n    tag_35:\n        /* \"#utility.yul\":3203:3207   */\n      0x00\n        /* \"#utility.yul\":3241:3243   */\n      0x20\n        /* \"#utility.yul\":3230:3239   */\n      dup3\n        /* \"#utility.yul\":3226:3244   */\n      add\n        /* \"#utility.yul\":3218:3244   */\n      swap1\n      pop\n        /* \"#utility.yul\":3254:3325   */\n      tag_423\n        /* \"#utility.yul\":3322:3323   */\n      0x00\n        /* \"#utility.yul\":3311:3320   */\n      dup4\n        /* \"#utility.yul\":3307:3324   */\n      add\n        /* \"#utility.yul\":3298:3304   */\n      dup5\n        /* \"#utility.yul\":3254:3325   */\n      tag_324\n      jump\t// in\n    tag_423:\n        /* \"#utility.yul\":3110:3332   */\n      swap3\n      swap2\n      pop\n      pop\n      jump\t// out\n        /* \"#utility.yul\":3338:3479   */\n    tag_325:\n        /* \"#utility.yul\":3403:3412   */\n      0x00\n        /* \"#utility.yul\":3436:3473   */\n      tag_425\n        /* \"#utility.yul\":3467:3472   */\n      dup3\n        /* \"#utility.yul\":3436:3473   */\n      tag_320\n      jump\t// in\n    tag_425:\n        /* \"#utility.yul\":3423:3473   */\n      swap1\n      pop\n        /* \"#utility.yul\":3338:3479   */\n      swap2\n      swap1\n      pop\n      jump\t// out\n        /* \"#utility.yul\":3485:3646   */\n    tag_326:\n        /* \"#utility.yul\":3587:3639   */\n      tag_427\n        /* \"#utility.yul\":3633:3638   */\n      dup2\n        /* \"#utility.yul\":3587:3639   */\n      tag_325\n      jump\t// in\n    tag_427:\n        /* \"#utility.yul\":3582:3585   */\n      dup3\n        /* \"#utility.yul\":3575:3640   */\n      mstore\n        /* \"#utility.yul\":3485:3646   */\n      pop\n      pop\n      jump\t// out\n        /* \"#utility.yul\":3652:3904   */\n    tag_39:\n        /* \"#utility.yul\":3760:3764   */\n      0x00\n        /* \"#utility.yul\":3798:3800   */\n      0x20\n        /* \"#utility.yul\":3787:3796   */\n      dup3\n        /* \"#utility.yul\":3783:3801   */\n      add\n        /* \"#utility.yul\":3775:3801   */\n      swap1\n      pop\n        /* \"#utility.yul\":3811:3897   */\n      tag_429\n        /* \"#utility.yul\":3894:3895   */\n      0x00\n        /* \"#utility.yul\":3883:3892   */\n      dup4\n        /* \"#utility.yul\":3879:3896   */\n      add\n        /* \"#utility.yul\":3870:3876   */\n      dup5\n        /* \"#utility.yul\":3811:3897   */\n      tag_326\n      jump\t// in\n    tag_429:\n        /* \"#utility.yul\":3652:3904   */\n      swap3\n      swap2\n      pop\n      pop\n      jump\t// out\n        /* \"#utility.yul\":3910:3987   */\n    tag_327:\n        /* \"#utility.yul\":3947:3954   */\n      0x00\n        /* \"#utility.yul\":3976:3981   */\n      dup2\n        /* \"#utility.yul\":3965:3981   */\n      swap1\n      pop\n        /* \"#utility.yul\":3910:3987   */\n      swap2\n      swap1\n      pop\n      jump\t// out\n        /* \"#utility.yul\":3993:4111   */\n    tag_328:\n        /* \"#utility.yul\":4080:4104   */\n      tag_432\n        /* \"#utility.yul\":4098:4103   */\n      dup2\n        /* \"#utility.yul\":4080:4104   */\n      tag_327\n      jump\t// in\n    tag_432:\n        /* \"#utility.yul\":4075:4078   */\n      dup3\n        /* \"#utility.yul\":4068:4105   */\n      mstore\n        /* \"#utility.yul\":3993:4111   */\n      pop\n      pop\n      jump\t// out\n        /* \"#utility.yul\":4117:4339   */\n    tag_46:\n        /* \"#utility.yul\":4210:4214   */\n      0x00\n        /* \"#utility.yul\":4248:4250   */\n      0x20\n        /* \"#utility.yul\":4237:4246   */\n      dup3\n        /* \"#utility.yul\":4233:4251   */\n      add\n        /* \"#utility.yul\":4225:4251   */\n      swap1\n      pop\n        /* \"#utility.yul\":4261:4332   */\n      tag_434\n        /* \"#utility.yul\":4329:4330   */\n      0x00\n        /* \"#utility.yul\":4318:4327   */\n      dup4\n        /* \"#utility.yul\":4314:4331   */\n      add\n        /* \"#utility.yul\":4305:4311   */\n      dup5\n        /* \"#utility.yul\":4261:4332   */\n      tag_328\n      jump\t// in\n    tag_434:\n        /* \"#utility.yul\":4117:4339   */\n      swap3\n      swap2\n      pop\n      pop\n      jump\t// out\n        /* \"#utility.yul\":4345:4435   */\n    tag_329:\n        /* \"#utility.yul\":4380:4387   */\n      0x00\n        /* \"#utility.yul\":4423:4428   */\n      dup2\n        /* \"#utility.yul\":4420:4421   */\n      0x02\n        /* \"#utility.yul\":4409:4429   */\n      signextend\n        /* \"#utility.yul\":4398:4429   */\n      swap1\n      pop\n        /* \"#utility.yul\":4345:4435   */\n      swap2\n      swap1\n      pop\n      jump\t// out\n        /* \"#utility.yul\":4441:4553   */\n    tag_330:\n        /* \"#utility.yul\":4524:4546   */\n      tag_437\n        /* \"#utility.yul\":4540:4545   */\n      dup2\n        /* \"#utility.yul\":4524:4546   */\n      tag_329\n      jump\t// in\n    tag_437:\n        /* \"#utility.yul\":4519:4522   */\n      dup3\n        /* \"#utility.yul\":4512:4547   */\n      mstore\n        /* \"#utility.yul\":4441:4553   */\n      pop\n      pop\n      jump\t// out\n        /* \"#utility.yul\":4559:4773   */\n    tag_50:\n        /* \"#utility.yul\":4648:4652   */\n      0x00\n        /* \"#utility.yul\":4686:4688   */\n      0x20\n        /* \"#utility.yul\":4675:4684   */\n      dup3\n        /* \"#utility.yul\":4671:4689   */\n      add\n        /* \"#utility.yul\":4663:4689   */\n      swap1\n      pop\n        /* \"#utility.yul\":4699:4766   */\n      tag_439\n        /* \"#utility.yul\":4763:4764   */\n      0x00\n        /* \"#utility.yul\":4752:4761   */\n      dup4\n        /* \"#utility.yul\":4748:4765   */\n      add\n        /* \"#utility.yul\":4739:4745   */\n      dup5\n        /* \"#utility.yul\":4699:4766   */\n      tag_330\n      jump\t// in\n    tag_439:\n        /* \"#utility.yul\":4559:4773   */\n      swap3\n      swap2\n      pop\n      pop\n      jump\t// out\n        /* \"#utility.yul\":4779:4854   */\n    tag_331:\n        /* \"#utility.yul\":4812:4818   */\n      0x00\n        /* \"#utility.yul\":4845:4847   */\n      0x40\n        /* \"#utility.yul\":4839:4848   */\n      mload\n        /* \"#utility.yul\":4829:4848   */\n      swap1\n      pop\n        /* \"#utility.yul\":4779:4854   */\n      swap1\n      jump\t// out\n        /* \"#utility.yul\":4860:4977   */\n    tag_332:\n        /* \"#utility.yul\":4969:4970   */\n      0x00\n        /* \"#utility.yul\":4966:4967   */\n      dup1\n        /* \"#utility.yul\":4959:4971   */\n      revert\n        /* \"#utility.yul\":4983:5100   */\n    tag_333:\n        /* \"#utility.yul\":5092:5093   */\n      0x00\n        /* \"#utility.yul\":5089:5090   */\n      dup1\n        /* \"#utility.yul\":5082:5094   */\n      revert\n        /* \"#utility.yul\":5106:5228   */\n    tag_334:\n        /* \"#utility.yul\":5179:5203   */\n      tag_444\n        /* \"#utility.yul\":5197:5202   */\n      dup2\n        /* \"#utility.yul\":5179:5203   */\n      tag_310\n      jump\t// in\n    tag_444:\n        /* \"#utility.yul\":5172:5177   */\n      dup2\n        /* \"#utility.yul\":5169:5204   */\n      eq\n        /* \"#utility.yul\":5159:5222   */\n      tag_445\n      jumpi\n        /* \"#utility.yul\":5218:5219   */\n      0x00\n        /* \"#utility.yul\":5215:5216   */\n      dup1\n        /* \"#utility.yul\":5208:5220   */\n      revert\n        /* \"#utility.yul\":5159:5222   */\n    tag_445:\n        /* \"#utility.yul\":5106:5228   */\n      pop\n      jump\t// out\n        /* \"#utility.yul\":5234:5373   */\n    tag_335:\n        /* \"#utility.yul\":5280:5285   */\n      0x00\n        /* \"#utility.yul\":5318:5324   */\n      dup2\n        /* \"#utility.yul\":5305:5325   */\n      calldataload\n        /* \"#utility.yul\":5296:5325   */\n      swap1\n      pop\n        /* \"#utility.yul\":5334:5367   */\n      tag_447\n        /* \"#utility.yul\":5361:5366   */\n      dup2\n        /* \"#utility.yul\":5334:5367   */\n      tag_334\n      jump\t// in\n    tag_447:\n        /* \"#utility.yul\":5234:5373   */\n      swap3\n      swap2\n      pop\n      pop\n      jump\t// out\n        /* \"#utility.yul\":5379:5501   */\n    tag_336:\n        /* \"#utility.yul\":5452:5476   */\n      tag_449\n        /* \"#utility.yul\":5470:5475   */\n      dup2\n        /* \"#utility.yul\":5452:5476   */\n      tag_323\n      jump\t// in\n    tag_449:\n        /* \"#utility.yul\":5445:5450   */\n      dup2\n        /* \"#utility.yul\":5442:5477   */\n      eq\n        /* \"#utility.yul\":5432:5495   */\n      tag_450\n      jumpi\n        /* \"#utility.yul\":5491:5492   */\n      0x00\n        /* \"#utility.yul\":5488:5489   */\n      dup1\n        /* \"#utility.yul\":5481:5493   */\n      revert\n        /* \"#utility.yul\":5432:5495   */\n    tag_450:\n        /* \"#utility.yul\":5379:5501   */\n      pop\n      jump\t// out\n        /* \"#utility.yul\":5507:5646   */\n    tag_337:\n        /* \"#utility.yul\":5553:5558   */\n      0x00\n        /* \"#utility.yul\":5591:5597   */\n      dup2\n        /* \"#utility.yul\":5578:5598   */\n      calldataload\n        /* \"#utility.yul\":5569:5598   */\n      swap1\n      pop\n        /* \"#utility.yul\":5607:5640   */\n      tag_452\n        /* \"#utility.yul\":5634:5639   */\n      dup2\n        /* \"#utility.yul\":5607:5640   */\n      tag_336\n      jump\t// in\n    tag_452:\n        /* \"#utility.yul\":5507:5646   */\n      swap3\n      swap2\n      pop\n      pop\n      jump\t// out\n        /* \"#utility.yul\":5652:5769   */\n    tag_338:\n        /* \"#utility.yul\":5761:5762   */\n      0x00\n        /* \"#utility.yul\":5758:5759   */\n      dup1\n        /* \"#utility.yul\":5751:5763   */\n      revert\n        /* \"#utility.yul\":5775:5892   */\n    tag_339:\n        /* \"#utility.yul\":5884:5885   */\n      0x00\n        /* \"#utility.yul\":5881:5882   */\n      dup1\n        /* \"#utility.yul\":5874:5886   */\n      revert\n        /* \"#utility.yul\":5898:6015   */\n    tag_340:\n        /* \"#utility.yul\":6007:6008   */\n      0x00\n        /* \"#utility.yul\":6004:6005   */\n      dup1\n        /* \"#utility.yul\":5997:6009   */\n      revert\n        /* \"#utility.yul\":6034:6586   */\n    tag_341:\n        /* \"#utility.yul\":6091:6099   */\n      0x00\n        /* \"#utility.yul\":6101:6107   */\n      dup1\n        /* \"#utility.yul\":6151:6154   */\n      dup4\n        /* \"#utility.yul\":6144:6148   */\n      0x1f\n        /* \"#utility.yul\":6136:6142   */\n      dup5\n        /* \"#utility.yul\":6132:6149   */\n      add\n        /* \"#utility.yul\":6128:6155   */\n      slt\n        /* \"#utility.yul\":6118:6240   */\n      tag_457\n      jumpi\n        /* \"#utility.yul\":6159:6238   */\n      tag_458\n      tag_338\n      jump\t// in\n    tag_458:\n        /* \"#utility.yul\":6118:6240   */\n    tag_457:\n        /* \"#utility.yul\":6272:6278   */\n      dup3\n        /* \"#utility.yul\":6259:6279   */\n      calldataload\n        /* \"#utility.yul\":6249:6279   */\n      swap1\n      pop\n        /* \"#utility.yul\":6302:6320   */\n      0xffffffffffffffff\n        /* \"#utility.yul\":6294:6300   */\n      dup2\n        /* \"#utility.yul\":6291:6321   */\n      gt\n        /* \"#utility.yul\":6288:6405   */\n      iszero\n      tag_459\n      jumpi\n        /* \"#utility.yul\":6324:6403   */\n      tag_460\n      tag_339\n      jump\t// in\n    tag_460:\n        /* \"#utility.yul\":6288:6405   */\n    tag_459:\n        /* \"#utility.yul\":6438:6442   */\n      0x20\n        /* \"#utility.yul\":6430:6436   */\n      dup4\n        /* \"#utility.yul\":6426:6443   */\n      add\n        /* \"#utility.yul\":6414:6443   */\n      swap2\n      pop\n        /* \"#utility.yul\":6492:6495   */\n      dup4\n        /* \"#utility.yul\":6484:6488   */\n      0x01\n        /* \"#utility.yul\":6476:6482   */\n      dup3\n        /* \"#utility.yul\":6472:6489   */\n      mul\n        /* \"#utility.yul\":6462:6470   */\n      dup4\n        /* \"#utility.yul\":6458:6490   */\n      add\n        /* \"#utility.yul\":6455:6496   */\n      gt\n        /* \"#utility.yul\":6452:6580   */\n      iszero\n      tag_461\n      jumpi\n        /* \"#utility.yul\":6499:6578   */\n      tag_462\n      tag_340\n      jump\t// in\n    tag_462:\n        /* \"#utility.yul\":6452:6580   */\n    tag_461:\n        /* \"#utility.yul\":6034:6586   */\n      swap3\n      pop\n      swap3\n      swap1\n      pop\n      jump\t// out\n        /* \"#utility.yul\":6592:7409   */\n    tag_53:\n        /* \"#utility.yul\":6680:6686   */\n      0x00\n        /* \"#utility.yul\":6688:6694   */\n      dup1\n        /* \"#utility.yul\":6696:6702   */\n      0x00\n        /* \"#utility.yul\":6704:6710   */\n      dup1\n        /* \"#utility.yul\":6753:6755   */\n      0x60\n        /* \"#utility.yul\":6741:6750   */\n      dup6\n        /* \"#utility.yul\":6732:6739   */\n      dup8\n        /* \"#utility.yul\":6728:6751   */\n      sub\n        /* \"#utility.yul\":6724:6756   */\n      slt\n        /* \"#utility.yul\":6721:6840   */\n      iszero\n      tag_464\n      jumpi\n        /* \"#utility.yul\":6759:6838   */\n      tag_465\n      tag_332\n      jump\t// in\n    tag_465:\n        /* \"#utility.yul\":6721:6840   */\n    tag_464:\n        /* \"#utility.yul\":6879:6880   */\n      0x00\n        /* \"#utility.yul\":6904:6957   */\n      tag_466\n        /* \"#utility.yul\":6949:6956   */\n      dup8\n        /* \"#utility.yul\":6940:6946   */\n      dup3\n        /* \"#utility.yul\":6929:6938   */\n      dup9\n        /* \"#utility.yul\":6925:6947   */\n      add\n        /* \"#utility.yul\":6904:6957   */\n      tag_335\n      jump\t// in\n    tag_466:\n        /* \"#utility.yul\":6894:6957   */\n      swap5\n      pop\n        /* \"#utility.yul\":6850:6967   */\n      pop\n        /* \"#utility.yul\":7006:7008   */\n      0x20\n        /* \"#utility.yul\":7032:7085   */\n      tag_467\n        /* \"#utility.yul\":7077:7084   */\n      dup8\n        /* \"#utility.yul\":7068:7074   */\n      dup3\n        /* \"#utility.yul\":7057:7066   */\n      dup9\n        /* \"#utility.yul\":7053:7075   */\n      add\n        /* \"#utility.yul\":7032:7085   */\n      tag_337\n      jump\t// in\n    tag_467:\n        /* \"#utility.yul\":7022:7085   */\n      swap4\n      pop\n        /* \"#utility.yul\":6977:7095   */\n      pop\n        /* \"#utility.yul\":7162:7164   */\n      0x40\n        /* \"#utility.yul\":7151:7160   */\n      dup6\n        /* \"#utility.yul\":7147:7165   */\n      add\n        /* \"#utility.yul\":7134:7166   */\n      calldataload\n        /* \"#utility.yul\":7193:7211   */\n      0xffffffffffffffff\n        /* \"#utility.yul\":7185:7191   */\n      dup2\n        /* \"#utility.yul\":7182:7212   */\n      gt\n        /* \"#utility.yul\":7179:7296   */\n      iszero\n      tag_468\n      jumpi\n        /* \"#utility.yul\":7215:7294   */\n      tag_469\n      tag_333\n      jump\t// in\n    tag_469:\n        /* \"#utility.yul\":7179:7296   */\n    tag_468:\n        /* \"#utility.yul\":7328:7392   */\n      tag_470\n        /* \"#utility.yul\":7384:7391   */\n      dup8\n        /* \"#utility.yul\":7375:7381   */\n      dup3\n        /* \"#utility.yul\":7364:7373   */\n      dup9\n        /* \"#utility.yul\":7360:7382   */\n      add\n        /* \"#utility.yul\":7328:7392   */\n      tag_341\n      jump\t// in\n    tag_470:\n        /* \"#utility.yul\":7310:7392   */\n      swap3\n      pop\n      swap3\n      pop\n        /* \"#utility.yul\":7105:7402   */\n      pop\n        /* \"#utility.yul\":6592:7409   */\n      swap3\n      swap6\n      swap2\n      swap5\n      pop\n      swap3\n      pop\n      jump\t// out\n        /* \"#utility.yul\":7415:8079   */\n    tag_64:\n        /* \"#utility.yul\":7620:7624   */\n      0x00\n        /* \"#utility.yul\":7658:7661   */\n      0xa0\n        /* \"#utility.yul\":7647:7656   */\n      dup3\n        /* \"#utility.yul\":7643:7662   */\n      add\n        /* \"#utility.yul\":7635:7662   */\n      swap1\n      pop\n        /* \"#utility.yul\":7672:7743   */\n      tag_472\n        /* \"#utility.yul\":7740:7741   */\n      0x00\n        /* \"#utility.yul\":7729:7738   */\n      dup4\n        /* \"#utility.yul\":7725:7742   */\n      add\n        /* \"#utility.yul\":7716:7722   */\n      dup9\n        /* \"#utility.yul\":7672:7743   */\n      tag_324\n      jump\t// in\n    tag_472:\n        /* \"#utility.yul\":7753:7825   */\n      tag_473\n        /* \"#utility.yul\":7821:7823   */\n      0x20\n        /* \"#utility.yul\":7810:7819   */\n      dup4\n        /* \"#utility.yul\":7806:7824   */\n      add\n        /* \"#utility.yul\":7797:7803   */\n      dup8\n        /* \"#utility.yul\":7753:7825   */\n      tag_324\n      jump\t// in\n    tag_473:\n        /* \"#utility.yul\":7835:7907   */\n      tag_474\n        /* \"#utility.yul\":7903:7905   */\n      0x40\n        /* \"#utility.yul\":7892:7901   */\n      dup4\n        /* \"#utility.yul\":7888:7906   */\n      add\n        /* \"#utility.yul\":7879:7885   */\n      dup7\n        /* \"#utility.yul\":7835:7907   */\n      tag_324\n      jump\t// in\n    tag_474:\n        /* \"#utility.yul\":7917:7989   */\n      tag_475\n        /* \"#utility.yul\":7985:7987   */\n      0x60\n        /* \"#utility.yul\":7974:7983   */\n      dup4\n        /* \"#utility.yul\":7970:7988   */\n      add\n        /* \"#utility.yul\":7961:7967   */\n      dup6\n        /* \"#utility.yul\":7917:7989   */\n      tag_324\n      jump\t// in\n    tag_475:\n        /* \"#utility.yul\":7999:8072   */\n      tag_476\n        /* \"#utility.yul\":8067:8070   */\n      0x80\n        /* \"#utility.yul\":8056:8065   */\n      dup4\n        /* \"#utility.yul\":8052:8071   */\n      add\n        /* \"#utility.yul\":8043:8049   */\n      dup5\n        /* \"#utility.yul\":7999:8072   */\n      tag_311\n      jump\t// in\n    tag_476:\n        /* \"#utility.yul\":7415:8079   */\n      swap7\n      swap6\n      pop\n      pop\n      pop\n      pop\n      pop\n      pop\n      jump\t// out\n        /* \"#utility.yul\":8085:8225   */\n    tag_342:\n        /* \"#utility.yul\":8149:8158   */\n      0x00\n        /* \"#utility.yul\":8182:8219   */\n      tag_478\n        /* \"#utility.yul\":8213:8218   */\n      dup3\n        /* \"#utility.yul\":8182:8219   */\n      tag_320\n      jump\t// in\n    tag_478:\n        /* \"#utility.yul\":8169:8219   */\n      swap1\n      pop\n        /* \"#utility.yul\":8085:8225   */\n      swap2\n      swap1\n      pop\n      jump\t// out\n        /* \"#utility.yul\":8231:8390   */\n    tag_343:\n        /* \"#utility.yul\":8332:8383   */\n      tag_480\n        /* \"#utility.yul\":8377:8382   */\n      dup2\n        /* \"#utility.yul\":8332:8383   */\n      tag_342\n      jump\t// in\n    tag_480:\n        /* \"#utility.yul\":8327:8330   */\n      dup3\n        /* \"#utility.yul\":8320:8384   */\n      mstore\n        /* \"#utility.yul\":8231:8390   */\n      pop\n      pop\n      jump\t// out\n        /* \"#utility.yul\":8396:8646   */\n    tag_68:\n        /* \"#utility.yul\":8503:8507   */\n      0x00\n        /* \"#utility.yul\":8541:8543   */\n      0x20\n        /* \"#utility.yul\":8530:8539   */\n      dup3\n        /* \"#utility.yul\":8526:8544   */\n      add\n        /* \"#utility.yul\":8518:8544   */\n      swap1\n      pop\n        /* \"#utility.yul\":8554:8639   */\n      tag_482\n        /* \"#utility.yul\":8636:8637   */\n      0x00\n        /* \"#utility.yul\":8625:8634   */\n      dup4\n        /* \"#utility.yul\":8621:8638   */\n      add\n        /* \"#utility.yul\":8612:8618   */\n      dup5\n        /* \"#utility.yul\":8554:8639   */\n      tag_343\n      jump\t// in\n    tag_482:\n        /* \"#utility.yul\":8396:8646   */\n      swap3\n      swap2\n      pop\n      pop\n      jump\t// out\n        /* \"#utility.yul\":8652:8984   */\n    tag_74:\n        /* \"#utility.yul\":8773:8777   */\n      0x00\n        /* \"#utility.yul\":8811:8813   */\n      0x40\n        /* \"#utility.yul\":8800:8809   */\n      dup3\n        /* \"#utility.yul\":8796:8814   */\n      add\n        /* \"#utility.yul\":8788:8814   */\n      swap1\n      pop\n        /* \"#utility.yul\":8824:8895   */\n      tag_484\n        /* \"#utility.yul\":8892:8893   */\n      0x00\n        /* \"#utility.yul\":8881:8890   */\n      dup4\n        /* \"#utility.yul\":8877:8894   */\n      add\n        /* \"#utility.yul\":8868:8874   */\n      dup6\n        /* \"#utility.yul\":8824:8895   */\n      tag_328\n      jump\t// in\n    tag_484:\n        /* \"#utility.yul\":8905:8977   */\n      tag_485\n        /* \"#utility.yul\":8973:8975   */\n      0x20\n        /* \"#utility.yul\":8962:8971   */\n      dup4\n        /* \"#utility.yul\":8958:8976   */\n      add\n        /* \"#utility.yul\":8949:8955   */\n      dup5\n        /* \"#utility.yul\":8905:8977   */\n      tag_324\n      jump\t// in\n    tag_485:\n        /* \"#utility.yul\":8652:8984   */\n      swap4\n      swap3\n      pop\n      pop\n      pop\n      jump\t// out\n        /* \"#utility.yul\":8990:9107   */\n    tag_344:\n        /* \"#utility.yul\":9099:9100   */\n      0x00\n        /* \"#utility.yul\":9096:9097   */\n      dup1\n        /* \"#utility.yul\":9089:9101   */\n      revert\n        /* \"#utility.yul\":9113:9293   */\n    tag_345:\n        /* \"#utility.yul\":9161:9238   */\n      0x4e487b7100000000000000000000000000000000000000000000000000000000\n        /* \"#utility.yul\":9158:9159   */\n      0x00\n        /* \"#utility.yul\":9151:9239   */\n      mstore\n        /* \"#utility.yul\":9258:9262   */\n      0x41\n        /* \"#utility.yul\":9255:9256   */\n      0x04\n        /* \"#utility.yul\":9248:9263   */\n      mstore\n        /* \"#utility.yul\":9282:9286   */\n      0x24\n        /* \"#utility.yul\":9279:9280   */\n      0x00\n        /* \"#utility.yul\":9272:9287   */\n      revert\n        /* \"#utility.yul\":9299:9580   */\n    tag_346:\n        /* \"#utility.yul\":9382:9409   */\n      tag_489\n        /* \"#utility.yul\":9404:9408   */\n      dup3\n        /* \"#utility.yul\":9382:9409   */\n      tag_315\n      jump\t// in\n    tag_489:\n        /* \"#utility.yul\":9374:9380   */\n      dup2\n        /* \"#utility.yul\":9370:9410   */\n      add\n        /* \"#utility.yul\":9512:9518   */\n      dup2\n        /* \"#utility.yul\":9500:9510   */\n      dup2\n        /* \"#utility.yul\":9497:9519   */\n      lt\n        /* \"#utility.yul\":9476:9494   */\n      0xffffffffffffffff\n        /* \"#utility.yul\":9464:9474   */\n      dup3\n        /* \"#utility.yul\":9461:9495   */\n      gt\n        /* \"#utility.yul\":9458:9520   */\n      or\n        /* \"#utility.yul\":9455:9543   */\n      iszero\n      tag_490\n      jumpi\n        /* \"#utility.yul\":9523:9541   */\n      tag_491\n      tag_345\n      jump\t// in\n    tag_491:\n        /* \"#utility.yul\":9455:9543   */\n    tag_490:\n        /* \"#utility.yul\":9563:9573   */\n      dup1\n        /* \"#utility.yul\":9559:9561   */\n      0x40\n        /* \"#utility.yul\":9552:9574   */\n      mstore\n        /* \"#utility.yul\":9342:9580   */\n      pop\n        /* \"#utility.yul\":9299:9580   */\n      pop\n      pop\n      jump\t// out\n        /* \"#utility.yul\":9586:9715   */\n    tag_347:\n        /* \"#utility.yul\":9620:9626   */\n      0x00\n        /* \"#utility.yul\":9647:9667   */\n      tag_493\n      tag_331\n      jump\t// in\n    tag_493:\n        /* \"#utility.yul\":9637:9667   */\n      swap1\n      pop\n        /* \"#utility.yul\":9676:9709   */\n      tag_494\n        /* \"#utility.yul\":9704:9708   */\n      dup3\n        /* \"#utility.yul\":9696:9702   */\n      dup3\n        /* \"#utility.yul\":9676:9709   */\n      tag_346\n      jump\t// in\n    tag_494:\n        /* \"#utility.yul\":9586:9715   */\n      swap2\n      swap1\n      pop\n      jump\t// out\n        /* \"#utility.yul\":9844:9987   */\n    tag_349:\n        /* \"#utility.yul\":9901:9906   */\n      0x00\n        /* \"#utility.yul\":9932:9938   */\n      dup2\n        /* \"#utility.yul\":9926:9939   */\n      mload\n        /* \"#utility.yul\":9917:9939   */\n      swap1\n      pop\n        /* \"#utility.yul\":9948:9981   */\n      tag_497\n        /* \"#utility.yul\":9975:9980   */\n      dup2\n        /* \"#utility.yul\":9948:9981   */\n      tag_334\n      jump\t// in\n    tag_497:\n        /* \"#utility.yul\":9844:9987   */\n      swap3\n      swap2\n      pop\n      pop\n      jump\t// out\n        /* \"#utility.yul\":9993:10111   */\n    tag_350:\n        /* \"#utility.yul\":10030:10037   */\n      0x00\n        /* \"#utility.yul\":10070:10104   */\n      0xffffffffffffffffffffffffffffffff\n        /* \"#utility.yul\":10063:10068   */\n      dup3\n        /* \"#utility.yul\":10059:10105   */\n      and\n        /* \"#utility.yul\":10048:10105   */\n      swap1\n      pop\n        /* \"#utility.yul\":9993:10111   */\n      swap2\n      swap1\n      pop\n      jump\t// out\n        /* \"#utility.yul\":10117:10239   */\n    tag_351:\n        /* \"#utility.yul\":10190:10214   */\n      tag_500\n        /* \"#utility.yul\":10208:10213   */\n      dup2\n        /* \"#utility.yul\":10190:10214   */\n      tag_350\n      jump\t// in\n    tag_500:\n        /* \"#utility.yul\":10183:10188   */\n      dup2\n        /* \"#utility.yul\":10180:10215   */\n      eq\n        /* \"#utility.yul\":10170:10233   */\n      tag_501\n      jumpi\n        /* \"#utility.yul\":10229:10230   */\n      0x00\n        /* \"#utility.yul\":10226:10227   */\n      dup1\n        /* \"#utility.yul\":10219:10231   */\n      revert\n        /* \"#utility.yul\":10170:10233   */\n    tag_501:\n        /* \"#utility.yul\":10117:10239   */\n      pop\n      jump\t// out\n        /* \"#utility.yul\":10245:10388   */\n    tag_352:\n        /* \"#utility.yul\":10302:10307   */\n      0x00\n        /* \"#utility.yul\":10333:10339   */\n      dup2\n        /* \"#utility.yul\":10327:10340   */\n      mload\n        /* \"#utility.yul\":10318:10340   */\n      swap1\n      pop\n        /* \"#utility.yul\":10349:10382   */\n      tag_503\n        /* \"#utility.yul\":10376:10381   */\n      dup2\n        /* \"#utility.yul\":10349:10382   */\n      tag_351\n      jump\t// in\n    tag_503:\n        /* \"#utility.yul\":10245:10388   */\n      swap3\n      swap2\n      pop\n      pop\n      jump\t// out\n        /* \"#utility.yul\":10425:11226   */\n    tag_353:\n        /* \"#utility.yul\":10510:10515   */\n      0x00\n        /* \"#utility.yul\":10554:10558   */\n      0x60\n        /* \"#utility.yul\":10542:10551   */\n      dup3\n        /* \"#utility.yul\":10537:10540   */\n      dup5\n        /* \"#utility.yul\":10533:10552   */\n      sub\n        /* \"#utility.yul\":10529:10559   */\n      slt\n        /* \"#utility.yul\":10526:10643   */\n      iszero\n      tag_505\n      jumpi\n        /* \"#utility.yul\":10562:10641   */\n      tag_506\n      tag_344\n      jump\t// in\n    tag_506:\n        /* \"#utility.yul\":10526:10643   */\n    tag_505:\n        /* \"#utility.yul\":10661:10682   */\n      tag_507\n        /* \"#utility.yul\":10677:10681   */\n      0x60\n        /* \"#utility.yul\":10661:10682   */\n      tag_347\n      jump\t// in\n    tag_507:\n        /* \"#utility.yul\":10652:10682   */\n      swap1\n      pop\n        /* \"#utility.yul\":10749:10750   */\n      0x00\n        /* \"#utility.yul\":10789:10849   */\n      tag_508\n        /* \"#utility.yul\":10845:10848   */\n      dup5\n        /* \"#utility.yul\":10836:10842   */\n      dup3\n        /* \"#utility.yul\":10825:10834   */\n      dup6\n        /* \"#utility.yul\":10821:10843   */\n      add\n        /* \"#utility.yul\":10789:10849   */\n      tag_349\n      jump\t// in\n    tag_508:\n        /* \"#utility.yul\":10782:10786   */\n      0x00\n        /* \"#utility.yul\":10775:10780   */\n      dup4\n        /* \"#utility.yul\":10771:10787   */\n      add\n        /* \"#utility.yul\":10764:10850   */\n      mstore\n        /* \"#utility.yul\":10692:10861   */\n      pop\n        /* \"#utility.yul\":10928:10930   */\n      0x20\n        /* \"#utility.yul\":10969:11029   */\n      tag_509\n        /* \"#utility.yul\":11025:11028   */\n      dup5\n        /* \"#utility.yul\":11016:11022   */\n      dup3\n        /* \"#utility.yul\":11005:11014   */\n      dup6\n        /* \"#utility.yul\":11001:11023   */\n      add\n        /* \"#utility.yul\":10969:11029   */\n      tag_352\n      jump\t// in\n    tag_509:\n        /* \"#utility.yul\":10962:10966   */\n      0x20\n        /* \"#utility.yul\":10955:10960   */\n      dup4\n        /* \"#utility.yul\":10951:10967   */\n      add\n        /* \"#utility.yul\":10944:11030   */\n      mstore\n        /* \"#utility.yul\":10871:11041   */\n      pop\n        /* \"#utility.yul\":11106:11108   */\n      0x40\n        /* \"#utility.yul\":11147:11207   */\n      tag_510\n        /* \"#utility.yul\":11203:11206   */\n      dup5\n        /* \"#utility.yul\":11194:11200   */\n      dup3\n        /* \"#utility.yul\":11183:11192   */\n      dup6\n        /* \"#utility.yul\":11179:11201   */\n      add\n        /* \"#utility.yul\":11147:11207   */\n      tag_352\n      jump\t// in\n    tag_510:\n        /* \"#utility.yul\":11140:11144   */\n      0x40\n        /* \"#utility.yul\":11133:11138   */\n      dup4\n        /* \"#utility.yul\":11129:11145   */\n      add\n        /* \"#utility.yul\":11122:11208   */\n      mstore\n        /* \"#utility.yul\":11051:11219   */\n      pop\n        /* \"#utility.yul\":10425:11226   */\n      swap3\n      swap2\n      pop\n      pop\n      jump\t// out\n        /* \"#utility.yul\":11232:11633   */\n    tag_78:\n        /* \"#utility.yul\":11327:11333   */\n      0x00\n        /* \"#utility.yul\":11376:11378   */\n      0x60\n        /* \"#utility.yul\":11364:11373   */\n      dup3\n        /* \"#utility.yul\":11355:11362   */\n      dup5\n        /* \"#utility.yul\":11351:11374   */\n      sub\n        /* \"#utility.yul\":11347:11379   */\n      slt\n        /* \"#utility.yul\":11344:11463   */\n      iszero\n      tag_512\n      jumpi\n        /* \"#utility.yul\":11382:11461   */\n      tag_513\n      tag_332\n      jump\t// in\n    tag_513:\n        /* \"#utility.yul\":11344:11463   */\n    tag_512:\n        /* \"#utility.yul\":11502:11503   */\n      0x00\n        /* \"#utility.yul\":11527:11616   */\n      tag_514\n        /* \"#utility.yul\":11608:11615   */\n      dup5\n        /* \"#utility.yul\":11599:11605   */\n      dup3\n        /* \"#utility.yul\":11588:11597   */\n      dup6\n        /* \"#utility.yul\":11584:11606   */\n      add\n        /* \"#utility.yul\":11527:11616   */\n      tag_353\n      jump\t// in\n    tag_514:\n        /* \"#utility.yul\":11517:11616   */\n      swap2\n      pop\n        /* \"#utility.yul\":11473:11626   */\n      pop\n        /* \"#utility.yul\":11232:11633   */\n      swap3\n      swap2\n      pop\n      pop\n      jump\t// out\n        /* \"#utility.yul\":11668:13020   */\n    tag_354:\n        /* \"#utility.yul\":11751:11756   */\n      0x00\n        /* \"#utility.yul\":11795:11799   */\n      0xc0\n        /* \"#utility.yul\":11783:11792   */\n      dup3\n        /* \"#utility.yul\":11778:11781   */\n      dup5\n        /* \"#utility.yul\":11774:11793   */\n      sub\n        /* \"#utility.yul\":11770:11800   */\n      slt\n        /* \"#utility.yul\":11767:11884   */\n      iszero\n      tag_516\n      jumpi\n        /* \"#utility.yul\":11803:11882   */\n      tag_517\n      tag_344\n      jump\t// in\n    tag_517:\n        /* \"#utility.yul\":11767:11884   */\n    tag_516:\n        /* \"#utility.yul\":11902:11923   */\n      tag_518\n        /* \"#utility.yul\":11918:11922   */\n      0xc0\n        /* \"#utility.yul\":11902:11923   */\n      tag_347\n      jump\t// in\n    tag_518:\n        /* \"#utility.yul\":11893:11923   */\n      swap1\n      pop\n        /* \"#utility.yul\":11995:11996   */\n      0x00\n        /* \"#utility.yul\":12035:12095   */\n      tag_519\n        /* \"#utility.yul\":12091:12094   */\n      dup5\n        /* \"#utility.yul\":12082:12088   */\n      dup3\n        /* \"#utility.yul\":12071:12080   */\n      dup6\n        /* \"#utility.yul\":12067:12089   */\n      add\n        /* \"#utility.yul\":12035:12095   */\n      tag_352\n      jump\t// in\n    tag_519:\n        /* \"#utility.yul\":12028:12032   */\n      0x00\n        /* \"#utility.yul\":12021:12026   */\n      dup4\n        /* \"#utility.yul\":12017:12033   */\n      add\n        /* \"#utility.yul\":12010:12096   */\n      mstore\n        /* \"#utility.yul\":11933:12107   */\n      pop\n        /* \"#utility.yul\":12179:12181   */\n      0x20\n        /* \"#utility.yul\":12220:12280   */\n      tag_520\n        /* \"#utility.yul\":12276:12279   */\n      dup5\n        /* \"#utility.yul\":12267:12273   */\n      dup3\n        /* \"#utility.yul\":12256:12265   */\n      dup6\n        /* \"#utility.yul\":12252:12274   */\n      add\n        /* \"#utility.yul\":12220:12280   */\n      tag_352\n      jump\t// in\n    tag_520:\n        /* \"#utility.yul\":12213:12217   */\n      0x20\n        /* \"#utility.yul\":12206:12211   */\n      dup4\n        /* \"#utility.yul\":12202:12218   */\n      add\n        /* \"#utility.yul\":12195:12281   */\n      mstore\n        /* \"#utility.yul\":12117:12292   */\n      pop\n        /* \"#utility.yul\":12364:12366   */\n      0x40\n        /* \"#utility.yul\":12405:12465   */\n      tag_521\n        /* \"#utility.yul\":12461:12464   */\n      dup5\n        /* \"#utility.yul\":12452:12458   */\n      dup3\n        /* \"#utility.yul\":12441:12450   */\n      dup6\n        /* \"#utility.yul\":12437:12459   */\n      add\n        /* \"#utility.yul\":12405:12465   */\n      tag_352\n      jump\t// in\n    tag_521:\n        /* \"#utility.yul\":12398:12402   */\n      0x40\n        /* \"#utility.yul\":12391:12396   */\n      dup4\n        /* \"#utility.yul\":12387:12403   */\n      add\n        /* \"#utility.yul\":12380:12466   */\n      mstore\n        /* \"#utility.yul\":12302:12477   */\n      pop\n        /* \"#utility.yul\":12549:12551   */\n      0x60\n        /* \"#utility.yul\":12590:12650   */\n      tag_522\n        /* \"#utility.yul\":12646:12649   */\n      dup5\n        /* \"#utility.yul\":12637:12643   */\n      dup3\n        /* \"#utility.yul\":12626:12635   */\n      dup6\n        /* \"#utility.yul\":12622:12644   */\n      add\n        /* \"#utility.yul\":12590:12650   */\n      tag_352\n      jump\t// in\n    tag_522:\n        /* \"#utility.yul\":12583:12587   */\n      0x60\n        /* \"#utility.yul\":12576:12581   */\n      dup4\n        /* \"#utility.yul\":12572:12588   */\n      add\n        /* \"#utility.yul\":12565:12651   */\n      mstore\n        /* \"#utility.yul\":12487:12662   */\n      pop\n        /* \"#utility.yul\":12727:12730   */\n      0x80\n        /* \"#utility.yul\":12769:12829   */\n      tag_523\n        /* \"#utility.yul\":12825:12828   */\n      dup5\n        /* \"#utility.yul\":12816:12822   */\n      dup3\n        /* \"#utility.yul\":12805:12814   */\n      dup6\n        /* \"#utility.yul\":12801:12823   */\n      add\n        /* \"#utility.yul\":12769:12829   */\n      tag_352\n      jump\t// in\n    tag_523:\n        /* \"#utility.yul\":12762:12766   */\n      0x80\n        /* \"#utility.yul\":12755:12760   */\n      dup4\n        /* \"#utility.yul\":12751:12767   */\n      add\n        /* \"#utility.yul\":12744:12830   */\n      mstore\n        /* \"#utility.yul\":12672:12841   */\n      pop\n        /* \"#utility.yul\":12899:12902   */\n      0xa0\n        /* \"#utility.yul\":12941:13001   */\n      tag_524\n        /* \"#utility.yul\":12997:13000   */\n      dup5\n        /* \"#utility.yul\":12988:12994   */\n      dup3\n        /* \"#utility.yul\":12977:12986   */\n      dup6\n        /* \"#utility.yul\":12973:12995   */\n      add\n        /* \"#utility.yul\":12941:13001   */\n      tag_352\n      jump\t// in\n    tag_524:\n        /* \"#utility.yul\":12934:12938   */\n      0xa0\n        /* \"#utility.yul\":12927:12932   */\n      dup4\n        /* \"#utility.yul\":12923:12939   */\n      add\n        /* \"#utility.yul\":12916:13002   */\n      mstore\n        /* \"#utility.yul\":12851:13013   */\n      pop\n        /* \"#utility.yul\":11668:13020   */\n      swap3\n      swap2\n      pop\n      pop\n      jump\t// out\n        /* \"#utility.yul\":13026:13424   */\n    tag_85:\n        /* \"#utility.yul\":13119:13125   */\n      0x00\n        /* \"#utility.yul\":13168:13171   */\n      0xc0\n        /* \"#utility.yul\":13156:13165   */\n      dup3\n        /* \"#utility.yul\":13147:13154   */\n      dup5\n        /* \"#utility.yul\":13143:13166   */\n      sub\n        /* \"#utility.yul\":13139:13172   */\n      slt\n        /* \"#utility.yul\":13136:13256   */\n      iszero\n      tag_526\n      jumpi\n        /* \"#utility.yul\":13175:13254   */\n      tag_527\n      tag_332\n      jump\t// in\n    tag_527:\n        /* \"#utility.yul\":13136:13256   */\n    tag_526:\n        /* \"#utility.yul\":13295:13296   */\n      0x00\n        /* \"#utility.yul\":13320:13407   */\n      tag_528\n        /* \"#utility.yul\":13399:13406   */\n      dup5\n        /* \"#utility.yul\":13390:13396   */\n      dup3\n        /* \"#utility.yul\":13379:13388   */\n      dup6\n        /* \"#utility.yul\":13375:13397   */\n      add\n        /* \"#utility.yul\":13320:13407   */\n      tag_354\n      jump\t// in\n    tag_528:\n        /* \"#utility.yul\":13310:13407   */\n      swap2\n      pop\n        /* \"#utility.yul\":13266:13417   */\n      pop\n        /* \"#utility.yul\":13026:13424   */\n      swap3\n      swap2\n      pop\n      pop\n      jump\t// out\n        /* \"#utility.yul\":13430:13781   */\n    tag_95:\n        /* \"#utility.yul\":13500:13506   */\n      0x00\n        /* \"#utility.yul\":13549:13551   */\n      0x20\n        /* \"#utility.yul\":13537:13546   */\n      dup3\n        /* \"#utility.yul\":13528:13535   */\n      dup5\n        /* \"#utility.yul\":13524:13547   */\n      sub\n        /* \"#utility.yul\":13520:13552   */\n      slt\n        /* \"#utility.yul\":13517:13636   */\n      iszero\n      tag_530\n      jumpi\n        /* \"#utility.yul\":13555:13634   */\n      tag_531\n      tag_332\n      jump\t// in\n    tag_531:\n        /* \"#utility.yul\":13517:13636   */\n    tag_530:\n        /* \"#utility.yul\":13675:13676   */\n      0x00\n        /* \"#utility.yul\":13700:13764   */\n      tag_532\n        /* \"#utility.yul\":13756:13763   */\n      dup5\n        /* \"#utility.yul\":13747:13753   */\n      dup3\n        /* \"#utility.yul\":13736:13745   */\n      dup6\n        /* \"#utility.yul\":13732:13754   */\n      add\n        /* \"#utility.yul\":13700:13764   */\n      tag_349\n      jump\t// in\n    tag_532:\n        /* \"#utility.yul\":13690:13764   */\n      swap2\n      pop\n        /* \"#utility.yul\":13646:13774   */\n      pop\n        /* \"#utility.yul\":13430:13781   */\n      swap3\n      swap2\n      pop\n      pop\n      jump\t// out\n        /* \"#utility.yul\":13787:13967   */\n    tag_355:\n        /* \"#utility.yul\":13835:13912   */\n      0x4e487b7100000000000000000000000000000000000000000000000000000000\n        /* \"#utility.yul\":13832:13833   */\n      0x00\n        /* \"#utility.yul\":13825:13913   */\n      mstore\n        /* \"#utility.yul\":13932:13936   */\n      0x11\n        /* \"#utility.yul\":13929:13930   */\n      0x04\n        /* \"#utility.yul\":13922:13937   */\n      mstore\n        /* \"#utility.yul\":13956:13960   */\n      0x24\n        /* \"#utility.yul\":13953:13954   */\n      0x00\n        /* \"#utility.yul\":13946:13961   */\n      revert\n        /* \"#utility.yul\":13973:14167   */\n    tag_99:\n        /* \"#utility.yul\":14013:14017   */\n      0x00\n        /* \"#utility.yul\":14033:14053   */\n      tag_535\n        /* \"#utility.yul\":14051:14052   */\n      dup3\n        /* \"#utility.yul\":14033:14053   */\n      tag_310\n      jump\t// in\n    tag_535:\n        /* \"#utility.yul\":14028:14053   */\n      swap2\n      pop\n        /* \"#utility.yul\":14067:14087   */\n      tag_536\n        /* \"#utility.yul\":14085:14086   */\n      dup4\n        /* \"#utility.yul\":14067:14087   */\n      tag_310\n      jump\t// in\n    tag_536:\n        /* \"#utility.yul\":14062:14087   */\n      swap3\n      pop\n        /* \"#utility.yul\":14111:14112   */\n      dup3\n        /* \"#utility.yul\":14108:14109   */\n      dup3\n        /* \"#utility.yul\":14104:14113   */\n      sub\n        /* \"#utility.yul\":14096:14113   */\n      swap1\n      pop\n        /* \"#utility.yul\":14135:14136   */\n      dup2\n        /* \"#utility.yul\":14129:14133   */\n      dup2\n        /* \"#utility.yul\":14126:14137   */\n      gt\n        /* \"#utility.yul\":14123:14160   */\n      iszero\n      tag_537\n      jumpi\n        /* \"#utility.yul\":14140:14158   */\n      tag_538\n      tag_355\n      jump\t// in\n    tag_538:\n        /* \"#utility.yul\":14123:14160   */\n    tag_537:\n        /* \"#utility.yul\":13973:14167   */\n      swap3\n      swap2\n      pop\n      pop\n      jump\t// out\n        /* \"#utility.yul\":14173:14342   */\n    tag_356:\n        /* \"#utility.yul\":14313:14334   */\n      0x42617374696f6e3a204f6e6c79205661756c7400000000000000000000000000\n        /* \"#utility.yul\":14309:14310   */\n      0x00\n        /* \"#utility.yul\":14301:14307   */\n      dup3\n        /* \"#utility.yul\":14297:14311   */\n      add\n        /* \"#utility.yul\":14290:14335   */\n      mstore\n        /* \"#utility.yul\":14173:14342   */\n      pop\n      jump\t// out\n        /* \"#utility.yul\":14348:14714   */\n    tag_357:\n        /* \"#utility.yul\":14490:14493   */\n      0x00\n        /* \"#utility.yul\":14511:14578   */\n      tag_541\n        /* \"#utility.yul\":14575:14577   */\n      0x13\n        /* \"#utility.yul\":14570:14573   */\n      dup4\n        /* \"#utility.yul\":14511:14578   */\n      tag_313\n      jump\t// in\n    tag_541:\n        /* \"#utility.yul\":14504:14578   */\n      swap2\n      pop\n        /* \"#utility.yul\":14587:14680   */\n      tag_542\n        /* \"#utility.yul\":14676:14679   */\n      dup3\n        /* \"#utility.yul\":14587:14680   */\n      tag_356\n      jump\t// in\n    tag_542:\n        /* \"#utility.yul\":14705:14707   */\n      0x20\n        /* \"#utility.yul\":14700:14703   */\n      dup3\n        /* \"#utility.yul\":14696:14708   */\n      add\n        /* \"#utility.yul\":14689:14708   */\n      swap1\n      pop\n        /* \"#utility.yul\":14348:14714   */\n      swap2\n      swap1\n      pop\n      jump\t// out\n        /* \"#utility.yul\":14720:15139   */\n    tag_105:\n        /* \"#utility.yul\":14886:14890   */\n      0x00\n        /* \"#utility.yul\":14924:14926   */\n      0x20\n        /* \"#utility.yul\":14913:14922   */\n      dup3\n        /* \"#utility.yul\":14909:14927   */\n      add\n        /* \"#utility.yul\":14901:14927   */\n      swap1\n      pop\n        /* \"#utility.yul\":14973:14982   */\n      dup2\n        /* \"#utility.yul\":14967:14971   */\n      dup2\n        /* \"#utility.yul\":14963:14983   */\n      sub\n        /* \"#utility.yul\":14959:14960   */\n      0x00\n        /* \"#utility.yul\":14948:14957   */\n      dup4\n        /* \"#utility.yul\":14944:14961   */\n      add\n        /* \"#utility.yul\":14937:14984   */\n      mstore\n        /* \"#utility.yul\":15001:15132   */\n      tag_544\n        /* \"#utility.yul\":15127:15131   */\n      dup2\n        /* \"#utility.yul\":15001:15132   */\n      tag_357\n      jump\t// in\n    tag_544:\n        /* \"#utility.yul\":14993:15132   */\n      swap1\n      pop\n        /* \"#utility.yul\":14720:15139   */\n      swap2\n      swap1\n      pop\n      jump\t// out\n        /* \"#utility.yul\":15145:15247   */\n    tag_358:\n        /* \"#utility.yul\":15187:15195   */\n      0x00\n        /* \"#utility.yul\":15234:15239   */\n      dup2\n        /* \"#utility.yul\":15231:15232   */\n      0x00\n        /* \"#utility.yul\":15227:15240   */\n      shr\n        /* \"#utility.yul\":15206:15240   */\n      swap1\n      pop\n        /* \"#utility.yul\":15145:15247   */\n      swap2\n      swap1\n      pop\n      jump\t// out\n        /* \"#utility.yul\":15253:15392   */\n    tag_359:\n        /* \"#utility.yul\":15303:15310   */\n      0x00\n        /* \"#utility.yul\":15343:15385   */\n      0xffffffffffffffffffffffffffffffffffffffff\n        /* \"#utility.yul\":15336:15341   */\n      dup3\n        /* \"#utility.yul\":15332:15386   */\n      and\n        /* \"#utility.yul\":15321:15386   */\n      swap1\n      pop\n        /* \"#utility.yul\":15253:15392   */\n      swap2\n      swap1\n      pop\n      jump\t// out\n        /* \"#utility.yul\":15398:15564   */\n    tag_360:\n        /* \"#utility.yul\":15467:15472   */\n      0x00\n        /* \"#utility.yul\":15492:15558   */\n      tag_548\n        /* \"#utility.yul\":15523:15557   */\n      tag_549\n        /* \"#utility.yul\":15546:15556   */\n      dup4\n        /* \"#utility.yul\":15523:15557   */\n      tag_358\n      jump\t// in\n    tag_549:\n        /* \"#utility.yul\":15492:15558   */\n      tag_359\n      jump\t// in\n    tag_548:\n        /* \"#utility.yul\":15483:15558   */\n      swap1\n      pop\n        /* \"#utility.yul\":15398:15564   */\n      swap2\n      swap1\n      pop\n      jump\t// out\n        /* \"#utility.yul\":15570:15678   */\n    tag_361:\n        /* \"#utility.yul\":15647:15671   */\n      tag_551\n        /* \"#utility.yul\":15665:15670   */\n      dup2\n        /* \"#utility.yul\":15647:15671   */\n      tag_323\n      jump\t// in\n    tag_551:\n        /* \"#utility.yul\":15642:15645   */\n      dup3\n        /* \"#utility.yul\":15635:15672   */\n      mstore\n        /* \"#utility.yul\":15570:15678   */\n      pop\n      pop\n      jump\t// out\n        /* \"#utility.yul\":15684:15774   */\n    tag_362:\n        /* \"#utility.yul\":15734:15741   */\n      0x00\n        /* \"#utility.yul\":15763:15768   */\n      dup2\n        /* \"#utility.yul\":15752:15768   */\n      swap1\n      pop\n        /* \"#utility.yul\":15684:15774   */\n      swap2\n      swap1\n      pop\n      jump\t// out\n        /* \"#utility.yul\":15780:15946   */\n    tag_363:\n        /* \"#utility.yul\":15849:15854   */\n      0x00\n        /* \"#utility.yul\":15874:15940   */\n      tag_554\n        /* \"#utility.yul\":15905:15939   */\n      tag_555\n        /* \"#utility.yul\":15928:15938   */\n      dup4\n        /* \"#utility.yul\":15905:15939   */\n      tag_358\n      jump\t// in\n    tag_555:\n        /* \"#utility.yul\":15874:15940   */\n      tag_362\n      jump\t// in\n    tag_554:\n        /* \"#utility.yul\":15865:15940   */\n      swap1\n      pop\n        /* \"#utility.yul\":15780:15946   */\n      swap2\n      swap1\n      pop\n      jump\t// out\n        /* \"#utility.yul\":15952:16060   */\n    tag_364:\n        /* \"#utility.yul\":16029:16053   */\n      tag_557\n        /* \"#utility.yul\":16047:16052   */\n      dup2\n        /* \"#utility.yul\":16029:16053   */\n      tag_310\n      jump\t// in\n    tag_557:\n        /* \"#utility.yul\":16024:16027   */\n      dup3\n        /* \"#utility.yul\":16017:16054   */\n      mstore\n        /* \"#utility.yul\":15952:16060   */\n      pop\n      pop\n      jump\t// out\n        /* \"#utility.yul\":16132:17610   */\n    tag_365:\n        /* \"#utility.yul\":16284:16288   */\n      0xa0\n        /* \"#utility.yul\":16279:16282   */\n      dup3\n        /* \"#utility.yul\":16275:16289   */\n      add\n        /* \"#utility.yul\":16315:16316   */\n      0x00\n        /* \"#utility.yul\":16395:16399   */\n      dup1\n        /* \"#utility.yul\":16388:16393   */\n      dup4\n        /* \"#utility.yul\":16384:16400   */\n      add\n        /* \"#utility.yul\":16378:16401   */\n      sload\n        /* \"#utility.yul\":16365:16401   */\n      swap1\n      pop\n        /* \"#utility.yul\":16434:16489   */\n      tag_559\n        /* \"#utility.yul\":16479:16488   */\n      dup2\n        /* \"#utility.yul\":16434:16489   */\n      tag_360\n      jump\t// in\n    tag_559:\n        /* \"#utility.yul\":16502:16565   */\n      tag_560\n        /* \"#utility.yul\":16559:16563   */\n      0x00\n        /* \"#utility.yul\":16554:16557   */\n      dup7\n        /* \"#utility.yul\":16550:16564   */\n      add\n        /* \"#utility.yul\":16536:16548   */\n      dup3\n        /* \"#utility.yul\":16502:16565   */\n      tag_361\n      jump\t// in\n    tag_560:\n        /* \"#utility.yul\":16326:16575   */\n      pop\n        /* \"#utility.yul\":16660:16664   */\n      0x01\n        /* \"#utility.yul\":16653:16658   */\n      dup4\n        /* \"#utility.yul\":16649:16665   */\n      add\n        /* \"#utility.yul\":16643:16666   */\n      sload\n        /* \"#utility.yul\":16630:16666   */\n      swap1\n      pop\n        /* \"#utility.yul\":16699:16754   */\n      tag_561\n        /* \"#utility.yul\":16744:16753   */\n      dup2\n        /* \"#utility.yul\":16699:16754   */\n      tag_360\n      jump\t// in\n    tag_561:\n        /* \"#utility.yul\":16767:16830   */\n      tag_562\n        /* \"#utility.yul\":16824:16828   */\n      0x20\n        /* \"#utility.yul\":16819:16822   */\n      dup7\n        /* \"#utility.yul\":16815:16829   */\n      add\n        /* \"#utility.yul\":16801:16813   */\n      dup3\n        /* \"#utility.yul\":16767:16830   */\n      tag_361\n      jump\t// in\n    tag_562:\n        /* \"#utility.yul\":16585:16840   */\n      pop\n        /* \"#utility.yul\":16916:16920   */\n      0x02\n        /* \"#utility.yul\":16909:16914   */\n      dup4\n        /* \"#utility.yul\":16905:16921   */\n      add\n        /* \"#utility.yul\":16899:16922   */\n      sload\n        /* \"#utility.yul\":16886:16922   */\n      swap1\n      pop\n        /* \"#utility.yul\":16955:17010   */\n      tag_563\n        /* \"#utility.yul\":17000:17009   */\n      dup2\n        /* \"#utility.yul\":16955:17010   */\n      tag_360\n      jump\t// in\n    tag_563:\n        /* \"#utility.yul\":17023:17086   */\n      tag_564\n        /* \"#utility.yul\":17080:17084   */\n      0x40\n        /* \"#utility.yul\":17075:17078   */\n      dup7\n        /* \"#utility.yul\":17071:17085   */\n      add\n        /* \"#utility.yul\":17057:17069   */\n      dup3\n        /* \"#utility.yul\":17023:17086   */\n      tag_361\n      jump\t// in\n    tag_564:\n        /* \"#utility.yul\":16850:17096   */\n      pop\n        /* \"#utility.yul\":17169:17173   */\n      0x03\n        /* \"#utility.yul\":17162:17167   */\n      dup4\n        /* \"#utility.yul\":17158:17174   */\n      add\n        /* \"#utility.yul\":17152:17175   */\n      sload\n        /* \"#utility.yul\":17139:17175   */\n      swap1\n      pop\n        /* \"#utility.yul\":17208:17263   */\n      tag_565\n        /* \"#utility.yul\":17253:17262   */\n      dup2\n        /* \"#utility.yul\":17208:17263   */\n      tag_360\n      jump\t// in\n    tag_565:\n        /* \"#utility.yul\":17276:17339   */\n      tag_566\n        /* \"#utility.yul\":17333:17337   */\n      0x60\n        /* \"#utility.yul\":17328:17331   */\n      dup7\n        /* \"#utility.yul\":17324:17338   */\n      add\n        /* \"#utility.yul\":17310:17322   */\n      dup3\n        /* \"#utility.yul\":17276:17339   */\n      tag_361\n      jump\t// in\n    tag_566:\n        /* \"#utility.yul\":17106:17349   */\n      pop\n        /* \"#utility.yul\":17423:17427   */\n      0x04\n        /* \"#utility.yul\":17416:17421   */\n      dup4\n        /* \"#utility.yul\":17412:17428   */\n      add\n        /* \"#utility.yul\":17406:17429   */\n      sload\n        /* \"#utility.yul\":17393:17429   */\n      swap1\n      pop\n        /* \"#utility.yul\":17462:17517   */\n      tag_567\n        /* \"#utility.yul\":17507:17516   */\n      dup2\n        /* \"#utility.yul\":17462:17517   */\n      tag_363\n      jump\t// in\n    tag_567:\n        /* \"#utility.yul\":17530:17593   */\n      tag_568\n        /* \"#utility.yul\":17587:17591   */\n      0x80\n        /* \"#utility.yul\":17582:17585   */\n      dup7\n        /* \"#utility.yul\":17578:17592   */\n      add\n        /* \"#utility.yul\":17564:17576   */\n      dup3\n        /* \"#utility.yul\":17530:17593   */\n      tag_364\n      jump\t// in\n    tag_568:\n        /* \"#utility.yul\":17359:17603   */\n      pop\n        /* \"#utility.yul\":16253:17610   */\n      pop\n      pop\n        /* \"#utility.yul\":16132:17610   */\n      pop\n      pop\n      jump\t// out\n        /* \"#utility.yul\":17616:17949   */\n    tag_111:\n        /* \"#utility.yul\":17764:17768   */\n      0x00\n        /* \"#utility.yul\":17802:17805   */\n      0xa0\n        /* \"#utility.yul\":17791:17800   */\n      dup3\n        /* \"#utility.yul\":17787:17806   */\n      add\n        /* \"#utility.yul\":17779:17806   */\n      swap1\n      pop\n        /* \"#utility.yul\":17816:17942   */\n      tag_570\n        /* \"#utility.yul\":17939:17940   */\n      0x00\n        /* \"#utility.yul\":17928:17937   */\n      dup4\n        /* \"#utility.yul\":17924:17941   */\n      add\n        /* \"#utility.yul\":17915:17921   */\n      dup5\n        /* \"#utility.yul\":17816:17942   */\n      tag_365\n      jump\t// in\n    tag_570:\n        /* \"#utility.yul\":17616:17949   */\n      swap3\n      swap2\n      pop\n      pop\n      jump\t// out\n        /* \"#utility.yul\":17955:18146   */\n    tag_122:\n        /* \"#utility.yul\":17995:17998   */\n      0x00\n        /* \"#utility.yul\":18014:18034   */\n      tag_572\n        /* \"#utility.yul\":18032:18033   */\n      dup3\n        /* \"#utility.yul\":18014:18034   */\n      tag_310\n      jump\t// in\n    tag_572:\n        /* \"#utility.yul\":18009:18034   */\n      swap2\n      pop\n        /* \"#utility.yul\":18048:18068   */\n      tag_573\n        /* \"#utility.yul\":18066:18067   */\n      dup4\n        /* \"#utility.yul\":18048:18068   */\n      tag_310\n      jump\t// in\n    tag_573:\n        /* \"#utility.yul\":18043:18068   */\n      swap3\n      pop\n        /* \"#utility.yul\":18091:18092   */\n      dup3\n        /* \"#utility.yul\":18088:18089   */\n      dup3\n        /* \"#utility.yul\":18084:18093   */\n      add\n        /* \"#utility.yul\":18077:18093   */\n      swap1\n      pop\n        /* \"#utility.yul\":18112:18115   */\n      dup1\n        /* \"#utility.yul\":18109:18110   */\n      dup3\n        /* \"#utility.yul\":18106:18116   */\n      gt\n        /* \"#utility.yul\":18103:18139   */\n      iszero\n      tag_574\n      jumpi\n        /* \"#utility.yul\":18119:18137   */\n      tag_575\n      tag_355\n      jump\t// in\n    tag_575:\n        /* \"#utility.yul\":18103:18139   */\n    tag_574:\n        /* \"#utility.yul\":17955:18146   */\n      swap3\n      swap2\n      pop\n      pop\n      jump\t// out\n        /* \"#utility.yul\":18152:18320   */\n    tag_366:\n        /* \"#utility.yul\":18235:18246   */\n      0x00\n        /* \"#utility.yul\":18269:18275   */\n      dup3\n        /* \"#utility.yul\":18264:18267   */\n      dup3\n        /* \"#utility.yul\":18257:18276   */\n      mstore\n        /* \"#utility.yul\":18309:18313   */\n      0x20\n        /* \"#utility.yul\":18304:18307   */\n      dup3\n        /* \"#utility.yul\":18300:18314   */\n      add\n        /* \"#utility.yul\":18285:18314   */\n      swap1\n      pop\n        /* \"#utility.yul\":18152:18320   */\n      swap3\n      swap2\n      pop\n      pop\n      jump\t// out\n        /* \"#utility.yul\":18326:18440   */\n    tag_367:\n      pop\n      jump\t// out\n        /* \"#utility.yul\":18446:18808   */\n    tag_368:\n        /* \"#utility.yul\":18587:18590   */\n      0x00\n        /* \"#utility.yul\":18608:18673   */\n      tag_579\n        /* \"#utility.yul\":18671:18672   */\n      0x00\n        /* \"#utility.yul\":18666:18669   */\n      dup4\n        /* \"#utility.yul\":18608:18673   */\n      tag_366\n      jump\t// in\n    tag_579:\n        /* \"#utility.yul\":18601:18673   */\n      swap2\n      pop\n        /* \"#utility.yul\":18682:18775   */\n      tag_580\n        /* \"#utility.yul\":18771:18774   */\n      dup3\n        /* \"#utility.yul\":18682:18775   */\n      tag_367\n      jump\t// in\n    tag_580:\n        /* \"#utility.yul\":18800:18801   */\n      0x00\n        /* \"#utility.yul\":18795:18798   */\n      dup3\n        /* \"#utility.yul\":18791:18802   */\n      add\n        /* \"#utility.yul\":18784:18802   */\n      swap1\n      pop\n        /* \"#utility.yul\":18446:18808   */\n      swap2\n      swap1\n      pop\n      jump\t// out\n        /* \"#utility.yul\":18814:19675   */\n    tag_124:\n        /* \"#utility.yul\":19118:19122   */\n      0x00\n        /* \"#utility.yul\":19156:19159   */\n      0x0100\n        /* \"#utility.yul\":19145:19154   */\n      dup3\n        /* \"#utility.yul\":19141:19160   */\n      add\n        /* \"#utility.yul\":19133:19160   */\n      swap1\n      pop\n        /* \"#utility.yul\":19170:19296   */\n      tag_582\n        /* \"#utility.yul\":19293:19294   */\n      0x00\n        /* \"#utility.yul\":19282:19291   */\n      dup4\n        /* \"#utility.yul\":19278:19295   */\n      add\n        /* \"#utility.yul\":19269:19275   */\n      dup7\n        /* \"#utility.yul\":19170:19296   */\n      tag_365\n      jump\t// in\n    tag_582:\n        /* \"#utility.yul\":19306:19379   */\n      tag_583\n        /* \"#utility.yul\":19374:19377   */\n      0xa0\n        /* \"#utility.yul\":19363:19372   */\n      dup4\n        /* \"#utility.yul\":19359:19378   */\n      add\n        /* \"#utility.yul\":19350:19356   */\n      dup6\n        /* \"#utility.yul\":19306:19379   */\n      tag_311\n      jump\t// in\n    tag_583:\n        /* \"#utility.yul\":19389:19462   */\n      tag_584\n        /* \"#utility.yul\":19457:19460   */\n      0xc0\n        /* \"#utility.yul\":19446:19455   */\n      dup4\n        /* \"#utility.yul\":19442:19461   */\n      add\n        /* \"#utility.yul\":19433:19439   */\n      dup5\n        /* \"#utility.yul\":19389:19462   */\n      tag_324\n      jump\t// in\n    tag_584:\n        /* \"#utility.yul\":19510:19519   */\n      dup2\n        /* \"#utility.yul\":19504:19508   */\n      dup2\n        /* \"#utility.yul\":19500:19520   */\n      sub\n        /* \"#utility.yul\":19494:19497   */\n      0xe0\n        /* \"#utility.yul\":19483:19492   */\n      dup4\n        /* \"#utility.yul\":19479:19498   */\n      add\n        /* \"#utility.yul\":19472:19521   */\n      mstore\n        /* \"#utility.yul\":19538:19668   */\n      tag_585\n        /* \"#utility.yul\":19663:19667   */\n      dup2\n        /* \"#utility.yul\":19538:19668   */\n      tag_368\n      jump\t// in\n    tag_585:\n        /* \"#utility.yul\":19530:19668   */\n      swap1\n      pop\n        /* \"#utility.yul\":18814:19675   */\n      swap5\n      swap4\n      pop\n      pop\n      pop\n      pop\n      jump\t// out\n        /* \"#utility.yul\":19681:19766   */\n    tag_369:\n        /* \"#utility.yul\":19726:19733   */\n      0x00\n        /* \"#utility.yul\":19755:19760   */\n      dup2\n        /* \"#utility.yul\":19744:19760   */\n      swap1\n      pop\n        /* \"#utility.yul\":19681:19766   */\n      swap2\n      swap1\n      pop\n      jump\t// out\n        /* \"#utility.yul\":19772:19930   */\n    tag_370:\n        /* \"#utility.yul\":19830:19839   */\n      0x00\n        /* \"#utility.yul\":19863:19924   */\n      tag_588\n        /* \"#utility.yul\":19881:19923   */\n      tag_589\n        /* \"#utility.yul\":19890:19922   */\n      tag_590\n        /* \"#utility.yul\":19916:19921   */\n      dup5\n        /* \"#utility.yul\":19890:19922   */\n      tag_369\n      jump\t// in\n    tag_590:\n        /* \"#utility.yul\":19881:19923   */\n      tag_318\n      jump\t// in\n    tag_589:\n        /* \"#utility.yul\":19863:19924   */\n      tag_310\n      jump\t// in\n    tag_588:\n        /* \"#utility.yul\":19850:19924   */\n      swap1\n      pop\n        /* \"#utility.yul\":19772:19930   */\n      swap2\n      swap1\n      pop\n      jump\t// out\n        /* \"#utility.yul\":19936:20083   */\n    tag_371:\n        /* \"#utility.yul\":20031:20076   */\n      tag_592\n        /* \"#utility.yul\":20070:20075   */\n      dup2\n        /* \"#utility.yul\":20031:20076   */\n      tag_370\n      jump\t// in\n    tag_592:\n        /* \"#utility.yul\":20026:20029   */\n      dup3\n        /* \"#utility.yul\":20019:20077   */\n      mstore\n        /* \"#utility.yul\":19936:20083   */\n      pop\n      pop\n      jump\t// out\n        /* \"#utility.yul\":20089:20882   */\n    tag_133:\n        /* \"#utility.yul\":20357:20361   */\n      0x00\n        /* \"#utility.yul\":20395:20398   */\n      0x0120\n        /* \"#utility.yul\":20384:20393   */\n      dup3\n        /* \"#utility.yul\":20380:20399   */\n      add\n        /* \"#utility.yul\":20372:20399   */\n      swap1\n      pop\n        /* \"#utility.yul\":20409:20535   */\n      tag_594\n        /* \"#utility.yul\":20532:20533   */\n      0x00\n        /* \"#utility.yul\":20521:20530   */\n      dup4\n        /* \"#utility.yul\":20517:20534   */\n      add\n        /* \"#utility.yul\":20508:20514   */\n      dup9\n        /* \"#utility.yul\":20409:20535   */\n      tag_365\n      jump\t// in\n    tag_594:\n        /* \"#utility.yul\":20545:20618   */\n      tag_595\n        /* \"#utility.yul\":20613:20616   */\n      0xa0\n        /* \"#utility.yul\":20602:20611   */\n      dup4\n        /* \"#utility.yul\":20598:20617   */\n      add\n        /* \"#utility.yul\":20589:20595   */\n      dup8\n        /* \"#utility.yul\":20545:20618   */\n      tag_311\n      jump\t// in\n    tag_595:\n        /* \"#utility.yul\":20628:20709   */\n      tag_596\n        /* \"#utility.yul\":20704:20707   */\n      0xc0\n        /* \"#utility.yul\":20693:20702   */\n      dup4\n        /* \"#utility.yul\":20689:20708   */\n      add\n        /* \"#utility.yul\":20680:20686   */\n      dup7\n        /* \"#utility.yul\":20628:20709   */\n      tag_371\n      jump\t// in\n    tag_596:\n        /* \"#utility.yul\":20719:20792   */\n      tag_597\n        /* \"#utility.yul\":20787:20790   */\n      0xe0\n        /* \"#utility.yul\":20776:20785   */\n      dup4\n        /* \"#utility.yul\":20772:20791   */\n      add\n        /* \"#utility.yul\":20763:20769   */\n      dup6\n        /* \"#utility.yul\":20719:20792   */\n      tag_324\n      jump\t// in\n    tag_597:\n        /* \"#utility.yul\":20802:20875   */\n      tag_598\n        /* \"#utility.yul\":20870:20873   */\n      0x0100\n        /* \"#utility.yul\":20859:20868   */\n      dup4\n        /* \"#utility.yul\":20855:20874   */\n      add\n        /* \"#utility.yul\":20846:20852   */\n      dup5\n        /* \"#utility.yul\":20802:20875   */\n      tag_324\n      jump\t// in\n    tag_598:\n        /* \"#utility.yul\":20089:20882   */\n      swap7\n      swap6\n      pop\n      pop\n      pop\n      pop\n      pop\n      pop\n      jump\t// out\n        /* \"#utility.yul\":20888:21395   */\n    tag_137:\n        /* \"#utility.yul\":20967:20973   */\n      0x00\n        /* \"#utility.yul\":20975:20981   */\n      dup1\n        /* \"#utility.yul\":21024:21026   */\n      0x40\n        /* \"#utility.yul\":21012:21021   */\n      dup4\n        /* \"#utility.yul\":21003:21010   */\n      dup6\n        /* \"#utility.yul\":20999:21022   */\n      sub\n        /* \"#utility.yul\":20995:21027   */\n      slt\n        /* \"#utility.yul\":20992:21111   */\n      iszero\n      tag_600\n      jumpi\n        /* \"#utility.yul\":21030:21109   */\n      tag_601\n      tag_332\n      jump\t// in\n    tag_601:\n        /* \"#utility.yul\":20992:21111   */\n    tag_600:\n        /* \"#utility.yul\":21150:21151   */\n      0x00\n        /* \"#utility.yul\":21175:21239   */\n      tag_602\n        /* \"#utility.yul\":21231:21238   */\n      dup6\n        /* \"#utility.yul\":21222:21228   */\n      dup3\n        /* \"#utility.yul\":21211:21220   */\n      dup7\n        /* \"#utility.yul\":21207:21229   */\n      add\n        /* \"#utility.yul\":21175:21239   */\n      tag_349\n      jump\t// in\n    tag_602:\n        /* \"#utility.yul\":21165:21239   */\n      swap3\n      pop\n        /* \"#utility.yul\":21121:21249   */\n      pop\n        /* \"#utility.yul\":21288:21290   */\n      0x20\n        /* \"#utility.yul\":21314:21378   */\n      tag_603\n        /* \"#utility.yul\":21370:21377   */\n      dup6\n        /* \"#utility.yul\":21361:21367   */\n      dup3\n        /* \"#utility.yul\":21350:21359   */\n      dup7\n        /* \"#utility.yul\":21346:21368   */\n      add\n        /* \"#utility.yul\":21314:21378   */\n      tag_349\n      jump\t// in\n    tag_603:\n        /* \"#utility.yul\":21304:21378   */\n      swap2\n      pop\n        /* \"#utility.yul\":21259:21388   */\n      pop\n        /* \"#utility.yul\":20888:21395   */\n      swap3\n      pop\n      swap3\n      swap1\n      pop\n      jump\t// out\n        /* \"#utility.yul\":21401:21634   */\n    tag_140:\n        /* \"#utility.yul\":21440:21443   */\n      0x00\n        /* \"#utility.yul\":21463:21487   */\n      tag_605\n        /* \"#utility.yul\":21481:21486   */\n      dup3\n        /* \"#utility.yul\":21463:21487   */\n      tag_310\n      jump\t// in\n    tag_605:\n        /* \"#utility.yul\":21454:21487   */\n      swap2\n      pop\n        /* \"#utility.yul\":21509:21575   */\n      0xffffffffffffffffffffffffffffffffffffffffffffffffffffffffffffffff\n        /* \"#utility.yul\":21502:21507   */\n      dup3\n        /* \"#utility.yul\":21499:21576   */\n      sub\n        /* \"#utility.yul\":21496:21599   */\n      tag_606\n      jumpi\n        /* \"#utility.yul\":21579:21597   */\n      tag_607\n      tag_355\n      jump\t// in\n    tag_607:\n        /* \"#utility.yul\":21496:21599   */\n    tag_606:\n        /* \"#utility.yul\":21626:21627   */\n      0x01\n        /* \"#utility.yul\":21619:21624   */\n      dup3\n        /* \"#utility.yul\":21615:21628   */\n      add\n        /* \"#utility.yul\":21608:21628   */\n      swap1\n      pop\n        /* \"#utility.yul\":21401:21634   */\n      swap2\n      swap1\n      pop\n      jump\t// out\n        /* \"#utility.yul\":21640:21972   */\n    tag_142:\n        /* \"#utility.yul\":21761:21765   */\n      0x00\n        /* \"#utility.yul\":21799:21801   */\n      0x40\n        /* \"#utility.yul\":21788:21797   */\n      dup3\n        /* \"#utility.yul\":21784:21802   */\n      add\n        /* \"#utility.yul\":21776:21802   */\n      swap1\n      pop\n        /* \"#utility.yul\":21812:21883   */\n      tag_609\n        /* \"#utility.yul\":21880:21881   */\n      0x00\n        /* \"#utility.yul\":21869:21878   */\n      dup4\n        /* \"#utility.yul\":21865:21882   */\n      add\n        /* \"#utility.yul\":21856:21862   */\n      dup6\n        /* \"#utility.yul\":21812:21883   */\n      tag_311\n      jump\t// in\n    tag_609:\n        /* \"#utility.yul\":21893:21965   */\n      tag_610\n        /* \"#utility.yul\":21961:21963   */\n      0x20\n        /* \"#utility.yul\":21950:21959   */\n      dup4\n        /* \"#utility.yul\":21946:21964   */\n      add\n        /* \"#utility.yul\":21937:21943   */\n      dup5\n        /* \"#utility.yul\":21893:21965   */\n      tag_311\n      jump\t// in\n    tag_610:\n        /* \"#utility.yul\":21640:21972   */\n      swap4\n      swap3\n      pop\n      pop\n      pop\n      jump\t// out\n        /* \"#utility.yul\":21978:22138   */\n    tag_372:\n        /* \"#utility.yul\":22118:22130   */\n      0x62617374696f6e2e763300000000000000000000000000000000000000000000\n        /* \"#utility.yul\":22114:22115   */\n      0x00\n        /* \"#utility.yul\":22106:22112   */\n      dup3\n        /* \"#utility.yul\":22102:22116   */\n      add\n        /* \"#utility.yul\":22095:22131   */\n      mstore\n        /* \"#utility.yul\":21978:22138   */\n      pop\n      jump\t// out\n        /* \"#utility.yul\":22144:22510   */\n    tag_373:\n        /* \"#utility.yul\":22286:22289   */\n      0x00\n        /* \"#utility.yul\":22307:22374   */\n      tag_613\n        /* \"#utility.yul\":22371:22373   */\n      0x0a\n        /* \"#utility.yul\":22366:22369   */\n      dup4\n        /* \"#utility.yul\":22307:22374   */\n      tag_313\n      jump\t// in\n    tag_613:\n        /* \"#utility.yul\":22300:22374   */\n      swap2\n      pop\n        /* \"#utility.yul\":22383:22476   */\n      tag_614\n        /* \"#utility.yul\":22472:22475   */\n      dup3\n        /* \"#utility.yul\":22383:22476   */\n      tag_372\n      jump\t// in\n    tag_614:\n        /* \"#utility.yul\":22501:22503   */\n      0x20\n        /* \"#utility.yul\":22496:22499   */\n      dup3\n        /* \"#utility.yul\":22492:22504   */\n      add\n        /* \"#utility.yul\":22485:22504   */\n      swap1\n      pop\n        /* \"#utility.yul\":22144:22510   */\n      swap2\n      swap1\n      pop\n      jump\t// out\n        /* \"#utility.yul\":22516:23045   */\n    tag_145:\n        /* \"#utility.yul\":22710:22714   */\n      0x00\n        /* \"#utility.yul\":22748:22750   */\n      0x40\n        /* \"#utility.yul\":22737:22746   */\n      dup3\n        /* \"#utility.yul\":22733:22751   */\n      add\n        /* \"#utility.yul\":22725:22751   */\n      swap1\n      pop\n        /* \"#utility.yul\":22797:22806   */\n      dup2\n        /* \"#utility.yul\":22791:22795   */\n      dup2\n        /* \"#utility.yul\":22787:22807   */\n      sub\n        /* \"#utility.yul\":22783:22784   */\n      0x00\n        /* \"#utility.yul\":22772:22781   */\n      dup4\n        /* \"#utility.yul\":22768:22785   */\n      add\n        /* \"#utility.yul\":22761:22808   */\n      mstore\n        /* \"#utility.yul\":22825:22956   */\n      tag_616\n        /* \"#utility.yul\":22951:22955   */\n      dup2\n        /* \"#utility.yul\":22825:22956   */\n      tag_373\n      jump\t// in\n    tag_616:\n        /* \"#utility.yul\":22817:22956   */\n      swap1\n      pop\n        /* \"#utility.yul\":22966:23038   */\n      tag_617\n        /* \"#utility.yul\":23034:23036   */\n      0x20\n        /* \"#utility.yul\":23023:23032   */\n      dup4\n        /* \"#utility.yul\":23019:23037   */\n      add\n        /* \"#utility.yul\":23010:23016   */\n      dup5\n        /* \"#utility.yul\":22966:23038   */\n      tag_324\n      jump\t// in\n    tag_617:\n        /* \"#utility.yul\":22516:23045   */\n      swap3\n      swap2\n      pop\n      pop\n      jump\t// out\n        /* \"#utility.yul\":23051:23717   */\n    tag_181:\n        /* \"#utility.yul\":23283:23287   */\n      0x00\n        /* \"#utility.yul\":23321:23324   */\n      0x0100\n        /* \"#utility.yul\":23310:23319   */\n      dup3\n        /* \"#utility.yul\":23306:23325   */\n      add\n        /* \"#utility.yul\":23298:23325   */\n      swap1\n      pop\n        /* \"#utility.yul\":23335:23461   */\n      tag_619\n        /* \"#utility.yul\":23458:23459   */\n      0x00\n        /* \"#utility.yul\":23447:23456   */\n      dup4\n        /* \"#utility.yul\":23443:23460   */\n      add\n        /* \"#utility.yul\":23434:23440   */\n      dup8\n        /* \"#utility.yul\":23335:23461   */\n      tag_365\n      jump\t// in\n    tag_619:\n        /* \"#utility.yul\":23471:23544   */\n      tag_620\n        /* \"#utility.yul\":23539:23542   */\n      0xa0\n        /* \"#utility.yul\":23528:23537   */\n      dup4\n        /* \"#utility.yul\":23524:23543   */\n      add\n        /* \"#utility.yul\":23515:23521   */\n      dup7\n        /* \"#utility.yul\":23471:23544   */\n      tag_311\n      jump\t// in\n    tag_620:\n        /* \"#utility.yul\":23554:23627   */\n      tag_621\n        /* \"#utility.yul\":23622:23625   */\n      0xc0\n        /* \"#utility.yul\":23611:23620   */\n      dup4\n        /* \"#utility.yul\":23607:23626   */\n      add\n        /* \"#utility.yul\":23598:23604   */\n      dup6\n        /* \"#utility.yul\":23554:23627   */\n      tag_324\n      jump\t// in\n    tag_621:\n        /* \"#utility.yul\":23637:23710   */\n      tag_622\n        /* \"#utility.yul\":23705:23708   */\n      0xe0\n        /* \"#utility.yul\":23694:23703   */\n      dup4\n        /* \"#utility.yul\":23690:23709   */\n      add\n        /* \"#utility.yul\":23681:23687   */\n      dup5\n        /* \"#utility.yul\":23637:23710   */\n      tag_324\n      jump\t// in\n    tag_622:\n        /* \"#utility.yul\":23051:23717   */\n      swap6\n      swap5\n      pop\n      pop\n      pop\n      pop\n      pop\n      jump\t// out\n        /* \"#utility.yul\":23723:24711   */\n    tag_202:\n        /* \"#utility.yul\":24063:24067   */\n      0x00\n        /* \"#utility.yul\":24101:24104   */\n      0x0120\n        /* \"#utility.yul\":24090:24099   */\n      dup3\n        /* \"#utility.yul\":24086:24105   */\n      add\n        /* \"#utility.yul\":24078:24105   */\n      swap1\n      pop\n        /* \"#utility.yul\":24115:24241   */\n      tag_624\n        /* \"#utility.yul\":24238:24239   */\n      0x00\n        /* \"#utility.yul\":24227:24236   */\n      dup4\n        /* \"#utility.yul\":24223:24240   */\n      add\n        /* \"#utility.yul\":24214:24220   */\n      dup8\n        /* \"#utility.yul\":24115:24241   */\n      tag_365\n      jump\t// in\n    tag_624:\n        /* \"#utility.yul\":24251:24324   */\n      tag_625\n        /* \"#utility.yul\":24319:24322   */\n      0xa0\n        /* \"#utility.yul\":24308:24317   */\n      dup4\n        /* \"#utility.yul\":24304:24323   */\n      add\n        /* \"#utility.yul\":24295:24301   */\n      dup7\n        /* \"#utility.yul\":24251:24324   */\n      tag_311\n      jump\t// in\n    tag_625:\n        /* \"#utility.yul\":24334:24415   */\n      tag_626\n        /* \"#utility.yul\":24410:24413   */\n      0xc0\n        /* \"#utility.yul\":24399:24408   */\n      dup4\n        /* \"#utility.yul\":24395:24414   */\n      add\n        /* \"#utility.yul\":24386:24392   */\n      dup6\n        /* \"#utility.yul\":24334:24415   */\n      tag_371\n      jump\t// in\n    tag_626:\n        /* \"#utility.yul\":24425:24498   */\n      tag_627\n        /* \"#utility.yul\":24493:24496   */\n      0xe0\n        /* \"#utility.yul\":24482:24491   */\n      dup4\n        /* \"#utility.yul\":24478:24497   */\n      add\n        /* \"#utility.yul\":24469:24475   */\n      dup5\n        /* \"#utility.yul\":24425:24498   */\n      tag_324\n      jump\t// in\n    tag_627:\n        /* \"#utility.yul\":24546:24555   */\n      dup2\n        /* \"#utility.yul\":24540:24544   */\n      dup2\n        /* \"#utility.yul\":24536:24556   */\n      sub\n        /* \"#utility.yul\":24530:24533   */\n      0x0100\n        /* \"#utility.yul\":24519:24528   */\n      dup4\n        /* \"#utility.yul\":24515:24534   */\n      add\n        /* \"#utility.yul\":24508:24557   */\n      mstore\n        /* \"#utility.yul\":24574:24704   */\n      tag_628\n        /* \"#utility.yul\":24699:24703   */\n      dup2\n        /* \"#utility.yul\":24574:24704   */\n      tag_368\n      jump\t// in\n    tag_628:\n        /* \"#utility.yul\":24566:24704   */\n      swap1\n      pop\n        /* \"#utility.yul\":23723:24711   */\n      swap6\n      swap5\n      pop\n      pop\n      pop\n      pop\n      pop\n      jump\t// out\n        /* \"#utility.yul\":24717:24897   */\n    tag_223:\n        /* \"#utility.yul\":24765:24842   */\n      0x4e487b7100000000000000000000000000000000000000000000000000000000\n        /* \"#utility.yul\":24762:24763   */\n      0x00\n        /* \"#utility.yul\":24755:24843   */\n      mstore\n        /* \"#utility.yul\":24862:24866   */\n      0x12\n        /* \"#utility.yul\":24859:24860   */\n      0x04\n        /* \"#utility.yul\":24852:24867   */\n      mstore\n        /* \"#utility.yul\":24886:24890   */\n      0x24\n        /* \"#utility.yul\":24883:24884   */\n      0x00\n        /* \"#utility.yul\":24876:24891   */\n      revert\n        /* \"#utility.yul\":24903:25345   */\n    tag_228:\n        /* \"#utility.yul\":25052:25056   */\n      0x00\n        /* \"#utility.yul\":25090:25092   */\n      0x60\n        /* \"#utility.yul\":25079:25088   */\n      dup3\n        /* \"#utility.yul\":25075:25093   */\n      add\n        /* \"#utility.yul\":25067:25093   */\n      swap1\n      pop\n        /* \"#utility.yul\":25103:25174   */\n      tag_631\n        /* \"#utility.yul\":25171:25172   */\n      0x00\n        /* \"#utility.yul\":25160:25169   */\n      dup4\n        /* \"#utility.yul\":25156:25173   */\n      add\n        /* \"#utility.yul\":25147:25153   */\n      dup7\n        /* \"#utility.yul\":25103:25174   */\n      tag_324\n      jump\t// in\n    tag_631:\n        /* \"#utility.yul\":25184:25256   */\n      tag_632\n        /* \"#utility.yul\":25252:25254   */\n      0x20\n        /* \"#utility.yul\":25241:25250   */\n      dup4\n        /* \"#utility.yul\":25237:25255   */\n      add\n        /* \"#utility.yul\":25228:25234   */\n      dup6\n        /* \"#utility.yul\":25184:25256   */\n      tag_324\n      jump\t// in\n    tag_632:\n        /* \"#utility.yul\":25266:25338   */\n      tag_633\n        /* \"#utility.yul\":25334:25336   */\n      0x40\n        /* \"#utility.yul\":25323:25332   */\n      dup4\n        /* \"#utility.yul\":25319:25337   */\n      add\n        /* \"#utility.yul\":25310:25316   */\n      dup5\n        /* \"#utility.yul\":25266:25338   */\n      tag_311\n      jump\t// in\n    tag_633:\n        /* \"#utility.yul\":24903:25345   */\n      swap5\n      swap4\n      pop\n      pop\n      pop\n      pop\n      jump\t// out\n        /* \"#utility.yul\":25351:25441   */\n    tag_374:\n        /* \"#utility.yul\":25385:25392   */\n      0x00\n        /* \"#utility.yul\":25428:25433   */\n      dup2\n        /* \"#utility.yul\":25421:25434   */\n      iszero\n        /* \"#utility.yul\":25414:25435   */\n      iszero\n        /* \"#utility.yul\":25403:25435   */\n      swap1\n      pop\n        /* \"#utility.yul\":25351:25441   */\n      swap2\n      swap1\n      pop\n      jump\t// out\n        /* \"#utility.yul\":25447:25563   */\n    tag_375:\n        /* \"#utility.yul\":25517:25538   */\n      tag_636\n        /* \"#utility.yul\":25532:25537   */\n      dup2\n        /* \"#utility.yul\":25517:25538   */\n      tag_374\n      jump\t// in\n    tag_636:\n        /* \"#utility.yul\":25510:25515   */\n      dup2\n        /* \"#utility.yul\":25507:25539   */\n      eq\n        /* \"#utility.yul\":25497:25557   */\n      tag_637\n      jumpi\n        /* \"#utility.yul\":25553:25554   */\n      0x00\n        /* \"#utility.yul\":25550:25551   */\n      dup1\n        /* \"#utility.yul\":25543:25555   */\n      revert\n        /* \"#utility.yul\":25497:25557   */\n    tag_637:\n        /* \"#utility.yul\":25447:25563   */\n      pop\n      jump\t// out\n        /* \"#utility.yul\":25569:25706   */\n    tag_376:\n        /* \"#utility.yul\":25623:25628   */\n      0x00\n        /* \"#utility.yul\":25654:25660   */\n      dup2\n        /* \"#utility.yul\":25648:25661   */\n      mload\n        /* \"#utility.yul\":25639:25661   */\n      swap1\n      pop\n        /* \"#utility.yul\":25670:25700   */\n      tag_639\n        /* \"#utility.yul\":25694:25699   */\n      dup2\n        /* \"#utility.yul\":25670:25700   */\n      tag_375\n      jump\t// in\n    tag_639:\n        /* \"#utility.yul\":25569:25706   */\n      swap3\n      swap2\n      pop\n      pop\n      jump\t// out\n        /* \"#utility.yul\":25712:26057   */\n    tag_232:\n        /* \"#utility.yul\":25779:25785   */\n      0x00\n        /* \"#utility.yul\":25828:25830   */\n      0x20\n        /* \"#utility.yul\":25816:25825   */\n      dup3\n        /* \"#utility.yul\":25807:25814   */\n      dup5\n        /* \"#utility.yul\":25803:25826   */\n      sub\n        /* \"#utility.yul\":25799:25831   */\n      slt\n        /* \"#utility.yul\":25796:25915   */\n      iszero\n      tag_641\n      jumpi\n        /* \"#utility.yul\":25834:25913   */\n      tag_642\n      tag_332\n      jump\t// in\n    tag_642:\n        /* \"#utility.yul\":25796:25915   */\n    tag_641:\n        /* \"#utility.yul\":25954:25955   */\n      0x00\n        /* \"#utility.yul\":25979:26040   */\n      tag_643\n        /* \"#utility.yul\":26032:26039   */\n      dup5\n        /* \"#utility.yul\":26023:26029   */\n      dup3\n        /* \"#utility.yul\":26012:26021   */\n      dup6\n        /* \"#utility.yul\":26008:26030   */\n      add\n        /* \"#utility.yul\":25979:26040   */\n      tag_376\n      jump\t// in\n    tag_643:\n        /* \"#utility.yul\":25969:26040   */\n      swap2\n      pop\n        /* \"#utility.yul\":25925:26050   */\n      pop\n        /* \"#utility.yul\":25712:26057   */\n      swap3\n      swap2\n      pop\n      pop\n      jump\t// out\n        /* \"#utility.yul\":26063:26243   */\n    tag_377:\n        /* \"#utility.yul\":26203:26235   */\n      0x5361666545524332303a207472616e7366657246726f6d206661696c65640000\n        /* \"#utility.yul\":26199:26200   */\n      0x00\n        /* \"#utility.yul\":26191:26197   */\n      dup3\n        /* \"#utility.yul\":26187:26201   */\n      add\n        /* \"#utility.yul\":26180:26236   */\n      mstore\n        /* \"#utility.yul\":26063:26243   */\n      pop\n      jump\t// out\n        /* \"#utility.yul\":26249:26615   */\n    tag_378:\n        /* \"#utility.yul\":26391:26394   */\n      0x00\n        /* \"#utility.yul\":26412:26479   */\n      tag_646\n        /* \"#utility.yul\":26476:26478   */\n      0x1e\n        /* \"#utility.yul\":26471:26474   */\n      dup4\n        /* \"#utility.yul\":26412:26479   */\n      tag_313\n      jump\t// in\n    tag_646:\n        /* \"#utility.yul\":26405:26479   */\n      swap2\n      pop\n        /* \"#utility.yul\":26488:26581   */\n      tag_647\n        /* \"#utility.yul\":26577:26580   */\n      dup3\n        /* \"#utility.yul\":26488:26581   */\n      tag_377\n      jump\t// in\n    tag_647:\n        /* \"#utility.yul\":26606:26608   */\n      0x20\n        /* \"#utility.yul\":26601:26604   */\n      dup3\n        /* \"#utility.yul\":26597:26609   */\n      add\n        /* \"#utility.yul\":26590:26609   */\n      swap1\n      pop\n        /* \"#utility.yul\":26249:26615   */\n      swap2\n      swap1\n      pop\n      jump\t// out\n        /* \"#utility.yul\":26621:27040   */\n    tag_235:\n        /* \"#utility.yul\":26787:26791   */\n      0x00\n        /* \"#utility.yul\":26825:26827   */\n      0x20\n        /* \"#utility.yul\":26814:26823   */\n      dup3\n        /* \"#utility.yul\":26810:26828   */\n      add\n        /* \"#utility.yul\":26802:26828   */\n      swap1\n      pop\n        /* \"#utility.yul\":26874:26883   */\n      dup2\n        /* \"#utility.yul\":26868:26872   */\n      dup2\n        /* \"#utility.yul\":26864:26884   */\n      sub\n        /* \"#utility.yul\":26860:26861   */\n      0x00\n        /* \"#utility.yul\":26849:26858   */\n      dup4\n        /* \"#utility.yul\":26845:26862   */\n      add\n        /* \"#utility.yul\":26838:26885   */\n      mstore\n        /* \"#utility.yul\":26902:27033   */\n      tag_649\n        /* \"#utility.yul\":27028:27032   */\n      dup2\n        /* \"#utility.yul\":26902:27033   */\n      tag_378\n      jump\t// in\n    tag_649:\n        /* \"#utility.yul\":26894:27033   */\n      swap1\n      pop\n        /* \"#utility.yul\":26621:27040   */\n      swap2\n      swap1\n      pop\n      jump\t// out\n        /* \"#utility.yul\":27046:27148   */\n    tag_379:\n        /* \"#utility.yul\":27119:27141   */\n      tag_651\n        /* \"#utility.yul\":27135:27140   */\n      dup2\n        /* \"#utility.yul\":27119:27141   */\n      tag_329\n      jump\t// in\n    tag_651:\n        /* \"#utility.yul\":27114:27117   */\n      dup3\n        /* \"#utility.yul\":27107:27142   */\n      mstore\n        /* \"#utility.yul\":27046:27148   */\n      pop\n      pop\n      jump\t// out\n        /* \"#utility.yul\":27154:27262   */\n    tag_380:\n        /* \"#utility.yul\":27231:27255   */\n      tag_653\n        /* \"#utility.yul\":27249:27254   */\n      dup2\n        /* \"#utility.yul\":27231:27255   */\n      tag_317\n      jump\t// in\n    tag_653:\n        /* \"#utility.yul\":27226:27229   */\n      dup3\n        /* \"#utility.yul\":27219:27256   */\n      mstore\n        /* \"#utility.yul\":27154:27262   */\n      pop\n      pop\n      jump\t// out\n        /* \"#utility.yul\":27374:29003   */\n    tag_381:\n        /* \"#utility.yul\":27549:27555   */\n      0x0100\n        /* \"#utility.yul\":27544:27547   */\n      dup3\n        /* \"#utility.yul\":27540:27556   */\n      add\n        /* \"#utility.yul\":27641:27645   */\n      0x00\n        /* \"#utility.yul\":27634:27639   */\n      dup3\n        /* \"#utility.yul\":27630:27646   */\n      add\n        /* \"#utility.yul\":27624:27647   */\n      mload\n        /* \"#utility.yul\":27660:27723   */\n      tag_655\n        /* \"#utility.yul\":27717:27721   */\n      0x00\n        /* \"#utility.yul\":27712:27715   */\n      dup6\n        /* \"#utility.yul\":27708:27722   */\n      add\n        /* \"#utility.yul\":27694:27706   */\n      dup3\n        /* \"#utility.yul\":27660:27723   */\n      tag_361\n      jump\t// in\n    tag_655:\n        /* \"#utility.yul\":27566:27733   */\n      pop\n        /* \"#utility.yul\":27819:27823   */\n      0x20\n        /* \"#utility.yul\":27812:27817   */\n      dup3\n        /* \"#utility.yul\":27808:27824   */\n      add\n        /* \"#utility.yul\":27802:27825   */\n      mload\n        /* \"#utility.yul\":27838:27901   */\n      tag_656\n        /* \"#utility.yul\":27895:27899   */\n      0x20\n        /* \"#utility.yul\":27890:27893   */\n      dup6\n        /* \"#utility.yul\":27886:27900   */\n      add\n        /* \"#utility.yul\":27872:27884   */\n      dup3\n        /* \"#utility.yul\":27838:27901   */\n      tag_361\n      jump\t// in\n    tag_656:\n        /* \"#utility.yul\":27743:27911   */\n      pop\n        /* \"#utility.yul\":28000:28004   */\n      0x40\n        /* \"#utility.yul\":27993:27998   */\n      dup3\n        /* \"#utility.yul\":27989:28005   */\n      add\n        /* \"#utility.yul\":27983:28006   */\n      mload\n        /* \"#utility.yul\":28019:28078   */\n      tag_657\n        /* \"#utility.yul\":28072:28076   */\n      0x40\n        /* \"#utility.yul\":28067:28070   */\n      dup6\n        /* \"#utility.yul\":28063:28077   */\n      add\n        /* \"#utility.yul\":28049:28061   */\n      dup3\n        /* \"#utility.yul\":28019:28078   */\n      tag_379\n      jump\t// in\n    tag_657:\n        /* \"#utility.yul\":27921:28088   */\n      pop\n        /* \"#utility.yul\":28175:28179   */\n      0x60\n        /* \"#utility.yul\":28168:28173   */\n      dup3\n        /* \"#utility.yul\":28164:28180   */\n      add\n        /* \"#utility.yul\":28158:28181   */\n      mload\n        /* \"#utility.yul\":28194:28257   */\n      tag_658\n        /* \"#utility.yul\":28251:28255   */\n      0x60\n        /* \"#utility.yul\":28246:28249   */\n      dup6\n        /* \"#utility.yul\":28242:28256   */\n      add\n        /* \"#utility.yul\":28228:28240   */\n      dup3\n        /* \"#utility.yul\":28194:28257   */\n      tag_361\n      jump\t// in\n    tag_658:\n        /* \"#utility.yul\":28098:28267   */\n      pop\n        /* \"#utility.yul\":28353:28357   */\n      0x80\n        /* \"#utility.yul\":28346:28351   */\n      dup3\n        /* \"#utility.yul\":28342:28358   */\n      add\n        /* \"#utility.yul\":28336:28359   */\n      mload\n        /* \"#utility.yul\":28372:28435   */\n      tag_659\n        /* \"#utility.yul\":28429:28433   */\n      0x80\n        /* \"#utility.yul\":28424:28427   */\n      dup6\n        /* \"#utility.yul\":28420:28434   */\n      add\n        /* \"#utility.yul\":28406:28418   */\n      dup3\n        /* \"#utility.yul\":28372:28435   */\n      tag_364\n      jump\t// in\n    tag_659:\n        /* \"#utility.yul\":28277:28445   */\n      pop\n        /* \"#utility.yul\":28531:28535   */\n      0xa0\n        /* \"#utility.yul\":28524:28529   */\n      dup3\n        /* \"#utility.yul\":28520:28536   */\n      add\n        /* \"#utility.yul\":28514:28537   */\n      mload\n        /* \"#utility.yul\":28550:28613   */\n      tag_660\n        /* \"#utility.yul\":28607:28611   */\n      0xa0\n        /* \"#utility.yul\":28602:28605   */\n      dup6\n        /* \"#utility.yul\":28598:28612   */\n      add\n        /* \"#utility.yul\":28584:28596   */\n      dup3\n        /* \"#utility.yul\":28550:28613   */\n      tag_364\n      jump\t// in\n    tag_660:\n        /* \"#utility.yul\":28455:28623   */\n      pop\n        /* \"#utility.yul\":28717:28721   */\n      0xc0\n        /* \"#utility.yul\":28710:28715   */\n      dup3\n        /* \"#utility.yul\":28706:28722   */\n      add\n        /* \"#utility.yul\":28700:28723   */\n      mload\n        /* \"#utility.yul\":28736:28799   */\n      tag_661\n        /* \"#utility.yul\":28793:28797   */\n      0xc0\n        /* \"#utility.yul\":28788:28791   */\n      dup6\n        /* \"#utility.yul\":28784:28798   */\n      add\n        /* \"#utility.yul\":28770:28782   */\n      dup3\n        /* \"#utility.yul\":28736:28799   */\n      tag_364\n      jump\t// in\n    tag_661:\n        /* \"#utility.yul\":28633:28809   */\n      pop\n        /* \"#utility.yul\":28904:28908   */\n      0xe0\n        /* \"#utility.yul\":28897:28902   */\n      dup3\n        /* \"#utility.yul\":28893:28909   */\n      add\n        /* \"#utility.yul\":28887:28910   */\n      mload\n        /* \"#utility.yul\":28923:28986   */\n      tag_662\n        /* \"#utility.yul\":28980:28984   */\n      0xe0\n        /* \"#utility.yul\":28975:28978   */\n      dup6\n        /* \"#utility.yul\":28971:28985   */\n      add\n        /* \"#utility.yul\":28957:28969   */\n      dup3\n        /* \"#utility.yul\":28923:28986   */\n      tag_380\n      jump\t// in\n    tag_662:\n        /* \"#utility.yul\":28819:28996   */\n      pop\n        /* \"#utility.yul\":27518:29003   */\n      pop\n        /* \"#utility.yul\":27374:29003   */\n      pop\n      pop\n      jump\t// out\n        /* \"#utility.yul\":29009:29388   */\n    tag_244:\n        /* \"#utility.yul\":29180:29184   */\n      0x00\n        /* \"#utility.yul\":29218:29221   */\n      0x0100\n        /* \"#utility.yul\":29207:29216   */\n      dup3\n        /* \"#utility.yul\":29203:29222   */\n      add\n        /* \"#utility.yul\":29195:29222   */\n      swap1\n      pop\n        /* \"#utility.yul\":29232:29381   */\n      tag_664\n        /* \"#utility.yul\":29378:29379   */\n      0x00\n        /* \"#utility.yul\":29367:29376   */\n      dup4\n        /* \"#utility.yul\":29363:29380   */\n      add\n        /* \"#utility.yul\":29354:29360   */\n      dup5\n        /* \"#utility.yul\":29232:29381   */\n      tag_381\n      jump\t// in\n    tag_664:\n        /* \"#utility.yul\":29009:29388   */\n      swap3\n      swap2\n      pop\n      pop\n      jump\t// out\n        /* \"#utility.yul\":29394:29726   */\n    tag_268:\n        /* \"#utility.yul\":29515:29519   */\n      0x00\n        /* \"#utility.yul\":29553:29555   */\n      0x40\n        /* \"#utility.yul\":29542:29551   */\n      dup3\n        /* \"#utility.yul\":29538:29556   */\n      add\n        /* \"#utility.yul\":29530:29556   */\n      swap1\n      pop\n        /* \"#utility.yul\":29566:29637   */\n      tag_666\n        /* \"#utility.yul\":29634:29635   */\n      0x00\n        /* \"#utility.yul\":29623:29632   */\n      dup4\n        /* \"#utility.yul\":29619:29636   */\n      add\n        /* \"#utility.yul\":29610:29616   */\n      dup6\n        /* \"#utility.yul\":29566:29637   */\n      tag_324\n      jump\t// in\n    tag_666:\n        /* \"#utility.yul\":29647:29719   */\n      tag_667\n        /* \"#utility.yul\":29715:29717   */\n      0x20\n        /* \"#utility.yul\":29704:29713   */\n      dup4\n        /* \"#utility.yul\":29700:29718   */\n      add\n        /* \"#utility.yul\":29691:29697   */\n      dup5\n        /* \"#utility.yul\":29647:29719   */\n      tag_311\n      jump\t// in\n    tag_667:\n        /* \"#utility.yul\":29394:29726   */\n      swap4\n      swap3\n      pop\n      pop\n      pop\n      jump\t// out\n        /* \"#utility.yul\":29732:29908   */\n    tag_382:\n        /* \"#utility.yul\":29872:29900   */\n      0x5361666545524332303a207472616e73666572206661696c6564000000000000\n        /* \"#utility.yul\":29868:29869   */\n      0x00\n        /* \"#utility.yul\":29860:29866   */\n      dup3\n        /* \"#utility.yul\":29856:29870   */\n      add\n        /* \"#utility.yul\":29849:29901   */\n      mstore\n        /* \"#utility.yul\":29732:29908   */\n      pop\n      jump\t// out\n        /* \"#utility.yul\":29914:30280   */\n    tag_383:\n        /* \"#utility.yul\":30056:30059   */\n      0x00\n        /* \"#utility.yul\":30077:30144   */\n      tag_670\n        /* \"#utility.yul\":30141:30143   */\n      0x1a\n        /* \"#utility.yul\":30136:30139   */\n      dup4\n        /* \"#utility.yul\":30077:30144   */\n      tag_313\n      jump\t// in\n    tag_670:\n        /* \"#utility.yul\":30070:30144   */\n      swap2\n      pop\n        /* \"#utility.yul\":30153:30246   */\n      tag_671\n        /* \"#utility.yul\":30242:30245   */\n      dup3\n        /* \"#utility.yul\":30153:30246   */\n      tag_382\n      jump\t// in\n    tag_671:\n        /* \"#utility.yul\":30271:30273   */\n      0x20\n        /* \"#utility.yul\":30266:30269   */\n      dup3\n        /* \"#utility.yul\":30262:30274   */\n      add\n        /* \"#utility.yul\":30255:30274   */\n      swap1\n      pop\n        /* \"#utility.yul\":29914:30280   */\n      swap2\n      swap1\n      pop\n      jump\t// out\n        /* \"#utility.yul\":30286:30705   */\n    tag_274:\n        /* \"#utility.yul\":30452:30456   */\n      0x00\n        /* \"#utility.yul\":30490:30492   */\n      0x20\n        /* \"#utility.yul\":30479:30488   */\n      dup3\n        /* \"#utility.yul\":30475:30493   */\n      add\n        /* \"#utility.yul\":30467:30493   */\n      swap1\n      pop\n        /* \"#utility.yul\":30539:30548   */\n      dup2\n        /* \"#utility.yul\":30533:30537   */\n      dup2\n        /* \"#utility.yul\":30529:30549   */\n      sub\n        /* \"#utility.yul\":30525:30526   */\n      0x00\n        /* \"#utility.yul\":30514:30523   */\n      dup4\n        /* \"#utility.yul\":30510:30527   */\n      add\n        /* \"#utility.yul\":30503:30550   */\n      mstore\n        /* \"#utility.yul\":30567:30698   */\n      tag_673\n        /* \"#utility.yul\":30693:30697   */\n      dup2\n        /* \"#utility.yul\":30567:30698   */\n      tag_383\n      jump\t// in\n    tag_673:\n        /* \"#utility.yul\":30559:30698   */\n      swap1\n      pop\n        /* \"#utility.yul\":30286:30705   */\n      swap2\n      swap1\n      pop\n      jump\t// out\n\n    auxdata: 0xa2646970667358221220a4aa063eb231850357df9ef3a870598c64136f0f9e29dab700ef13d15314ee7664736f6c63430008140033\n}\n",
				"bytecode": {
					"linkReferences": {},
					"object": "61014060405234801562000011575f80fd5b5060405162003c0438038062003c04833981810160405281019062000037919062000746565b5f73ffffffffffffffffffffffffffffffffffffffff168273ffffffffffffffffffffffffffffffffffffffff1603620000a8576040517f08c379a00000000000000000000000000000000000000000000000000000000081526004016200009f90620007e9565b60405180910390fd5b5f73ffffffffffffffffffffffffffffffffffffffff168173ffffffffffffffffffffffffffffffffffffffff160362000119576040517f08c379a0000000000000000000000000000000000000000000000000000000008152600401620001109062000857565b60405180910390fd5b8173ffffffffffffffffffffffffffffffffffffffff166101008173ffffffffffffffffffffffffffffffffffffffff16815250506040518060a0016040528073833589fcd6edb6e08f4c7c32d4f71b54bda0291373ffffffffffffffffffffffffffffffffffffffff16815260200173834df4c1d8f51be24322e39e4766697be015512f73ffffffffffffffffffffffffffffffffffffffff1681526020018273ffffffffffffffffffffffffffffffffffffffff16815260200173870ac11d48b15db9a138cf899d20f13f79ba00bc73ffffffffffffffffffffffffffffffffffffffff168152602001670bef55718ad600008152505f80820151815f015f6101000a81548173ffffffffffffffffffffffffffffffffffffffff021916908373ffffffffffffffffffffffffffffffffffffffff1602179055506020820151816001015f6101000a81548173ffffffffffffffffffffffffffffffffffffffff021916908373ffffffffffffffffffffffffffffffffffffffff1602179055506040820151816002015f6101000a81548173ffffffffffffffffffffffffffffffffffffffff021916908373ffffffffffffffffffffffffffffffffffffffff1602179055506060820151816003015f6101000a81548173ffffffffffffffffffffffffffffffffffffffff021916908373ffffffffffffffffffffffffffffffffffffffff160217905550608082015181600401559050505f604051602001620003489190620009c2565b60405160208183030381529060405280519060200120610120818152505073833589fcd6edb6e08f4c7c32d4f71b54bda0291373ffffffffffffffffffffffffffffffffffffffff1660808173ffffffffffffffffffffffffffffffffffffffff168152505073834df4c1d8f51be24322e39e4766697be015512f73ffffffffffffffffffffffffffffffffffffffff1660a08173ffffffffffffffffffffffffffffffffffffffff168152505073bbbbbbbbbb9cceda807e879c5916221aefe240c673ffffffffffffffffffffffffffffffffffffffff1660c08173ffffffffffffffffffffffffffffffffffffffff168152505073be6d883033060f3d413037808743c3995964460573ffffffffffffffffffffffffffffffffffffffff1660e08173ffffffffffffffffffffffffffffffffffffffff1681525050620004e973be6d883033060f3d413037808743c399596446057fffffffffffffffffffffffffffffffffffffffffffffffffffffffffffffffff60805173ffffffffffffffffffffffffffffffffffffffff166200061a60201b9092919060201c565b6200054c73be6d883033060f3d413037808743c399596446057fffffffffffffffffffffffffffffffffffffffffffffffffffffffffffffffff60a05173ffffffffffffffffffffffffffffffffffffffff166200061a60201b9092919060201c565b620005af73bbbbbbbbbb9cceda807e879c5916221aefe240c67fffffffffffffffffffffffffffffffffffffffffffffffffffffffffffffffff60805173ffffffffffffffffffffffffffffffffffffffff166200061a60201b9092919060201c565b6200061273bbbbbbbbbb9cceda807e879c5916221aefe240c67fffffffffffffffffffffffffffffffffffffffffffffffffffffffffffffffff60a05173ffffffffffffffffffffffffffffffffffffffff166200061a60201b9092919060201c565b505062000b02565b8273ffffffffffffffffffffffffffffffffffffffff1663095ea7b383836040518363ffffffff1660e01b815260040162000657929190620009ff565b6020604051808303815f875af115801562000674573d5f803e3d5ffd5b505050506040513d601f19601f820116820180604052508101906200069a919062000a64565b620006dc576040517f08c379a0000000000000000000000000000000000000000000000000000000008152600401620006d39062000ae2565b60405180910390fd5b505050565b5f80fd5b5f73ffffffffffffffffffffffffffffffffffffffff82169050919050565b5f6200071082620006e5565b9050919050565b620007228162000704565b81146200072d575f80fd5b50565b5f81519050620007408162000717565b92915050565b5f80604083850312156200075f576200075e620006e1565b5b5f6200076e8582860162000730565b9250506020620007818582860162000730565b9150509250929050565b5f82825260208201905092915050565b7f496e76616c6964205661756c74000000000000000000000000000000000000005f82015250565b5f620007d1600d836200078b565b9150620007de826200079b565b602082019050919050565b5f6020820190508181035f8301526200080281620007c3565b9050919050565b7f496e76616c6964204f7261636c650000000000000000000000000000000000005f82015250565b5f6200083f600e836200078b565b91506200084c8262000809565b602082019050919050565b5f6020820190508181035f830152620008708162000831565b9050919050565b5f815f1c9050919050565b5f73ffffffffffffffffffffffffffffffffffffffff82169050919050565b5f620008b7620008b18362000877565b62000882565b9050919050565b620008c98162000704565b82525050565b5f819050919050565b5f620008ee620008e88362000877565b620008cf565b9050919050565b5f819050919050565b6200090981620008f5565b82525050565b60a082015f8083015490506200092581620008a1565b620009335f860182620008be565b50600183015490506200094681620008a1565b620009556020860182620008be565b50600283015490506200096881620008a1565b620009776040860182620008be565b50600383015490506200098a81620008a1565b620009996060860182620008be565b5060048301549050620009ac81620008d8565b620009bb6080860182620008fe565b5050505050565b5f60a082019050620009d75f8301846200090f565b92915050565b620009e88162000704565b82525050565b620009f981620008f5565b82525050565b5f60408201905062000a145f830185620009dd565b62000a236020830184620009ee565b9392505050565b5f8115159050919050565b62000a408162000a2a565b811462000a4b575f80fd5b50565b5f8151905062000a5e8162000a35565b92915050565b5f6020828403121562000a7c5762000a7b620006e1565b5b5f62000a8b8482850162000a4e565b91505092915050565b7f5361666545524332303a20617070726f7665206661696c6564000000000000005f82015250565b5f62000aca6019836200078b565b915062000ad78262000a94565b602082019050919050565b5f6020820190508181035f83015262000afb8162000abc565b9050919050565b60805160a05160c05160e0516101005161012051612fb062000c545f395f81816102d0015281816103d5015281816106a401528181610f2f0152818161100a0152818161180f015281816118cc01528181611bc90152611cac01525f8181610680015281816106cd015281816107970152610a9b01525f818161061d0152818161172d01526120b201525f8181610294015281816103990152818161065c01528181610801015281816108bd0152818161096601528181610c5501528181610e5a01528181610ef301528181610fce0152818161110b015281816117d30152818161189001528181611b8d0152611c7001525f81816113c80152818161169d0152611fe601525f81816107ba01528181610b6301528181610c0901528181610ce701528181610d8b015281816111ca0152818161127e015281816113a40152818161166101526120220152612fb05ff3fe608060405234801561000f575f80fd5b50600436106100e8575f3560e01c806346ca626b1161008a57806362b2b5f01161006457806362b2b5f0146102165780637b9e68f21461023257806389a30271146102545780638e394f0314610272576100e8565b806346ca626b146101be5780635f04dfe2146101dc5780635fb86b01146101f8576100e8565b806338d52e0f116100c657806338d52e0f146101465780633acb562414610164578063411557d114610182578063454dab23146101a0576100e8565b806301e1d114146100ec57806306fdde031461010a57806332fe7b2614610128575b5f80fd5b6100f4610290565b6040516101019190612184565b60405180910390f35b6101126105de565b60405161011f9190612227565b60405180910390f35b61013061061b565b60405161013d91906122c1565b60405180910390f35b61014e61063f565b60405161015b91906122fa565b60405180910390f35b61016c61065a565b6040516101799190612333565b60405180910390f35b61018a61067e565b60405161019791906122fa565b60405180910390f35b6101a86106a2565b6040516101b59190612364565b60405180910390f35b6101c66106c6565b6040516101d39190612398565b60405180910390f35b6101f660048036038101906101f19190612477565b6106cb565b005b610200610a6c565b60405161020d9190612364565b60405180910390f35b610230600480360381019061022b9190612477565b610a99565b005b61023a611304565b60405161024b9594939291906124e8565b60405180910390f35b61025c6113a2565b6040516102699190612559565b60405180910390f35b61027a6113c6565b6040516102879190612559565b60405180910390f35b5f807f000000000000000000000000000000000000000000000000000000000000000073ffffffffffffffffffffffffffffffffffffffff166393c520627f0000000000000000000000000000000000000000000000000000000000000000306040518363ffffffff1660e01b815260040161030d929190612572565b606060405180830381865afa158015610328573d5f803e3d5ffd5b505050506040513d601f19601f8201168201806040525081019061034c91906126cf565b90505f81604001516fffffffffffffffffffffffffffffffff1614801561038857505f81602001516fffffffffffffffffffffffffffffffff16145b15610396575f9150506105db565b5f7f000000000000000000000000000000000000000000000000000000000000000073ffffffffffffffffffffffffffffffffffffffff16635c60e39a7f00000000000000000000000000000000000000000000000000000000000000006040518263ffffffff1660e01b81526004016104109190612364565b60c060405180830381865afa15801561042b573d5f803e3d5ffd5b505050506040513d601f19601f8201168201806040525081019061044f9190612797565b90505f8082604001516fffffffffffffffffffffffffffffffff16146104b3576104ae82604001516fffffffffffffffffffffffffffffffff16670de0b6b3a764000084606001516fffffffffffffffffffffffffffffffff166113ea565b6104bd565b670de0b6b3a76400005b90505f6104e984602001516fffffffffffffffffffffffffffffffff1683670de0b6b3a7640000611471565b90505f806002015f9054906101000a900473ffffffffffffffffffffffffffffffffffffffff1673ffffffffffffffffffffffffffffffffffffffff1663a035b1fe6040518163ffffffff1660e01b8152600401602060405180830381865afa158015610558573d5f803e3d5ffd5b505050506040513d601f19601f8201168201806040525081019061057c91906127c2565b90505f6105af86604001516fffffffffffffffffffffffffffffffff16836ec097ce7bc90715b34b9f10000000006113ea565b90508083106105c6575f96505050505050506105db565b82816105d2919061281a565b96505050505050505b90565b60606040518060400160405280601381526020017f42617374696f6e20434554455320416c70686100000000000000000000000000815250905090565b7f000000000000000000000000000000000000000000000000000000000000000081565b5f73833589fcd6edb6e08f4c7c32d4f71b54bda02913905090565b7f000000000000000000000000000000000000000000000000000000000000000081565b7f000000000000000000000000000000000000000000000000000000000000000081565b7f000000000000000000000000000000000000000000000000000000000000000081565b600a81565b7f000000000000000000000000000000000000000000000000000000000000000073ffffffffffffffffffffffffffffffffffffffff163373ffffffffffffffffffffffffffffffffffffffff1614610759576040517f08c379a000000000000000000000000000000000000000000000000000000000815260040161075090612897565b60405180910390fd5b5f8403610792576040517fcbca5aa200000000000000000000000000000000000000000000000000000000815260040160405180910390fd5b6107ff7f000000000000000000000000000000000000000000000000000000000000000030867f000000000000000000000000000000000000000000000000000000000000000073ffffffffffffffffffffffffffffffffffffffff166114af909392919063ffffffff16565b7f000000000000000000000000000000000000000000000000000000000000000073ffffffffffffffffffffffffffffffffffffffff1663151c1ade5f6040518263ffffffff1660e01b815260040161085891906129d7565b5f604051808303815f87803b15801561086f575f80fd5b505af1158015610881573d5f803e3d5ffd5b505050505f8490505f805f90505b6003811015610a2a576127108310610a2a575f6108ab84611571565b905080836108b991906129f0565b92507f000000000000000000000000000000000000000000000000000000000000000073ffffffffffffffffffffffffffffffffffffffff1663238d65795f83306040518463ffffffff1660e01b815260040161091893929190612a56565b5f604051808303815f87803b15801561092f575f80fd5b505af1158015610941573d5f803e3d5ffd5b505050506002821015610a16575f6109576117cf565b9050612710811115610a10575f7f000000000000000000000000000000000000000000000000000000000000000073ffffffffffffffffffffffffffffffffffffffff166350d8cd4b5f845f30306040518663ffffffff1660e01b81526004016109c5959493929190612ad8565b60408051808303815f875af11580156109e0573d5f803e3d5ffd5b505050506040513d601f19601f82011682018060405250810190610a049190612b2b565b50905080955050610a14565b5f94505b505b508080610a2290612b69565b91505061088f565b507f9aef77dfb00e64825b336ee02a46fedc85577c91809066957aaaf30a5cfef88b8682604051610a5c929190612bb0565b60405180910390a1505050505050565b5f30604051602001610a7e9190612c21565b60405160208183030381529060405280519060200120905090565b7f000000000000000000000000000000000000000000000000000000000000000073ffffffffffffffffffffffffffffffffffffffff163373ffffffffffffffffffffffffffffffffffffffff1614610b27576040517f08c379a0000000000000000000000000000000000000000000000000000000008152600401610b1e90612897565b60405180910390fd5b5f8403610b60576040517fcbca5aa200000000000000000000000000000000000000000000000000000000815260040160405180910390fd5b5f7f000000000000000000000000000000000000000000000000000000000000000073ffffffffffffffffffffffffffffffffffffffff166370a08231306040518263ffffffff1660e01b8152600401610bba91906122fa565b602060405180830381865afa158015610bd5573d5f803e3d5ffd5b505050506040513d601f19601f82011682018060405250810190610bf991906127c2565b9050848110610c5357610c4d84867f000000000000000000000000000000000000000000000000000000000000000073ffffffffffffffffffffffffffffffffffffffff16611aca9092919063ffffffff16565b506112fe565b7f000000000000000000000000000000000000000000000000000000000000000073ffffffffffffffffffffffffffffffffffffffff1663151c1ade5f6040518263ffffffff1660e01b8152600401610cac91906129d7565b5f604051808303815f87803b158015610cc3575f80fd5b505af1158015610cd5573d5f803e3d5ffd5b505050505f5b60058110156111c6575f7f000000000000000000000000000000000000000000000000000000000000000073ffffffffffffffffffffffffffffffffffffffff166370a08231306040518263ffffffff1660e01b8152600401610d3e91906122fa565b602060405180830381865afa158015610d59573d5f803e3d5ffd5b505050506040513d601f19601f82011682018060405250810190610d7d91906127c2565b8711610d89575f610e2d565b7f000000000000000000000000000000000000000000000000000000000000000073ffffffffffffffffffffffffffffffffffffffff166370a08231306040518263ffffffff1660e01b8152600401610de291906122fa565b602060405180830381865afa158015610dfd573d5f803e3d5ffd5b505050506040513d601f19601f82011682018060405250810190610e2191906127c2565b87610e2c919061281a565b5b9050612710811015610e3f57506111c6565b5f610e48611b89565b90505f8103610e585750506111c6565b7f000000000000000000000000000000000000000000000000000000000000000073ffffffffffffffffffffffffffffffffffffffff16638720316d5f8330306040518563ffffffff1660e01b8152600401610eb79493929190612c4d565b5f604051808303815f87803b158015610ece575f80fd5b505af1158015610ee0573d5f803e3d5ffd5b505050505f610eee82611ef6565b90505f7f000000000000000000000000000000000000000000000000000000000000000073ffffffffffffffffffffffffffffffffffffffff166393c520627f0000000000000000000000000000000000000000000000000000000000000000306040518363ffffffff1660e01b8152600401610f6c929190612572565b606060405180830381865afa158015610f87573d5f803e3d5ffd5b505050506040513d601f19601f82011682018060405250810190610fab91906126cf565b90505f81602001516fffffffffffffffffffffffffffffffff1611156111af575f7f000000000000000000000000000000000000000000000000000000000000000073ffffffffffffffffffffffffffffffffffffffff16635c60e39a7f00000000000000000000000000000000000000000000000000000000000000006040518263ffffffff1660e01b81526004016110459190612364565b60c060405180830381865afa158015611060573d5f803e3d5ffd5b505050506040513d601f19601f820116820180604052508101906110849190612797565b90505f6110c682604001516fffffffffffffffffffffffffffffffff16670de0b6b3a764000084606001516fffffffffffffffffffffffffffffffff166113ea565b90505f6110f284602001516fffffffffffffffffffffffffffffffff1683670de0b6b3a7640000611471565b90505f6110ff8683612154565b90505f8111156111aa577f000000000000000000000000000000000000000000000000000000000000000073ffffffffffffffffffffffffffffffffffffffff166320b76e815f835f306040518563ffffffff1660e01b81526004016111689493929190612c91565b60408051808303815f875af1158015611183573d5f803e3d5ffd5b505050506040513d601f19601f820116820180604052508101906111a79190612b2b565b50505b505050505b5050505080806111be90612b69565b915050610cdb565b505f7f000000000000000000000000000000000000000000000000000000000000000073ffffffffffffffffffffffffffffffffffffffff166370a08231306040518263ffffffff1660e01b815260040161122191906122fa565b602060405180830381865afa15801561123c573d5f803e3d5ffd5b505050506040513d601f19601f8201168201806040525081019061126091906127c2565b90505f61126d8288612154565b90505f8111156112c3576112c286827f000000000000000000000000000000000000000000000000000000000000000073ffffffffffffffffffffffffffffffffffffffff16611aca9092919063ffffffff16565b5b7f24ddc2bdb7df6a011a5e296c52506ec03b78b16d9cd004f5b868c0701c31415a816040516112f29190612184565b60405180910390a15050505b50505050565b5f805f015f9054906101000a900473ffffffffffffffffffffffffffffffffffffffff1690806001015f9054906101000a900473ffffffffffffffffffffffffffffffffffffffff1690806002015f9054906101000a900473ffffffffffffffffffffffffffffffffffffffff1690806003015f9054906101000a900473ffffffffffffffffffffffffffffffffffffffff16908060040154905085565b7f000000000000000000000000000000000000000000000000000000000000000081565b7f000000000000000000000000000000000000000000000000000000000000000081565b5f805f80198587098587029250828110838203039150505f810361141f575f8411611413575f80fd5b8382049250505061146a565b80841161142a575f80fd5b5f8486880990508281118203915080830392505f60018619018616905080860495508084049350600181825f030401905080840293508284029450505050505b9392505050565b5f61147d8484846113ea565b90505f828061148f5761148e612ce9565b5b84860911156114a8576001816114a591906129f0565b90505b9392505050565b8373ffffffffffffffffffffffffffffffffffffffff166323b872dd8484846040518463ffffffff1660e01b81526004016114ec93929190612d16565b6020604051808303815f875af1158015611508573d5f803e3d5ffd5b505050506040513d601f19601f8201168201806040525081019061152c9190612d80565b61156b576040517f08c379a000000000000000000000000000000000000000000000000000000000815260040161156290612df5565b60405180910390fd5b50505050565b5f805f6002015f9054906101000a900473ffffffffffffffffffffffffffffffffffffffff1673ffffffffffffffffffffffffffffffffffffffff1663a035b1fe6040518163ffffffff1660e01b8152600401602060405180830381865afa1580156115df573d5f803e3d5ffd5b505050506040513d601f19601f8201168201806040525081019061160391906127c2565b90505f611620846ec097ce7bc90715b34b9f1000000000846113ea565b90505f611650826611c37937e08000670de0b6b3a7640000611642919061281a565b670de0b6b3a76400006113ea565b90505f6040518061010001604052807f000000000000000000000000000000000000000000000000000000000000000073ffffffffffffffffffffffffffffffffffffffff1681526020017f000000000000000000000000000000000000000000000000000000000000000073ffffffffffffffffffffffffffffffffffffffff168152602001600a60020b81526020013073ffffffffffffffffffffffffffffffffffffffff1681526020014281526020018781526020018381526020015f73ffffffffffffffffffffffffffffffffffffffff1681525090507f000000000000000000000000000000000000000000000000000000000000000073ffffffffffffffffffffffffffffffffffffffff1663a026383e826040518263ffffffff1660e01b81526004016117849190612ed1565b6020604051808303815f875af11580156117a0573d5f803e3d5ffd5b505050506040513d601f19601f820116820180604052508101906117c491906127c2565b945050505050919050565b5f807f000000000000000000000000000000000000000000000000000000000000000073ffffffffffffffffffffffffffffffffffffffff166393c520627f0000000000000000000000000000000000000000000000000000000000000000306040518363ffffffff1660e01b815260040161184c929190612572565b606060405180830381865afa158015611867573d5f803e3d5ffd5b505050506040513d601f19601f8201168201806040525081019061188b91906126cf565b90505f7f000000000000000000000000000000000000000000000000000000000000000073ffffffffffffffffffffffffffffffffffffffff16635c60e39a7f00000000000000000000000000000000000000000000000000000000000000006040518263ffffffff1660e01b81526004016119079190612364565b60c060405180830381865afa158015611922573d5f803e3d5ffd5b505050506040513d601f19601f820116820180604052508101906119469190612797565b90505f806002015f9054906101000a900473ffffffffffffffffffffffffffffffffffffffff1673ffffffffffffffffffffffffffffffffffffffff1663a035b1fe6040518163ffffffff1660e01b8152600401602060405180830381865afa1580156119b5573d5f803e3d5ffd5b505050506040513d601f19601f820116820180604052508101906119d991906127c2565b90505f611a0c84604001516fffffffffffffffffffffffffffffffff16836ec097ce7bc90715b34b9f10000000006113ea565b90505f611a2a82670b1a2bc2ec500000670de0b6b3a76400006113ea565b90505f611a6c85604001516fffffffffffffffffffffffffffffffff16670de0b6b3a764000087606001516fffffffffffffffffffffffffffffffff166113ea565b90505f611a9887602001516fffffffffffffffffffffffffffffffff1683670de0b6b3a7640000611471565b905080831115611abc578083611aae919061281a565b975050505050505050611ac7565b5f9750505050505050505b90565b8273ffffffffffffffffffffffffffffffffffffffff1663a9059cbb83836040518363ffffffff1660e01b8152600401611b05929190612eeb565b6020604051808303815f875af1158015611b21573d5f803e3d5ffd5b505050506040513d601f19601f82011682018060405250810190611b459190612d80565b611b84576040517f08c379a0000000000000000000000000000000000000000000000000000000008152600401611b7b90612f5c565b60405180910390fd5b505050565b5f807f000000000000000000000000000000000000000000000000000000000000000073ffffffffffffffffffffffffffffffffffffffff166393c520627f0000000000000000000000000000000000000000000000000000000000000000306040518363ffffffff1660e01b8152600401611c06929190612572565b606060405180830381865afa158015611c21573d5f803e3d5ffd5b505050506040513d601f19601f82011682018060405250810190611c4591906126cf565b90505f81604001516fffffffffffffffffffffffffffffffff1603611c6d575f915050611ef3565b5f7f000000000000000000000000000000000000000000000000000000000000000073ffffffffffffffffffffffffffffffffffffffff16635c60e39a7f00000000000000000000000000000000000000000000000000000000000000006040518263ffffffff1660e01b8152600401611ce79190612364565b60c060405180830381865afa158015611d02573d5f803e3d5ffd5b505050506040513d601f19601f82011682018060405250810190611d269190612797565b90505f611d6882604001516fffffffffffffffffffffffffffffffff16670de0b6b3a764000084606001516fffffffffffffffffffffffffffffffff166113ea565b90505f611d9484602001516fffffffffffffffffffffffffffffffff1683670de0b6b3a7640000611471565b90505f8103611dbf5783604001516fffffffffffffffffffffffffffffffff16945050505050611ef3565b5f806002015f9054906101000a900473ffffffffffffffffffffffffffffffffffffffff1673ffffffffffffffffffffffffffffffffffffffff1663a035b1fe6040518163ffffffff1660e01b8152600401602060405180830381865afa158015611e2c573d5f803e3d5ffd5b505050506040513d601f19601f82011682018060405250810190611e5091906127c2565b90505f670bcbce7f1b15000090505f611e7284670de0b6b3a7640000846113ea565b90505f611ea588604001516fffffffffffffffffffffffffffffffff16856ec097ce7bc90715b34b9f10000000006113ea565b9050818111611ebe575f98505050505050505050611ef3565b5f8282611ecb919061281a565b9050611ee7816ec097ce7bc90715b34b9f1000000000876113ea565b99505050505050505050505b90565b5f805f6002015f9054906101000a900473ffffffffffffffffffffffffffffffffffffffff1673ffffffffffffffffffffffffffffffffffffffff1663a035b1fe6040518163ffffffff1660e01b8152600401602060405180830381865afa158015611f64573d5f803e3d5ffd5b505050506040513d601f19601f82011682018060405250810190611f8891906127c2565b90505f611fa584836ec097ce7bc90715b34b9f10000000006113ea565b90505f611fd5826611c37937e08000670de0b6b3a7640000611fc7919061281a565b670de0b6b3a76400006113ea565b90505f6040518061010001604052807f000000000000000000000000000000000000000000000000000000000000000073ffffffffffffffffffffffffffffffffffffffff1681526020017f000000000000000000000000000000000000000000000000000000000000000073ffffffffffffffffffffffffffffffffffffffff168152602001600a60020b81526020013073ffffffffffffffffffffffffffffffffffffffff1681526020014281526020018781526020018381526020015f73ffffffffffffffffffffffffffffffffffffffff1681525090507f000000000000000000000000000000000000000000000000000000000000000073ffffffffffffffffffffffffffffffffffffffff1663a026383e826040518263ffffffff1660e01b81526004016121099190612ed1565b6020604051808303815f875af1158015612125573d5f803e3d5ffd5b505050506040513d601f19601f8201168201806040525081019061214991906127c2565b945050505050919050565b5f8183106121625781612164565b825b905092915050565b5f819050919050565b61217e8161216c565b82525050565b5f6020820190506121975f830184612175565b92915050565b5f81519050919050565b5f82825260208201905092915050565b5f5b838110156121d45780820151818401526020810190506121b9565b5f8484015250505050565b5f601f19601f8301169050919050565b5f6121f98261219d565b61220381856121a7565b93506122138185602086016121b7565b61221c816121df565b840191505092915050565b5f6020820190508181035f83015261223f81846121ef565b905092915050565b5f73ffffffffffffffffffffffffffffffffffffffff82169050919050565b5f819050919050565b5f61228961228461227f84612247565b612266565b612247565b9050919050565b5f61229a8261226f565b9050919050565b5f6122ab82612290565b9050919050565b6122bb816122a1565b82525050565b5f6020820190506122d45f8301846122b2565b92915050565b5f6122e482612247565b9050919050565b6122f4816122da565b82525050565b5f60208201905061230d5f8301846122eb565b92915050565b5f61231d82612290565b9050919050565b61232d81612313565b82525050565b5f6020820190506123465f830184612324565b92915050565b5f819050919050565b61235e8161234c565b82525050565b5f6020820190506123775f830184612355565b92915050565b5f8160020b9050919050565b6123928161237d565b82525050565b5f6020820190506123ab5f830184612389565b92915050565b5f604051905090565b5f80fd5b5f80fd5b6123cb8161216c565b81146123d5575f80fd5b50565b5f813590506123e6816123c2565b92915050565b6123f5816122da565b81146123ff575f80fd5b50565b5f81359050612410816123ec565b92915050565b5f80fd5b5f80fd5b5f80fd5b5f8083601f84011261243757612436612416565b5b8235905067ffffffffffffffff8111156124545761245361241a565b5b6020830191508360018202830111156124705761246f61241e565b5b9250929050565b5f805f806060858703121561248f5761248e6123ba565b5b5f61249c878288016123d8565b94505060206124ad87828801612402565b935050604085013567ffffffffffffffff8111156124ce576124cd6123be565b5b6124da87828801612422565b925092505092959194509250565b5f60a0820190506124fb5f8301886122eb565b61250860208301876122eb565b61251560408301866122eb565b61252260608301856122eb565b61252f6080830184612175565b9695505050505050565b5f61254382612290565b9050919050565b61255381612539565b82525050565b5f60208201905061256c5f83018461254a565b92915050565b5f6040820190506125855f830185612355565b61259260208301846122eb565b9392505050565b5f80fd5b7f4e487b71000000000000000000000000000000000000000000000000000000005f52604160045260245ffd5b6125d3826121df565b810181811067ffffffffffffffff821117156125f2576125f161259d565b5b80604052505050565b5f6126046123b1565b905061261082826125ca565b919050565b5f81519050612623816123c2565b92915050565b5f6fffffffffffffffffffffffffffffffff82169050919050565b61264d81612629565b8114612657575f80fd5b50565b5f8151905061266881612644565b92915050565b5f6060828403121561268357612682612599565b5b61268d60606125fb565b90505f61269c84828501612615565b5f8301525060206126af8482850161265a565b60208301525060406126c38482850161265a565b60408301525092915050565b5f606082840312156126e4576126e36123ba565b5b5f6126f18482850161266e565b91505092915050565b5f60c0828403121561270f5761270e612599565b5b61271960c06125fb565b90505f6127288482850161265a565b5f83015250602061273b8482850161265a565b602083015250604061274f8482850161265a565b60408301525060606127638482850161265a565b60608301525060806127778482850161265a565b60808301525060a061278b8482850161265a565b60a08301525092915050565b5f60c082840312156127ac576127ab6123ba565b5b5f6127b9848285016126fa565b91505092915050565b5f602082840312156127d7576127d66123ba565b5b5f6127e484828501612615565b91505092915050565b7f4e487b71000000000000000000000000000000000000000000000000000000005f52601160045260245ffd5b5f6128248261216c565b915061282f8361216c565b9250828203905081811115612847576128466127ed565b5b92915050565b7f42617374696f6e3a204f6e6c79205661756c74000000000000000000000000005f82015250565b5f6128816013836121a7565b915061288c8261284d565b602082019050919050565b5f6020820190508181035f8301526128ae81612875565b9050919050565b5f815f1c9050919050565b5f73ffffffffffffffffffffffffffffffffffffffff82169050919050565b5f6128f16128ec836128b5565b6128c0565b9050919050565b612901816122da565b82525050565b5f819050919050565b5f61292261291d836128b5565b612907565b9050919050565b6129328161216c565b82525050565b60a082015f80830154905061294c816128df565b6129585f8601826128f8565b5060018301549050612969816128df565b61297660208601826128f8565b5060028301549050612987816128df565b61299460408601826128f8565b50600383015490506129a5816128df565b6129b260608601826128f8565b50600483015490506129c381612910565b6129d06080860182612929565b5050505050565b5f60a0820190506129ea5f830184612938565b92915050565b5f6129fa8261216c565b9150612a058361216c565b9250828201905080821115612a1d57612a1c6127ed565b5b92915050565b5f82825260208201905092915050565b50565b5f612a415f83612a23565b9150612a4c82612a33565b5f82019050919050565b5f61010082019050612a6a5f830186612938565b612a7760a0830185612175565b612a8460c08301846122eb565b81810360e0830152612a9581612a36565b9050949350505050565b5f819050919050565b5f612ac2612abd612ab884612a9f565b612266565b61216c565b9050919050565b612ad281612aa8565b82525050565b5f61012082019050612aec5f830188612938565b612af960a0830187612175565b612b0660c0830186612ac9565b612b1360e08301856122eb565b612b216101008301846122eb565b9695505050505050565b5f8060408385031215612b4157612b406123ba565b5b5f612b4e85828601612615565b9250506020612b5f85828601612615565b9150509250929050565b5f612b738261216c565b91507fffffffffffffffffffffffffffffffffffffffffffffffffffffffffffffffff8203612ba557612ba46127ed565b5b600182019050919050565b5f604082019050612bc35f830185612175565b612bd06020830184612175565b9392505050565b7f62617374696f6e2e7633000000000000000000000000000000000000000000005f82015250565b5f612c0b600a836121a7565b9150612c1682612bd7565b602082019050919050565b5f6040820190508181035f830152612c3881612bff565b9050612c4760208301846122eb565b92915050565b5f61010082019050612c615f830187612938565b612c6e60a0830186612175565b612c7b60c08301856122eb565b612c8860e08301846122eb565b95945050505050565b5f61012082019050612ca55f830187612938565b612cb260a0830186612175565b612cbf60c0830185612ac9565b612ccc60e08301846122eb565b818103610100830152612cde81612a36565b905095945050505050565b7f4e487b71000000000000000000000000000000000000000000000000000000005f52601260045260245ffd5b5f606082019050612d295f8301866122eb565b612d3660208301856122eb565b612d436040830184612175565b949350505050565b5f8115159050919050565b612d5f81612d4b565b8114612d69575f80fd5b50565b5f81519050612d7a81612d56565b92915050565b5f60208284031215612d9557612d946123ba565b5b5f612da284828501612d6c565b91505092915050565b7f5361666545524332303a207472616e7366657246726f6d206661696c656400005f82015250565b5f612ddf601e836121a7565b9150612dea82612dab565b602082019050919050565b5f6020820190508181035f830152612e0c81612dd3565b9050919050565b612e1c8161237d565b82525050565b612e2b81612247565b82525050565b61010082015f820151612e465f8501826128f8565b506020820151612e5960208501826128f8565b506040820151612e6c6040850182612e13565b506060820151612e7f60608501826128f8565b506080820151612e926080850182612929565b5060a0820151612ea560a0850182612929565b5060c0820151612eb860c0850182612929565b5060e0820151612ecb60e0850182612e22565b50505050565b5f61010082019050612ee55f830184612e31565b92915050565b5f604082019050612efe5f8301856122eb565b612f0b6020830184612175565b9392505050565b7f5361666545524332303a207472616e73666572206661696c65640000000000005f82015250565b5f612f46601a836121a7565b9150612f5182612f12565b602082019050919050565b5f6020820190508181035f830152612f7381612f3a565b905091905056fea2646970667358221220a4aa063eb231850357df9ef3a870598c64136f0f9e29dab700ef13d15314ee7664736f6c63430008140033",
					"opcodes": "PUSH2 0x140 PUSH1 0x40 MSTORE CALLVALUE DUP1 ISZERO PUSH3 0x11 JUMPI PUSH0 DUP1 REVERT JUMPDEST POP PUSH1 0x40 MLOAD PUSH3 0x3C04 CODESIZE SUB DUP1 PUSH3 0x3C04 DUP4 CODECOPY DUP2 DUP2 ADD PUSH1 0x40 MSTORE DUP2 ADD SWAP1 PUSH3 0x37 SWAP2 SWAP1 PUSH3 0x746 JUMP JUMPDEST PUSH0 PUSH20 0xFFFFFFFFFFFFFFFFFFFFFFFFFFFFFFFFFFFFFFFF AND DUP3 PUSH20 0xFFFFFFFFFFFFFFFFFFFFFFFFFFFFFFFFFFFFFFFF AND SUB PUSH3 0xA8 JUMPI PUSH1 0x40 MLOAD PUSH32 0x8C379A000000000000000000000000000000000000000000000000000000000 DUP2 MSTORE PUSH1 0x4 ADD PUSH3 0x9F SWAP1 PUSH3 0x7E9 JUMP JUMPDEST PUSH1 0x40 MLOAD DUP1 SWAP2 SUB SWAP1 REVERT JUMPDEST PUSH0 PUSH20 0xFFFFFFFFFFFFFFFFFFFFFFFFFFFFFFFFFFFFFFFF AND DUP2 PUSH20 0xFFFFFFFFFFFFFFFFFFFFFFFFFFFFFFFFFFFFFFFF AND SUB PUSH3 0x119 JUMPI PUSH1 0x40 MLOAD PUSH32 0x8C379A000000000000000000000000000000000000000000000000000000000 DUP2 MSTORE PUSH1 0x4 ADD PUSH3 0x110 SWAP1 PUSH3 0x857 JUMP JUMPDEST PUSH1 0x40 MLOAD DUP1 SWAP2 SUB SWAP1 REVERT JUMPDEST DUP2 PUSH20 0xFFFFFFFFFFFFFFFFFFFFFFFFFFFFFFFFFFFFFFFF AND PUSH2 0x100 DUP2 PUSH20 0xFFFFFFFFFFFFFFFFFFFFFFFFFFFFFFFFFFFFFFFF AND DUP2 MSTORE POP POP PUSH1 0x40 MLOAD DUP1 PUSH1 0xA0 ADD PUSH1 0x40 MSTORE DUP1 PUSH20 0x833589FCD6EDB6E08F4C7C32D4F71B54BDA02913 PUSH20 0xFFFFFFFFFFFFFFFFFFFFFFFFFFFFFFFFFFFFFFFF AND DUP2 MSTORE PUSH1 0x20 ADD PUSH20 0x834DF4C1D8F51BE24322E39E4766697BE015512F PUSH20 0xFFFFFFFFFFFFFFFFFFFFFFFFFFFFFFFFFFFFFFFF AND DUP2 MSTORE PUSH1 0x20 ADD DUP3 PUSH20 0xFFFFFFFFFFFFFFFFFFFFFFFFFFFFFFFFFFFFFFFF AND DUP2 MSTORE PUSH1 0x20 ADD PUSH20 0x870AC11D48B15DB9A138CF899D20F13F79BA00BC PUSH20 0xFFFFFFFFFFFFFFFFFFFFFFFFFFFFFFFFFFFFFFFF AND DUP2 MSTORE PUSH1 0x20 ADD PUSH8 0xBEF55718AD60000 DUP2 MSTORE POP PUSH0 DUP1 DUP3 ADD MLOAD DUP2 PUSH0 ADD PUSH0 PUSH2 0x100 EXP DUP2 SLOAD DUP2 PUSH20 0xFFFFFFFFFFFFFFFFFFFFFFFFFFFFFFFFFFFFFFFF MUL NOT AND SWAP1 DUP4 PUSH20 0xFFFFFFFFFFFFFFFFFFFFFFFFFFFFFFFFFFFFFFFF AND MUL OR SWAP1 SSTORE POP PUSH1 0x20 DUP3 ADD MLOAD DUP2 PUSH1 0x1 ADD PUSH0 PUSH2 0x100 EXP DUP2 SLOAD DUP2 PUSH20 0xFFFFFFFFFFFFFFFFFFFFFFFFFFFFFFFFFFFFFFFF MUL NOT AND SWAP1 DUP4 PUSH20 0xFFFFFFFFFFFFFFFFFFFFFFFFFFFFFFFFFFFFFFFF AND MUL OR SWAP1 SSTORE POP PUSH1 0x40 DUP3 ADD MLOAD DUP2 PUSH1 0x2 ADD PUSH0 PUSH2 0x100 EXP DUP2 SLOAD DUP2 PUSH20 0xFFFFFFFFFFFFFFFFFFFFFFFFFFFFFFFFFFFFFFFF MUL NOT AND SWAP1 DUP4 PUSH20 0xFFFFFFFFFFFFFFFFFFFFFFFFFFFFFFFFFFFFFFFF AND MUL OR SWAP1 SSTORE POP PUSH1 0x60 DUP3 ADD MLOAD DUP2 PUSH1 0x3 ADD PUSH0 PUSH2 0x100 EXP DUP2 SLOAD DUP2 PUSH20 0xFFFFFFFFFFFFFFFFFFFFFFFFFFFFFFFFFFFFFFFF MUL NOT AND SWAP1 DUP4 PUSH20 0xFFFFFFFFFFFFFFFFFFFFFFFFFFFFFFFFFFFFFFFF AND MUL OR SWAP1 SSTORE POP PUSH1 0x80 DUP3 ADD MLOAD DUP2 PUSH1 0x4 ADD SSTORE SWAP1 POP POP PUSH0 PUSH1 0x40 MLOAD PUSH1 0x20 ADD PUSH3 0x348 SWAP2 SWAP1 PUSH3 0x9C2 JUMP JUMPDEST PUSH1 0x40 MLOAD PUSH1 0x20 DUP2 DUP4 SUB SUB DUP2 MSTORE SWAP1 PUSH1 0x40 MSTORE DUP1 MLOAD SWAP1 PUSH1 0x20 ADD KECCAK256 PUSH2 0x120 DUP2 DUP2 MSTORE POP POP PUSH20 0x833589FCD6EDB6E08F4C7C32D4F71B54BDA02913 PUSH20 0xFFFFFFFFFFFFFFFFFFFFFFFFFFFFFFFFFFFFFFFF AND PUSH1 0x80 DUP2 PUSH20 0xFFFFFFFFFFFFFFFFFFFFFFFFFFFFFFFFFFFFFFFF AND DUP2 MSTORE POP POP PUSH20 0x834DF4C1D8F51BE24322E39E4766697BE015512F PUSH20 0xFFFFFFFFFFFFFFFFFFFFFFFFFFFFFFFFFFFFFFFF AND PUSH1 0xA0 DUP2 PUSH20 0xFFFFFFFFFFFFFFFFFFFFFFFFFFFFFFFFFFFFFFFF AND DUP2 MSTORE POP POP PUSH20 0xBBBBBBBBBB9CCEDA807E879C5916221AEFE240C6 PUSH20 0xFFFFFFFFFFFFFFFFFFFFFFFFFFFFFFFFFFFFFFFF AND PUSH1 0xC0 DUP2 PUSH20 0xFFFFFFFFFFFFFFFFFFFFFFFFFFFFFFFFFFFFFFFF AND DUP2 MSTORE POP POP PUSH20 0xBE6D883033060F3D413037808743C39959644605 PUSH20 0xFFFFFFFFFFFFFFFFFFFFFFFFFFFFFFFFFFFFFFFF AND PUSH1 0xE0 DUP2 PUSH20 0xFFFFFFFFFFFFFFFFFFFFFFFFFFFFFFFFFFFFFFFF AND DUP2 MSTORE POP POP PUSH3 0x4E9 PUSH20 0xBE6D883033060F3D413037808743C39959644605 PUSH32 0xFFFFFFFFFFFFFFFFFFFFFFFFFFFFFFFFFFFFFFFFFFFFFFFFFFFFFFFFFFFFFFFF PUSH1 0x80 MLOAD PUSH20 0xFFFFFFFFFFFFFFFFFFFFFFFFFFFFFFFFFFFFFFFF AND PUSH3 0x61A PUSH1 0x20 SHL SWAP1 SWAP3 SWAP2 SWAP1 PUSH1 0x20 SHR JUMP JUMPDEST PUSH3 0x54C PUSH20 0xBE6D883033060F3D413037808743C39959644605 PUSH32 0xFFFFFFFFFFFFFFFFFFFFFFFFFFFFFFFFFFFFFFFFFFFFFFFFFFFFFFFFFFFFFFFF PUSH1 0xA0 MLOAD PUSH20 0xFFFFFFFFFFFFFFFFFFFFFFFFFFFFFFFFFFFFFFFF AND PUSH3 0x61A PUSH1 0x20 SHL SWAP1 SWAP3 SWAP2 SWAP1 PUSH1 0x20 SHR JUMP JUMPDEST PUSH3 0x5AF PUSH20 0xBBBBBBBBBB9CCEDA807E879C5916221AEFE240C6 PUSH32 0xFFFFFFFFFFFFFFFFFFFFFFFFFFFFFFFFFFFFFFFFFFFFFFFFFFFFFFFFFFFFFFFF PUSH1 0x80 MLOAD PUSH20 0xFFFFFFFFFFFFFFFFFFFFFFFFFFFFFFFFFFFFFFFF AND PUSH3 0x61A PUSH1 0x20 SHL SWAP1 SWAP3 SWAP2 SWAP1 PUSH1 0x20 SHR JUMP JUMPDEST PUSH3 0x612 PUSH20 0xBBBBBBBBBB9CCEDA807E879C5916221AEFE240C6 PUSH32 0xFFFFFFFFFFFFFFFFFFFFFFFFFFFFFFFFFFFFFFFFFFFFFFFFFFFFFFFFFFFFFFFF PUSH1 0xA0 MLOAD PUSH20 0xFFFFFFFFFFFFFFFFFFFFFFFFFFFFFFFFFFFFFFFF AND PUSH3 0x61A PUSH1 0x20 SHL SWAP1 SWAP3 SWAP2 SWAP1 PUSH1 0x20 SHR JUMP JUMPDEST POP POP PUSH3 0xB02 JUMP JUMPDEST DUP3 PUSH20 0xFFFFFFFFFFFFFFFFFFFFFFFFFFFFFFFFFFFFFFFF AND PUSH4 0x95EA7B3 DUP4 DUP4 PUSH1 0x40 MLOAD DUP4 PUSH4 0xFFFFFFFF AND PUSH1 0xE0 SHL DUP2 MSTORE PUSH1 0x4 ADD PUSH3 0x657 SWAP3 SWAP2 SWAP1 PUSH3 0x9FF JUMP JUMPDEST PUSH1 0x20 PUSH1 0x40 MLOAD DUP1 DUP4 SUB DUP2 PUSH0 DUP8 GAS CALL ISZERO DUP1 ISZERO PUSH3 0x674 JUMPI RETURNDATASIZE PUSH0 DUP1 RETURNDATACOPY RETURNDATASIZE PUSH0 REVERT JUMPDEST POP POP POP POP PUSH1 0x40 MLOAD RETURNDATASIZE PUSH1 0x1F NOT PUSH1 0x1F DUP3 ADD AND DUP3 ADD DUP1 PUSH1 0x40 MSTORE POP DUP2 ADD SWAP1 PUSH3 0x69A SWAP2 SWAP1 PUSH3 0xA64 JUMP JUMPDEST PUSH3 0x6DC JUMPI PUSH1 0x40 MLOAD PUSH32 0x8C379A000000000000000000000000000000000000000000000000000000000 DUP2 MSTORE PUSH1 0x4 ADD PUSH3 0x6D3 SWAP1 PUSH3 0xAE2 JUMP JUMPDEST PUSH1 0x40 MLOAD DUP1 SWAP2 SUB SWAP1 REVERT JUMPDEST POP POP POP JUMP JUMPDEST PUSH0 DUP1 REVERT JUMPDEST PUSH0 PUSH20 0xFFFFFFFFFFFFFFFFFFFFFFFFFFFFFFFFFFFFFFFF DUP3 AND SWAP1 POP SWAP2 SWAP1 POP JUMP JUMPDEST PUSH0 PUSH3 0x710 DUP3 PUSH3 0x6E5 JUMP JUMPDEST SWAP1 POP SWAP2 SWAP1 POP JUMP JUMPDEST PUSH3 0x722 DUP2 PUSH3 0x704 JUMP JUMPDEST DUP2 EQ PUSH3 0x72D JUMPI PUSH0 DUP1 REVERT JUMPDEST POP JUMP JUMPDEST PUSH0 DUP2 MLOAD SWAP1 POP PUSH3 0x740 DUP2 PUSH3 0x717 JUMP JUMPDEST SWAP3 SWAP2 POP POP JUMP JUMPDEST PUSH0 DUP1 PUSH1 0x40 DUP4 DUP6 SUB SLT ISZERO PUSH3 0x75F JUMPI PUSH3 0x75E PUSH3 0x6E1 JUMP JUMPDEST JUMPDEST PUSH0 PUSH3 0x76E DUP6 DUP3 DUP7 ADD PUSH3 0x730 JUMP JUMPDEST SWAP3 POP POP PUSH1 0x20 PUSH3 0x781 DUP6 DUP3 DUP7 ADD PUSH3 0x730 JUMP JUMPDEST SWAP2 POP POP SWAP3 POP SWAP3 SWAP1 POP JUMP JUMPDEST PUSH0 DUP3 DUP3 MSTORE PUSH1 0x20 DUP3 ADD SWAP1 POP SWAP3 SWAP2 POP POP JUMP JUMPDEST PUSH32 0x496E76616C6964205661756C7400000000000000000000000000000000000000 PUSH0 DUP3 ADD MSTORE POP JUMP JUMPDEST PUSH0 PUSH3 0x7D1 PUSH1 0xD DUP4 PUSH3 0x78B JUMP JUMPDEST SWAP2 POP PUSH3 0x7DE DUP3 PUSH3 0x79B JUMP JUMPDEST PUSH1 0x20 DUP3 ADD SWAP1 POP SWAP2 SWAP1 POP JUMP JUMPDEST PUSH0 PUSH1 0x20 DUP3 ADD SWAP1 POP DUP2 DUP2 SUB PUSH0 DUP4 ADD MSTORE PUSH3 0x802 DUP2 PUSH3 0x7C3 JUMP JUMPDEST SWAP1 POP SWAP2 SWAP1 POP JUMP JUMPDEST PUSH32 0x496E76616C6964204F7261636C65000000000000000000000000000000000000 PUSH0 DUP3 ADD MSTORE POP JUMP JUMPDEST PUSH0 PUSH3 0x83F PUSH1 0xE DUP4 PUSH3 0x78B JUMP JUMPDEST SWAP2 POP PUSH3 0x84C DUP3 PUSH3 0x809 JUMP JUMPDEST PUSH1 0x20 DUP3 ADD SWAP1 POP SWAP2 SWAP1 POP JUMP JUMPDEST PUSH0 PUSH1 0x20 DUP3 ADD SWAP1 POP DUP2 DUP2 SUB PUSH0 DUP4 ADD MSTORE PUSH3 0x870 DUP2 PUSH3 0x831 JUMP JUMPDEST SWAP1 POP SWAP2 SWAP1 POP JUMP JUMPDEST PUSH0 DUP2 PUSH0 SHR SWAP1 POP SWAP2 SWAP1 POP JUMP JUMPDEST PUSH0 PUSH20 0xFFFFFFFFFFFFFFFFFFFFFFFFFFFFFFFFFFFFFFFF DUP3 AND SWAP1 POP SWAP2 SWAP1 POP JUMP JUMPDEST PUSH0 PUSH3 0x8B7 PUSH3 0x8B1 DUP4 PUSH3 0x877 JUMP JUMPDEST PUSH3 0x882 JUMP JUMPDEST SWAP1 POP SWAP2 SWAP1 POP JUMP JUMPDEST PUSH3 0x8C9 DUP2 PUSH3 0x704 JUMP JUMPDEST DUP3 MSTORE POP POP JUMP JUMPDEST PUSH0 DUP2 SWAP1 POP SWAP2 SWAP1 POP JUMP JUMPDEST PUSH0 PUSH3 0x8EE PUSH3 0x8E8 DUP4 PUSH3 0x877 JUMP JUMPDEST PUSH3 0x8CF JUMP JUMPDEST SWAP1 POP SWAP2 SWAP1 POP JUMP JUMPDEST PUSH0 DUP2 SWAP1 POP SWAP2 SWAP1 POP JUMP JUMPDEST PUSH3 0x909 DUP2 PUSH3 0x8F5 JUMP JUMPDEST DUP3 MSTORE POP POP JUMP JUMPDEST PUSH1 0xA0 DUP3 ADD PUSH0 DUP1 DUP4 ADD SLOAD SWAP1 POP PUSH3 0x925 DUP2 PUSH3 0x8A1 JUMP JUMPDEST PUSH3 0x933 PUSH0 DUP7 ADD DUP3 PUSH3 0x8BE JUMP JUMPDEST POP PUSH1 0x1 DUP4 ADD SLOAD SWAP1 POP PUSH3 0x946 DUP2 PUSH3 0x8A1 JUMP JUMPDEST PUSH3 0x955 PUSH1 0x20 DUP7 ADD DUP3 PUSH3 0x8BE JUMP JUMPDEST POP PUSH1 0x2 DUP4 ADD SLOAD SWAP1 POP PUSH3 0x968 DUP2 PUSH3 0x8A1 JUMP JUMPDEST PUSH3 0x977 PUSH1 0x40 DUP7 ADD DUP3 PUSH3 0x8BE JUMP JUMPDEST POP PUSH1 0x3 DUP4 ADD SLOAD SWAP1 POP PUSH3 0x98A DUP2 PUSH3 0x8A1 JUMP JUMPDEST PUSH3 0x999 PUSH1 0x60 DUP7 ADD DUP3 PUSH3 0x8BE JUMP JUMPDEST POP PUSH1 0x4 DUP4 ADD SLOAD SWAP1 POP PUSH3 0x9AC DUP2 PUSH3 0x8D8 JUMP JUMPDEST PUSH3 0x9BB PUSH1 0x80 DUP7 ADD DUP3 PUSH3 0x8FE JUMP JUMPDEST POP POP POP POP POP JUMP JUMPDEST PUSH0 PUSH1 0xA0 DUP3 ADD SWAP1 POP PUSH3 0x9D7 PUSH0 DUP4 ADD DUP5 PUSH3 0x90F JUMP JUMPDEST SWAP3 SWAP2 POP POP JUMP JUMPDEST PUSH3 0x9E8 DUP2 PUSH3 0x704 JUMP JUMPDEST DUP3 MSTORE POP POP JUMP JUMPDEST PUSH3 0x9F9 DUP2 PUSH3 0x8F5 JUMP JUMPDEST DUP3 MSTORE POP POP JUMP JUMPDEST PUSH0 PUSH1 0x40 DUP3 ADD SWAP1 POP PUSH3 0xA14 PUSH0 DUP4 ADD DUP6 PUSH3 0x9DD JUMP JUMPDEST PUSH3 0xA23 PUSH1 0x20 DUP4 ADD DUP5 PUSH3 0x9EE JUMP JUMPDEST SWAP4 SWAP3 POP POP POP JUMP JUMPDEST PUSH0 DUP2 ISZERO ISZERO SWAP1 POP SWAP2 SWAP1 POP JUMP JUMPDEST PUSH3 0xA40 DUP2 PUSH3 0xA2A JUMP JUMPDEST DUP2 EQ PUSH3 0xA4B JUMPI PUSH0 DUP1 REVERT JUMPDEST POP JUMP JUMPDEST PUSH0 DUP2 MLOAD SWAP1 POP PUSH3 0xA5E DUP2 PUSH3 0xA35 JUMP JUMPDEST SWAP3 SWAP2 POP POP JUMP JUMPDEST PUSH0 PUSH1 0x20 DUP3 DUP5 SUB SLT ISZERO PUSH3 0xA7C JUMPI PUSH3 0xA7B PUSH3 0x6E1 JUMP JUMPDEST JUMPDEST PUSH0 PUSH3 0xA8B DUP5 DUP3 DUP6 ADD PUSH3 0xA4E JUMP JUMPDEST SWAP2 POP POP SWAP3 SWAP2 POP POP JUMP JUMPDEST PUSH32 0x5361666545524332303A20617070726F7665206661696C656400000000000000 PUSH0 DUP3 ADD MSTORE POP JUMP JUMPDEST PUSH0 PUSH3 0xACA PUSH1 0x19 DUP4 PUSH3 0x78B JUMP JUMPDEST SWAP2 POP PUSH3 0xAD7 DUP3 PUSH3 0xA94 JUMP JUMPDEST PUSH1 0x20 DUP3 ADD SWAP1 POP SWAP2 SWAP1 POP JUMP JUMPDEST PUSH0 PUSH1 0x20 DUP3 ADD SWAP1 POP DUP2 DUP2 SUB PUSH0 DUP4 ADD MSTORE PUSH3 0xAFB DUP2 PUSH3 0xABC JUMP JUMPDEST SWAP1 POP SWAP2 SWAP1 POP JUMP JUMPDEST PUSH1 0x80 MLOAD PUSH1 0xA0 MLOAD PUSH1 0xC0 MLOAD PUSH1 0xE0 MLOAD PUSH2 0x100 MLOAD PUSH2 0x120 MLOAD PUSH2 0x2FB0 PUSH3 0xC54 PUSH0 CODECOPY PUSH0 DUP2 DUP2 PUSH2 0x2D0 ADD MSTORE DUP2 DUP2 PUSH2 0x3D5 ADD MSTORE DUP2 DUP2 PUSH2 0x6A4 ADD MSTORE DUP2 DUP2 PUSH2 0xF2F ADD MSTORE DUP2 DUP2 PUSH2 0x100A ADD MSTORE DUP2 DUP2 PUSH2 0x180F ADD MSTORE DUP2 DUP2 PUSH2 0x18CC ADD MSTORE DUP2 DUP2 PUSH2 0x1BC9 ADD MSTORE PUSH2 0x1CAC ADD MSTORE PUSH0 DUP2 DUP2 PUSH2 0x680 ADD MSTORE DUP2 DUP2 PUSH2 0x6CD ADD MSTORE DUP2 DUP2 PUSH2 0x797 ADD MSTORE PUSH2 0xA9B ADD MSTORE PUSH0 DUP2 DUP2 PUSH2 0x61D ADD MSTORE DUP2 DUP2 PUSH2 0x172D ADD MSTORE PUSH2 0x20B2 ADD MSTORE PUSH0 DUP2 DUP2 PUSH2 0x294 ADD MSTORE DUP2 DUP2 PUSH2 0x399 ADD MSTORE DUP2 DUP2 PUSH2 0x65C ADD MSTORE DUP2 DUP2 PUSH2 0x801 ADD MSTORE DUP2 DUP2 PUSH2 0x8BD ADD MSTORE DUP2 DUP2 PUSH2 0x966 ADD MSTORE DUP2 DUP2 PUSH2 0xC55 ADD MSTORE DUP2 DUP2 PUSH2 0xE5A ADD MSTORE DUP2 DUP2 PUSH2 0xEF3 ADD MSTORE DUP2 DUP2 PUSH2 0xFCE ADD MSTORE DUP2 DUP2 PUSH2 0x110B ADD MSTORE DUP2 DUP2 PUSH2 0x17D3 ADD MSTORE DUP2 DUP2 PUSH2 0x1890 ADD MSTORE DUP2 DUP2 PUSH2 0x1B8D ADD MSTORE PUSH2 0x1C70 ADD MSTORE PUSH0 DUP2 DUP2 PUSH2 0x13C8 ADD MSTORE DUP2 DUP2 PUSH2 0x169D ADD MSTORE PUSH2 0x1FE6 ADD MSTORE PUSH0 DUP2 DUP2 PUSH2 0x7BA ADD MSTORE DUP2 DUP2 PUSH2 0xB63 ADD MSTORE DUP2 DUP2 PUSH2 0xC09 ADD MSTORE DUP2 DUP2 PUSH2 0xCE7 ADD MSTORE DUP2 DUP2 PUSH2 0xD8B ADD MSTORE DUP2 DUP2 PUSH2 0x11CA ADD MSTORE DUP2 DUP2 PUSH2 0x127E ADD MSTORE DUP2 DUP2 PUSH2 0x13A4 ADD MSTORE DUP2 DUP2 PUSH2 0x1661 ADD MSTORE PUSH2 0x2022 ADD MSTORE PUSH2 0x2FB0 PUSH0 RETURN INVALID PUSH1 0x80 PUSH1 0x40 MSTORE CALLVALUE DUP1 ISZERO PUSH2 0xF JUMPI PUSH0 DUP1 REVERT JUMPDEST POP PUSH1 0x4 CALLDATASIZE LT PUSH2 0xE8 JUMPI PUSH0 CALLDATALOAD PUSH1 0xE0 SHR DUP1 PUSH4 0x46CA626B GT PUSH2 0x8A JUMPI DUP1 PUSH4 0x62B2B5F0 GT PUSH2 0x64 JUMPI DUP1 PUSH4 0x62B2B5F0 EQ PUSH2 0x216 JUMPI DUP1 PUSH4 0x7B9E68F2 EQ PUSH2 0x232 JUMPI DUP1 PUSH4 0x89A30271 EQ PUSH2 0x254 JUMPI DUP1 PUSH4 0x8E394F03 EQ PUSH2 0x272 JUMPI PUSH2 0xE8 JUMP JUMPDEST DUP1 PUSH4 0x46CA626B EQ PUSH2 0x1BE JUMPI DUP1 PUSH4 0x5F04DFE2 EQ PUSH2 0x1DC JUMPI DUP1 PUSH4 0x5FB86B01 EQ PUSH2 0x1F8 JUMPI PUSH2 0xE8 JUMP JUMPDEST DUP1 PUSH4 0x38D52E0F GT PUSH2 0xC6 JUMPI DUP1 PUSH4 0x38D52E0F EQ PUSH2 0x146 JUMPI DUP1 PUSH4 0x3ACB5624 EQ PUSH2 0x164 JUMPI DUP1 PUSH4 0x411557D1 EQ PUSH2 0x182 JUMPI DUP1 PUSH4 0x454DAB23 EQ PUSH2 0x1A0 JUMPI PUSH2 0xE8 JUMP JUMPDEST DUP1 PUSH4 0x1E1D114 EQ PUSH2 0xEC JUMPI DUP1 PUSH4 0x6FDDE03 EQ PUSH2 0x10A JUMPI DUP1 PUSH4 0x32FE7B26 EQ PUSH2 0x128 JUMPI JUMPDEST PUSH0 DUP1 REVERT JUMPDEST PUSH2 0xF4 PUSH2 0x290 JUMP JUMPDEST PUSH1 0x40 MLOAD PUSH2 0x101 SWAP2 SWAP1 PUSH2 0x2184 JUMP JUMPDEST PUSH1 0x40 MLOAD DUP1 SWAP2 SUB SWAP1 RETURN JUMPDEST PUSH2 0x112 PUSH2 0x5DE JUMP JUMPDEST PUSH1 0x40 MLOAD PUSH2 0x11F SWAP2 SWAP1 PUSH2 0x2227 JUMP JUMPDEST PUSH1 0x40 MLOAD DUP1 SWAP2 SUB SWAP1 RETURN JUMPDEST PUSH2 0x130 PUSH2 0x61B JUMP JUMPDEST PUSH1 0x40 MLOAD PUSH2 0x13D SWAP2 SWAP1 PUSH2 0x22C1 JUMP JUMPDEST PUSH1 0x40 MLOAD DUP1 SWAP2 SUB SWAP1 RETURN JUMPDEST PUSH2 0x14E PUSH2 0x63F JUMP JUMPDEST PUSH1 0x40 MLOAD PUSH2 0x15B SWAP2 SWAP1 PUSH2 0x22FA JUMP JUMPDEST PUSH1 0x40 MLOAD DUP1 SWAP2 SUB SWAP1 RETURN JUMPDEST PUSH2 0x16C PUSH2 0x65A JUMP JUMPDEST PUSH1 0x40 MLOAD PUSH2 0x179 SWAP2 SWAP1 PUSH2 0x2333 JUMP JUMPDEST PUSH1 0x40 MLOAD DUP1 SWAP2 SUB SWAP1 RETURN JUMPDEST PUSH2 0x18A PUSH2 0x67E JUMP JUMPDEST PUSH1 0x40 MLOAD PUSH2 0x197 SWAP2 SWAP1 PUSH2 0x22FA JUMP JUMPDEST PUSH1 0x40 MLOAD DUP1 SWAP2 SUB SWAP1 RETURN JUMPDEST PUSH2 0x1A8 PUSH2 0x6A2 JUMP JUMPDEST PUSH1 0x40 MLOAD PUSH2 0x1B5 SWAP2 SWAP1 PUSH2 0x2364 JUMP JUMPDEST PUSH1 0x40 MLOAD DUP1 SWAP2 SUB SWAP1 RETURN JUMPDEST PUSH2 0x1C6 PUSH2 0x6C6 JUMP JUMPDEST PUSH1 0x40 MLOAD PUSH2 0x1D3 SWAP2 SWAP1 PUSH2 0x2398 JUMP JUMPDEST PUSH1 0x40 MLOAD DUP1 SWAP2 SUB SWAP1 RETURN JUMPDEST PUSH2 0x1F6 PUSH1 0x4 DUP1 CALLDATASIZE SUB DUP2 ADD SWAP1 PUSH2 0x1F1 SWAP2 SWAP1 PUSH2 0x2477 JUMP JUMPDEST PUSH2 0x6CB JUMP JUMPDEST STOP JUMPDEST PUSH2 0x200 PUSH2 0xA6C JUMP JUMPDEST PUSH1 0x40 MLOAD PUSH2 0x20D SWAP2 SWAP1 PUSH2 0x2364 JUMP JUMPDEST PUSH1 0x40 MLOAD DUP1 SWAP2 SUB SWAP1 RETURN JUMPDEST PUSH2 0x230 PUSH1 0x4 DUP1 CALLDATASIZE SUB DUP2 ADD SWAP1 PUSH2 0x22B SWAP2 SWAP1 PUSH2 0x2477 JUMP JUMPDEST PUSH2 0xA99 JUMP JUMPDEST STOP JUMPDEST PUSH2 0x23A PUSH2 0x1304 JUMP JUMPDEST PUSH1 0x40 MLOAD PUSH2 0x24B SWAP6 SWAP5 SWAP4 SWAP3 SWAP2 SWAP1 PUSH2 0x24E8 JUMP JUMPDEST PUSH1 0x40 MLOAD DUP1 SWAP2 SUB SWAP1 RETURN JUMPDEST PUSH2 0x25C PUSH2 0x13A2 JUMP JUMPDEST PUSH1 0x40 MLOAD PUSH2 0x269 SWAP2 SWAP1 PUSH2 0x2559 JUMP JUMPDEST PUSH1 0x40 MLOAD DUP1 SWAP2 SUB SWAP1 RETURN JUMPDEST PUSH2 0x27A PUSH2 0x13C6 JUMP JUMPDEST PUSH1 0x40 MLOAD PUSH2 0x287 SWAP2 SWAP1 PUSH2 0x2559 JUMP JUMPDEST PUSH1 0x40 MLOAD DUP1 SWAP2 SUB SWAP1 RETURN JUMPDEST PUSH0 DUP1 PUSH32 0x0 PUSH20 0xFFFFFFFFFFFFFFFFFFFFFFFFFFFFFFFFFFFFFFFF AND PUSH4 0x93C52062 PUSH32 0x0 ADDRESS PUSH1 0x40 MLOAD DUP4 PUSH4 0xFFFFFFFF AND PUSH1 0xE0 SHL DUP2 MSTORE PUSH1 0x4 ADD PUSH2 0x30D SWAP3 SWAP2 SWAP1 PUSH2 0x2572 JUMP JUMPDEST PUSH1 0x60 PUSH1 0x40 MLOAD DUP1 DUP4 SUB DUP2 DUP7 GAS STATICCALL ISZERO DUP1 ISZERO PUSH2 0x328 JUMPI RETURNDATASIZE PUSH0 DUP1 RETURNDATACOPY RETURNDATASIZE PUSH0 REVERT JUMPDEST POP POP POP POP PUSH1 0x40 MLOAD RETURNDATASIZE PUSH1 0x1F NOT PUSH1 0x1F DUP3 ADD AND DUP3 ADD DUP1 PUSH1 0x40 MSTORE POP DUP2 ADD SWAP1 PUSH2 0x34C SWAP2 SWAP1 PUSH2 0x26CF JUMP JUMPDEST SWAP1 POP PUSH0 DUP2 PUSH1 0x40 ADD MLOAD PUSH16 0xFFFFFFFFFFFFFFFFFFFFFFFFFFFFFFFF AND EQ DUP1 ISZERO PUSH2 0x388 JUMPI POP PUSH0 DUP2 PUSH1 0x20 ADD MLOAD PUSH16 0xFFFFFFFFFFFFFFFFFFFFFFFFFFFFFFFF AND EQ JUMPDEST ISZERO PUSH2 0x396 JUMPI PUSH0 SWAP2 POP POP PUSH2 0x5DB JUMP JUMPDEST PUSH0 PUSH32 0x0 PUSH20 0xFFFFFFFFFFFFFFFFFFFFFFFFFFFFFFFFFFFFFFFF AND PUSH4 0x5C60E39A PUSH32 0x0 PUSH1 0x40 MLOAD DUP3 PUSH4 0xFFFFFFFF AND PUSH1 0xE0 SHL DUP2 MSTORE PUSH1 0x4 ADD PUSH2 0x410 SWAP2 SWAP1 PUSH2 0x2364 JUMP JUMPDEST PUSH1 0xC0 PUSH1 0x40 MLOAD DUP1 DUP4 SUB DUP2 DUP7 GAS STATICCALL ISZERO DUP1 ISZERO PUSH2 0x42B JUMPI RETURNDATASIZE PUSH0 DUP1 RETURNDATACOPY RETURNDATASIZE PUSH0 REVERT JUMPDEST POP POP POP POP PUSH1 0x40 MLOAD RETURNDATASIZE PUSH1 0x1F NOT PUSH1 0x1F DUP3 ADD AND DUP3 ADD DUP1 PUSH1 0x40 MSTORE POP DUP2 ADD SWAP1 PUSH2 0x44F SWAP2 SWAP1 PUSH2 0x2797 JUMP JUMPDEST SWAP1 POP PUSH0 DUP1 DUP3 PUSH1 0x40 ADD MLOAD PUSH16 0xFFFFFFFFFFFFFFFFFFFFFFFFFFFFFFFF AND EQ PUSH2 0x4B3 JUMPI PUSH2 0x4AE DUP3 PUSH1 0x40 ADD MLOAD PUSH16 0xFFFFFFFFFFFFFFFFFFFFFFFFFFFFFFFF AND PUSH8 0xDE0B6B3A7640000 DUP5 PUSH1 0x60 ADD MLOAD PUSH16 0xFFFFFFFFFFFFFFFFFFFFFFFFFFFFFFFF AND PUSH2 0x13EA JUMP JUMPDEST PUSH2 0x4BD JUMP JUMPDEST PUSH8 0xDE0B6B3A7640000 JUMPDEST SWAP1 POP PUSH0 PUSH2 0x4E9 DUP5 PUSH1 0x20 ADD MLOAD PUSH16 0xFFFFFFFFFFFFFFFFFFFFFFFFFFFFFFFF AND DUP4 PUSH8 0xDE0B6B3A7640000 PUSH2 0x1471 JUMP JUMPDEST SWAP1 POP PUSH0 DUP1 PUSH1 0x2 ADD PUSH0 SWAP1 SLOAD SWAP1 PUSH2 0x100 EXP SWAP1 DIV PUSH20 0xFFFFFFFFFFFFFFFFFFFFFFFFFFFFFFFFFFFFFFFF AND PUSH20 0xFFFFFFFFFFFFFFFFFFFFFFFFFFFFFFFFFFFFFFFF AND PUSH4 0xA035B1FE PUSH1 0x40 MLOAD DUP2 PUSH4 0xFFFFFFFF AND PUSH1 0xE0 SHL DUP2 MSTORE PUSH1 0x4 ADD PUSH1 0x20 PUSH1 0x40 MLOAD DUP1 DUP4 SUB DUP2 DUP7 GAS STATICCALL ISZERO DUP1 ISZERO PUSH2 0x558 JUMPI RETURNDATASIZE PUSH0 DUP1 RETURNDATACOPY RETURNDATASIZE PUSH0 REVERT JUMPDEST POP POP POP POP PUSH1 0x40 MLOAD RETURNDATASIZE PUSH1 0x1F NOT PUSH1 0x1F DUP3 ADD AND DUP3 ADD DUP1 PUSH1 0x40 MSTORE POP DUP2 ADD SWAP1 PUSH2 0x57C SWAP2 SWAP1 PUSH2 0x27C2 JUMP JUMPDEST SWAP1 POP PUSH0 PUSH2 0x5AF DUP7 PUSH1 0x40 ADD MLOAD PUSH16 0xFFFFFFFFFFFFFFFFFFFFFFFFFFFFFFFF AND DUP4 PUSH15 0xC097CE7BC90715B34B9F1000000000 PUSH2 0x13EA JUMP JUMPDEST SWAP1 POP DUP1 DUP4 LT PUSH2 0x5C6 JUMPI PUSH0 SWAP7 POP POP POP POP POP POP POP PUSH2 0x5DB JUMP JUMPDEST DUP3 DUP2 PUSH2 0x5D2 SWAP2 SWAP1 PUSH2 0x281A JUMP JUMPDEST SWAP7 POP POP POP POP POP POP POP JUMPDEST SWAP1 JUMP JUMPDEST PUSH1 0x60 PUSH1 0x40 MLOAD DUP1 PUSH1 0x40 ADD PUSH1 0x40 MSTORE DUP1 PUSH1 0x13 DUP2 MSTORE PUSH1 0x20 ADD PUSH32 0x42617374696F6E20434554455320416C70686100000000000000000000000000 DUP2 MSTORE POP SWAP1 POP SWAP1 JUMP JUMPDEST PUSH32 0x0 DUP2 JUMP JUMPDEST PUSH0 PUSH20 0x833589FCD6EDB6E08F4C7C32D4F71B54BDA02913 SWAP1 POP SWAP1 JUMP JUMPDEST PUSH32 0x0 DUP2 JUMP JUMPDEST PUSH32 0x0 DUP2 JUMP JUMPDEST PUSH32 0x0 DUP2 JUMP JUMPDEST PUSH1 0xA DUP2 JUMP JUMPDEST PUSH32 0x0 PUSH20 0xFFFFFFFFFFFFFFFFFFFFFFFFFFFFFFFFFFFFFFFF AND CALLER PUSH20 0xFFFFFFFFFFFFFFFFFFFFFFFFFFFFFFFFFFFFFFFF AND EQ PUSH2 0x759 JUMPI PUSH1 0x40 MLOAD PUSH32 0x8C379A000000000000000000000000000000000000000000000000000000000 DUP2 MSTORE PUSH1 0x4 ADD PUSH2 0x750 SWAP1 PUSH2 0x2897 JUMP JUMPDEST PUSH1 0x40 MLOAD DUP1 SWAP2 SUB SWAP1 REVERT JUMPDEST PUSH0 DUP5 SUB PUSH2 0x792 JUMPI PUSH1 0x40 MLOAD PUSH32 0xCBCA5AA200000000000000000000000000000000000000000000000000000000 DUP2 MSTORE PUSH1 0x4 ADD PUSH1 0x40 MLOAD DUP1 SWAP2 SUB SWAP1 REVERT JUMPDEST PUSH2 0x7FF PUSH32 0x0 ADDRESS DUP7 PUSH32 0x0 PUSH20 0xFFFFFFFFFFFFFFFFFFFFFFFFFFFFFFFFFFFFFFFF AND PUSH2 0x14AF SWAP1 SWAP4 SWAP3 SWAP2 SWAP1 PUSH4 0xFFFFFFFF AND JUMP JUMPDEST PUSH32 0x0 PUSH20 0xFFFFFFFFFFFFFFFFFFFFFFFFFFFFFFFFFFFFFFFF AND PUSH4 0x151C1ADE PUSH0 PUSH1 0x40 MLOAD DUP3 PUSH4 0xFFFFFFFF AND PUSH1 0xE0 SHL DUP2 MSTORE PUSH1 0x4 ADD PUSH2 0x858 SWAP2 SWAP1 PUSH2 0x29D7 JUMP JUMPDEST PUSH0 PUSH1 0x40 MLOAD DUP1 DUP4 SUB DUP2 PUSH0 DUP8 DUP1 EXTCODESIZE ISZERO DUP1 ISZERO PUSH2 0x86F JUMPI PUSH0 DUP1 REVERT JUMPDEST POP GAS CALL ISZERO DUP1 ISZERO PUSH2 0x881 JUMPI RETURNDATASIZE PUSH0 DUP1 RETURNDATACOPY RETURNDATASIZE PUSH0 REVERT JUMPDEST POP POP POP POP PUSH0 DUP5 SWAP1 POP PUSH0 DUP1 PUSH0 SWAP1 POP JUMPDEST PUSH1 0x3 DUP2 LT ISZERO PUSH2 0xA2A JUMPI PUSH2 0x2710 DUP4 LT PUSH2 0xA2A JUMPI PUSH0 PUSH2 0x8AB DUP5 PUSH2 0x1571 JUMP JUMPDEST SWAP1 POP DUP1 DUP4 PUSH2 0x8B9 SWAP2 SWAP1 PUSH2 0x29F0 JUMP JUMPDEST SWAP3 POP PUSH32 0x0 PUSH20 0xFFFFFFFFFFFFFFFFFFFFFFFFFFFFFFFFFFFFFFFF AND PUSH4 0x238D6579 PUSH0 DUP4 ADDRESS PUSH1 0x40 MLOAD DUP5 PUSH4 0xFFFFFFFF AND PUSH1 0xE0 SHL DUP2 MSTORE PUSH1 0x4 ADD PUSH2 0x918 SWAP4 SWAP3 SWAP2 SWAP1 PUSH2 0x2A56 JUMP JUMPDEST PUSH0 PUSH1 0x40 MLOAD DUP1 DUP4 SUB DUP2 PUSH0 DUP8 DUP1 EXTCODESIZE ISZERO DUP1 ISZERO PUSH2 0x92F JUMPI PUSH0 DUP1 REVERT JUMPDEST POP GAS CALL ISZERO DUP1 ISZERO PUSH2 0x941 JUMPI RETURNDATASIZE PUSH0 DUP1 RETURNDATACOPY RETURNDATASIZE PUSH0 REVERT JUMPDEST POP POP POP POP PUSH1 0x2 DUP3 LT ISZERO PUSH2 0xA16 JUMPI PUSH0 PUSH2 0x957 PUSH2 0x17CF JUMP JUMPDEST SWAP1 POP PUSH2 0x2710 DUP2 GT ISZERO PUSH2 0xA10 JUMPI PUSH0 PUSH32 0x0 PUSH20 0xFFFFFFFFFFFFFFFFFFFFFFFFFFFFFFFFFFFFFFFF AND PUSH4 0x50D8CD4B PUSH0 DUP5 PUSH0 ADDRESS ADDRESS PUSH1 0x40 MLOAD DUP7 PUSH4 0xFFFFFFFF AND PUSH1 0xE0 SHL DUP2 MSTORE PUSH1 0x4 ADD PUSH2 0x9C5 SWAP6 SWAP5 SWAP4 SWAP3 SWAP2 SWAP1 PUSH2 0x2AD8 JUMP JUMPDEST PUSH1 0x40 DUP1 MLOAD DUP1 DUP4 SUB DUP2 PUSH0 DUP8 GAS CALL ISZERO DUP1 ISZERO PUSH2 0x9E0 JUMPI RETURNDATASIZE PUSH0 DUP1 RETURNDATACOPY RETURNDATASIZE PUSH0 REVERT JUMPDEST POP POP POP POP PUSH1 0x40 MLOAD RETURNDATASIZE PUSH1 0x1F NOT PUSH1 0x1F DUP3 ADD AND DUP3 ADD DUP1 PUSH1 0x40 MSTORE POP DUP2 ADD SWAP1 PUSH2 0xA04 SWAP2 SWAP1 PUSH2 0x2B2B JUMP JUMPDEST POP SWAP1 POP DUP1 SWAP6 POP POP PUSH2 0xA14 JUMP JUMPDEST PUSH0 SWAP5 POP JUMPDEST POP JUMPDEST POP DUP1 DUP1 PUSH2 0xA22 SWAP1 PUSH2 0x2B69 JUMP JUMPDEST SWAP2 POP POP PUSH2 0x88F JUMP JUMPDEST POP PUSH32 0x9AEF77DFB00E64825B336EE02A46FEDC85577C91809066957AAAF30A5CFEF88B DUP7 DUP3 PUSH1 0x40 MLOAD PUSH2 0xA5C SWAP3 SWAP2 SWAP1 PUSH2 0x2BB0 JUMP JUMPDEST PUSH1 0x40 MLOAD DUP1 SWAP2 SUB SWAP1 LOG1 POP POP POP POP POP POP JUMP JUMPDEST PUSH0 ADDRESS PUSH1 0x40 MLOAD PUSH1 0x20 ADD PUSH2 0xA7E SWAP2 SWAP1 PUSH2 0x2C21 JUMP JUMPDEST PUSH1 0x40 MLOAD PUSH1 0x20 DUP2 DUP4 SUB SUB DUP2 MSTORE SWAP1 PUSH1 0x40 MSTORE DUP1 MLOAD SWAP1 PUSH1 0x20 ADD KECCAK256 SWAP1 POP SWAP1 JUMP JUMPDEST PUSH32 0x0 PUSH20 0xFFFFFFFFFFFFFFFFFFFFFFFFFFFFFFFFFFFFFFFF AND CALLER PUSH20 0xFFFFFFFFFFFFFFFFFFFFFFFFFFFFFFFFFFFFFFFF AND EQ PUSH2 0xB27 JUMPI PUSH1 0x40 MLOAD PUSH32 0x8C379A000000000000000000000000000000000000000000000000000000000 DUP2 MSTORE PUSH1 0x4 ADD PUSH2 0xB1E SWAP1 PUSH2 0x2897 JUMP JUMPDEST PUSH1 0x40 MLOAD DUP1 SWAP2 SUB SWAP1 REVERT JUMPDEST PUSH0 DUP5 SUB PUSH2 0xB60 JUMPI PUSH1 0x40 MLOAD PUSH32 0xCBCA5AA200000000000000000000000000000000000000000000000000000000 DUP2 MSTORE PUSH1 0x4 ADD PUSH1 0x40 MLOAD DUP1 SWAP2 SUB SWAP1 REVERT JUMPDEST PUSH0 PUSH32 0x0 PUSH20 0xFFFFFFFFFFFFFFFFFFFFFFFFFFFFFFFFFFFFFFFF AND PUSH4 0x70A08231 ADDRESS PUSH1 0x40 MLOAD DUP3 PUSH4 0xFFFFFFFF AND PUSH1 0xE0 SHL DUP2 MSTORE PUSH1 0x4 ADD PUSH2 0xBBA SWAP2 SWAP1 PUSH2 0x22FA JUMP JUMPDEST PUSH1 0x20 PUSH1 0x40 MLOAD DUP1 DUP4 SUB DUP2 DUP7 GAS STATICCALL ISZERO DUP1 ISZERO PUSH2 0xBD5 JUMPI RETURNDATASIZE PUSH0 DUP1 RETURNDATACOPY RETURNDATASIZE PUSH0 REVERT JUMPDEST POP POP POP POP PUSH1 0x40 MLOAD RETURNDATASIZE PUSH1 0x1F NOT PUSH1 0x1F DUP3 ADD AND DUP3 ADD DUP1 PUSH1 0x40 MSTORE POP DUP2 ADD SWAP1 PUSH2 0xBF9 SWAP2 SWAP1 PUSH2 0x27C2 JUMP JUMPDEST SWAP1 POP DUP5 DUP2 LT PUSH2 0xC53 JUMPI PUSH2 0xC4D DUP5 DUP7 PUSH32 0x0 PUSH20 0xFFFFFFFFFFFFFFFFFFFFFFFFFFFFFFFFFFFFFFFF AND PUSH2 0x1ACA SWAP1 SWAP3 SWAP2 SWAP1 PUSH4 0xFFFFFFFF AND JUMP JUMPDEST POP PUSH2 0x12FE JUMP JUMPDEST PUSH32 0x0 PUSH20 0xFFFFFFFFFFFFFFFFFFFFFFFFFFFFFFFFFFFFFFFF AND PUSH4 0x151C1ADE PUSH0 PUSH1 0x40 MLOAD DUP3 PUSH4 0xFFFFFFFF AND PUSH1 0xE0 SHL DUP2 MSTORE PUSH1 0x4 ADD PUSH2 0xCAC SWAP2 SWAP1 PUSH2 0x29D7 JUMP JUMPDEST PUSH0 PUSH1 0x40 MLOAD DUP1 DUP4 SUB DUP2 PUSH0 DUP8 DUP1 EXTCODESIZE ISZERO DUP1 ISZERO PUSH2 0xCC3 JUMPI PUSH0 DUP1 REVERT JUMPDEST POP GAS CALL ISZERO DUP1 ISZERO PUSH2 0xCD5 JUMPI RETURNDATASIZE PUSH0 DUP1 RETURNDATACOPY RETURNDATASIZE PUSH0 REVERT JUMPDEST POP POP POP POP PUSH0 JUMPDEST PUSH1 0x5 DUP2 LT ISZERO PUSH2 0x11C6 JUMPI PUSH0 PUSH32 0x0 PUSH20 0xFFFFFFFFFFFFFFFFFFFFFFFFFFFFFFFFFFFFFFFF AND PUSH4 0x70A08231 ADDRESS PUSH1 0x40 MLOAD DUP3 PUSH4 0xFFFFFFFF AND PUSH1 0xE0 SHL DUP2 MSTORE PUSH1 0x4 ADD PUSH2 0xD3E SWAP2 SWAP1 PUSH2 0x22FA JUMP JUMPDEST PUSH1 0x20 PUSH1 0x40 MLOAD DUP1 DUP4 SUB DUP2 DUP7 GAS STATICCALL ISZERO DUP1 ISZERO PUSH2 0xD59 JUMPI RETURNDATASIZE PUSH0 DUP1 RETURNDATACOPY RETURNDATASIZE PUSH0 REVERT JUMPDEST POP POP POP POP PUSH1 0x40 MLOAD RETURNDATASIZE PUSH1 0x1F NOT PUSH1 0x1F DUP3 ADD AND DUP3 ADD DUP1 PUSH1 0x40 MSTORE POP DUP2 ADD SWAP1 PUSH2 0xD7D SWAP2 SWAP1 PUSH2 0x27C2 JUMP JUMPDEST DUP8 GT PUSH2 0xD89 JUMPI PUSH0 PUSH2 0xE2D JUMP JUMPDEST PUSH32 0x0 PUSH20 0xFFFFFFFFFFFFFFFFFFFFFFFFFFFFFFFFFFFFFFFF AND PUSH4 0x70A08231 ADDRESS PUSH1 0x40 MLOAD DUP3 PUSH4 0xFFFFFFFF AND PUSH1 0xE0 SHL DUP2 MSTORE PUSH1 0x4 ADD PUSH2 0xDE2 SWAP2 SWAP1 PUSH2 0x22FA JUMP JUMPDEST PUSH1 0x20 PUSH1 0x40 MLOAD DUP1 DUP4 SUB DUP2 DUP7 GAS STATICCALL ISZERO DUP1 ISZERO PUSH2 0xDFD JUMPI RETURNDATASIZE PUSH0 DUP1 RETURNDATACOPY RETURNDATASIZE PUSH0 REVERT JUMPDEST POP POP POP POP PUSH1 0x40 MLOAD RETURNDATASIZE PUSH1 0x1F NOT PUSH1 0x1F DUP3 ADD AND DUP3 ADD DUP1 PUSH1 0x40 MSTORE POP DUP2 ADD SWAP1 PUSH2 0xE21 SWAP2 SWAP1 PUSH2 0x27C2 JUMP JUMPDEST DUP8 PUSH2 0xE2C SWAP2 SWAP1 PUSH2 0x281A JUMP JUMPDEST JUMPDEST SWAP1 POP PUSH2 0x2710 DUP2 LT ISZERO PUSH2 0xE3F JUMPI POP PUSH2 0x11C6 JUMP JUMPDEST PUSH0 PUSH2 0xE48 PUSH2 0x1B89 JUMP JUMPDEST SWAP1 POP PUSH0 DUP2 SUB PUSH2 0xE58 JUMPI POP POP PUSH2 0x11C6 JUMP JUMPDEST PUSH32 0x0 PUSH20 0xFFFFFFFFFFFFFFFFFFFFFFFFFFFFFFFFFFFFFFFF AND PUSH4 0x8720316D PUSH0 DUP4 ADDRESS ADDRESS PUSH1 0x40 MLOAD DUP6 PUSH4 0xFFFFFFFF AND PUSH1 0xE0 SHL DUP2 MSTORE PUSH1 0x4 ADD PUSH2 0xEB7 SWAP5 SWAP4 SWAP3 SWAP2 SWAP1 PUSH2 0x2C4D JUMP JUMPDEST PUSH0 PUSH1 0x40 MLOAD DUP1 DUP4 SUB DUP2 PUSH0 DUP8 DUP1 EXTCODESIZE ISZERO DUP1 ISZERO PUSH2 0xECE JUMPI PUSH0 DUP1 REVERT JUMPDEST POP GAS CALL ISZERO DUP1 ISZERO PUSH2 0xEE0 JUMPI RETURNDATASIZE PUSH0 DUP1 RETURNDATACOPY RETURNDATASIZE PUSH0 REVERT JUMPDEST POP POP POP POP PUSH0 PUSH2 0xEEE DUP3 PUSH2 0x1EF6 JUMP JUMPDEST SWAP1 POP PUSH0 PUSH32 0x0 PUSH20 0xFFFFFFFFFFFFFFFFFFFFFFFFFFFFFFFFFFFFFFFF AND PUSH4 0x93C52062 PUSH32 0x0 ADDRESS PUSH1 0x40 MLOAD DUP4 PUSH4 0xFFFFFFFF AND PUSH1 0xE0 SHL DUP2 MSTORE PUSH1 0x4 ADD PUSH2 0xF6C SWAP3 SWAP2 SWAP1 PUSH2 0x2572 JUMP JUMPDEST PUSH1 0x60 PUSH1 0x40 MLOAD DUP1 DUP4 SUB DUP2 DUP7 GAS STATICCALL ISZERO DUP1 ISZERO PUSH2 0xF87 JUMPI RETURNDATASIZE PUSH0 DUP1 RETURNDATACOPY RETURNDATASIZE PUSH0 REVERT JUMPDEST POP POP POP POP PUSH1 0x40 MLOAD RETURNDATASIZE PUSH1 0x1F NOT PUSH1 0x1F DUP3 ADD AND DUP3 ADD DUP1 PUSH1 0x40 MSTORE POP DUP2 ADD SWAP1 PUSH2 0xFAB SWAP2 SWAP1 PUSH2 0x26CF JUMP JUMPDEST SWAP1 POP PUSH0 DUP2 PUSH1 0x20 ADD MLOAD PUSH16 0xFFFFFFFFFFFFFFFFFFFFFFFFFFFFFFFF AND GT ISZERO PUSH2 0x11AF JUMPI PUSH0 PUSH32 0x0 PUSH20 0xFFFFFFFFFFFFFFFFFFFFFFFFFFFFFFFFFFFFFFFF AND PUSH4 0x5C60E39A PUSH32 0x0 PUSH1 0x40 MLOAD DUP3 PUSH4 0xFFFFFFFF AND PUSH1 0xE0 SHL DUP2 MSTORE PUSH1 0x4 ADD PUSH2 0x1045 SWAP2 SWAP1 PUSH2 0x2364 JUMP JUMPDEST PUSH1 0xC0 PUSH1 0x40 MLOAD DUP1 DUP4 SUB DUP2 DUP7 GAS STATICCALL ISZERO DUP1 ISZERO PUSH2 0x1060 JUMPI RETURNDATASIZE PUSH0 DUP1 RETURNDATACOPY RETURNDATASIZE PUSH0 REVERT JUMPDEST POP POP POP POP PUSH1 0x40 MLOAD RETURNDATASIZE PUSH1 0x1F NOT PUSH1 0x1F DUP3 ADD AND DUP3 ADD DUP1 PUSH1 0x40 MSTORE POP DUP2 ADD SWAP1 PUSH2 0x1084 SWAP2 SWAP1 PUSH2 0x2797 JUMP JUMPDEST SWAP1 POP PUSH0 PUSH2 0x10C6 DUP3 PUSH1 0x40 ADD MLOAD PUSH16 0xFFFFFFFFFFFFFFFFFFFFFFFFFFFFFFFF AND PUSH8 0xDE0B6B3A7640000 DUP5 PUSH1 0x60 ADD MLOAD PUSH16 0xFFFFFFFFFFFFFFFFFFFFFFFFFFFFFFFF AND PUSH2 0x13EA JUMP JUMPDEST SWAP1 POP PUSH0 PUSH2 0x10F2 DUP5 PUSH1 0x20 ADD MLOAD PUSH16 0xFFFFFFFFFFFFFFFFFFFFFFFFFFFFFFFF AND DUP4 PUSH8 0xDE0B6B3A7640000 PUSH2 0x1471 JUMP JUMPDEST SWAP1 POP PUSH0 PUSH2 0x10FF DUP7 DUP4 PUSH2 0x2154 JUMP JUMPDEST SWAP1 POP PUSH0 DUP2 GT ISZERO PUSH2 0x11AA JUMPI PUSH32 0x0 PUSH20 0xFFFFFFFFFFFFFFFFFFFFFFFFFFFFFFFFFFFFFFFF AND PUSH4 0x20B76E81 PUSH0 DUP4 PUSH0 ADDRESS PUSH1 0x40 MLOAD DUP6 PUSH4 0xFFFFFFFF AND PUSH1 0xE0 SHL DUP2 MSTORE PUSH1 0x4 ADD PUSH2 0x1168 SWAP5 SWAP4 SWAP3 SWAP2 SWAP1 PUSH2 0x2C91 JUMP JUMPDEST PUSH1 0x40 DUP1 MLOAD DUP1 DUP4 SUB DUP2 PUSH0 DUP8 GAS CALL ISZERO DUP1 ISZERO PUSH2 0x1183 JUMPI RETURNDATASIZE PUSH0 DUP1 RETURNDATACOPY RETURNDATASIZE PUSH0 REVERT JUMPDEST POP POP POP POP PUSH1 0x40 MLOAD RETURNDATASIZE PUSH1 0x1F NOT PUSH1 0x1F DUP3 ADD AND DUP3 ADD DUP1 PUSH1 0x40 MSTORE POP DUP2 ADD SWAP1 PUSH2 0x11A7 SWAP2 SWAP1 PUSH2 0x2B2B JUMP JUMPDEST POP POP JUMPDEST POP POP POP POP JUMPDEST POP POP POP POP DUP1 DUP1 PUSH2 0x11BE SWAP1 PUSH2 0x2B69 JUMP JUMPDEST SWAP2 POP POP PUSH2 0xCDB JUMP JUMPDEST POP PUSH0 PUSH32 0x0 PUSH20 0xFFFFFFFFFFFFFFFFFFFFFFFFFFFFFFFFFFFFFFFF AND PUSH4 0x70A08231 ADDRESS PUSH1 0x40 MLOAD DUP3 PUSH4 0xFFFFFFFF AND PUSH1 0xE0 SHL DUP2 MSTORE PUSH1 0x4 ADD PUSH2 0x1221 SWAP2 SWAP1 PUSH2 0x22FA JUMP JUMPDEST PUSH1 0x20 PUSH1 0x40 MLOAD DUP1 DUP4 SUB DUP2 DUP7 GAS STATICCALL ISZERO DUP1 ISZERO PUSH2 0x123C JUMPI RETURNDATASIZE PUSH0 DUP1 RETURNDATACOPY RETURNDATASIZE PUSH0 REVERT JUMPDEST POP POP POP POP PUSH1 0x40 MLOAD RETURNDATASIZE PUSH1 0x1F NOT PUSH1 0x1F DUP3 ADD AND DUP3 ADD DUP1 PUSH1 0x40 MSTORE POP DUP2 ADD SWAP1 PUSH2 0x1260 SWAP2 SWAP1 PUSH2 0x27C2 JUMP JUMPDEST SWAP1 POP PUSH0 PUSH2 0x126D DUP3 DUP9 PUSH2 0x2154 JUMP JUMPDEST SWAP1 POP PUSH0 DUP2 GT ISZERO PUSH2 0x12C3 JUMPI PUSH2 0x12C2 DUP7 DUP3 PUSH32 0x0 PUSH20 0xFFFFFFFFFFFFFFFFFFFFFFFFFFFFFFFFFFFFFFFF AND PUSH2 0x1ACA SWAP1 SWAP3 SWAP2 SWAP1 PUSH4 0xFFFFFFFF AND JUMP JUMPDEST JUMPDEST PUSH32 0x24DDC2BDB7DF6A011A5E296C52506EC03B78B16D9CD004F5B868C0701C31415A DUP2 PUSH1 0x40 MLOAD PUSH2 0x12F2 SWAP2 SWAP1 PUSH2 0x2184 JUMP JUMPDEST PUSH1 0x40 MLOAD DUP1 SWAP2 SUB SWAP1 LOG1 POP POP POP JUMPDEST POP POP POP POP JUMP JUMPDEST PUSH0 DUP1 PUSH0 ADD PUSH0 SWAP1 SLOAD SWAP1 PUSH2 0x100 EXP SWAP1 DIV PUSH20 0xFFFFFFFFFFFFFFFFFFFFFFFFFFFFFFFFFFFFFFFF AND SWAP1 DUP1 PUSH1 0x1 ADD PUSH0 SWAP1 SLOAD SWAP1 PUSH2 0x100 EXP SWAP1 DIV PUSH20 0xFFFFFFFFFFFFFFFFFFFFFFFFFFFFFFFFFFFFFFFF AND SWAP1 DUP1 PUSH1 0x2 ADD PUSH0 SWAP1 SLOAD SWAP1 PUSH2 0x100 EXP SWAP1 DIV PUSH20 0xFFFFFFFFFFFFFFFFFFFFFFFFFFFFFFFFFFFFFFFF AND SWAP1 DUP1 PUSH1 0x3 ADD PUSH0 SWAP1 SLOAD SWAP1 PUSH2 0x100 EXP SWAP1 DIV PUSH20 0xFFFFFFFFFFFFFFFFFFFFFFFFFFFFFFFFFFFFFFFF AND SWAP1 DUP1 PUSH1 0x4 ADD SLOAD SWAP1 POP DUP6 JUMP JUMPDEST PUSH32 0x0 DUP2 JUMP JUMPDEST PUSH32 0x0 DUP2 JUMP JUMPDEST PUSH0 DUP1 PUSH0 DUP1 NOT DUP6 DUP8 MULMOD DUP6 DUP8 MUL SWAP3 POP DUP3 DUP2 LT DUP4 DUP3 SUB SUB SWAP2 POP POP PUSH0 DUP2 SUB PUSH2 0x141F JUMPI PUSH0 DUP5 GT PUSH2 0x1413 JUMPI PUSH0 DUP1 REVERT JUMPDEST DUP4 DUP3 DIV SWAP3 POP POP POP PUSH2 0x146A JUMP JUMPDEST DUP1 DUP5 GT PUSH2 0x142A JUMPI PUSH0 DUP1 REVERT JUMPDEST PUSH0 DUP5 DUP7 DUP9 MULMOD SWAP1 POP DUP3 DUP2 GT DUP3 SUB SWAP2 POP DUP1 DUP4 SUB SWAP3 POP PUSH0 PUSH1 0x1 DUP7 NOT ADD DUP7 AND SWAP1 POP DUP1 DUP7 DIV SWAP6 POP DUP1 DUP5 DIV SWAP4 POP PUSH1 0x1 DUP2 DUP3 PUSH0 SUB DIV ADD SWAP1 POP DUP1 DUP5 MUL SWAP4 POP DUP3 DUP5 MUL SWAP5 POP POP POP POP POP JUMPDEST SWAP4 SWAP3 POP POP POP JUMP JUMPDEST PUSH0 PUSH2 0x147D DUP5 DUP5 DUP5 PUSH2 0x13EA JUMP JUMPDEST SWAP1 POP PUSH0 DUP3 DUP1 PUSH2 0x148F JUMPI PUSH2 0x148E PUSH2 0x2CE9 JUMP JUMPDEST JUMPDEST DUP5 DUP7 MULMOD GT ISZERO PUSH2 0x14A8 JUMPI PUSH1 0x1 DUP2 PUSH2 0x14A5 SWAP2 SWAP1 PUSH2 0x29F0 JUMP JUMPDEST SWAP1 POP JUMPDEST SWAP4 SWAP3 POP POP POP JUMP JUMPDEST DUP4 PUSH20 0xFFFFFFFFFFFFFFFFFFFFFFFFFFFFFFFFFFFFFFFF AND PUSH4 0x23B872DD DUP5 DUP5 DUP5 PUSH1 0x40 MLOAD DUP5 PUSH4 0xFFFFFFFF AND PUSH1 0xE0 SHL DUP2 MSTORE PUSH1 0x4 ADD PUSH2 0x14EC SWAP4 SWAP3 SWAP2 SWAP1 PUSH2 0x2D16 JUMP JUMPDEST PUSH1 0x20 PUSH1 0x40 MLOAD DUP1 DUP4 SUB DUP2 PUSH0 DUP8 GAS CALL ISZERO DUP1 ISZERO PUSH2 0x1508 JUMPI RETURNDATASIZE PUSH0 DUP1 RETURNDATACOPY RETURNDATASIZE PUSH0 REVERT JUMPDEST POP POP POP POP PUSH1 0x40 MLOAD RETURNDATASIZE PUSH1 0x1F NOT PUSH1 0x1F DUP3 ADD AND DUP3 ADD DUP1 PUSH1 0x40 MSTORE POP DUP2 ADD SWAP1 PUSH2 0x152C SWAP2 SWAP1 PUSH2 0x2D80 JUMP JUMPDEST PUSH2 0x156B JUMPI PUSH1 0x40 MLOAD PUSH32 0x8C379A000000000000000000000000000000000000000000000000000000000 DUP2 MSTORE PUSH1 0x4 ADD PUSH2 0x1562 SWAP1 PUSH2 0x2DF5 JUMP JUMPDEST PUSH1 0x40 MLOAD DUP1 SWAP2 SUB SWAP1 REVERT JUMPDEST POP POP POP POP JUMP JUMPDEST PUSH0 DUP1 PUSH0 PUSH1 0x2 ADD PUSH0 SWAP1 SLOAD SWAP1 PUSH2 0x100 EXP SWAP1 DIV PUSH20 0xFFFFFFFFFFFFFFFFFFFFFFFFFFFFFFFFFFFFFFFF AND PUSH20 0xFFFFFFFFFFFFFFFFFFFFFFFFFFFFFFFFFFFFFFFF AND PUSH4 0xA035B1FE PUSH1 0x40 MLOAD DUP2 PUSH4 0xFFFFFFFF AND PUSH1 0xE0 SHL DUP2 MSTORE PUSH1 0x4 ADD PUSH1 0x20 PUSH1 0x40 MLOAD DUP1 DUP4 SUB DUP2 DUP7 GAS STATICCALL ISZERO DUP1 ISZERO PUSH2 0x15DF JUMPI RETURNDATASIZE PUSH0 DUP1 RETURNDATACOPY RETURNDATASIZE PUSH0 REVERT JUMPDEST POP POP POP POP PUSH1 0x40 MLOAD RETURNDATASIZE PUSH1 0x1F NOT PUSH1 0x1F DUP3 ADD AND DUP3 ADD DUP1 PUSH1 0x40 MSTORE POP DUP2 ADD SWAP1 PUSH2 0x1603 SWAP2 SWAP1 PUSH2 0x27C2 JUMP JUMPDEST SWAP1 POP PUSH0 PUSH2 0x1620 DUP5 PUSH15 0xC097CE7BC90715B34B9F1000000000 DUP5 PUSH2 0x13EA JUMP JUMPDEST SWAP1 POP PUSH0 PUSH2 0x1650 DUP3 PUSH7 0x11C37937E08000 PUSH8 0xDE0B6B3A7640000 PUSH2 0x1642 SWAP2 SWAP1 PUSH2 0x281A JUMP JUMPDEST PUSH8 0xDE0B6B3A7640000 PUSH2 0x13EA JUMP JUMPDEST SWAP1 POP PUSH0 PUSH1 0x40 MLOAD DUP1 PUSH2 0x100 ADD PUSH1 0x40 MSTORE DUP1 PUSH32 0x0 PUSH20 0xFFFFFFFFFFFFFFFFFFFFFFFFFFFFFFFFFFFFFFFF AND DUP2 MSTORE PUSH1 0x20 ADD PUSH32 0x0 PUSH20 0xFFFFFFFFFFFFFFFFFFFFFFFFFFFFFFFFFFFFFFFF AND DUP2 MSTORE PUSH1 0x20 ADD PUSH1 0xA PUSH1 0x2 SIGNEXTEND DUP2 MSTORE PUSH1 0x20 ADD ADDRESS PUSH20 0xFFFFFFFFFFFFFFFFFFFFFFFFFFFFFFFFFFFFFFFF AND DUP2 MSTORE PUSH1 0x20 ADD TIMESTAMP DUP2 MSTORE PUSH1 0x20 ADD DUP8 DUP2 MSTORE PUSH1 0x20 ADD DUP4 DUP2 MSTORE PUSH1 0x20 ADD PUSH0 PUSH20 0xFFFFFFFFFFFFFFFFFFFFFFFFFFFFFFFFFFFFFFFF AND DUP2 MSTORE POP SWAP1 POP PUSH32 0x0 PUSH20 0xFFFFFFFFFFFFFFFFFFFFFFFFFFFFFFFFFFFFFFFF AND PUSH4 0xA026383E DUP3 PUSH1 0x40 MLOAD DUP3 PUSH4 0xFFFFFFFF AND PUSH1 0xE0 SHL DUP2 MSTORE PUSH1 0x4 ADD PUSH2 0x1784 SWAP2 SWAP1 PUSH2 0x2ED1 JUMP JUMPDEST PUSH1 0x20 PUSH1 0x40 MLOAD DUP1 DUP4 SUB DUP2 PUSH0 DUP8 GAS CALL ISZERO DUP1 ISZERO PUSH2 0x17A0 JUMPI RETURNDATASIZE PUSH0 DUP1 RETURNDATACOPY RETURNDATASIZE PUSH0 REVERT JUMPDEST POP POP POP POP PUSH1 0x40 MLOAD RETURNDATASIZE PUSH1 0x1F NOT PUSH1 0x1F DUP3 ADD AND DUP3 ADD DUP1 PUSH1 0x40 MSTORE POP DUP2 ADD SWAP1 PUSH2 0x17C4 SWAP2 SWAP1 PUSH2 0x27C2 JUMP JUMPDEST SWAP5 POP POP POP POP POP SWAP2 SWAP1 POP JUMP JUMPDEST PUSH0 DUP1 PUSH32 0x0 PUSH20 0xFFFFFFFFFFFFFFFFFFFFFFFFFFFFFFFFFFFFFFFF AND PUSH4 0x93C52062 PUSH32 0x0 ADDRESS PUSH1 0x40 MLOAD DUP4 PUSH4 0xFFFFFFFF AND PUSH1 0xE0 SHL DUP2 MSTORE PUSH1 0x4 ADD PUSH2 0x184C SWAP3 SWAP2 SWAP1 PUSH2 0x2572 JUMP JUMPDEST PUSH1 0x60 PUSH1 0x40 MLOAD DUP1 DUP4 SUB DUP2 DUP7 GAS STATICCALL ISZERO DUP1 ISZERO PUSH2 0x1867 JUMPI RETURNDATASIZE PUSH0 DUP1 RETURNDATACOPY RETURNDATASIZE PUSH0 REVERT JUMPDEST POP POP POP POP PUSH1 0x40 MLOAD RETURNDATASIZE PUSH1 0x1F NOT PUSH1 0x1F DUP3 ADD AND DUP3 ADD DUP1 PUSH1 0x40 MSTORE POP DUP2 ADD SWAP1 PUSH2 0x188B SWAP2 SWAP1 PUSH2 0x26CF JUMP JUMPDEST SWAP1 POP PUSH0 PUSH32 0x0 PUSH20 0xFFFFFFFFFFFFFFFFFFFFFFFFFFFFFFFFFFFFFFFF AND PUSH4 0x5C60E39A PUSH32 0x0 PUSH1 0x40 MLOAD DUP3 PUSH4 0xFFFFFFFF AND PUSH1 0xE0 SHL DUP2 MSTORE PUSH1 0x4 ADD PUSH2 0x1907 SWAP2 SWAP1 PUSH2 0x2364 JUMP JUMPDEST PUSH1 0xC0 PUSH1 0x40 MLOAD DUP1 DUP4 SUB DUP2 DUP7 GAS STATICCALL ISZERO DUP1 ISZERO PUSH2 0x1922 JUMPI RETURNDATASIZE PUSH0 DUP1 RETURNDATACOPY RETURNDATASIZE PUSH0 REVERT JUMPDEST POP POP POP POP PUSH1 0x40 MLOAD RETURNDATASIZE PUSH1 0x1F NOT PUSH1 0x1F DUP3 ADD AND DUP3 ADD DUP1 PUSH1 0x40 MSTORE POP DUP2 ADD SWAP1 PUSH2 0x1946 SWAP2 SWAP1 PUSH2 0x2797 JUMP JUMPDEST SWAP1 POP PUSH0 DUP1 PUSH1 0x2 ADD PUSH0 SWAP1 SLOAD SWAP1 PUSH2 0x100 EXP SWAP1 DIV PUSH20 0xFFFFFFFFFFFFFFFFFFFFFFFFFFFFFFFFFFFFFFFF AND PUSH20 0xFFFFFFFFFFFFFFFFFFFFFFFFFFFFFFFFFFFFFFFF AND PUSH4 0xA035B1FE PUSH1 0x40 MLOAD DUP2 PUSH4 0xFFFFFFFF AND PUSH1 0xE0 SHL DUP2 MSTORE PUSH1 0x4 ADD PUSH1 0x20 PUSH1 0x40 MLOAD DUP1 DUP4 SUB DUP2 DUP7 GAS STATICCALL ISZERO DUP1 ISZERO PUSH2 0x19B5 JUMPI RETURNDATASIZE PUSH0 DUP1 RETURNDATACOPY RETURNDATASIZE PUSH0 REVERT JUMPDEST POP POP POP POP PUSH1 0x40 MLOAD RETURNDATASIZE PUSH1 0x1F NOT PUSH1 0x1F DUP3 ADD AND DUP3 ADD DUP1 PUSH1 0x40 MSTORE POP DUP2 ADD SWAP1 PUSH2 0x19D9 SWAP2 SWAP1 PUSH2 0x27C2 JUMP JUMPDEST SWAP1 POP PUSH0 PUSH2 0x1A0C DUP5 PUSH1 0x40 ADD MLOAD PUSH16 0xFFFFFFFFFFFFFFFFFFFFFFFFFFFFFFFF AND DUP4 PUSH15 0xC097CE7BC90715B34B9F1000000000 PUSH2 0x13EA JUMP JUMPDEST SWAP1 POP PUSH0 PUSH2 0x1A2A DUP3 PUSH8 0xB1A2BC2EC500000 PUSH8 0xDE0B6B3A7640000 PUSH2 0x13EA JUMP JUMPDEST SWAP1 POP PUSH0 PUSH2 0x1A6C DUP6 PUSH1 0x40 ADD MLOAD PUSH16 0xFFFFFFFFFFFFFFFFFFFFFFFFFFFFFFFF AND PUSH8 0xDE0B6B3A7640000 DUP8 PUSH1 0x60 ADD MLOAD PUSH16 0xFFFFFFFFFFFFFFFFFFFFFFFFFFFFFFFF AND PUSH2 0x13EA JUMP JUMPDEST SWAP1 POP PUSH0 PUSH2 0x1A98 DUP8 PUSH1 0x20 ADD MLOAD PUSH16 0xFFFFFFFFFFFFFFFFFFFFFFFFFFFFFFFF AND DUP4 PUSH8 0xDE0B6B3A7640000 PUSH2 0x1471 JUMP JUMPDEST SWAP1 POP DUP1 DUP4 GT ISZERO PUSH2 0x1ABC JUMPI DUP1 DUP4 PUSH2 0x1AAE SWAP2 SWAP1 PUSH2 0x281A JUMP JUMPDEST SWAP8 POP POP POP POP POP POP POP POP PUSH2 0x1AC7 JUMP JUMPDEST PUSH0 SWAP8 POP POP POP POP POP POP POP POP JUMPDEST SWAP1 JUMP JUMPDEST DUP3 PUSH20 0xFFFFFFFFFFFFFFFFFFFFFFFFFFFFFFFFFFFFFFFF AND PUSH4 0xA9059CBB DUP4 DUP4 PUSH1 0x40 MLOAD DUP4 PUSH4 0xFFFFFFFF AND PUSH1 0xE0 SHL DUP2 MSTORE PUSH1 0x4 ADD PUSH2 0x1B05 SWAP3 SWAP2 SWAP1 PUSH2 0x2EEB JUMP JUMPDEST PUSH1 0x20 PUSH1 0x40 MLOAD DUP1 DUP4 SUB DUP2 PUSH0 DUP8 GAS CALL ISZERO DUP1 ISZERO PUSH2 0x1B21 JUMPI RETURNDATASIZE PUSH0 DUP1 RETURNDATACOPY RETURNDATASIZE PUSH0 REVERT JUMPDEST POP POP POP POP PUSH1 0x40 MLOAD RETURNDATASIZE PUSH1 0x1F NOT PUSH1 0x1F DUP3 ADD AND DUP3 ADD DUP1 PUSH1 0x40 MSTORE POP DUP2 ADD SWAP1 PUSH2 0x1B45 SWAP2 SWAP1 PUSH2 0x2D80 JUMP JUMPDEST PUSH2 0x1B84 JUMPI PUSH1 0x40 MLOAD PUSH32 0x8C379A000000000000000000000000000000000000000000000000000000000 DUP2 MSTORE PUSH1 0x4 ADD PUSH2 0x1B7B SWAP1 PUSH2 0x2F5C JUMP JUMPDEST PUSH1 0x40 MLOAD DUP1 SWAP2 SUB SWAP1 REVERT JUMPDEST POP POP POP JUMP JUMPDEST PUSH0 DUP1 PUSH32 0x0 PUSH20 0xFFFFFFFFFFFFFFFFFFFFFFFFFFFFFFFFFFFFFFFF AND PUSH4 0x93C52062 PUSH32 0x0 ADDRESS PUSH1 0x40 MLOAD DUP4 PUSH4 0xFFFFFFFF AND PUSH1 0xE0 SHL DUP2 MSTORE PUSH1 0x4 ADD PUSH2 0x1C06 SWAP3 SWAP2 SWAP1 PUSH2 0x2572 JUMP JUMPDEST PUSH1 0x60 PUSH1 0x40 MLOAD DUP1 DUP4 SUB DUP2 DUP7 GAS STATICCALL ISZERO DUP1 ISZERO PUSH2 0x1C21 JUMPI RETURNDATASIZE PUSH0 DUP1 RETURNDATACOPY RETURNDATASIZE PUSH0 REVERT JUMPDEST POP POP POP POP PUSH1 0x40 MLOAD RETURNDATASIZE PUSH1 0x1F NOT PUSH1 0x1F DUP3 ADD AND DUP3 ADD DUP1 PUSH1 0x40 MSTORE POP DUP2 ADD SWAP1 PUSH2 0x1C45 SWAP2 SWAP1 PUSH2 0x26CF JUMP JUMPDEST SWAP1 POP PUSH0 DUP2 PUSH1 0x40 ADD MLOAD PUSH16 0xFFFFFFFFFFFFFFFFFFFFFFFFFFFFFFFF AND SUB PUSH2 0x1C6D JUMPI PUSH0 SWAP2 POP POP PUSH2 0x1EF3 JUMP JUMPDEST PUSH0 PUSH32 0x0 PUSH20 0xFFFFFFFFFFFFFFFFFFFFFFFFFFFFFFFFFFFFFFFF AND PUSH4 0x5C60E39A PUSH32 0x0 PUSH1 0x40 MLOAD DUP3 PUSH4 0xFFFFFFFF AND PUSH1 0xE0 SHL DUP2 MSTORE PUSH1 0x4 ADD PUSH2 0x1CE7 SWAP2 SWAP1 PUSH2 0x2364 JUMP JUMPDEST PUSH1 0xC0 PUSH1 0x40 MLOAD DUP1 DUP4 SUB DUP2 DUP7 GAS STATICCALL ISZERO DUP1 ISZERO PUSH2 0x1D02 JUMPI RETURNDATASIZE PUSH0 DUP1 RETURNDATACOPY RETURNDATASIZE PUSH0 REVERT JUMPDEST POP POP POP POP PUSH1 0x40 MLOAD RETURNDATASIZE PUSH1 0x1F NOT PUSH1 0x1F DUP3 ADD AND DUP3 ADD DUP1 PUSH1 0x40 MSTORE POP DUP2 ADD SWAP1 PUSH2 0x1D26 SWAP2 SWAP1 PUSH2 0x2797 JUMP JUMPDEST SWAP1 POP PUSH0 PUSH2 0x1D68 DUP3 PUSH1 0x40 ADD MLOAD PUSH16 0xFFFFFFFFFFFFFFFFFFFFFFFFFFFFFFFF AND PUSH8 0xDE0B6B3A7640000 DUP5 PUSH1 0x60 ADD MLOAD PUSH16 0xFFFFFFFFFFFFFFFFFFFFFFFFFFFFFFFF AND PUSH2 0x13EA JUMP JUMPDEST SWAP1 POP PUSH0 PUSH2 0x1D94 DUP5 PUSH1 0x20 ADD MLOAD PUSH16 0xFFFFFFFFFFFFFFFFFFFFFFFFFFFFFFFF AND DUP4 PUSH8 0xDE0B6B3A7640000 PUSH2 0x1471 JUMP JUMPDEST SWAP1 POP PUSH0 DUP2 SUB PUSH2 0x1DBF JUMPI DUP4 PUSH1 0x40 ADD MLOAD PUSH16 0xFFFFFFFFFFFFFFFFFFFFFFFFFFFFFFFF AND SWAP5 POP POP POP POP POP PUSH2 0x1EF3 JUMP JUMPDEST PUSH0 DUP1 PUSH1 0x2 ADD PUSH0 SWAP1 SLOAD SWAP1 PUSH2 0x100 EXP SWAP1 DIV PUSH20 0xFFFFFFFFFFFFFFFFFFFFFFFFFFFFFFFFFFFFFFFF AND PUSH20 0xFFFFFFFFFFFFFFFFFFFFFFFFFFFFFFFFFFFFFFFF AND PUSH4 0xA035B1FE PUSH1 0x40 MLOAD DUP2 PUSH4 0xFFFFFFFF AND PUSH1 0xE0 SHL DUP2 MSTORE PUSH1 0x4 ADD PUSH1 0x20 PUSH1 0x40 MLOAD DUP1 DUP4 SUB DUP2 DUP7 GAS STATICCALL ISZERO DUP1 ISZERO PUSH2 0x1E2C JUMPI RETURNDATASIZE PUSH0 DUP1 RETURNDATACOPY RETURNDATASIZE PUSH0 REVERT JUMPDEST POP POP POP POP PUSH1 0x40 MLOAD RETURNDATASIZE PUSH1 0x1F NOT PUSH1 0x1F DUP3 ADD AND DUP3 ADD DUP1 PUSH1 0x40 MSTORE POP DUP2 ADD SWAP1 PUSH2 0x1E50 SWAP2 SWAP1 PUSH2 0x27C2 JUMP JUMPDEST SWAP1 POP PUSH0 PUSH8 0xBCBCE7F1B150000 SWAP1 POP PUSH0 PUSH2 0x1E72 DUP5 PUSH8 0xDE0B6B3A7640000 DUP5 PUSH2 0x13EA JUMP JUMPDEST SWAP1 POP PUSH0 PUSH2 0x1EA5 DUP9 PUSH1 0x40 ADD MLOAD PUSH16 0xFFFFFFFFFFFFFFFFFFFFFFFFFFFFFFFF AND DUP6 PUSH15 0xC097CE7BC90715B34B9F1000000000 PUSH2 0x13EA JUMP JUMPDEST SWAP1 POP DUP2 DUP2 GT PUSH2 0x1EBE JUMPI PUSH0 SWAP9 POP POP POP POP POP POP POP POP POP PUSH2 0x1EF3 JUMP JUMPDEST PUSH0 DUP3 DUP3 PUSH2 0x1ECB SWAP2 SWAP1 PUSH2 0x281A JUMP JUMPDEST SWAP1 POP PUSH2 0x1EE7 DUP2 PUSH15 0xC097CE7BC90715B34B9F1000000000 DUP8 PUSH2 0x13EA JUMP JUMPDEST SWAP10 POP POP POP POP POP POP POP POP POP POP JUMPDEST SWAP1 JUMP JUMPDEST PUSH0 DUP1 PUSH0 PUSH1 0x2 ADD PUSH0 SWAP1 SLOAD SWAP1 PUSH2 0x100 EXP SWAP1 DIV PUSH20 0xFFFFFFFFFFFFFFFFFFFFFFFFFFFFFFFFFFFFFFFF AND PUSH20 0xFFFFFFFFFFFFFFFFFFFFFFFFFFFFFFFFFFFFFFFF AND PUSH4 0xA035B1FE PUSH1 0x40 MLOAD DUP2 PUSH4 0xFFFFFFFF AND PUSH1 0xE0 SHL DUP2 MSTORE PUSH1 0x4 ADD PUSH1 0x20 PUSH1 0x40 MLOAD DUP1 DUP4 SUB DUP2 DUP7 GAS STATICCALL ISZERO DUP1 ISZERO PUSH2 0x1F64 JUMPI RETURNDATASIZE PUSH0 DUP1 RETURNDATACOPY RETURNDATASIZE PUSH0 REVERT JUMPDEST POP POP POP POP PUSH1 0x40 MLOAD RETURNDATASIZE PUSH1 0x1F NOT PUSH1 0x1F DUP3 ADD AND DUP3 ADD DUP1 PUSH1 0x40 MSTORE POP DUP2 ADD SWAP1 PUSH2 0x1F88 SWAP2 SWAP1 PUSH2 0x27C2 JUMP JUMPDEST SWAP1 POP PUSH0 PUSH2 0x1FA5 DUP5 DUP4 PUSH15 0xC097CE7BC90715B34B9F1000000000 PUSH2 0x13EA JUMP JUMPDEST SWAP1 POP PUSH0 PUSH2 0x1FD5 DUP3 PUSH7 0x11C37937E08000 PUSH8 0xDE0B6B3A7640000 PUSH2 0x1FC7 SWAP2 SWAP1 PUSH2 0x281A JUMP JUMPDEST PUSH8 0xDE0B6B3A7640000 PUSH2 0x13EA JUMP JUMPDEST SWAP1 POP PUSH0 PUSH1 0x40 MLOAD DUP1 PUSH2 0x100 ADD PUSH1 0x40 MSTORE DUP1 PUSH32 0x0 PUSH20 0xFFFFFFFFFFFFFFFFFFFFFFFFFFFFFFFFFFFFFFFF AND DUP2 MSTORE PUSH1 0x20 ADD PUSH32 0x0 PUSH20 0xFFFFFFFFFFFFFFFFFFFFFFFFFFFFFFFFFFFFFFFF AND DUP2 MSTORE PUSH1 0x20 ADD PUSH1 0xA PUSH1 0x2 SIGNEXTEND DUP2 MSTORE PUSH1 0x20 ADD ADDRESS PUSH20 0xFFFFFFFFFFFFFFFFFFFFFFFFFFFFFFFFFFFFFFFF AND DUP2 MSTORE PUSH1 0x20 ADD TIMESTAMP DUP2 MSTORE PUSH1 0x20 ADD DUP8 DUP2 MSTORE PUSH1 0x20 ADD DUP4 DUP2 MSTORE PUSH1 0x20 ADD PUSH0 PUSH20 0xFFFFFFFFFFFFFFFFFFFFFFFFFFFFFFFFFFFFFFFF AND DUP2 MSTORE POP SWAP1 POP PUSH32 0x0 PUSH20 0xFFFFFFFFFFFFFFFFFFFFFFFFFFFFFFFFFFFFFFFF AND PUSH4 0xA026383E DUP3 PUSH1 0x40 MLOAD DUP3 PUSH4 0xFFFFFFFF AND PUSH1 0xE0 SHL DUP2 MSTORE PUSH1 0x4 ADD PUSH2 0x2109 SWAP2 SWAP1 PUSH2 0x2ED1 JUMP JUMPDEST PUSH1 0x20 PUSH1 0x40 MLOAD DUP1 DUP4 SUB DUP2 PUSH0 DUP8 GAS CALL ISZERO DUP1 ISZERO PUSH2 0x2125 JUMPI RETURNDATASIZE PUSH0 DUP1 RETURNDATACOPY RETURNDATASIZE PUSH0 REVERT JUMPDEST POP POP POP POP PUSH1 0x40 MLOAD RETURNDATASIZE PUSH1 0x1F NOT PUSH1 0x1F DUP3 ADD AND DUP3 ADD DUP1 PUSH1 0x40 MSTORE POP DUP2 ADD SWAP1 PUSH2 0x2149 SWAP2 SWAP1 PUSH2 0x27C2 JUMP JUMPDEST SWAP5 POP POP POP POP POP SWAP2 SWAP1 POP JUMP JUMPDEST PUSH0 DUP2 DUP4 LT PUSH2 0x2162 JUMPI DUP2 PUSH2 0x2164 JUMP JUMPDEST DUP3 JUMPDEST SWAP1 POP SWAP3 SWAP2 POP POP JUMP JUMPDEST PUSH0 DUP2 SWAP1 POP SWAP2 SWAP1 POP JUMP JUMPDEST PUSH2 0x217E DUP2 PUSH2 0x216C JUMP JUMPDEST DUP3 MSTORE POP POP JUMP JUMPDEST PUSH0 PUSH1 0x20 DUP3 ADD SWAP1 POP PUSH2 0x2197 PUSH0 DUP4 ADD DUP5 PUSH2 0x2175 JUMP JUMPDEST SWAP3 SWAP2 POP POP JUMP JUMPDEST PUSH0 DUP2 MLOAD SWAP1 POP SWAP2 SWAP1 POP JUMP JUMPDEST PUSH0 DUP3 DUP3 MSTORE PUSH1 0x20 DUP3 ADD SWAP1 POP SWAP3 SWAP2 POP POP JUMP JUMPDEST PUSH0 JUMPDEST DUP4 DUP2 LT ISZERO PUSH2 0x21D4 JUMPI DUP1 DUP3 ADD MLOAD DUP2 DUP5 ADD MSTORE PUSH1 0x20 DUP2 ADD SWAP1 POP PUSH2 0x21B9 JUMP JUMPDEST PUSH0 DUP5 DUP5 ADD MSTORE POP POP POP POP JUMP JUMPDEST PUSH0 PUSH1 0x1F NOT PUSH1 0x1F DUP4 ADD AND SWAP1 POP SWAP2 SWAP1 POP JUMP JUMPDEST PUSH0 PUSH2 0x21F9 DUP3 PUSH2 0x219D JUMP JUMPDEST PUSH2 0x2203 DUP2 DUP6 PUSH2 0x21A7 JUMP JUMPDEST SWAP4 POP PUSH2 0x2213 DUP2 DUP6 PUSH1 0x20 DUP7 ADD PUSH2 0x21B7 JUMP JUMPDEST PUSH2 0x221C DUP2 PUSH2 0x21DF JUMP JUMPDEST DUP5 ADD SWAP2 POP POP SWAP3 SWAP2 POP POP JUMP JUMPDEST PUSH0 PUSH1 0x20 DUP3 ADD SWAP1 POP DUP2 DUP2 SUB PUSH0 DUP4 ADD MSTORE PUSH2 0x223F DUP2 DUP5 PUSH2 0x21EF JUMP JUMPDEST SWAP1 POP SWAP3 SWAP2 POP POP JUMP JUMPDEST PUSH0 PUSH20 0xFFFFFFFFFFFFFFFFFFFFFFFFFFFFFFFFFFFFFFFF DUP3 AND SWAP1 POP SWAP2 SWAP1 POP JUMP JUMPDEST PUSH0 DUP2 SWAP1 POP SWAP2 SWAP1 POP JUMP JUMPDEST PUSH0 PUSH2 0x2289 PUSH2 0x2284 PUSH2 0x227F DUP5 PUSH2 0x2247 JUMP JUMPDEST PUSH2 0x2266 JUMP JUMPDEST PUSH2 0x2247 JUMP JUMPDEST SWAP1 POP SWAP2 SWAP1 POP JUMP JUMPDEST PUSH0 PUSH2 0x229A DUP3 PUSH2 0x226F JUMP JUMPDEST SWAP1 POP SWAP2 SWAP1 POP JUMP JUMPDEST PUSH0 PUSH2 0x22AB DUP3 PUSH2 0x2290 JUMP JUMPDEST SWAP1 POP SWAP2 SWAP1 POP JUMP JUMPDEST PUSH2 0x22BB DUP2 PUSH2 0x22A1 JUMP JUMPDEST DUP3 MSTORE POP POP JUMP JUMPDEST PUSH0 PUSH1 0x20 DUP3 ADD SWAP1 POP PUSH2 0x22D4 PUSH0 DUP4 ADD DUP5 PUSH2 0x22B2 JUMP JUMPDEST SWAP3 SWAP2 POP POP JUMP JUMPDEST PUSH0 PUSH2 0x22E4 DUP3 PUSH2 0x2247 JUMP JUMPDEST SWAP1 POP SWAP2 SWAP1 POP JUMP JUMPDEST PUSH2 0x22F4 DUP2 PUSH2 0x22DA JUMP JUMPDEST DUP3 MSTORE POP POP JUMP JUMPDEST PUSH0 PUSH1 0x20 DUP3 ADD SWAP1 POP PUSH2 0x230D PUSH0 DUP4 ADD DUP5 PUSH2 0x22EB JUMP JUMPDEST SWAP3 SWAP2 POP POP JUMP JUMPDEST PUSH0 PUSH2 0x231D DUP3 PUSH2 0x2290 JUMP JUMPDEST SWAP1 POP SWAP2 SWAP1 POP JUMP JUMPDEST PUSH2 0x232D DUP2 PUSH2 0x2313 JUMP JUMPDEST DUP3 MSTORE POP POP JUMP JUMPDEST PUSH0 PUSH1 0x20 DUP3 ADD SWAP1 POP PUSH2 0x2346 PUSH0 DUP4 ADD DUP5 PUSH2 0x2324 JUMP JUMPDEST SWAP3 SWAP2 POP POP JUMP JUMPDEST PUSH0 DUP2 SWAP1 POP SWAP2 SWAP1 POP JUMP JUMPDEST PUSH2 0x235E DUP2 PUSH2 0x234C JUMP JUMPDEST DUP3 MSTORE POP POP JUMP JUMPDEST PUSH0 PUSH1 0x20 DUP3 ADD SWAP1 POP PUSH2 0x2377 PUSH0 DUP4 ADD DUP5 PUSH2 0x2355 JUMP JUMPDEST SWAP3 SWAP2 POP POP JUMP JUMPDEST PUSH0 DUP2 PUSH1 0x2 SIGNEXTEND SWAP1 POP SWAP2 SWAP1 POP JUMP JUMPDEST PUSH2 0x2392 DUP2 PUSH2 0x237D JUMP JUMPDEST DUP3 MSTORE POP POP JUMP JUMPDEST PUSH0 PUSH1 0x20 DUP3 ADD SWAP1 POP PUSH2 0x23AB PUSH0 DUP4 ADD DUP5 PUSH2 0x2389 JUMP JUMPDEST SWAP3 SWAP2 POP POP JUMP JUMPDEST PUSH0 PUSH1 0x40 MLOAD SWAP1 POP SWAP1 JUMP JUMPDEST PUSH0 DUP1 REVERT JUMPDEST PUSH0 DUP1 REVERT JUMPDEST PUSH2 0x23CB DUP2 PUSH2 0x216C JUMP JUMPDEST DUP2 EQ PUSH2 0x23D5 JUMPI PUSH0 DUP1 REVERT JUMPDEST POP JUMP JUMPDEST PUSH0 DUP2 CALLDATALOAD SWAP1 POP PUSH2 0x23E6 DUP2 PUSH2 0x23C2 JUMP JUMPDEST SWAP3 SWAP2 POP POP JUMP JUMPDEST PUSH2 0x23F5 DUP2 PUSH2 0x22DA JUMP JUMPDEST DUP2 EQ PUSH2 0x23FF JUMPI PUSH0 DUP1 REVERT JUMPDEST POP JUMP JUMPDEST PUSH0 DUP2 CALLDATALOAD SWAP1 POP PUSH2 0x2410 DUP2 PUSH2 0x23EC JUMP JUMPDEST SWAP3 SWAP2 POP POP JUMP JUMPDEST PUSH0 DUP1 REVERT JUMPDEST PUSH0 DUP1 REVERT JUMPDEST PUSH0 DUP1 REVERT JUMPDEST PUSH0 DUP1 DUP4 PUSH1 0x1F DUP5 ADD SLT PUSH2 0x2437 JUMPI PUSH2 0x2436 PUSH2 0x2416 JUMP JUMPDEST JUMPDEST DUP3 CALLDATALOAD SWAP1 POP PUSH8 0xFFFFFFFFFFFFFFFF DUP2 GT ISZERO PUSH2 0x2454 JUMPI PUSH2 0x2453 PUSH2 0x241A JUMP JUMPDEST JUMPDEST PUSH1 0x20 DUP4 ADD SWAP2 POP DUP4 PUSH1 0x1 DUP3 MUL DUP4 ADD GT ISZERO PUSH2 0x2470 JUMPI PUSH2 0x246F PUSH2 0x241E JUMP JUMPDEST JUMPDEST SWAP3 POP SWAP3 SWAP1 POP JUMP JUMPDEST PUSH0 DUP1 PUSH0 DUP1 PUSH1 0x60 DUP6 DUP8 SUB SLT ISZERO PUSH2 0x248F JUMPI PUSH2 0x248E PUSH2 0x23BA JUMP JUMPDEST JUMPDEST PUSH0 PUSH2 0x249C DUP8 DUP3 DUP9 ADD PUSH2 0x23D8 JUMP JUMPDEST SWAP5 POP POP PUSH1 0x20 PUSH2 0x24AD DUP8 DUP3 DUP9 ADD PUSH2 0x2402 JUMP JUMPDEST SWAP4 POP POP PUSH1 0x40 DUP6 ADD CALLDATALOAD PUSH8 0xFFFFFFFFFFFFFFFF DUP2 GT ISZERO PUSH2 0x24CE JUMPI PUSH2 0x24CD PUSH2 0x23BE JUMP JUMPDEST JUMPDEST PUSH2 0x24DA DUP8 DUP3 DUP9 ADD PUSH2 0x2422 JUMP JUMPDEST SWAP3 POP SWAP3 POP POP SWAP3 SWAP6 SWAP2 SWAP5 POP SWAP3 POP JUMP JUMPDEST PUSH0 PUSH1 0xA0 DUP3 ADD SWAP1 POP PUSH2 0x24FB PUSH0 DUP4 ADD DUP9 PUSH2 0x22EB JUMP JUMPDEST PUSH2 0x2508 PUSH1 0x20 DUP4 ADD DUP8 PUSH2 0x22EB JUMP JUMPDEST PUSH2 0x2515 PUSH1 0x40 DUP4 ADD DUP7 PUSH2 0x22EB JUMP JUMPDEST PUSH2 0x2522 PUSH1 0x60 DUP4 ADD DUP6 PUSH2 0x22EB JUMP JUMPDEST PUSH2 0x252F PUSH1 0x80 DUP4 ADD DUP5 PUSH2 0x2175 JUMP JUMPDEST SWAP7 SWAP6 POP POP POP POP POP POP JUMP JUMPDEST PUSH0 PUSH2 0x2543 DUP3 PUSH2 0x2290 JUMP JUMPDEST SWAP1 POP SWAP2 SWAP1 POP JUMP JUMPDEST PUSH2 0x2553 DUP2 PUSH2 0x2539 JUMP JUMPDEST DUP3 MSTORE POP POP JUMP JUMPDEST PUSH0 PUSH1 0x20 DUP3 ADD SWAP1 POP PUSH2 0x256C PUSH0 DUP4 ADD DUP5 PUSH2 0x254A JUMP JUMPDEST SWAP3 SWAP2 POP POP JUMP JUMPDEST PUSH0 PUSH1 0x40 DUP3 ADD SWAP1 POP PUSH2 0x2585 PUSH0 DUP4 ADD DUP6 PUSH2 0x2355 JUMP JUMPDEST PUSH2 0x2592 PUSH1 0x20 DUP4 ADD DUP5 PUSH2 0x22EB JUMP JUMPDEST SWAP4 SWAP3 POP POP POP JUMP JUMPDEST PUSH0 DUP1 REVERT JUMPDEST PUSH32 0x4E487B7100000000000000000000000000000000000000000000000000000000 PUSH0 MSTORE PUSH1 0x41 PUSH1 0x4 MSTORE PUSH1 0x24 PUSH0 REVERT JUMPDEST PUSH2 0x25D3 DUP3 PUSH2 0x21DF JUMP JUMPDEST DUP2 ADD DUP2 DUP2 LT PUSH8 0xFFFFFFFFFFFFFFFF DUP3 GT OR ISZERO PUSH2 0x25F2 JUMPI PUSH2 0x25F1 PUSH2 0x259D JUMP JUMPDEST JUMPDEST DUP1 PUSH1 0x40 MSTORE POP POP POP JUMP JUMPDEST PUSH0 PUSH2 0x2604 PUSH2 0x23B1 JUMP JUMPDEST SWAP1 POP PUSH2 0x2610 DUP3 DUP3 PUSH2 0x25CA JUMP JUMPDEST SWAP2 SWAP1 POP JUMP JUMPDEST PUSH0 DUP2 MLOAD SWAP1 POP PUSH2 0x2623 DUP2 PUSH2 0x23C2 JUMP JUMPDEST SWAP3 SWAP2 POP POP JUMP JUMPDEST PUSH0 PUSH16 0xFFFFFFFFFFFFFFFFFFFFFFFFFFFFFFFF DUP3 AND SWAP1 POP SWAP2 SWAP1 POP JUMP JUMPDEST PUSH2 0x264D DUP2 PUSH2 0x2629 JUMP JUMPDEST DUP2 EQ PUSH2 0x2657 JUMPI PUSH0 DUP1 REVERT JUMPDEST POP JUMP JUMPDEST PUSH0 DUP2 MLOAD SWAP1 POP PUSH2 0x2668 DUP2 PUSH2 0x2644 JUMP JUMPDEST SWAP3 SWAP2 POP POP JUMP JUMPDEST PUSH0 PUSH1 0x60 DUP3 DUP5 SUB SLT ISZERO PUSH2 0x2683 JUMPI PUSH2 0x2682 PUSH2 0x2599 JUMP JUMPDEST JUMPDEST PUSH2 0x268D PUSH1 0x60 PUSH2 0x25FB JUMP JUMPDEST SWAP1 POP PUSH0 PUSH2 0x269C DUP5 DUP3 DUP6 ADD PUSH2 0x2615 JUMP JUMPDEST PUSH0 DUP4 ADD MSTORE POP PUSH1 0x20 PUSH2 0x26AF DUP5 DUP3 DUP6 ADD PUSH2 0x265A JUMP JUMPDEST PUSH1 0x20 DUP4 ADD MSTORE POP PUSH1 0x40 PUSH2 0x26C3 DUP5 DUP3 DUP6 ADD PUSH2 0x265A JUMP JUMPDEST PUSH1 0x40 DUP4 ADD MSTORE POP SWAP3 SWAP2 POP POP JUMP JUMPDEST PUSH0 PUSH1 0x60 DUP3 DUP5 SUB SLT ISZERO PUSH2 0x26E4 JUMPI PUSH2 0x26E3 PUSH2 0x23BA JUMP JUMPDEST JUMPDEST PUSH0 PUSH2 0x26F1 DUP5 DUP3 DUP6 ADD PUSH2 0x266E JUMP JUMPDEST SWAP2 POP POP SWAP3 SWAP2 POP POP JUMP JUMPDEST PUSH0 PUSH1 0xC0 DUP3 DUP5 SUB SLT ISZERO PUSH2 0x270F JUMPI PUSH2 0x270E PUSH2 0x2599 JUMP JUMPDEST JUMPDEST PUSH2 0x2719 PUSH1 0xC0 PUSH2 0x25FB JUMP JUMPDEST SWAP1 POP PUSH0 PUSH2 0x2728 DUP5 DUP3 DUP6 ADD PUSH2 0x265A JUMP JUMPDEST PUSH0 DUP4 ADD MSTORE POP PUSH1 0x20 PUSH2 0x273B DUP5 DUP3 DUP6 ADD PUSH2 0x265A JUMP JUMPDEST PUSH1 0x20 DUP4 ADD MSTORE POP PUSH1 0x40 PUSH2 0x274F DUP5 DUP3 DUP6 ADD PUSH2 0x265A JUMP JUMPDEST PUSH1 0x40 DUP4 ADD MSTORE POP PUSH1 0x60 PUSH2 0x2763 DUP5 DUP3 DUP6 ADD PUSH2 0x265A JUMP JUMPDEST PUSH1 0x60 DUP4 ADD MSTORE POP PUSH1 0x80 PUSH2 0x2777 DUP5 DUP3 DUP6 ADD PUSH2 0x265A JUMP JUMPDEST PUSH1 0x80 DUP4 ADD MSTORE POP PUSH1 0xA0 PUSH2 0x278B DUP5 DUP3 DUP6 ADD PUSH2 0x265A JUMP JUMPDEST PUSH1 0xA0 DUP4 ADD MSTORE POP SWAP3 SWAP2 POP POP JUMP JUMPDEST PUSH0 PUSH1 0xC0 DUP3 DUP5 SUB SLT ISZERO PUSH2 0x27AC JUMPI PUSH2 0x27AB PUSH2 0x23BA JUMP JUMPDEST JUMPDEST PUSH0 PUSH2 0x27B9 DUP5 DUP3 DUP6 ADD PUSH2 0x26FA JUMP JUMPDEST SWAP2 POP POP SWAP3 SWAP2 POP POP JUMP JUMPDEST PUSH0 PUSH1 0x20 DUP3 DUP5 SUB SLT ISZERO PUSH2 0x27D7 JUMPI PUSH2 0x27D6 PUSH2 0x23BA JUMP JUMPDEST JUMPDEST PUSH0 PUSH2 0x27E4 DUP5 DUP3 DUP6 ADD PUSH2 0x2615 JUMP JUMPDEST SWAP2 POP POP SWAP3 SWAP2 POP POP JUMP JUMPDEST PUSH32 0x4E487B7100000000000000000000000000000000000000000000000000000000 PUSH0 MSTORE PUSH1 0x11 PUSH1 0x4 MSTORE PUSH1 0x24 PUSH0 REVERT JUMPDEST PUSH0 PUSH2 0x2824 DUP3 PUSH2 0x216C JUMP JUMPDEST SWAP2 POP PUSH2 0x282F DUP4 PUSH2 0x216C JUMP JUMPDEST SWAP3 POP DUP3 DUP3 SUB SWAP1 POP DUP2 DUP2 GT ISZERO PUSH2 0x2847 JUMPI PUSH2 0x2846 PUSH2 0x27ED JUMP JUMPDEST JUMPDEST SWAP3 SWAP2 POP POP JUMP JUMPDEST PUSH32 0x42617374696F6E3A204F6E6C79205661756C7400000000000000000000000000 PUSH0 DUP3 ADD MSTORE POP JUMP JUMPDEST PUSH0 PUSH2 0x2881 PUSH1 0x13 DUP4 PUSH2 0x21A7 JUMP JUMPDEST SWAP2 POP PUSH2 0x288C DUP3 PUSH2 0x284D JUMP JUMPDEST PUSH1 0x20 DUP3 ADD SWAP1 POP SWAP2 SWAP1 POP JUMP JUMPDEST PUSH0 PUSH1 0x20 DUP3 ADD SWAP1 POP DUP2 DUP2 SUB PUSH0 DUP4 ADD MSTORE PUSH2 0x28AE DUP2 PUSH2 0x2875 JUMP JUMPDEST SWAP1 POP SWAP2 SWAP1 POP JUMP JUMPDEST PUSH0 DUP2 PUSH0 SHR SWAP1 POP SWAP2 SWAP1 POP JUMP JUMPDEST PUSH0 PUSH20 0xFFFFFFFFFFFFFFFFFFFFFFFFFFFFFFFFFFFFFFFF DUP3 AND SWAP1 POP SWAP2 SWAP1 POP JUMP JUMPDEST PUSH0 PUSH2 0x28F1 PUSH2 0x28EC DUP4 PUSH2 0x28B5 JUMP JUMPDEST PUSH2 0x28C0 JUMP JUMPDEST SWAP1 POP SWAP2 SWAP1 POP JUMP JUMPDEST PUSH2 0x2901 DUP2 PUSH2 0x22DA JUMP JUMPDEST DUP3 MSTORE POP POP JUMP JUMPDEST PUSH0 DUP2 SWAP1 POP SWAP2 SWAP1 POP JUMP JUMPDEST PUSH0 PUSH2 0x2922 PUSH2 0x291D DUP4 PUSH2 0x28B5 JUMP JUMPDEST PUSH2 0x2907 JUMP JUMPDEST SWAP1 POP SWAP2 SWAP1 POP JUMP JUMPDEST PUSH2 0x2932 DUP2 PUSH2 0x216C JUMP JUMPDEST DUP3 MSTORE POP POP JUMP JUMPDEST PUSH1 0xA0 DUP3 ADD PUSH0 DUP1 DUP4 ADD SLOAD SWAP1 POP PUSH2 0x294C DUP2 PUSH2 0x28DF JUMP JUMPDEST PUSH2 0x2958 PUSH0 DUP7 ADD DUP3 PUSH2 0x28F8 JUMP JUMPDEST POP PUSH1 0x1 DUP4 ADD SLOAD SWAP1 POP PUSH2 0x2969 DUP2 PUSH2 0x28DF JUMP JUMPDEST PUSH2 0x2976 PUSH1 0x20 DUP7 ADD DUP3 PUSH2 0x28F8 JUMP JUMPDEST POP PUSH1 0x2 DUP4 ADD SLOAD SWAP1 POP PUSH2 0x2987 DUP2 PUSH2 0x28DF JUMP JUMPDEST PUSH2 0x2994 PUSH1 0x40 DUP7 ADD DUP3 PUSH2 0x28F8 JUMP JUMPDEST POP PUSH1 0x3 DUP4 ADD SLOAD SWAP1 POP PUSH2 0x29A5 DUP2 PUSH2 0x28DF JUMP JUMPDEST PUSH2 0x29B2 PUSH1 0x60 DUP7 ADD DUP3 PUSH2 0x28F8 JUMP JUMPDEST POP PUSH1 0x4 DUP4 ADD SLOAD SWAP1 POP PUSH2 0x29C3 DUP2 PUSH2 0x2910 JUMP JUMPDEST PUSH2 0x29D0 PUSH1 0x80 DUP7 ADD DUP3 PUSH2 0x2929 JUMP JUMPDEST POP POP POP POP POP JUMP JUMPDEST PUSH0 PUSH1 0xA0 DUP3 ADD SWAP1 POP PUSH2 0x29EA PUSH0 DUP4 ADD DUP5 PUSH2 0x2938 JUMP JUMPDEST SWAP3 SWAP2 POP POP JUMP JUMPDEST PUSH0 PUSH2 0x29FA DUP3 PUSH2 0x216C JUMP JUMPDEST SWAP2 POP PUSH2 0x2A05 DUP4 PUSH2 0x216C JUMP JUMPDEST SWAP3 POP DUP3 DUP3 ADD SWAP1 POP DUP1 DUP3 GT ISZERO PUSH2 0x2A1D JUMPI PUSH2 0x2A1C PUSH2 0x27ED JUMP JUMPDEST JUMPDEST SWAP3 SWAP2 POP POP JUMP JUMPDEST PUSH0 DUP3 DUP3 MSTORE PUSH1 0x20 DUP3 ADD SWAP1 POP SWAP3 SWAP2 POP POP JUMP JUMPDEST POP JUMP JUMPDEST PUSH0 PUSH2 0x2A41 PUSH0 DUP4 PUSH2 0x2A23 JUMP JUMPDEST SWAP2 POP PUSH2 0x2A4C DUP3 PUSH2 0x2A33 JUMP JUMPDEST PUSH0 DUP3 ADD SWAP1 POP SWAP2 SWAP1 POP JUMP JUMPDEST PUSH0 PUSH2 0x100 DUP3 ADD SWAP1 POP PUSH2 0x2A6A PUSH0 DUP4 ADD DUP7 PUSH2 0x2938 JUMP JUMPDEST PUSH2 0x2A77 PUSH1 0xA0 DUP4 ADD DUP6 PUSH2 0x2175 JUMP JUMPDEST PUSH2 0x2A84 PUSH1 0xC0 DUP4 ADD DUP5 PUSH2 0x22EB JUMP JUMPDEST DUP2 DUP2 SUB PUSH1 0xE0 DUP4 ADD MSTORE PUSH2 0x2A95 DUP2 PUSH2 0x2A36 JUMP JUMPDEST SWAP1 POP SWAP5 SWAP4 POP POP POP POP JUMP JUMPDEST PUSH0 DUP2 SWAP1 POP SWAP2 SWAP1 POP JUMP JUMPDEST PUSH0 PUSH2 0x2AC2 PUSH2 0x2ABD PUSH2 0x2AB8 DUP5 PUSH2 0x2A9F JUMP JUMPDEST PUSH2 0x2266 JUMP JUMPDEST PUSH2 0x216C JUMP JUMPDEST SWAP1 POP SWAP2 SWAP1 POP JUMP JUMPDEST PUSH2 0x2AD2 DUP2 PUSH2 0x2AA8 JUMP JUMPDEST DUP3 MSTORE POP POP JUMP JUMPDEST PUSH0 PUSH2 0x120 DUP3 ADD SWAP1 POP PUSH2 0x2AEC PUSH0 DUP4 ADD DUP9 PUSH2 0x2938 JUMP JUMPDEST PUSH2 0x2AF9 PUSH1 0xA0 DUP4 ADD DUP8 PUSH2 0x2175 JUMP JUMPDEST PUSH2 0x2B06 PUSH1 0xC0 DUP4 ADD DUP7 PUSH2 0x2AC9 JUMP JUMPDEST PUSH2 0x2B13 PUSH1 0xE0 DUP4 ADD DUP6 PUSH2 0x22EB JUMP JUMPDEST PUSH2 0x2B21 PUSH2 0x100 DUP4 ADD DUP5 PUSH2 0x22EB JUMP JUMPDEST SWAP7 SWAP6 POP POP POP POP POP POP JUMP JUMPDEST PUSH0 DUP1 PUSH1 0x40 DUP4 DUP6 SUB SLT ISZERO PUSH2 0x2B41 JUMPI PUSH2 0x2B40 PUSH2 0x23BA JUMP JUMPDEST JUMPDEST PUSH0 PUSH2 0x2B4E DUP6 DUP3 DUP7 ADD PUSH2 0x2615 JUMP JUMPDEST SWAP3 POP POP PUSH1 0x20 PUSH2 0x2B5F DUP6 DUP3 DUP7 ADD PUSH2 0x2615 JUMP JUMPDEST SWAP2 POP POP SWAP3 POP SWAP3 SWAP1 POP JUMP JUMPDEST PUSH0 PUSH2 0x2B73 DUP3 PUSH2 0x216C JUMP JUMPDEST SWAP2 POP PUSH32 0xFFFFFFFFFFFFFFFFFFFFFFFFFFFFFFFFFFFFFFFFFFFFFFFFFFFFFFFFFFFFFFFF DUP3 SUB PUSH2 0x2BA5 JUMPI PUSH2 0x2BA4 PUSH2 0x27ED JUMP JUMPDEST JUMPDEST PUSH1 0x1 DUP3 ADD SWAP1 POP SWAP2 SWAP1 POP JUMP JUMPDEST PUSH0 PUSH1 0x40 DUP3 ADD SWAP1 POP PUSH2 0x2BC3 PUSH0 DUP4 ADD DUP6 PUSH2 0x2175 JUMP JUMPDEST PUSH2 0x2BD0 PUSH1 0x20 DUP4 ADD DUP5 PUSH2 0x2175 JUMP JUMPDEST SWAP4 SWAP3 POP POP POP JUMP JUMPDEST PUSH32 0x62617374696F6E2E763300000000000000000000000000000000000000000000 PUSH0 DUP3 ADD MSTORE POP JUMP JUMPDEST PUSH0 PUSH2 0x2C0B PUSH1 0xA DUP4 PUSH2 0x21A7 JUMP JUMPDEST SWAP2 POP PUSH2 0x2C16 DUP3 PUSH2 0x2BD7 JUMP JUMPDEST PUSH1 0x20 DUP3 ADD SWAP1 POP SWAP2 SWAP1 POP JUMP JUMPDEST PUSH0 PUSH1 0x40 DUP3 ADD SWAP1 POP DUP2 DUP2 SUB PUSH0 DUP4 ADD MSTORE PUSH2 0x2C38 DUP2 PUSH2 0x2BFF JUMP JUMPDEST SWAP1 POP PUSH2 0x2C47 PUSH1 0x20 DUP4 ADD DUP5 PUSH2 0x22EB JUMP JUMPDEST SWAP3 SWAP2 POP POP JUMP JUMPDEST PUSH0 PUSH2 0x100 DUP3 ADD SWAP1 POP PUSH2 0x2C61 PUSH0 DUP4 ADD DUP8 PUSH2 0x2938 JUMP JUMPDEST PUSH2 0x2C6E PUSH1 0xA0 DUP4 ADD DUP7 PUSH2 0x2175 JUMP JUMPDEST PUSH2 0x2C7B PUSH1 0xC0 DUP4 ADD DUP6 PUSH2 0x22EB JUMP JUMPDEST PUSH2 0x2C88 PUSH1 0xE0 DUP4 ADD DUP5 PUSH2 0x22EB JUMP JUMPDEST SWAP6 SWAP5 POP POP POP POP POP JUMP JUMPDEST PUSH0 PUSH2 0x120 DUP3 ADD SWAP1 POP PUSH2 0x2CA5 PUSH0 DUP4 ADD DUP8 PUSH2 0x2938 JUMP JUMPDEST PUSH2 0x2CB2 PUSH1 0xA0 DUP4 ADD DUP7 PUSH2 0x2175 JUMP JUMPDEST PUSH2 0x2CBF PUSH1 0xC0 DUP4 ADD DUP6 PUSH2 0x2AC9 JUMP JUMPDEST PUSH2 0x2CCC PUSH1 0xE0 DUP4 ADD DUP5 PUSH2 0x22EB JUMP JUMPDEST DUP2 DUP2 SUB PUSH2 0x100 DUP4 ADD MSTORE PUSH2 0x2CDE DUP2 PUSH2 0x2A36 JUMP JUMPDEST SWAP1 POP SWAP6 SWAP5 POP POP POP POP POP JUMP JUMPDEST PUSH32 0x4E487B7100000000000000000000000000000000000000000000000000000000 PUSH0 MSTORE PUSH1 0x12 PUSH1 0x4 MSTORE PUSH1 0x24 PUSH0 REVERT JUMPDEST PUSH0 PUSH1 0x60 DUP3 ADD SWAP1 POP PUSH2 0x2D29 PUSH0 DUP4 ADD DUP7 PUSH2 0x22EB JUMP JUMPDEST PUSH2 0x2D36 PUSH1 0x20 DUP4 ADD DUP6 PUSH2 0x22EB JUMP JUMPDEST PUSH2 0x2D43 PUSH1 0x40 DUP4 ADD DUP5 PUSH2 0x2175 JUMP JUMPDEST SWAP5 SWAP4 POP POP POP POP JUMP JUMPDEST PUSH0 DUP2 ISZERO ISZERO SWAP1 POP SWAP2 SWAP1 POP JUMP JUMPDEST PUSH2 0x2D5F DUP2 PUSH2 0x2D4B JUMP JUMPDEST DUP2 EQ PUSH2 0x2D69 JUMPI PUSH0 DUP1 REVERT JUMPDEST POP JUMP JUMPDEST PUSH0 DUP2 MLOAD SWAP1 POP PUSH2 0x2D7A DUP2 PUSH2 0x2D56 JUMP JUMPDEST SWAP3 SWAP2 POP POP JUMP JUMPDEST PUSH0 PUSH1 0x20 DUP3 DUP5 SUB SLT ISZERO PUSH2 0x2D95 JUMPI PUSH2 0x2D94 PUSH2 0x23BA JUMP JUMPDEST JUMPDEST PUSH0 PUSH2 0x2DA2 DUP5 DUP3 DUP6 ADD PUSH2 0x2D6C JUMP JUMPDEST SWAP2 POP POP SWAP3 SWAP2 POP POP JUMP JUMPDEST PUSH32 0x5361666545524332303A207472616E7366657246726F6D206661696C65640000 PUSH0 DUP3 ADD MSTORE POP JUMP JUMPDEST PUSH0 PUSH2 0x2DDF PUSH1 0x1E DUP4 PUSH2 0x21A7 JUMP JUMPDEST SWAP2 POP PUSH2 0x2DEA DUP3 PUSH2 0x2DAB JUMP JUMPDEST PUSH1 0x20 DUP3 ADD SWAP1 POP SWAP2 SWAP1 POP JUMP JUMPDEST PUSH0 PUSH1 0x20 DUP3 ADD SWAP1 POP DUP2 DUP2 SUB PUSH0 DUP4 ADD MSTORE PUSH2 0x2E0C DUP2 PUSH2 0x2DD3 JUMP JUMPDEST SWAP1 POP SWAP2 SWAP1 POP JUMP JUMPDEST PUSH2 0x2E1C DUP2 PUSH2 0x237D JUMP JUMPDEST DUP3 MSTORE POP POP JUMP JUMPDEST PUSH2 0x2E2B DUP2 PUSH2 0x2247 JUMP JUMPDEST DUP3 MSTORE POP POP JUMP JUMPDEST PUSH2 0x100 DUP3 ADD PUSH0 DUP3 ADD MLOAD PUSH2 0x2E46 PUSH0 DUP6 ADD DUP3 PUSH2 0x28F8 JUMP JUMPDEST POP PUSH1 0x20 DUP3 ADD MLOAD PUSH2 0x2E59 PUSH1 0x20 DUP6 ADD DUP3 PUSH2 0x28F8 JUMP JUMPDEST POP PUSH1 0x40 DUP3 ADD MLOAD PUSH2 0x2E6C PUSH1 0x40 DUP6 ADD DUP3 PUSH2 0x2E13 JUMP JUMPDEST POP PUSH1 0x60 DUP3 ADD MLOAD PUSH2 0x2E7F PUSH1 0x60 DUP6 ADD DUP3 PUSH2 0x28F8 JUMP JUMPDEST POP PUSH1 0x80 DUP3 ADD MLOAD PUSH2 0x2E92 PUSH1 0x80 DUP6 ADD DUP3 PUSH2 0x2929 JUMP JUMPDEST POP PUSH1 0xA0 DUP3 ADD MLOAD PUSH2 0x2EA5 PUSH1 0xA0 DUP6 ADD DUP3 PUSH2 0x2929 JUMP JUMPDEST POP PUSH1 0xC0 DUP3 ADD MLOAD PUSH2 0x2EB8 PUSH1 0xC0 DUP6 ADD DUP3 PUSH2 0x2929 JUMP JUMPDEST POP PUSH1 0xE0 DUP3 ADD MLOAD PUSH2 0x2ECB PUSH1 0xE0 DUP6 ADD DUP3 PUSH2 0x2E22 JUMP JUMPDEST POP POP POP POP JUMP JUMPDEST PUSH0 PUSH2 0x100 DUP3 ADD SWAP1 POP PUSH2 0x2EE5 PUSH0 DUP4 ADD DUP5 PUSH2 0x2E31 JUMP JUMPDEST SWAP3 SWAP2 POP POP JUMP JUMPDEST PUSH0 PUSH1 0x40 DUP3 ADD SWAP1 POP PUSH2 0x2EFE PUSH0 DUP4 ADD DUP6 PUSH2 0x22EB JUMP JUMPDEST PUSH2 0x2F0B PUSH1 0x20 DUP4 ADD DUP5 PUSH2 0x2175 JUMP JUMPDEST SWAP4 SWAP3 POP POP POP JUMP JUMPDEST PUSH32 0x5361666545524332303A207472616E73666572206661696C6564000000000000 PUSH0 DUP3 ADD MSTORE POP JUMP JUMPDEST PUSH0 PUSH2 0x2F46 PUSH1 0x1A DUP4 PUSH2 0x21A7 JUMP JUMPDEST SWAP2 POP PUSH2 0x2F51 DUP3 PUSH2 0x2F12 JUMP JUMPDEST PUSH1 0x20 DUP3 ADD SWAP1 POP SWAP2 SWAP1 POP JUMP JUMPDEST PUSH0 PUSH1 0x20 DUP3 ADD SWAP1 POP DUP2 DUP2 SUB PUSH0 DUP4 ADD MSTORE PUSH2 0x2F73 DUP2 PUSH2 0x2F3A JUMP JUMPDEST SWAP1 POP SWAP2 SWAP1 POP JUMP INVALID LOG2 PUSH5 0x6970667358 0x22 SLT KECCAK256 LOG4 0xAA MOD RETURNDATACOPY 0xB2 BALANCE DUP6 SUB JUMPI 0xDF SWAP15 RETURN 0xA8 PUSH17 0x598C64136F0F9E29DAB700EF13D15314EE PUSH23 0x64736F6C63430008140033000000000000000000000000 "
				},
				"gasEstimates": {
					"creation": {
						"codeDepositCost": "2441600",
						"executionCost": "infinite",
						"totalCost": "infinite"
					},
					"external": {
						"CETES()": "infinite",
						"MARKET_ID()": "infinite",
						"MORPHO()": "infinite",
						"ROUTER()": "infinite",
						"TICK_SPACING()": "356",
						"USDC()": "infinite",
						"VAULT()": "infinite",
						"adapterId()": "914",
						"asset()": "403",
						"marketParams()": "infinite",
						"name()": "infinite",
						"supply(uint256,address,bytes)": "infinite",
						"totalAssets()": "infinite",
						"withdraw(uint256,address,bytes)": "infinite"
					},
					"internal": {
						"_calculateBorrowableAmount()": "infinite",
						"_calculateMaxSafeWithdraw()": "infinite",
						"_swapCetesToUsdc(uint256)": "infinite",
						"_swapUsdcToCetes(uint256)": "infinite"
					}
				},
				"methodIdentifiers": {
					"CETES()": "8e394f03",
					"MARKET_ID()": "454dab23",
					"MORPHO()": "3acb5624",
					"ROUTER()": "32fe7b26",
					"TICK_SPACING()": "46ca626b",
					"USDC()": "89a30271",
					"VAULT()": "411557d1",
					"adapterId()": "5fb86b01",
					"asset()": "38d52e0f",
					"marketParams()": "7b9e68f2",
					"name()": "06fdde03",
					"supply(uint256,address,bytes)": "5f04dfe2",
					"totalAssets()": "01e1d114",
					"withdraw(uint256,address,bytes)": "62b2b5f0"
				}
			},
			"storageLayout": {
				"storage": [
					{
						"astId": 417,
						"contract": "src/adapters/BastionLeverageAdapterV2.sol:BastionLeverageAdapterV2",
						"label": "marketParams",
						"offset": 0,
						"slot": "0",
						"type": "t_struct(MarketParams)236_storage"
					}
				],
				"types": {
					"t_address": {
						"encoding": "inplace",
						"label": "address",
						"numberOfBytes": "20"
					},
					"t_struct(MarketParams)236_storage": {
						"encoding": "inplace",
						"label": "struct IMorpho.MarketParams",
						"members": [
							{
								"astId": 227,
								"contract": "src/adapters/BastionLeverageAdapterV2.sol:BastionLeverageAdapterV2",
								"label": "loanToken",
								"offset": 0,
								"slot": "0",
								"type": "t_address"
							},
							{
								"astId": 229,
								"contract": "src/adapters/BastionLeverageAdapterV2.sol:BastionLeverageAdapterV2",
								"label": "collateralToken",
								"offset": 0,
								"slot": "1",
								"type": "t_address"
							},
							{
								"astId": 231,
								"contract": "src/adapters/BastionLeverageAdapterV2.sol:BastionLeverageAdapterV2",
								"label": "oracle",
								"offset": 0,
								"slot": "2",
								"type": "t_address"
							},
							{
								"astId": 233,
								"contract": "src/adapters/BastionLeverageAdapterV2.sol:BastionLeverageAdapterV2",
								"label": "irm",
								"offset": 0,
								"slot": "3",
								"type": "t_address"
							},
							{
								"astId": 235,
								"contract": "src/adapters/BastionLeverageAdapterV2.sol:BastionLeverageAdapterV2",
								"label": "lltv",
								"offset": 0,
								"slot": "4",
								"type": "t_uint256"
							}
						],
						"numberOfBytes": "160"
					},
					"t_uint256": {
						"encoding": "inplace",
						"label": "uint256",
						"numberOfBytes": "32"
					}
				}
			},
			"userdoc": {
				"kind": "user",
				"methods": {},
				"version": 1
			}
		}
	}
}